{
  "contractName": "KrakenPriceTicker",
  "abi": [
    {
      "constant": true,
      "inputs": [],
      "name": "priceETHUSD",
      "outputs": [
        {
          "name": "",
          "type": "string"
        }
      ],
      "payable": false,
      "stateMutability": "view",
      "type": "function",
      "signature": "0x58ed766d"
    },
    {
      "inputs": [],
      "payable": false,
      "stateMutability": "nonpayable",
      "type": "constructor",
      "signature": "constructor"
    },
    {
      "anonymous": false,
      "inputs": [
        {
          "indexed": false,
          "name": "description",
          "type": "string"
        }
      ],
      "name": "LogNewOraclizeQuery",
      "type": "event",
      "signature": "0x621c2856e3b87f81235f8ac8a22bbb40a0142961960710d00b2b6c380902b57e"
    },
    {
      "anonymous": false,
      "inputs": [
        {
          "indexed": false,
          "name": "price",
          "type": "string"
        }
      ],
      "name": "LogNewKrakenPriceTicker",
      "type": "event",
      "signature": "0xcdbb0c41a838cee62dad55a8a754f2791f0d200ecdb7ab812fede72a8c75d778"
    },
    {
      "constant": false,
      "inputs": [
        {
          "name": "_myid",
          "type": "bytes32"
        },
        {
          "name": "_result",
          "type": "string"
        }
      ],
      "name": "__callback",
      "outputs": [],
      "payable": false,
      "stateMutability": "nonpayable",
      "type": "function",
      "signature": "0x27dc297e"
    },
    {
      "constant": false,
      "inputs": [
        {
          "name": "",
          "type": "bytes32"
        },
        {
          "name": "result",
          "type": "string"
        },
        {
          "name": "",
          "type": "bytes"
        }
      ],
      "name": "__callback",
      "outputs": [],
      "payable": false,
      "stateMutability": "nonpayable",
      "type": "function",
      "signature": "0x38bbfa50"
    },
    {
      "constant": false,
      "inputs": [],
      "name": "update",
      "outputs": [],
      "payable": true,
      "stateMutability": "payable",
      "type": "function",
      "signature": "0xa2e62045"
    }
  ],
  "bytecode": "0x60806040523480156200001157600080fd5b506200007460017f01000000000000000000000000000000000000000000000000000000000000000260407f0100000000000000000000000000000000000000000000000000000000000000021762000093640100000000026401000000009004565b6200008d6200045e640100000000026401000000009004565b62001750565b600073ffffffffffffffffffffffffffffffffffffffff16600160009054906101000a900473ffffffffffffffffffffffffffffffffffffffff1673ffffffffffffffffffffffffffffffffffffffff1614806200012c575060006200012a600160009054906101000a900473ffffffffffffffffffffffffffffffffffffffff16620006ec640100000000026401000000009004565b145b156200014f576200014d6000620006f7640100000000026401000000009004565b505b600160009054906101000a900473ffffffffffffffffffffffffffffffffffffffff1673ffffffffffffffffffffffffffffffffffffffff166338cc48316040518163ffffffff167c0100000000000000000000000000000000000000000000000000000000028152600401602060405180830381600087803b158015620001d657600080fd5b505af1158015620001eb573d6000803e3d6000fd5b505050506040513d60208110156200020257600080fd5b810190808051906020019092919050505073ffffffffffffffffffffffffffffffffffffffff166000809054906101000a900473ffffffffffffffffffffffffffffffffffffffff1673ffffffffffffffffffffffffffffffffffffffff161415156200036d57600160009054906101000a900473ffffffffffffffffffffffffffffffffffffffff1673ffffffffffffffffffffffffffffffffffffffff166338cc48316040518163ffffffff167c0100000000000000000000000000000000000000000000000000000000028152600401602060405180830381600087803b158015620002f057600080fd5b505af115801562000305573d6000803e3d6000fd5b505050506040513d60208110156200031c57600080fd5b81019080805190602001909291905050506000806101000a81548173ffffffffffffffffffffffffffffffffffffffff021916908373ffffffffffffffffffffffffffffffffffffffff1602179055505b6000809054906101000a900473ffffffffffffffffffffffffffffffffffffffff1673ffffffffffffffffffffffffffffffffffffffff1663688dcfd7826040518263ffffffff167c010000000000000000000000000000000000000000000000000000000002815260040180827effffffffffffffffffffffffffffffffffffffffffffffffffffffffffffff19167effffffffffffffffffffffffffffffffffffffffffffffffffffffffffffff19168152602001915050600060405180830381600087803b1580156200044257600080fd5b505af115801562000457573d6000803e3d6000fd5b5050505050565b3073ffffffffffffffffffffffffffffffffffffffff1631620004c56040805190810160405280600381526020017f55524c000000000000000000000000000000000000000000000000000000000081525062000719640100000000026401000000009004565b111562000586577f621c2856e3b87f81235f8ac8a22bbb40a0142961960710d00b2b6c380902b57e60405180806020018281038252604c8152602001807f4f7261636c697a6520717565727920776173204e4f542073656e742c20706c6581526020017f6173652061646420736f6d652045544820746f20636f76657220666f7220746881526020017f652071756572792066656521000000000000000000000000000000000000000081525060600191505060405180910390a1620006ea565b7f621c2856e3b87f81235f8ac8a22bbb40a0142961960710d00b2b6c380902b57e6040518080602001828103825260368152602001807f4f7261636c697a65207175657279207761732073656e742c207374616e64696e81526020017f6720627920666f722074686520616e737765722e2e2e0000000000000000000081525060400191505060405180910390a1620006e8603c6040805190810160405280600381526020017f55524c0000000000000000000000000000000000000000000000000000000000815250608060405190810160405280604c81526020017f6a736f6e2868747470733a2f2f6170692e6b72616b656e2e636f6d2f302f707581526020017f626c69632f5469636b65723f706169723d455448555344292e726573756c742e81526020017f584554485a5553442e632e30000000000000000000000000000000000000000081525062000b31640100000000026401000000009004565b505b565b6000813b9050919050565b60006200071262001126640100000000026401000000009004565b9050919050565b60008073ffffffffffffffffffffffffffffffffffffffff16600160009054906101000a900473ffffffffffffffffffffffffffffffffffffffff1673ffffffffffffffffffffffffffffffffffffffff161480620007b357506000620007b1600160009054906101000a900473ffffffffffffffffffffffffffffffffffffffff16620006ec640100000000026401000000009004565b145b15620007d657620007d46000620006f7640100000000026401000000009004565b505b600160009054906101000a900473ffffffffffffffffffffffffffffffffffffffff1673ffffffffffffffffffffffffffffffffffffffff166338cc48316040518163ffffffff167c0100000000000000000000000000000000000000000000000000000000028152600401602060405180830381600087803b1580156200085d57600080fd5b505af115801562000872573d6000803e3d6000fd5b505050506040513d60208110156200088957600080fd5b810190808051906020019092919050505073ffffffffffffffffffffffffffffffffffffffff166000809054906101000a900473ffffffffffffffffffffffffffffffffffffffff1673ffffffffffffffffffffffffffffffffffffffff16141515620009f457600160009054906101000a900473ffffffffffffffffffffffffffffffffffffffff1673ffffffffffffffffffffffffffffffffffffffff166338cc48316040518163ffffffff167c0100000000000000000000000000000000000000000000000000000000028152600401602060405180830381600087803b1580156200097757600080fd5b505af11580156200098c573d6000803e3d6000fd5b505050506040513d6020811015620009a357600080fd5b81019080805190602001909291905050506000806101000a81548173ffffffffffffffffffffffffffffffffffffffff021916908373ffffffffffffffffffffffffffffffffffffffff1602179055505b6000809054906101000a900473ffffffffffffffffffffffffffffffffffffffff1673ffffffffffffffffffffffffffffffffffffffff1663524f3889836040518263ffffffff167c01000000000000000000000000000000000000000000000000000000000281526004018080602001828103825283818151815260200191508051906020019080838360005b8381101562000a9f57808201518184015260208101905062000a82565b50505050905090810190601f16801562000acd5780820380516001836020036101000a031916815260200191505b5092505050602060405180830381600087803b15801562000aed57600080fd5b505af115801562000b02573d6000803e3d6000fd5b505050506040513d602081101562000b1957600080fd5b81019080805190602001909291905050509050919050565b60008073ffffffffffffffffffffffffffffffffffffffff16600160009054906101000a900473ffffffffffffffffffffffffffffffffffffffff1673ffffffffffffffffffffffffffffffffffffffff16148062000bcb5750600062000bc9600160009054906101000a900473ffffffffffffffffffffffffffffffffffffffff16620006ec640100000000026401000000009004565b145b1562000bee5762000bec6000620006f7640100000000026401000000009004565b505b600160009054906101000a900473ffffffffffffffffffffffffffffffffffffffff1673ffffffffffffffffffffffffffffffffffffffff166338cc48316040518163ffffffff167c0100000000000000000000000000000000000000000000000000000000028152600401602060405180830381600087803b15801562000c7557600080fd5b505af115801562000c8a573d6000803e3d6000fd5b505050506040513d602081101562000ca157600080fd5b810190808051906020019092919050505073ffffffffffffffffffffffffffffffffffffffff166000809054906101000a900473ffffffffffffffffffffffffffffffffffffffff1673ffffffffffffffffffffffffffffffffffffffff1614151562000e0c57600160009054906101000a900473ffffffffffffffffffffffffffffffffffffffff1673ffffffffffffffffffffffffffffffffffffffff166338cc48316040518163ffffffff167c0100000000000000000000000000000000000000000000000000000000028152600401602060405180830381600087803b15801562000d8f57600080fd5b505af115801562000da4573d6000803e3d6000fd5b505050506040513d602081101562000dbb57600080fd5b81019080805190602001909291905050506000806101000a81548173ffffffffffffffffffffffffffffffffffffffff021916908373ffffffffffffffffffffffffffffffffffffffff1602179055505b60008060009054906101000a900473ffffffffffffffffffffffffffffffffffffffff1673ffffffffffffffffffffffffffffffffffffffff1663524f3889856040518263ffffffff167c01000000000000000000000000000000000000000000000000000000000281526004018080602001828103825283818151815260200191508051906020019080838360005b8381101562000eb957808201518184015260208101905062000e9c565b50505050905090810190601f16801562000ee75780820380516001836020036101000a031916815260200191505b5092505050602060405180830381600087803b15801562000f0757600080fd5b505af115801562000f1c573d6000803e3d6000fd5b505050506040513d602081101562000f3357600080fd5b8101908080519060200190929190505050905062030d403a02670de0b6b3a76400000181111562000f6c5760006001029150506200111f565b6000809054906101000a900473ffffffffffffffffffffffffffffffffffffffff1673ffffffffffffffffffffffffffffffffffffffff1663adf59f99828787876040518563ffffffff167c0100000000000000000000000000000000000000000000000000000000028152600401808481526020018060200180602001838103835285818151815260200191508051906020019080838360005b838110156200102457808201518184015260208101905062001007565b50505050905090810190601f168015620010525780820380516001836020036101000a031916815260200191505b50838103825284818151815260200191508051906020019080838360005b838110156200108d57808201518184015260208101905062001070565b50505050905090810190601f168015620010bb5780820380516001836020036101000a031916815260200191505b50955050505050506020604051808303818588803b158015620010dd57600080fd5b505af1158015620010f2573d6000803e3d6000fd5b50505050506040513d60208110156200110a57600080fd5b81019080805190602001909291905050509150505b9392505050565b60008062001157731d3b2638a7cc9f2cb3d298a3da7a90b67e5506ed620006ec640100000000026401000000009004565b11156200120c57731d3b2638a7cc9f2cb3d298a3da7a90b67e5506ed600160006101000a81548173ffffffffffffffffffffffffffffffffffffffff021916908373ffffffffffffffffffffffffffffffffffffffff160217905550620012026040805190810160405280600b81526020017f6574685f6d61696e6e657400000000000000000000000000000000000000000081525062001685640100000000026401000000009004565b6001905062001682565b60006200123c73c03a2615d5efaf5f49f60b7bb6583eaec212fdf1620006ec640100000000026401000000009004565b1115620012f15773c03a2615d5efaf5f49f60b7bb6583eaec212fdf1600160006101000a81548173ffffffffffffffffffffffffffffffffffffffff021916908373ffffffffffffffffffffffffffffffffffffffff160217905550620012e76040805190810160405280600c81526020017f6574685f726f707374656e33000000000000000000000000000000000000000081525062001685640100000000026401000000009004565b6001905062001682565b60006200132173b7a07bcf2ba2f2703b24c0691b5278999c59ac7e620006ec640100000000026401000000009004565b1115620013d65773b7a07bcf2ba2f2703b24c0691b5278999c59ac7e600160006101000a81548173ffffffffffffffffffffffffffffffffffffffff021916908373ffffffffffffffffffffffffffffffffffffffff160217905550620013cc6040805190810160405280600981526020017f6574685f6b6f76616e000000000000000000000000000000000000000000000081525062001685640100000000026401000000009004565b6001905062001682565b60006200140673146500cfd35b22e4a392fe0adc06de1a1368ed48620006ec640100000000026401000000009004565b1115620014bb5773146500cfd35b22e4a392fe0adc06de1a1368ed48600160006101000a81548173ffffffffffffffffffffffffffffffffffffffff021916908373ffffffffffffffffffffffffffffffffffffffff160217905550620014b16040805190810160405280600b81526020017f6574685f72696e6b65627900000000000000000000000000000000000000000081525062001685640100000000026401000000009004565b6001905062001682565b6000620014eb736f485c8bf6fc43ea212e93bbf8ce046c7f1cb475620006ec640100000000026401000000009004565b11156200155157736f485c8bf6fc43ea212e93bbf8ce046c7f1cb475600160006101000a81548173ffffffffffffffffffffffffffffffffffffffff021916908373ffffffffffffffffffffffffffffffffffffffff1602179055506001905062001682565b6000620015817320e12a1f859b3feae5fb2a0a32c18f5a65555bbf620006ec640100000000026401000000009004565b1115620015e7577320e12a1f859b3feae5fb2a0a32c18f5a65555bbf600160006101000a81548173ffffffffffffffffffffffffffffffffffffffff021916908373ffffffffffffffffffffffffffffffffffffffff1602179055506001905062001682565b6000620016177351efaf4c8b3c9afbd5ab9f4bbc82784ab6ef8faa620006ec640100000000026401000000009004565b11156200167d577351efaf4c8b3c9afbd5ab9f4bbc82784ab6ef8faa600160006101000a81548173ffffffffffffffffffffffffffffffffffffffff021916908373ffffffffffffffffffffffffffffffffffffffff1602179055506001905062001682565b600090505b90565b80600290805190602001906200169d929190620016a1565b5050565b828054600181600116156101000203166002900490600052602060002090601f016020900481019282601f10620016e457805160ff191683800117855562001715565b8280016001018555821562001715579182015b8281111562001714578251825591602001919060010190620016f7565b5b50905062001724919062001728565b5090565b6200174d91905b80821115620017495760008160009055506001016200172f565b5090565b90565b611a4e80620017606000396000f3fe608060405260043610610062576000357c0100000000000000000000000000000000000000000000000000000000900463ffffffff16806327dc297e1461006757806338bbfa501461013957806358ed766d146102a2578063a2e6204514610332575b600080fd5b34801561007357600080fd5b506101376004803603604081101561008a57600080fd5b8101908080359060200190929190803590602001906401000000008111156100b157600080fd5b8201836020820111156100c357600080fd5b803590602001918460018302840111640100000000831117156100e557600080fd5b91908080601f016020809104026020016040519081016040528093929190818152602001838380828437600081840152601f19601f82011690508083019250505050505050919291929050505061033c565b005b34801561014557600080fd5b506102a06004803603606081101561015c57600080fd5b81019080803590602001909291908035906020019064010000000081111561018357600080fd5b82018360208201111561019557600080fd5b803590602001918460018302840111640100000000831117156101b757600080fd5b91908080601f016020809104026020016040519081016040528093929190818152602001838380828437600081840152601f19601f8201169050808301925050505050505091929192908035906020019064010000000081111561021a57600080fd5b82018360208201111561022c57600080fd5b8035906020019184600183028401116401000000008311171561024e57600080fd5b91908080601f016020809104026020016040519081016040528093929190818152602001838380828437600081840152601f19601f82011690508083019250505050505050919291929050505061037f565b005b3480156102ae57600080fd5b506102b7610496565b6040518080602001828103825283818151815260200191508051906020019080838360005b838110156102f75780820151818401526020810190506102dc565b50505050905090810190601f1680156103245780820380516001836020036101000a031916815260200191505b509250505060405180910390f35b61033a610534565b005b61037b828260006040519080825280601f01601f1916602001820160405280156103755781602001600182028038833980820191505090505b5061037f565b5050565b61038761079e565b73ffffffffffffffffffffffffffffffffffffffff163373ffffffffffffffffffffffffffffffffffffffff161415156103c057600080fd5b81600590805190602001906103d692919061197d565b507fcdbb0c41a838cee62dad55a8a754f2791f0d200ecdb7ab812fede72a8c75d778600560405180806020018281038252838181546001816001161561010002031660029004815260200191508054600181600116156101000203166002900480156104835780601f1061045857610100808354040283529160200191610483565b820191906000526020600020905b81548152906001019060200180831161046657829003601f168201915b50509250505060405180910390a1505050565b60058054600181600116156101000203166002900480601f01602080910402602001604051908101604052809291908181526020018280546001816001161561010002031660029004801561052c5780601f106105015761010080835404028352916020019161052c565b820191906000526020600020905b81548152906001019060200180831161050f57829003601f168201915b505050505081565b3073ffffffffffffffffffffffffffffffffffffffff163161058a6040805190810160405280600381526020017f55524c0000000000000000000000000000000000000000000000000000000000815250610b11565b1115610649577f621c2856e3b87f81235f8ac8a22bbb40a0142961960710d00b2b6c380902b57e60405180806020018281038252604c8152602001807f4f7261636c697a6520717565727920776173204e4f542073656e742c20706c6581526020017f6173652061646420736f6d652045544820746f20636f76657220666f7220746881526020017f652071756572792066656521000000000000000000000000000000000000000081525060600191505060405180910390a161079c565b7f621c2856e3b87f81235f8ac8a22bbb40a0142961960710d00b2b6c380902b57e6040518080602001828103825260368152602001807f4f7261636c697a65207175657279207761732073656e742c207374616e64696e81526020017f6720627920666f722074686520616e737765722e2e2e0000000000000000000081525060400191505060405180910390a161079a603c6040805190810160405280600381526020017f55524c0000000000000000000000000000000000000000000000000000000000815250608060405190810160405280604c81526020017f6a736f6e2868747470733a2f2f6170692e6b72616b656e2e636f6d2f302f707581526020017f626c69632f5469636b65723f706169723d455448555344292e726573756c742e81526020017f584554485a5553442e632e300000000000000000000000000000000000000000815250610ef8565b505b565b60008073ffffffffffffffffffffffffffffffffffffffff16600160009054906101000a900473ffffffffffffffffffffffffffffffffffffffff1673ffffffffffffffffffffffffffffffffffffffff16148061082657506000610824600160009054906101000a900473ffffffffffffffffffffffffffffffffffffffff166114b1565b145b156108375761083560006114bc565b505b600160009054906101000a900473ffffffffffffffffffffffffffffffffffffffff1673ffffffffffffffffffffffffffffffffffffffff166338cc48316040518163ffffffff167c0100000000000000000000000000000000000000000000000000000000028152600401602060405180830381600087803b1580156108bd57600080fd5b505af11580156108d1573d6000803e3d6000fd5b505050506040513d60208110156108e757600080fd5b810190808051906020019092919050505073ffffffffffffffffffffffffffffffffffffffff166000809054906101000a900473ffffffffffffffffffffffffffffffffffffffff1673ffffffffffffffffffffffffffffffffffffffff16141515610a4e57600160009054906101000a900473ffffffffffffffffffffffffffffffffffffffff1673ffffffffffffffffffffffffffffffffffffffff166338cc48316040518163ffffffff167c0100000000000000000000000000000000000000000000000000000000028152600401602060405180830381600087803b1580156109d357600080fd5b505af11580156109e7573d6000803e3d6000fd5b505050506040513d60208110156109fd57600080fd5b81019080805190602001909291905050506000806101000a81548173ffffffffffffffffffffffffffffffffffffffff021916908373ffffffffffffffffffffffffffffffffffffffff1602179055505b6000809054906101000a900473ffffffffffffffffffffffffffffffffffffffff1673ffffffffffffffffffffffffffffffffffffffff1663c281d19e6040518163ffffffff167c010000000000000000000000000000000000000000000000000000000002815260040160206040518083038186803b158015610ad157600080fd5b505afa158015610ae5573d6000803e3d6000fd5b505050506040513d6020811015610afb57600080fd5b8101908080519060200190929190505050905090565b60008073ffffffffffffffffffffffffffffffffffffffff16600160009054906101000a900473ffffffffffffffffffffffffffffffffffffffff1673ffffffffffffffffffffffffffffffffffffffff161480610b9957506000610b97600160009054906101000a900473ffffffffffffffffffffffffffffffffffffffff166114b1565b145b15610baa57610ba860006114bc565b505b600160009054906101000a900473ffffffffffffffffffffffffffffffffffffffff1673ffffffffffffffffffffffffffffffffffffffff166338cc48316040518163ffffffff167c0100000000000000000000000000000000000000000000000000000000028152600401602060405180830381600087803b158015610c3057600080fd5b505af1158015610c44573d6000803e3d6000fd5b505050506040513d6020811015610c5a57600080fd5b810190808051906020019092919050505073ffffffffffffffffffffffffffffffffffffffff166000809054906101000a900473ffffffffffffffffffffffffffffffffffffffff1673ffffffffffffffffffffffffffffffffffffffff16141515610dc157600160009054906101000a900473ffffffffffffffffffffffffffffffffffffffff1673ffffffffffffffffffffffffffffffffffffffff166338cc48316040518163ffffffff167c0100000000000000000000000000000000000000000000000000000000028152600401602060405180830381600087803b158015610d4657600080fd5b505af1158015610d5a573d6000803e3d6000fd5b505050506040513d6020811015610d7057600080fd5b81019080805190602001909291905050506000806101000a81548173ffffffffffffffffffffffffffffffffffffffff021916908373ffffffffffffffffffffffffffffffffffffffff1602179055505b6000809054906101000a900473ffffffffffffffffffffffffffffffffffffffff1673ffffffffffffffffffffffffffffffffffffffff1663524f3889836040518263ffffffff167c01000000000000000000000000000000000000000000000000000000000281526004018080602001828103825283818151815260200191508051906020019080838360005b83811015610e6a578082015181840152602081019050610e4f565b50505050905090810190601f168015610e975780820380516001836020036101000a031916815260200191505b5092505050602060405180830381600087803b158015610eb657600080fd5b505af1158015610eca573d6000803e3d6000fd5b505050506040513d6020811015610ee057600080fd5b81019080805190602001909291905050509050919050565b60008073ffffffffffffffffffffffffffffffffffffffff16600160009054906101000a900473ffffffffffffffffffffffffffffffffffffffff1673ffffffffffffffffffffffffffffffffffffffff161480610f8057506000610f7e600160009054906101000a900473ffffffffffffffffffffffffffffffffffffffff166114b1565b145b15610f9157610f8f60006114bc565b505b600160009054906101000a900473ffffffffffffffffffffffffffffffffffffffff1673ffffffffffffffffffffffffffffffffffffffff166338cc48316040518163ffffffff167c0100000000000000000000000000000000000000000000000000000000028152600401602060405180830381600087803b15801561101757600080fd5b505af115801561102b573d6000803e3d6000fd5b505050506040513d602081101561104157600080fd5b810190808051906020019092919050505073ffffffffffffffffffffffffffffffffffffffff166000809054906101000a900473ffffffffffffffffffffffffffffffffffffffff1673ffffffffffffffffffffffffffffffffffffffff161415156111a857600160009054906101000a900473ffffffffffffffffffffffffffffffffffffffff1673ffffffffffffffffffffffffffffffffffffffff166338cc48316040518163ffffffff167c0100000000000000000000000000000000000000000000000000000000028152600401602060405180830381600087803b15801561112d57600080fd5b505af1158015611141573d6000803e3d6000fd5b505050506040513d602081101561115757600080fd5b81019080805190602001909291905050506000806101000a81548173ffffffffffffffffffffffffffffffffffffffff021916908373ffffffffffffffffffffffffffffffffffffffff1602179055505b60008060009054906101000a900473ffffffffffffffffffffffffffffffffffffffff1673ffffffffffffffffffffffffffffffffffffffff1663524f3889856040518263ffffffff167c01000000000000000000000000000000000000000000000000000000000281526004018080602001828103825283818151815260200191508051906020019080838360005b83811015611253578082015181840152602081019050611238565b50505050905090810190601f1680156112805780820380516001836020036101000a031916815260200191505b5092505050602060405180830381600087803b15801561129f57600080fd5b505af11580156112b3573d6000803e3d6000fd5b505050506040513d60208110156112c957600080fd5b8101908080519060200190929190505050905062030d403a02670de0b6b3a7640000018111156113005760006001029150506114aa565b6000809054906101000a900473ffffffffffffffffffffffffffffffffffffffff1673ffffffffffffffffffffffffffffffffffffffff1663adf59f99828787876040518563ffffffff167c0100000000000000000000000000000000000000000000000000000000028152600401808481526020018060200180602001838103835285818151815260200191508051906020019080838360005b838110156113b657808201518184015260208101905061139b565b50505050905090810190601f1680156113e35780820380516001836020036101000a031916815260200191505b50838103825284818151815260200191508051906020019080838360005b8381101561141c578082015181840152602081019050611401565b50505050905090810190601f1680156114495780820380516001836020036101000a031916815260200191505b50955050505050506020604051808303818588803b15801561146a57600080fd5b505af115801561147e573d6000803e3d6000fd5b50505050506040513d602081101561149557600080fd5b81019080805190602001909291905050509150505b9392505050565b6000813b9050919050565b60006114c66114cd565b9050919050565b6000806114ed731d3b2638a7cc9f2cb3d298a3da7a90b67e5506ed6114b1565b111561158f57731d3b2638a7cc9f2cb3d298a3da7a90b67e5506ed600160006101000a81548173ffffffffffffffffffffffffffffffffffffffff021916908373ffffffffffffffffffffffffffffffffffffffff1602179055506115866040805190810160405280600b81526020017f6574685f6d61696e6e6574000000000000000000000000000000000000000000815250611963565b60019050611960565b60006115ae73c03a2615d5efaf5f49f60b7bb6583eaec212fdf16114b1565b11156116505773c03a2615d5efaf5f49f60b7bb6583eaec212fdf1600160006101000a81548173ffffffffffffffffffffffffffffffffffffffff021916908373ffffffffffffffffffffffffffffffffffffffff1602179055506116476040805190810160405280600c81526020017f6574685f726f707374656e330000000000000000000000000000000000000000815250611963565b60019050611960565b600061166f73b7a07bcf2ba2f2703b24c0691b5278999c59ac7e6114b1565b11156117115773b7a07bcf2ba2f2703b24c0691b5278999c59ac7e600160006101000a81548173ffffffffffffffffffffffffffffffffffffffff021916908373ffffffffffffffffffffffffffffffffffffffff1602179055506117086040805190810160405280600981526020017f6574685f6b6f76616e0000000000000000000000000000000000000000000000815250611963565b60019050611960565b600061173073146500cfd35b22e4a392fe0adc06de1a1368ed486114b1565b11156117d25773146500cfd35b22e4a392fe0adc06de1a1368ed48600160006101000a81548173ffffffffffffffffffffffffffffffffffffffff021916908373ffffffffffffffffffffffffffffffffffffffff1602179055506117c96040805190810160405280600b81526020017f6574685f72696e6b656279000000000000000000000000000000000000000000815250611963565b60019050611960565b60006117f1736f485c8bf6fc43ea212e93bbf8ce046c7f1cb4756114b1565b111561185557736f485c8bf6fc43ea212e93bbf8ce046c7f1cb475600160006101000a81548173ffffffffffffffffffffffffffffffffffffffff021916908373ffffffffffffffffffffffffffffffffffffffff16021790555060019050611960565b60006118747320e12a1f859b3feae5fb2a0a32c18f5a65555bbf6114b1565b11156118d8577320e12a1f859b3feae5fb2a0a32c18f5a65555bbf600160006101000a81548173ffffffffffffffffffffffffffffffffffffffff021916908373ffffffffffffffffffffffffffffffffffffffff16021790555060019050611960565b60006118f77351efaf4c8b3c9afbd5ab9f4bbc82784ab6ef8faa6114b1565b111561195b577351efaf4c8b3c9afbd5ab9f4bbc82784ab6ef8faa600160006101000a81548173ffffffffffffffffffffffffffffffffffffffff021916908373ffffffffffffffffffffffffffffffffffffffff16021790555060019050611960565b600090505b90565b806002908051906020019061197992919061197d565b5050565b828054600181600116156101000203166002900490600052602060002090601f016020900481019282601f106119be57805160ff19168380011785556119ec565b828001600101855582156119ec579182015b828111156119eb5782518255916020019190600101906119d0565b5b5090506119f991906119fd565b5090565b611a1f91905b80821115611a1b576000816000905550600101611a03565b5090565b9056fea165627a7a7230582084aa758c7f028c910fee7809a74f7a95d885442c65e34ab28aa40b3fe44404d90029",
  "source": "pragma solidity ^0.5.0;\n\nimport './OraclizeAPI.sol';\n\ncontract KrakenPriceTicker is usingOraclize {\n\n    string public priceETHUSD;\n\n    event LogNewOraclizeQuery(string description);\n    event LogNewKrakenPriceTicker(string price);\n\n    constructor() public {\n        oraclize_setProof(proofType_Android | proofStorage_IPFS);\n        update(); // Update price on contract creation...\n    }\n\n    function __callback(bytes32, string memory result, bytes memory) public {\n        require(msg.sender == oraclize_cbAddress());\n        priceETHUSD = result;\n        emit LogNewKrakenPriceTicker(priceETHUSD);\n    }\n\n    function update() public payable {\n        if (oraclize_getPrice(\"URL\") > address(this).balance) {\n            emit LogNewOraclizeQuery(\"Oraclize query was NOT sent, please add some ETH to cover for the query fee!\");\n        } else {\n            emit LogNewOraclizeQuery(\"Oraclize query was sent, standing by for the answer...\");\n            oraclize_query(60, \"URL\", \"json(https://api.kraken.com/0/public/Ticker?pair=ETHUSD).result.XETHZUSD.c.0\");\n        }\n    }\n}\n",
  "sourcePath": "/home/jlanchas/repositorios/github/chechu/consensys-academy-final-project/contracts/KrakenPriceTicker.sol",
  "compiler": {
    "name": "solc",
    "version": "0.5.0+commit.1d4f565a.Emscripten.clang"
  },
  "schemaVersion": "3.0.0",
  "updatedAt": "2019-01-25T01:43:13.515Z",
  "devdoc": {
    "methods": {}
  },
  "userdoc": {
    "methods": {}
  }
}