{
  "contractName": "Marketplace",
  "abi": [
    {
      "constant": false,
      "inputs": [],
      "name": "renounceOwnership",
      "outputs": [],
      "payable": false,
      "stateMutability": "nonpayable",
      "type": "function",
      "signature": "0x715018a6"
    },
    {
      "constant": true,
      "inputs": [],
      "name": "owner",
      "outputs": [
        {
          "name": "",
          "type": "address"
        }
      ],
      "payable": false,
      "stateMutability": "view",
      "type": "function",
      "signature": "0x8da5cb5b"
    },
    {
      "constant": true,
      "inputs": [],
      "name": "isOwner",
      "outputs": [
        {
          "name": "",
          "type": "bool"
        }
      ],
      "payable": false,
      "stateMutability": "view",
      "type": "function",
      "signature": "0x8f32d59b"
    },
    {
      "constant": false,
      "inputs": [
        {
          "name": "newOwner",
          "type": "address"
        }
      ],
      "name": "transferOwnership",
      "outputs": [],
      "payable": false,
      "stateMutability": "nonpayable",
      "type": "function",
      "signature": "0xf2fde38b"
    },
    {
      "anonymous": false,
      "inputs": [
        {
          "indexed": false,
          "name": "newSeller",
          "type": "address"
        }
      ],
      "name": "SellerAdded",
      "type": "event",
      "signature": "0x3d78526f2568d430fd8e20719601f7bc3f979936f8880236cc284e8127251b42"
    },
    {
      "anonymous": false,
      "inputs": [
        {
          "indexed": false,
          "name": "oldSeller",
          "type": "address"
        }
      ],
      "name": "SellerRemoved",
      "type": "event",
      "signature": "0xa6f3b3030df964d974376ba4db21cbe49207bd79998f0d619c1c3a422259707f"
    },
    {
      "anonymous": false,
      "inputs": [
        {
          "indexed": false,
          "name": "newAdmin",
          "type": "address"
        }
      ],
      "name": "AdminAdded",
      "type": "event",
      "signature": "0x44d6d25963f097ad14f29f06854a01f575648a1ef82f30e562ccd3889717e339"
    },
    {
      "anonymous": false,
      "inputs": [
        {
          "indexed": false,
          "name": "oldAdmin",
          "type": "address"
        }
      ],
      "name": "AdminRemoved",
      "type": "event",
      "signature": "0xa3b62bc36326052d97ea62d63c3d60308ed4c3ea8ac079dd8499f1e9c4f80c0f"
    },
    {
      "anonymous": false,
      "inputs": [
        {
          "indexed": false,
          "name": "seller",
          "type": "address"
        },
        {
          "indexed": false,
          "name": "name",
          "type": "string"
        },
        {
          "indexed": false,
          "name": "storeId",
          "type": "bytes32"
        }
      ],
      "name": "StoreCreated",
      "type": "event",
      "signature": "0xc790edb73a0172213f9c865455acd89732be6e893d2d82aeb7225e335ea7d9d1"
    },
    {
      "anonymous": false,
      "inputs": [
        {
          "indexed": false,
          "name": "seller",
          "type": "address"
        },
        {
          "indexed": false,
          "name": "storeId",
          "type": "bytes32"
        }
      ],
      "name": "StoreRemoved",
      "type": "event",
      "signature": "0xa65aaa89a6b8d45604b92a24fb97c91fc3d1504a9a40d61e4121e83dfd2de4c3"
    },
    {
      "anonymous": false,
      "inputs": [
        {
          "indexed": false,
          "name": "seller",
          "type": "address"
        },
        {
          "indexed": false,
          "name": "storeId",
          "type": "bytes32"
        },
        {
          "indexed": false,
          "name": "sku",
          "type": "uint256"
        },
        {
          "indexed": false,
          "name": "name",
          "type": "string"
        },
        {
          "indexed": false,
          "name": "price",
          "type": "uint256"
        },
        {
          "indexed": false,
          "name": "availableAmount",
          "type": "uint256"
        }
      ],
      "name": "ItemCreated",
      "type": "event",
      "signature": "0x6bd5d0af08c8ffa4a3d7dd1b59614faa2d9476b13e8ed73adc994061d416e19b"
    },
    {
      "anonymous": false,
      "inputs": [
        {
          "indexed": false,
          "name": "seller",
          "type": "address"
        },
        {
          "indexed": false,
          "name": "storeId",
          "type": "bytes32"
        },
        {
          "indexed": false,
          "name": "sku",
          "type": "uint256"
        }
      ],
      "name": "ItemRemoved",
      "type": "event",
      "signature": "0xd1229990c7f2eb9f62e90ccbcb0a6619b996100e5785d6956e3082cee433591c"
    },
    {
      "anonymous": false,
      "inputs": [
        {
          "indexed": false,
          "name": "seller",
          "type": "address"
        },
        {
          "indexed": false,
          "name": "storeId",
          "type": "bytes32"
        },
        {
          "indexed": false,
          "name": "sku",
          "type": "uint256"
        },
        {
          "indexed": false,
          "name": "name",
          "type": "string"
        },
        {
          "indexed": false,
          "name": "price",
          "type": "uint256"
        },
        {
          "indexed": false,
          "name": "availableAmount",
          "type": "uint256"
        }
      ],
      "name": "ItemEdited",
      "type": "event",
      "signature": "0x623980be88682bdeff2038745fc7d32c828fc0497679180b294feb91a04481f5"
    },
    {
      "anonymous": false,
      "inputs": [
        {
          "indexed": true,
          "name": "previousOwner",
          "type": "address"
        },
        {
          "indexed": true,
          "name": "newOwner",
          "type": "address"
        }
      ],
      "name": "OwnershipTransferred",
      "type": "event",
      "signature": "0x8be0079c531659141344cd1fd0a4f28419497f9722a3daafe3b4186f6b6457e0"
    },
    {
      "constant": true,
      "inputs": [],
      "name": "getRole",
      "outputs": [
        {
          "name": "",
          "type": "uint8"
        }
      ],
      "payable": false,
      "stateMutability": "view",
      "type": "function",
      "signature": "0xfde08174"
    },
    {
      "constant": false,
      "inputs": [
        {
          "name": "newAdmin",
          "type": "address"
        }
      ],
      "name": "addAdmin",
      "outputs": [],
      "payable": false,
      "stateMutability": "nonpayable",
      "type": "function",
      "signature": "0x70480275"
    },
    {
      "constant": false,
      "inputs": [
        {
          "name": "oldAdmin",
          "type": "address"
        }
      ],
      "name": "removeAdmin",
      "outputs": [],
      "payable": false,
      "stateMutability": "nonpayable",
      "type": "function",
      "signature": "0x1785f53c"
    },
    {
      "constant": false,
      "inputs": [
        {
          "name": "newSeller",
          "type": "address"
        }
      ],
      "name": "addSeller",
      "outputs": [],
      "payable": false,
      "stateMutability": "nonpayable",
      "type": "function",
      "signature": "0xd93fabfa"
    },
    {
      "constant": false,
      "inputs": [
        {
          "name": "oldSeller",
          "type": "address"
        }
      ],
      "name": "removeSeller",
      "outputs": [],
      "payable": false,
      "stateMutability": "nonpayable",
      "type": "function",
      "signature": "0x7cb9cf54"
    },
    {
      "constant": false,
      "inputs": [
        {
          "name": "name",
          "type": "string"
        }
      ],
      "name": "addStore",
      "outputs": [],
      "payable": false,
      "stateMutability": "nonpayable",
      "type": "function",
      "signature": "0x662feffc"
    },
    {
      "constant": false,
      "inputs": [
        {
          "name": "storeId",
          "type": "bytes32"
        },
        {
          "name": "storeIndex",
          "type": "uint256"
        }
      ],
      "name": "removeStore",
      "outputs": [],
      "payable": false,
      "stateMutability": "nonpayable",
      "type": "function",
      "signature": "0xbb0e4b4d"
    },
    {
      "constant": true,
      "inputs": [
        {
          "name": "seller",
          "type": "address"
        }
      ],
      "name": "getNumberOfStores",
      "outputs": [
        {
          "name": "",
          "type": "uint256"
        }
      ],
      "payable": false,
      "stateMutability": "view",
      "type": "function",
      "signature": "0xa06b78d0"
    },
    {
      "constant": true,
      "inputs": [
        {
          "name": "seller",
          "type": "address"
        },
        {
          "name": "storeIndex",
          "type": "uint256"
        }
      ],
      "name": "getStoreId",
      "outputs": [
        {
          "name": "",
          "type": "bytes32"
        }
      ],
      "payable": false,
      "stateMutability": "view",
      "type": "function",
      "signature": "0x7624ceef"
    },
    {
      "constant": true,
      "inputs": [
        {
          "name": "seller",
          "type": "address"
        },
        {
          "name": "storeId",
          "type": "bytes32"
        }
      ],
      "name": "getStoreMetadata",
      "outputs": [
        {
          "name": "",
          "type": "string"
        },
        {
          "name": "",
          "type": "uint256"
        }
      ],
      "payable": false,
      "stateMutability": "view",
      "type": "function",
      "signature": "0x969416f7"
    },
    {
      "constant": false,
      "inputs": [
        {
          "name": "storeId",
          "type": "bytes32"
        },
        {
          "name": "sku",
          "type": "uint256"
        },
        {
          "name": "name",
          "type": "string"
        },
        {
          "name": "price",
          "type": "uint256"
        },
        {
          "name": "availableAmount",
          "type": "uint256"
        }
      ],
      "name": "addItem",
      "outputs": [],
      "payable": false,
      "stateMutability": "nonpayable",
      "type": "function",
      "signature": "0xa1eb1bcd"
    },
    {
      "constant": false,
      "inputs": [
        {
          "name": "storeId",
          "type": "bytes32"
        },
        {
          "name": "sku",
          "type": "uint256"
        },
        {
          "name": "name",
          "type": "string"
        },
        {
          "name": "price",
          "type": "uint256"
        },
        {
          "name": "availableAmount",
          "type": "uint256"
        }
      ],
      "name": "editItem",
      "outputs": [],
      "payable": false,
      "stateMutability": "nonpayable",
      "type": "function",
      "signature": "0xaea58dac"
    },
    {
      "constant": true,
      "inputs": [
        {
          "name": "seller",
          "type": "address"
        },
        {
          "name": "storeId",
          "type": "bytes32"
        }
      ],
      "name": "getNumberOfItems",
      "outputs": [
        {
          "name": "",
          "type": "uint256"
        }
      ],
      "payable": false,
      "stateMutability": "view",
      "type": "function",
      "signature": "0x3fbdf937"
    },
    {
      "constant": true,
      "inputs": [
        {
          "name": "seller",
          "type": "address"
        },
        {
          "name": "storeId",
          "type": "bytes32"
        },
        {
          "name": "skuIndex",
          "type": "uint256"
        }
      ],
      "name": "getSku",
      "outputs": [
        {
          "name": "",
          "type": "uint256"
        }
      ],
      "payable": false,
      "stateMutability": "view",
      "type": "function",
      "signature": "0x1849e195"
    },
    {
      "constant": true,
      "inputs": [
        {
          "name": "seller",
          "type": "address"
        },
        {
          "name": "storeId",
          "type": "bytes32"
        },
        {
          "name": "sku",
          "type": "uint256"
        }
      ],
      "name": "getItemMetadata",
      "outputs": [
        {
          "name": "",
          "type": "string"
        },
        {
          "name": "",
          "type": "uint256"
        },
        {
          "name": "",
          "type": "uint256"
        }
      ],
      "payable": false,
      "stateMutability": "view",
      "type": "function",
      "signature": "0x2ac81c77"
    },
    {
      "constant": false,
      "inputs": [
        {
          "name": "storeId",
          "type": "bytes32"
        },
        {
          "name": "sku",
          "type": "uint256"
        }
      ],
      "name": "removeItem",
      "outputs": [],
      "payable": false,
      "stateMutability": "nonpayable",
      "type": "function",
      "signature": "0xa0cbd1f6"
    }
  ],
  "bytecode": "0x6080604052336000806101000a81548173ffffffffffffffffffffffffffffffffffffffff021916908373ffffffffffffffffffffffffffffffffffffffff1602179055506000809054906101000a900473ffffffffffffffffffffffffffffffffffffffff1673ffffffffffffffffffffffffffffffffffffffff16600073ffffffffffffffffffffffffffffffffffffffff167f8be0079c531659141344cd1fd0a4f28419497f9722a3daafe3b4186f6b6457e060405160405180910390a3613015806100cf6000396000f3fe608060405260043610610112576000357c0100000000000000000000000000000000000000000000000000000000900463ffffffff1680631785f53c146101175780631849e195146101685780632ac81c77146101e15780633fbdf937146102cd578063662feffc1461033c5780637048027514610404578063715018a6146104555780637624ceef1461046c5780637cb9cf54146104db5780638da5cb5b1461052c5780638f32d59b14610583578063969416f7146105b2578063a06b78d01461068d578063a0cbd1f6146106f2578063a1eb1bcd14610737578063aea58dac14610827578063bb0e4b4d14610917578063d93fabfa1461095c578063f2fde38b146109ad578063fde08174146109fe575b600080fd5b34801561012357600080fd5b506101666004803603602081101561013a57600080fd5b81019080803573ffffffffffffffffffffffffffffffffffffffff169060200190929190505050610a37565b005b34801561017457600080fd5b506101cb6004803603606081101561018b57600080fd5b81019080803573ffffffffffffffffffffffffffffffffffffffff1690602001909291908035906020019092919080359060200190929190505050610b4e565b6040518082815260200191505060405180910390f35b3480156101ed57600080fd5b506102446004803603606081101561020457600080fd5b81019080803573ffffffffffffffffffffffffffffffffffffffff1690602001909291908035906020019092919080359060200190929190505050610bc7565b6040518080602001848152602001838152602001828103825285818151815260200191508051906020019080838360005b83811015610290578082015181840152602081019050610275565b50505050905090810190601f1680156102bd5780820380516001836020036101000a031916815260200191505b5094505050505060405180910390f35b3480156102d957600080fd5b50610326600480360360408110156102f057600080fd5b81019080803573ffffffffffffffffffffffffffffffffffffffff16906020019092919080359060200190929190505050610cf1565b6040518082815260200191505060405180910390f35b34801561034857600080fd5b506104026004803603602081101561035f57600080fd5b810190808035906020019064010000000081111561037c57600080fd5b82018360208201111561038e57600080fd5b803590602001918460018302840111640100000000831117156103b057600080fd5b91908080601f016020809104026020016040519081016040528093929190818152602001838380828437600081840152601f19601f820116905080830192505050505050509192919290505050610d5a565b005b34801561041057600080fd5b506104536004803603602081101561042757600080fd5b81019080803573ffffffffffffffffffffffffffffffffffffffff1690602001909291905050506112ca565b005b34801561046157600080fd5b5061046a6113fc565b005b34801561047857600080fd5b506104c56004803603604081101561048f57600080fd5b81019080803573ffffffffffffffffffffffffffffffffffffffff169060200190929190803590602001909291905050506114ce565b6040518082815260200191505060405180910390f35b3480156104e757600080fd5b5061052a600480360360208110156104fe57600080fd5b81019080803573ffffffffffffffffffffffffffffffffffffffff169060200190929190505050611532565b005b34801561053857600080fd5b506105416116fc565b604051808273ffffffffffffffffffffffffffffffffffffffff1673ffffffffffffffffffffffffffffffffffffffff16815260200191505060405180910390f35b34801561058f57600080fd5b50610598611725565b604051808215151515815260200191505060405180910390f35b3480156105be57600080fd5b5061060b600480360360408110156105d557600080fd5b81019080803573ffffffffffffffffffffffffffffffffffffffff1690602001909291908035906020019092919050505061177c565b6040518080602001838152602001828103825284818151815260200191508051906020019080838360005b83811015610651578082015181840152602081019050610636565b50505050905090810190601f16801561067e5780820380516001836020036101000a031916815260200191505b50935050505060405180910390f35b34801561069957600080fd5b506106dc600480360360208110156106b057600080fd5b81019080803573ffffffffffffffffffffffffffffffffffffffff16906020019092919050505061188a565b6040518082815260200191505060405180910390f35b3480156106fe57600080fd5b506107356004803603604081101561071557600080fd5b8101908080359060200190929190803590602001909291905050506118de565b005b34801561074357600080fd5b50610825600480360360a081101561075a57600080fd5b8101908080359060200190929190803590602001909291908035906020019064010000000081111561078b57600080fd5b82018360208201111561079d57600080fd5b803590602001918460018302840111640100000000831117156107bf57600080fd5b91908080601f016020809104026020016040519081016040528093929190818152602001838380828437600081840152601f19601f8201169050808301925050505050505091929192908035906020019092919080359060200190929190505050611ce6565b005b34801561083357600080fd5b50610915600480360360a081101561084a57600080fd5b8101908080359060200190929190803590602001909291908035906020019064010000000081111561087b57600080fd5b82018360208201111561088d57600080fd5b803590602001918460018302840111640100000000831117156108af57600080fd5b91908080601f016020809104026020016040519081016040528093929190818152602001838380828437600081840152601f19601f82011690508083019250505050505050919291929080359060200190929190803590602001909291905050506121b3565b005b34801561092357600080fd5b5061095a6004803603604081101561093a57600080fd5b81019080803590602001909291908035906020019092919050505061263e565b005b34801561096857600080fd5b506109ab6004803603602081101561097f57600080fd5b81019080803573ffffffffffffffffffffffffffffffffffffffff169060200190929190505050612a0c565b005b3480156109b957600080fd5b506109fc600480360360208110156109d057600080fd5b81019080803573ffffffffffffffffffffffffffffffffffffffff169060200190929190505050612c4b565b005b348015610a0a57600080fd5b50610a13612c6a565b60405180826002811115610a2357fe5b60ff16815260200191505060405180910390f35b610a3f611725565b1515610a4a57600080fd5b600160008273ffffffffffffffffffffffffffffffffffffffff1673ffffffffffffffffffffffffffffffffffffffff16815260200190815260200160002060006101000a81549060ff0219169055600260008273ffffffffffffffffffffffffffffffffffffffff1673ffffffffffffffffffffffffffffffffffffffff16815260200190815260200160002060006101000a81549060ff02191690557fa3b62bc36326052d97ea62d63c3d60308ed4c3ea8ac079dd8499f1e9c4f80c0f81604051808273ffffffffffffffffffffffffffffffffffffffff1673ffffffffffffffffffffffffffffffffffffffff16815260200191505060405180910390a150565b6000600360008573ffffffffffffffffffffffffffffffffffffffff1673ffffffffffffffffffffffffffffffffffffffff168152602001908152602001600020600001600084815260200190815260200160002060040182815481101515610bb357fe5b906000526020600020015490509392505050565b60606000806000600360008873ffffffffffffffffffffffffffffffffffffffff1673ffffffffffffffffffffffffffffffffffffffff1681526020019081526020016000206000016000878152602001908152602001600020600301600086815260200190815260200160002090508060010181600201548260030154828054600181600116156101000203166002900480601f016020809104026020016040519081016040528092919081815260200182805460018160011615610100020316600290048015610cda5780601f10610caf57610100808354040283529160200191610cda565b820191906000526020600020905b815481529060010190602001808311610cbd57829003601f168201915b505050505092509350935093505093509350939050565b600080600360008573ffffffffffffffffffffffffffffffffffffffff1673ffffffffffffffffffffffffffffffffffffffff16815260200190815260200160002090508060000160008481526020019081526020016000206004018054905091505092915050565b600260003373ffffffffffffffffffffffffffffffffffffffff1673ffffffffffffffffffffffffffffffffffffffff16815260200190815260200160002060009054906101000a900460ff168015610e15575060016002811115610dbb57fe5b600160003373ffffffffffffffffffffffffffffffffffffffff1673ffffffffffffffffffffffffffffffffffffffff16815260200190815260200160002060009054906101000a900460ff166002811115610e1357fe5b145b1515610e2057600080fd5b60008151111515610ebf576040517f08c379a00000000000000000000000000000000000000000000000000000000081526004018080602001828103825260258152602001807f546865206e616d65206f66207468652073746f72652063616e6e6f742062652081526020017f656d70747900000000000000000000000000000000000000000000000000000081525060400191505060405180910390fd5b60003382604051602001808373ffffffffffffffffffffffffffffffffffffffff1673ffffffffffffffffffffffffffffffffffffffff166c0100000000000000000000000002815260140182805190602001908083835b602083101515610f3c5780518252602082019150602081019050602083039250610f17565b6001836020036101000a038019825116818451168082178552505050505050905001925050506040516020818303038152906040528051906020012090506000600102600360003373ffffffffffffffffffffffffffffffffffffffff1673ffffffffffffffffffffffffffffffffffffffff168152602001908152602001600020600001600083815260200190815260200160002060000154141515611071576040517f08c379a00000000000000000000000000000000000000000000000000000000081526004018080602001828103825260368152602001807f5468652073656c6c6572206d757374206e6f7420686176652074776f2073746f81526020017f7265732077697468207468652073616d65206e616d650000000000000000000081525060400191505060405180910390fd5b6000600360003373ffffffffffffffffffffffffffffffffffffffff1673ffffffffffffffffffffffffffffffffffffffff16815260200190815260200160002090506080604051908101604052808381526020013373ffffffffffffffffffffffffffffffffffffffff16815260200184815260200160006040519080825280602002602001820160405280156111185781602001602082028038833980820191505090505b508152508160000160008481526020019081526020016000206000820151816000015560208201518160010160006101000a81548173ffffffffffffffffffffffffffffffffffffffff021916908373ffffffffffffffffffffffffffffffffffffffff160217905550604082015181600201908051906020019061119e929190612e11565b5060608201518160040190805190602001906111bb929190612e91565b50905050806001018290806001815401808255809150509060018203906000526020600020016000909192909190915055507fc790edb73a0172213f9c865455acd89732be6e893d2d82aeb7225e335ea7d9d1338484604051808473ffffffffffffffffffffffffffffffffffffffff1673ffffffffffffffffffffffffffffffffffffffff16815260200180602001838152602001828103825284818151815260200191508051906020019080838360005b8381101561128957808201518184015260208101905061126e565b50505050905090810190601f1680156112b65780820380516001836020036101000a031916815260200191505b5094505050505060405180910390a1505050565b6112d2611725565b15156112dd57600080fd5b6000600160008373ffffffffffffffffffffffffffffffffffffffff1673ffffffffffffffffffffffffffffffffffffffff16815260200190815260200160002060006101000a81548160ff0219169083600281111561133957fe5b02179055506001600260008373ffffffffffffffffffffffffffffffffffffffff1673ffffffffffffffffffffffffffffffffffffffff16815260200190815260200160002060006101000a81548160ff0219169083151502179055507f44d6d25963f097ad14f29f06854a01f575648a1ef82f30e562ccd3889717e33981604051808273ffffffffffffffffffffffffffffffffffffffff1673ffffffffffffffffffffffffffffffffffffffff16815260200191505060405180910390a150565b611404611725565b151561140f57600080fd5b600073ffffffffffffffffffffffffffffffffffffffff166000809054906101000a900473ffffffffffffffffffffffffffffffffffffffff1673ffffffffffffffffffffffffffffffffffffffff167f8be0079c531659141344cd1fd0a4f28419497f9722a3daafe3b4186f6b6457e060405160405180910390a360008060006101000a81548173ffffffffffffffffffffffffffffffffffffffff021916908373ffffffffffffffffffffffffffffffffffffffff160217905550565b6000600360008473ffffffffffffffffffffffffffffffffffffffff1673ffffffffffffffffffffffffffffffffffffffff1681526020019081526020016000206001018281548110151561151f57fe5b9060005260206000200154905092915050565b600260003373ffffffffffffffffffffffffffffffffffffffff1673ffffffffffffffffffffffffffffffffffffffff16815260200190815260200160002060009054906101000a900460ff1680156115ed57506000600281111561159357fe5b600160003373ffffffffffffffffffffffffffffffffffffffff1673ffffffffffffffffffffffffffffffffffffffff16815260200190815260200160002060009054906101000a900460ff1660028111156115eb57fe5b145b15156115f857600080fd5b600160008273ffffffffffffffffffffffffffffffffffffffff1673ffffffffffffffffffffffffffffffffffffffff16815260200190815260200160002060006101000a81549060ff0219169055600260008273ffffffffffffffffffffffffffffffffffffffff1673ffffffffffffffffffffffffffffffffffffffff16815260200190815260200160002060006101000a81549060ff02191690557fa6f3b3030df964d974376ba4db21cbe49207bd79998f0d619c1c3a422259707f81604051808273ffffffffffffffffffffffffffffffffffffffff1673ffffffffffffffffffffffffffffffffffffffff16815260200191505060405180910390a150565b60008060009054906101000a900473ffffffffffffffffffffffffffffffffffffffff16905090565b60008060009054906101000a900473ffffffffffffffffffffffffffffffffffffffff1673ffffffffffffffffffffffffffffffffffffffff163373ffffffffffffffffffffffffffffffffffffffff1614905090565b6060600080600360008673ffffffffffffffffffffffffffffffffffffffff1673ffffffffffffffffffffffffffffffffffffffff16815260200190815260200160002060000160008581526020019081526020016000209050806002018160040180549050818054600181600116156101000203166002900480601f0160208091040260200160405190810160405280929190818152602001828054600181600116156101000203166002900480156118775780601f1061184c57610100808354040283529160200191611877565b820191906000526020600020905b81548152906001019060200180831161185a57829003601f168201915b5050505050915092509250509250929050565b600080600360008473ffffffffffffffffffffffffffffffffffffffff1673ffffffffffffffffffffffffffffffffffffffff16815260200190815260200160002090508060010180549050915050919050565b600260003373ffffffffffffffffffffffffffffffffffffffff1673ffffffffffffffffffffffffffffffffffffffff16815260200190815260200160002060009054906101000a900460ff16801561199957506001600281111561193f57fe5b600160003373ffffffffffffffffffffffffffffffffffffffff1673ffffffffffffffffffffffffffffffffffffffff16815260200190815260200160002060009054906101000a900460ff16600281111561199757fe5b145b15156119a457600080fd5b81816000600102600360003373ffffffffffffffffffffffffffffffffffffffff1673ffffffffffffffffffffffffffffffffffffffff16815260200190815260200160002060000160008481526020019081526020016000206000015414151515611a0f57600080fd5b6000600360003373ffffffffffffffffffffffffffffffffffffffff1673ffffffffffffffffffffffffffffffffffffffff168152602001908152602001600020600001600084815260200190815260200160002060030160008381526020019081526020016000206000015414151515611a8957600080fd5b6000600360003373ffffffffffffffffffffffffffffffffffffffff1673ffffffffffffffffffffffffffffffffffffffff1681526020019081526020016000206000016000868152602001908152602001600020905060008090505b816004018054905081108015611b175750848260040182815481101515611b0957fe5b906000526020600020015414155b15611b29578080600101915050611ae6565b816004018054905081101515611ba7576040517f08c379a000000000000000000000000000000000000000000000000000000000815260040180806020018281038252601a8152602001807f736b75206e6f7420666f756e6420696e206974656d206c69737400000000000081525060200191505060405180910390fd5b816003016000868152602001908152602001600020600080820160009055600182016000611bd59190612ede565b60028201600090556003820160009055505060018260040180549050118015611c08575060018260040180549050038114155b15611c5357816004016001836004018054905003815481101515611c2857fe5b90600052602060002001548260040182815481101515611c4457fe5b90600052602060002001819055505b81600401805480919060019003611c6a9190612f26565b507fd1229990c7f2eb9f62e90ccbcb0a6619b996100e5785d6956e3082cee433591c338787604051808473ffffffffffffffffffffffffffffffffffffffff1673ffffffffffffffffffffffffffffffffffffffff168152602001838152602001828152602001935050505060405180910390a1505050505050565b600260003373ffffffffffffffffffffffffffffffffffffffff1673ffffffffffffffffffffffffffffffffffffffff16815260200190815260200160002060009054906101000a900460ff168015611da1575060016002811115611d4757fe5b600160003373ffffffffffffffffffffffffffffffffffffffff1673ffffffffffffffffffffffffffffffffffffffff16815260200190815260200160002060009054906101000a900460ff166002811115611d9f57fe5b145b1515611dac57600080fd5b846000600102600360003373ffffffffffffffffffffffffffffffffffffffff1673ffffffffffffffffffffffffffffffffffffffff16815260200190815260200160002060000160008381526020019081526020016000206000015414151515611e1657600080fd5b6000600360003373ffffffffffffffffffffffffffffffffffffffff1673ffffffffffffffffffffffffffffffffffffffff16815260200190815260200160002060000160008881526020019081526020016000209050600081600301600088815260200190815260200160002060000154141515611efd576040517f08c379a000000000000000000000000000000000000000000000000000000000815260040180806020018281038252601e8152602001807f534b55206d75737420626520756e6971756520666f7220612073746f7265000081525060200191505060405180910390fd5b600084111515611f75576040517f08c379a000000000000000000000000000000000000000000000000000000000815260040180806020018281038252601f8152602001807f5072696365206d757374206265206120706f736974697665206e756d6265720081525060200191505060405180910390fd5b600083111515612013576040517f08c379a000000000000000000000000000000000000000000000000000000000815260040180806020018281038252602a8152602001807f417661696c61626c6520616d6f756e74206d757374206265206120706f73697481526020017f697665206e756d6265720000000000000000000000000000000000000000000081525060400191505060405180910390fd5b60806040519081016040528087815260200186815260200185815260200184815250816003016000888152602001908152602001600020600082015181600001556020820151816001019080519060200190612070929190612e11565b506040820151816002015560608201518160030155905050806004018690806001815401808255809150509060018203906000526020600020016000909192909190915055507f6bd5d0af08c8ffa4a3d7dd1b59614faa2d9476b13e8ed73adc994061d416e19b33826000015488888888604051808773ffffffffffffffffffffffffffffffffffffffff1673ffffffffffffffffffffffffffffffffffffffff16815260200186815260200185815260200180602001848152602001838152602001828103825285818151815260200191508051906020019080838360005b8381101561216b578082015181840152602081019050612150565b50505050905090810190601f1680156121985780820380516001836020036101000a031916815260200191505b5097505050505050505060405180910390a150505050505050565b600260003373ffffffffffffffffffffffffffffffffffffffff1673ffffffffffffffffffffffffffffffffffffffff16815260200190815260200160002060009054906101000a900460ff16801561226e57506001600281111561221457fe5b600160003373ffffffffffffffffffffffffffffffffffffffff1673ffffffffffffffffffffffffffffffffffffffff16815260200190815260200160002060009054906101000a900460ff16600281111561226c57fe5b145b151561227957600080fd5b84846000600102600360003373ffffffffffffffffffffffffffffffffffffffff1673ffffffffffffffffffffffffffffffffffffffff168152602001908152602001600020600001600084815260200190815260200160002060000154141515156122e457600080fd5b6000600360003373ffffffffffffffffffffffffffffffffffffffff1673ffffffffffffffffffffffffffffffffffffffff16815260200190815260200160002060000160008481526020019081526020016000206003016000838152602001908152602001600020600001541415151561235e57600080fd5b6000600360003373ffffffffffffffffffffffffffffffffffffffff1673ffffffffffffffffffffffffffffffffffffffff1681526020019081526020016000206000016000898152602001908152602001600020905060008511151561242d576040517f08c379a000000000000000000000000000000000000000000000000000000000815260040180806020018281038252601f8152602001807f5072696365206d757374206265206120706f736974697665206e756d6265720081525060200191505060405180910390fd5b6000841115156124cb576040517f08c379a000000000000000000000000000000000000000000000000000000000815260040180806020018281038252602a8152602001807f417661696c61626c6520616d6f756e74206d757374206265206120706f73697481526020017f697665206e756d6265720000000000000000000000000000000000000000000081525060400191505060405180910390fd5b60806040519081016040528088815260200187815260200186815260200185815250816003016000898152602001908152602001600020600082015181600001556020820151816001019080519060200190612528929190612e11565b5060408201518160020155606082015181600301559050507f623980be88682bdeff2038745fc7d32c828fc0497679180b294feb91a04481f533826000015489898989604051808773ffffffffffffffffffffffffffffffffffffffff1673ffffffffffffffffffffffffffffffffffffffff16815260200186815260200185815260200180602001848152602001838152602001828103825285818151815260200191508051906020019080838360005b838110156125f55780820151818401526020810190506125da565b50505050905090810190601f1680156126225780820380516001836020036101000a031916815260200191505b5097505050505050505060405180910390a15050505050505050565b600260003373ffffffffffffffffffffffffffffffffffffffff1673ffffffffffffffffffffffffffffffffffffffff16815260200190815260200160002060009054906101000a900460ff1680156126f957506001600281111561269f57fe5b600160003373ffffffffffffffffffffffffffffffffffffffff1673ffffffffffffffffffffffffffffffffffffffff16815260200190815260200160002060009054906101000a900460ff1660028111156126f757fe5b145b151561270457600080fd5b816000600102600360003373ffffffffffffffffffffffffffffffffffffffff1673ffffffffffffffffffffffffffffffffffffffff1681526020019081526020016000206000016000838152602001908152602001600020600001541415151561276e57600080fd5b6000600360003373ffffffffffffffffffffffffffffffffffffffff1673ffffffffffffffffffffffffffffffffffffffff16815260200190815260200160002090506000600360003373ffffffffffffffffffffffffffffffffffffffff1673ffffffffffffffffffffffffffffffffffffffff1681526020019081526020016000206000016000868152602001908152602001600020905060008090505b816004018054905081101561288557816003016000836004018381548110151561283457fe5b906000526020600020015481526020019081526020016000206000808201600090556001820160006128669190612ede565b600282016000905560038201600090555050808060010191505061280e565b508160000160008681526020019081526020016000206000808201600090556001820160006101000a81549073ffffffffffffffffffffffffffffffffffffffff02191690556002820160006128db9190612ede565b6004820160006128eb9190612f52565b50506001826001018054905011801561290e575060018260010180549050038414155b156129595781600101600183600101805490500381548110151561292e57fe5b9060005260206000200154826001018581548110151561294a57fe5b90600052602060002001819055505b81600101600183600101805490500381548110151561297457fe5b9060005260206000200160009055816001018054809190600190036129999190612f73565b507fa65aaa89a6b8d45604b92a24fb97c91fc3d1504a9a40d61e4121e83dfd2de4c33386604051808373ffffffffffffffffffffffffffffffffffffffff1673ffffffffffffffffffffffffffffffffffffffff1681526020018281526020019250505060405180910390a15050505050565b600260003373ffffffffffffffffffffffffffffffffffffffff1673ffffffffffffffffffffffffffffffffffffffff16815260200190815260200160002060009054906101000a900460ff168015612ac7575060006002811115612a6d57fe5b600160003373ffffffffffffffffffffffffffffffffffffffff1673ffffffffffffffffffffffffffffffffffffffff16815260200190815260200160002060009054906101000a900460ff166002811115612ac557fe5b145b1515612ad257600080fd5b80600260008273ffffffffffffffffffffffffffffffffffffffff1673ffffffffffffffffffffffffffffffffffffffff16815260200190815260200160002060009054906101000a900460ff16151515612b2c57600080fd5b60018060008473ffffffffffffffffffffffffffffffffffffffff1673ffffffffffffffffffffffffffffffffffffffff16815260200190815260200160002060006101000a81548160ff02191690836002811115612b8757fe5b02179055506001600260008473ffffffffffffffffffffffffffffffffffffffff1673ffffffffffffffffffffffffffffffffffffffff16815260200190815260200160002060006101000a81548160ff0219169083151502179055507f3d78526f2568d430fd8e20719601f7bc3f979936f8880236cc284e8127251b4282604051808273ffffffffffffffffffffffffffffffffffffffff1673ffffffffffffffffffffffffffffffffffffffff16815260200191505060405180910390a15050565b612c53611725565b1515612c5e57600080fd5b612c6781612d17565b50565b6000600260003373ffffffffffffffffffffffffffffffffffffffff1673ffffffffffffffffffffffffffffffffffffffff16815260200190815260200160002060009054906101000a900460ff16612cc4576002612d12565b600160003373ffffffffffffffffffffffffffffffffffffffff1673ffffffffffffffffffffffffffffffffffffffff16815260200190815260200160002060009054906101000a900460ff165b905090565b600073ffffffffffffffffffffffffffffffffffffffff168173ffffffffffffffffffffffffffffffffffffffff1614151515612d5357600080fd5b8073ffffffffffffffffffffffffffffffffffffffff166000809054906101000a900473ffffffffffffffffffffffffffffffffffffffff1673ffffffffffffffffffffffffffffffffffffffff167f8be0079c531659141344cd1fd0a4f28419497f9722a3daafe3b4186f6b6457e060405160405180910390a3806000806101000a81548173ffffffffffffffffffffffffffffffffffffffff021916908373ffffffffffffffffffffffffffffffffffffffff16021790555050565b828054600181600116156101000203166002900490600052602060002090601f016020900481019282601f10612e5257805160ff1916838001178555612e80565b82800160010185558215612e80579182015b82811115612e7f578251825591602001919060010190612e64565b5b509050612e8d9190612f9f565b5090565b828054828255906000526020600020908101928215612ecd579160200282015b82811115612ecc578251825591602001919060010190612eb1565b5b509050612eda9190612f9f565b5090565b50805460018160011615610100020316600290046000825580601f10612f045750612f23565b601f016020900490600052602060002090810190612f229190612f9f565b5b50565b815481835581811115612f4d57818360005260206000209182019101612f4c9190612f9f565b5b505050565b5080546000825590600052602060002090810190612f709190612f9f565b50565b815481835581811115612f9a57818360005260206000209182019101612f999190612fc4565b5b505050565b612fc191905b80821115612fbd576000816000905550600101612fa5565b5090565b90565b612fe691905b80821115612fe2576000816000905550600101612fca565b5090565b9056fea165627a7a72305820878b99f9e0a3e8d2442ce47ed5c5be37a2a20b6cb5b49a77c038dfa8c87497f80029",
  "source": "pragma solidity ^0.5.0;\n\nimport 'openzeppelin-solidity/contracts/ownership/Ownable.sol';\n\ncontract Marketplace is Ownable {\n\n    enum Roles { ADMIN, SELLER, BUYER }\n\n    /* To know the role of a specific user */\n    mapping(address => Roles) roles;\n    mapping(address => bool) privilegedUsers;\n\n    /* Stores owned by sellers */\n    mapping(address => Empire) empires;\n\n    /* Structs */\n    struct Empire {\n        mapping(bytes32 => Store) stores;\n        bytes32[] storesIds;\n    }\n\n    struct Store {\n        bytes32 storeId;\n        address seller;\n        string name;\n        mapping(uint => Item) items;\n        uint[] skus;\n    }\n\n    struct Item {\n        uint sku;\n        string name;\n        uint price;\n        uint availableAmount;\n    }\n\n    /* Events */\n    event SellerAdded(address newSeller);\n    event SellerRemoved(address oldSeller);\n    event AdminAdded(address newAdmin);\n    event AdminRemoved(address oldAdmin);\n\n    event StoreCreated(address seller, string name, bytes32 storeId);\n    event StoreRemoved(address seller, bytes32 storeId);\n    event ItemCreated(address seller, bytes32 storeId, uint sku, string name, uint price, uint availableAmount);\n    event ItemRemoved(address seller, bytes32 storeId, uint sku);\n    event ItemEdited(address seller, bytes32 storeId, uint sku, string name, uint price, uint availableAmount);\n\n    /* Roles modifiers */\n    modifier isAdmin () { require (privilegedUsers[msg.sender] && roles[msg.sender] == Roles.ADMIN); _;}\n    modifier isSeller () { require (privilegedUsers[msg.sender] && roles[msg.sender] == Roles.SELLER); _;}\n    modifier isBuyer (address _address) { require (!privilegedUsers[_address]); _;}\n\n    /* Ownership modifiers */\n    modifier isSellerOwner (bytes32 storeId) { require(empires[msg.sender].stores[storeId].storeId != 0); _; }\n    modifier isItemSeller (bytes32 storeId, uint sku) {\n        require (empires[msg.sender].stores[storeId].storeId != 0);\n        require (empires[msg.sender].stores[storeId].items[sku].sku != 0);\n        _;\n    }\n\n    /* Managing permissions */\n\n    function getRole() public view returns(Roles) {\n        return privilegedUsers[msg.sender] ? roles[msg.sender] : Roles.BUYER;\n    }\n\n    function addAdmin(address newAdmin) public onlyOwner {\n        roles[newAdmin] = Roles.ADMIN;\n        privilegedUsers[newAdmin] = true;\n        emit AdminAdded(newAdmin);\n    }\n\n    function removeAdmin(address oldAdmin) public onlyOwner {\n        delete roles[oldAdmin];\n        delete privilegedUsers[oldAdmin];\n        emit AdminRemoved(oldAdmin);\n    }\n\n    function addSeller(address newSeller) public isAdmin isBuyer(newSeller) {\n        roles[newSeller] = Roles.SELLER;\n        privilegedUsers[newSeller] = true;\n        emit SellerAdded(newSeller);\n    }\n\n    function removeSeller(address oldSeller) public isAdmin {\n        delete roles[oldSeller];\n        delete privilegedUsers[oldSeller];\n        emit SellerRemoved(oldSeller);\n    }\n\n    /* Managing stores */\n\n    function addStore(string memory name) public isSeller {\n        require(bytes(name).length > 0, 'The name of the store cannot be empty');\n\n        bytes32 storeId = keccak256(abi.encodePacked(msg.sender, name));\n        require(empires[msg.sender].stores[storeId].storeId == 0, 'The seller must not have two stores with the same name');\n\n        Empire storage empire = empires[msg.sender];\n        empire.stores[storeId] = Store({ storeId: storeId, seller: msg.sender, name: name, skus: new uint[](0) });\n        empire.storesIds.push(storeId);\n\n        emit StoreCreated(msg.sender, name, storeId);\n    }\n\n    function removeStore(bytes32 storeId, uint storeIndex) public isSeller isSellerOwner(storeId) {\n        // TODO - Taking into account this: https://solidity.readthedocs.io/en/develop/types.html#delete\n        Empire storage empire = empires[msg.sender];\n        Store storage store = empires[msg.sender].stores[storeId];\n\n        // Removing items associated with the store\n        for(uint skuIndex = 0; skuIndex < store.skus.length; skuIndex++) {\n            delete store.items[store.skus[skuIndex]];\n        }\n\n        // Removing the store\n        delete empire.stores[storeId];\n\n        // Removing and compacting an item in an array: https://github.com/su-squares/ethereum-contract/blob/master/contracts/SuNFT.sol#L296\n        if (empire.storesIds.length > 1 && storeIndex != empire.storesIds.length - 1)        {\n            empire.storesIds[storeIndex] = empire.storesIds[empire.storesIds.length - 1];\n        }\n        delete empire.storesIds[empire.storesIds.length - 1];\n        empire.storesIds.length--;\n\n        emit StoreRemoved(msg.sender, storeId);\n    }\n\n    function getNumberOfStores(address seller) public view returns(uint) {\n        Empire storage empire = empires[seller];\n        return empire.storesIds.length;\n    }\n\n    function getStoreId(address seller, uint storeIndex) public view returns(bytes32) {\n        return empires[seller].storesIds[storeIndex];\n    }\n\n    /*\n     * returns the name of the store and the number of items in it\n     */\n    function getStoreMetadata(address seller, bytes32 storeId) public view returns(string memory, uint) {\n        Store storage store = empires[seller].stores[storeId];\n        return (store.name, store.skus.length);\n    }\n\n    /* Managing items */\n\n    function addItem(bytes32 storeId, uint sku, string memory name, uint price, uint availableAmount)\n        public\n        isSeller\n        isSellerOwner(storeId) {\n        Store storage store = empires[msg.sender].stores[storeId];\n\n        // Checking that there aren't any item with the same sku in the store\n        require(store.items[sku].sku == 0, 'SKU must be unique for a store');\n\n        // TODO Check integer overflows (more in the buy operation)\n        require(price > 0, 'Price must be a positive number');\n        require(availableAmount > 0, 'Available amount must be a positive number');\n\n        store.items[sku] = Item({ sku: sku, name: name, price: price, availableAmount: availableAmount });\n        store.skus.push(sku);\n\n        emit ItemCreated(msg.sender, store.storeId, sku, name, price, availableAmount);\n    }\n\n    function editItem(bytes32 storeId, uint sku, string memory name, uint price, uint availableAmount)\n        public\n        isSeller\n        isItemSeller(storeId, sku) {\n        Store storage store = empires[msg.sender].stores[storeId];\n\n        // TODO Check integer overflows (more in the buy operation)\n        require(price > 0, 'Price must be a positive number');\n        require(availableAmount > 0, 'Available amount must be a positive number');\n\n        store.items[sku] = Item({ sku: sku, name: name, price: price, availableAmount: availableAmount });\n\n        emit ItemEdited(msg.sender, store.storeId, sku, name, price, availableAmount);\n    }\n\n    function getNumberOfItems(address seller, bytes32 storeId) public view returns(uint) {\n        Empire storage empire = empires[seller];\n        return empire.stores[storeId].skus.length;\n    }\n\n    function getSku(address seller, bytes32 storeId, uint skuIndex) public view returns(uint) {\n        return empires[seller].stores[storeId].skus[skuIndex];\n    }\n\n    function getItemMetadata(address seller, bytes32 storeId, uint sku)\n        public\n        view\n        returns(string memory, uint, uint) {\n        Item storage item = empires[seller].stores[storeId].items[sku];\n        return (item.name, item.price, item.availableAmount);\n    }\n\n    function removeItem(bytes32 storeId, uint sku)\n        public\n        isSeller\n        isItemSeller(storeId, sku) {\n\n        Store storage store = empires[msg.sender].stores[storeId];\n        uint skuIndex = 0;\n\n        while(skuIndex < store.skus.length && store.skus[skuIndex] != sku) {\n            skuIndex++;\n        }\n\n        require(skuIndex < store.skus.length, 'sku not found in item list');\n\n        // Delete from map\n        delete store.items[sku];\n\n        // Delete from array\n        // Removing and compacting an item in an array: https://github.com/su-squares/ethereum-contract/blob/master/contracts/SuNFT.sol#L296\n        if (store.skus.length > 1 && skuIndex != store.skus.length - 1)        {\n            store.skus[skuIndex] = store.skus[store.skus.length - 1];\n        }\n\n        // delete store.skus[store.skus.length - 1];\n        store.skus.length--;\n\n        emit ItemRemoved(msg.sender, storeId, sku);\n    }\n}\n",
  "sourcePath": "/home/jlanchas/repositorios/github/chechu/consensys-academy-final-project/contracts/Marketplace.sol",
  "compiler": {
    "name": "solc",
    "version": "0.5.0+commit.1d4f565a.Emscripten.clang"
  },
  "schemaVersion": "3.0.0",
  "updatedAt": "2019-01-21T21:16:59.204Z",
  "devdoc": {
    "methods": {
      "isOwner()": {
        "return": "true if `msg.sender` is the owner of the contract."
      },
      "owner()": {
        "return": "the address of the owner."
      },
      "renounceOwnership()": {
        "details": "Allows the current owner to relinquish control of the contract."
      },
      "transferOwnership(address)": {
        "details": "Allows the current owner to transfer control of the contract to a newOwner.",
        "params": {
          "newOwner": "The address to transfer ownership to."
        }
      }
    }
  },
  "userdoc": {
    "methods": {
      "renounceOwnership()": {
        "notice": "Renouncing to ownership will leave the contract without an owner. It will not be possible to call the functions with the `onlyOwner` modifier anymore."
      }
    }
  }
}