{
  "contractName": "Marketplace",
  "abi": [
    {
      "constant": false,
      "inputs": [],
      "name": "renounceOwnership",
      "outputs": [],
      "payable": false,
      "stateMutability": "nonpayable",
      "type": "function"
    },
    {
      "constant": true,
      "inputs": [],
      "name": "stopped",
      "outputs": [
        {
          "name": "",
          "type": "bool"
        }
      ],
      "payable": false,
      "stateMutability": "view",
      "type": "function"
    },
    {
      "constant": true,
      "inputs": [],
      "name": "owner",
      "outputs": [
        {
          "name": "",
          "type": "address"
        }
      ],
      "payable": false,
      "stateMutability": "view",
      "type": "function"
    },
    {
      "constant": true,
      "inputs": [],
      "name": "isOwner",
      "outputs": [
        {
          "name": "",
          "type": "bool"
        }
      ],
      "payable": false,
      "stateMutability": "view",
      "type": "function"
    },
    {
      "constant": false,
      "inputs": [
        {
          "name": "newOwner",
          "type": "address"
        }
      ],
      "name": "transferOwnership",
      "outputs": [],
      "payable": false,
      "stateMutability": "nonpayable",
      "type": "function"
    },
    {
      "anonymous": false,
      "inputs": [
        {
          "indexed": false,
          "name": "newSeller",
          "type": "address"
        }
      ],
      "name": "SellerAdded",
      "type": "event"
    },
    {
      "anonymous": false,
      "inputs": [
        {
          "indexed": false,
          "name": "oldSeller",
          "type": "address"
        }
      ],
      "name": "SellerRemoved",
      "type": "event"
    },
    {
      "anonymous": false,
      "inputs": [
        {
          "indexed": false,
          "name": "newAdmin",
          "type": "address"
        }
      ],
      "name": "AdminAdded",
      "type": "event"
    },
    {
      "anonymous": false,
      "inputs": [
        {
          "indexed": false,
          "name": "oldAdmin",
          "type": "address"
        }
      ],
      "name": "AdminRemoved",
      "type": "event"
    },
    {
      "anonymous": false,
      "inputs": [
        {
          "indexed": false,
          "name": "seller",
          "type": "address"
        },
        {
          "indexed": false,
          "name": "name",
          "type": "string"
        },
        {
          "indexed": false,
          "name": "storeId",
          "type": "bytes32"
        }
      ],
      "name": "StoreCreated",
      "type": "event"
    },
    {
      "anonymous": false,
      "inputs": [
        {
          "indexed": false,
          "name": "seller",
          "type": "address"
        },
        {
          "indexed": false,
          "name": "storeId",
          "type": "bytes32"
        }
      ],
      "name": "StoreRemoved",
      "type": "event"
    },
    {
      "anonymous": false,
      "inputs": [
        {
          "indexed": false,
          "name": "seller",
          "type": "address"
        },
        {
          "indexed": false,
          "name": "storeId",
          "type": "bytes32"
        },
        {
          "indexed": false,
          "name": "sku",
          "type": "uint256"
        },
        {
          "indexed": false,
          "name": "name",
          "type": "string"
        },
        {
          "indexed": false,
          "name": "price",
          "type": "uint256"
        },
        {
          "indexed": false,
          "name": "availableNumItems",
          "type": "uint256"
        }
      ],
      "name": "ItemCreated",
      "type": "event"
    },
    {
      "anonymous": false,
      "inputs": [
        {
          "indexed": false,
          "name": "seller",
          "type": "address"
        },
        {
          "indexed": false,
          "name": "storeId",
          "type": "bytes32"
        },
        {
          "indexed": false,
          "name": "sku",
          "type": "uint256"
        }
      ],
      "name": "ItemRemoved",
      "type": "event"
    },
    {
      "anonymous": false,
      "inputs": [
        {
          "indexed": false,
          "name": "seller",
          "type": "address"
        },
        {
          "indexed": false,
          "name": "storeId",
          "type": "bytes32"
        },
        {
          "indexed": false,
          "name": "sku",
          "type": "uint256"
        },
        {
          "indexed": false,
          "name": "name",
          "type": "string"
        },
        {
          "indexed": false,
          "name": "price",
          "type": "uint256"
        },
        {
          "indexed": false,
          "name": "availableNumItems",
          "type": "uint256"
        }
      ],
      "name": "ItemEdited",
      "type": "event"
    },
    {
      "anonymous": false,
      "inputs": [
        {
          "indexed": false,
          "name": "seller",
          "type": "address"
        },
        {
          "indexed": false,
          "name": "storeId",
          "type": "bytes32"
        },
        {
          "indexed": false,
          "name": "sku",
          "type": "uint256"
        },
        {
          "indexed": false,
          "name": "numPurchasedItems",
          "type": "uint256"
        },
        {
          "indexed": false,
          "name": "newAvailableNumItems",
          "type": "uint256"
        }
      ],
      "name": "ItemPurchased",
      "type": "event"
    },
    {
      "anonymous": false,
      "inputs": [
        {
          "indexed": true,
          "name": "previousOwner",
          "type": "address"
        },
        {
          "indexed": true,
          "name": "newOwner",
          "type": "address"
        }
      ],
      "name": "OwnershipTransferred",
      "type": "event"
    },
    {
      "constant": false,
      "inputs": [],
      "name": "toggleContractActive",
      "outputs": [],
      "payable": false,
      "stateMutability": "nonpayable",
      "type": "function"
    },
    {
      "constant": true,
      "inputs": [],
      "name": "getRole",
      "outputs": [
        {
          "name": "",
          "type": "uint8"
        }
      ],
      "payable": false,
      "stateMutability": "view",
      "type": "function"
    },
    {
      "constant": false,
      "inputs": [
        {
          "name": "newAdmin",
          "type": "address"
        }
      ],
      "name": "addAdmin",
      "outputs": [],
      "payable": false,
      "stateMutability": "nonpayable",
      "type": "function"
    },
    {
      "constant": false,
      "inputs": [
        {
          "name": "oldAdmin",
          "type": "address"
        }
      ],
      "name": "removeAdmin",
      "outputs": [],
      "payable": false,
      "stateMutability": "nonpayable",
      "type": "function"
    },
    {
      "constant": false,
      "inputs": [
        {
          "name": "newSeller",
          "type": "address"
        }
      ],
      "name": "addSeller",
      "outputs": [],
      "payable": false,
      "stateMutability": "nonpayable",
      "type": "function"
    },
    {
      "constant": false,
      "inputs": [
        {
          "name": "oldSeller",
          "type": "address"
        }
      ],
      "name": "removeSeller",
      "outputs": [],
      "payable": false,
      "stateMutability": "nonpayable",
      "type": "function"
    },
    {
      "constant": true,
      "inputs": [],
      "name": "getNumberOfSellers",
      "outputs": [
        {
          "name": "",
          "type": "uint256"
        }
      ],
      "payable": false,
      "stateMutability": "view",
      "type": "function"
    },
    {
      "constant": true,
      "inputs": [
        {
          "name": "sellerIndex",
          "type": "uint256"
        }
      ],
      "name": "getSellerAddress",
      "outputs": [
        {
          "name": "",
          "type": "address"
        }
      ],
      "payable": false,
      "stateMutability": "view",
      "type": "function"
    },
    {
      "constant": false,
      "inputs": [
        {
          "name": "name",
          "type": "string"
        }
      ],
      "name": "addStore",
      "outputs": [],
      "payable": false,
      "stateMutability": "nonpayable",
      "type": "function"
    },
    {
      "constant": false,
      "inputs": [
        {
          "name": "storeId",
          "type": "bytes32"
        },
        {
          "name": "storeIndex",
          "type": "uint256"
        }
      ],
      "name": "removeStore",
      "outputs": [],
      "payable": false,
      "stateMutability": "nonpayable",
      "type": "function"
    },
    {
      "constant": true,
      "inputs": [
        {
          "name": "seller",
          "type": "address"
        }
      ],
      "name": "getNumberOfStores",
      "outputs": [
        {
          "name": "",
          "type": "uint256"
        }
      ],
      "payable": false,
      "stateMutability": "view",
      "type": "function"
    },
    {
      "constant": true,
      "inputs": [
        {
          "name": "seller",
          "type": "address"
        },
        {
          "name": "storeIndex",
          "type": "uint256"
        }
      ],
      "name": "getStoreId",
      "outputs": [
        {
          "name": "",
          "type": "bytes32"
        }
      ],
      "payable": false,
      "stateMutability": "view",
      "type": "function"
    },
    {
      "constant": true,
      "inputs": [
        {
          "name": "seller",
          "type": "address"
        },
        {
          "name": "storeId",
          "type": "bytes32"
        }
      ],
      "name": "getStoreMetadata",
      "outputs": [
        {
          "name": "",
          "type": "string"
        },
        {
          "name": "",
          "type": "uint256"
        }
      ],
      "payable": false,
      "stateMutability": "view",
      "type": "function"
    },
    {
      "constant": false,
      "inputs": [
        {
          "name": "storeId",
          "type": "bytes32"
        },
        {
          "name": "sku",
          "type": "uint256"
        },
        {
          "name": "name",
          "type": "string"
        },
        {
          "name": "price",
          "type": "uint256"
        },
        {
          "name": "availableNumItems",
          "type": "uint256"
        }
      ],
      "name": "addItem",
      "outputs": [],
      "payable": false,
      "stateMutability": "nonpayable",
      "type": "function"
    },
    {
      "constant": false,
      "inputs": [
        {
          "name": "storeId",
          "type": "bytes32"
        },
        {
          "name": "sku",
          "type": "uint256"
        },
        {
          "name": "name",
          "type": "string"
        },
        {
          "name": "price",
          "type": "uint256"
        },
        {
          "name": "availableNumItems",
          "type": "uint256"
        }
      ],
      "name": "editItem",
      "outputs": [],
      "payable": false,
      "stateMutability": "nonpayable",
      "type": "function"
    },
    {
      "constant": true,
      "inputs": [
        {
          "name": "seller",
          "type": "address"
        },
        {
          "name": "storeId",
          "type": "bytes32"
        }
      ],
      "name": "getNumberOfItems",
      "outputs": [
        {
          "name": "",
          "type": "uint256"
        }
      ],
      "payable": false,
      "stateMutability": "view",
      "type": "function"
    },
    {
      "constant": true,
      "inputs": [
        {
          "name": "seller",
          "type": "address"
        },
        {
          "name": "storeId",
          "type": "bytes32"
        },
        {
          "name": "skuIndex",
          "type": "uint256"
        }
      ],
      "name": "getSku",
      "outputs": [
        {
          "name": "",
          "type": "uint256"
        }
      ],
      "payable": false,
      "stateMutability": "view",
      "type": "function"
    },
    {
      "constant": true,
      "inputs": [
        {
          "name": "seller",
          "type": "address"
        },
        {
          "name": "storeId",
          "type": "bytes32"
        },
        {
          "name": "sku",
          "type": "uint256"
        }
      ],
      "name": "getItemMetadata",
      "outputs": [
        {
          "name": "",
          "type": "string"
        },
        {
          "name": "",
          "type": "uint256"
        },
        {
          "name": "",
          "type": "uint256"
        }
      ],
      "payable": false,
      "stateMutability": "view",
      "type": "function"
    },
    {
      "constant": false,
      "inputs": [
        {
          "name": "storeId",
          "type": "bytes32"
        },
        {
          "name": "sku",
          "type": "uint256"
        }
      ],
      "name": "removeItem",
      "outputs": [],
      "payable": false,
      "stateMutability": "nonpayable",
      "type": "function"
    },
    {
      "constant": false,
      "inputs": [
        {
          "name": "seller",
          "type": "address"
        },
        {
          "name": "storeId",
          "type": "bytes32"
        },
        {
          "name": "sku",
          "type": "uint256"
        },
        {
          "name": "numPurchasedItems",
          "type": "uint256"
        }
      ],
      "name": "purchaseItem",
      "outputs": [],
      "payable": true,
      "stateMutability": "payable",
      "type": "function"
    },
    {
      "constant": false,
      "inputs": [],
      "name": "withdraw",
      "outputs": [],
      "payable": false,
      "stateMutability": "nonpayable",
      "type": "function"
    },
    {
      "constant": true,
      "inputs": [],
      "name": "getPendingFunds",
      "outputs": [
        {
          "name": "",
          "type": "uint256"
        }
      ],
      "payable": false,
      "stateMutability": "view",
      "type": "function"
    }
  ],
  "bytecode": "0x608060405260008060146101000a81548160ff021916908315150217905550336000806101000a81548173ffffffffffffffffffffffffffffffffffffffff021916908373ffffffffffffffffffffffffffffffffffffffff1602179055506000809054906101000a900473ffffffffffffffffffffffffffffffffffffffff1673ffffffffffffffffffffffffffffffffffffffff16600073ffffffffffffffffffffffffffffffffffffffff167f8be0079c531659141344cd1fd0a4f28419497f9722a3daafe3b4186f6b6457e060405160405180910390a3614571806100e96000396000f3fe60806040526004361061015f576000357c0100000000000000000000000000000000000000000000000000000000900463ffffffff1680631385d24c146101645780631785f53c1461017b5780631849e195146101cc57806324c1c0c9146102455780632ac81c77146102705780633ccfd60b1461035c5780633fbdf93714610373578063662feffc146103e257806370480275146104aa578063715018a6146104fb57806375f12b21146105125780637624ceef146105415780637cb9cf54146105b05780638da5cb5b146106015780638f32d59b14610658578063969416f714610687578063a06b78d014610762578063a0cbd1f6146107c7578063a1eb1bcd1461080c578063a675364d146108fc578063aea58dac14610977578063bb0e4b4d14610a67578063d93fabfa14610aac578063f2fde38b14610afd578063f4048e5514610b4e578063fa7cbc8214610b79578063fde0817414610bdb575b600080fd5b34801561017057600080fd5b50610179610c14565b005b34801561018757600080fd5b506101ca6004803603602081101561019e57600080fd5b81019080803573ffffffffffffffffffffffffffffffffffffffff169060200190929190505050610c53565b005b3480156101d857600080fd5b5061022f600480360360608110156101ef57600080fd5b81019080803573ffffffffffffffffffffffffffffffffffffffff1690602001909291908035906020019092919080359060200190929190505050610d81565b6040518082815260200191505060405180910390f35b34801561025157600080fd5b5061025a610dfa565b6040518082815260200191505060405180910390f35b34801561027c57600080fd5b506102d36004803603606081101561029357600080fd5b81019080803573ffffffffffffffffffffffffffffffffffffffff1690602001909291908035906020019092919080359060200190929190505050610f70565b6040518080602001848152602001838152602001828103825285818151815260200191508051906020019080838360005b8381101561031f578082015181840152602081019050610304565b50505050905090810190601f16801561034c5780820380516001836020036101000a031916815260200191505b5094505050505060405180910390f35b34801561036857600080fd5b5061037161109a565b005b34801561037f57600080fd5b506103cc6004803603604081101561039657600080fd5b81019080803573ffffffffffffffffffffffffffffffffffffffff1690602001909291908035906020019092919050505061129c565b6040518082815260200191505060405180910390f35b3480156103ee57600080fd5b506104a86004803603602081101561040557600080fd5b810190808035906020019064010000000081111561042257600080fd5b82018360208201111561043457600080fd5b8035906020019184600183028401116401000000008311171561045657600080fd5b91908080601f016020809104026020016040519081016040528093929190818152602001838380828437600081840152601f19601f820116905080830192505050505050509192919290505050611305565b005b3480156104b657600080fd5b506104f9600480360360208110156104cd57600080fd5b81019080803573ffffffffffffffffffffffffffffffffffffffff1690602001909291905050506118f5565b005b34801561050757600080fd5b50610510611a3e565b005b34801561051e57600080fd5b50610527611b10565b604051808215151515815260200191505060405180910390f35b34801561054d57600080fd5b5061059a6004803603604081101561056457600080fd5b81019080803573ffffffffffffffffffffffffffffffffffffffff16906020019092919080359060200190929190505050611b23565b6040518082815260200191505060405180910390f35b3480156105bc57600080fd5b506105ff600480360360208110156105d357600080fd5b81019080803573ffffffffffffffffffffffffffffffffffffffff169060200190929190505050611b87565b005b34801561060d57600080fd5b50610616612098565b604051808273ffffffffffffffffffffffffffffffffffffffff1673ffffffffffffffffffffffffffffffffffffffff16815260200191505060405180910390f35b34801561066457600080fd5b5061066d6120c1565b604051808215151515815260200191505060405180910390f35b34801561069357600080fd5b506106e0600480360360408110156106aa57600080fd5b81019080803573ffffffffffffffffffffffffffffffffffffffff16906020019092919080359060200190929190505050612118565b6040518080602001838152602001828103825284818151815260200191508051906020019080838360005b8381101561072657808201518184015260208101905061070b565b50505050905090810190601f1680156107535780820380516001836020036101000a031916815260200191505b50935050505060405180910390f35b34801561076e57600080fd5b506107b16004803603602081101561078557600080fd5b81019080803573ffffffffffffffffffffffffffffffffffffffff169060200190929190505050612226565b6040518082815260200191505060405180910390f35b3480156107d357600080fd5b5061080a600480360360408110156107ea57600080fd5b81019080803590602001909291908035906020019092919050505061227a565b005b34801561081857600080fd5b506108fa600480360360a081101561082f57600080fd5b8101908080359060200190929190803590602001909291908035906020019064010000000081111561086057600080fd5b82018360208201111561087257600080fd5b8035906020019184600183028401116401000000008311171561089457600080fd5b91908080601f016020809104026020016040519081016040528093929190818152602001838380828437600081840152601f19601f820116905080830192505050505050509192919290803590602001909291908035906020019092919050505061278e565b005b34801561090857600080fd5b506109356004803603602081101561091f57600080fd5b8101908080359060200190929190505050612d6b565b604051808273ffffffffffffffffffffffffffffffffffffffff1673ffffffffffffffffffffffffffffffffffffffff16815260200191505060405180910390f35b34801561098357600080fd5b50610a65600480360360a081101561099a57600080fd5b810190808035906020019092919080359060200190929190803590602001906401000000008111156109cb57600080fd5b8201836020820111156109dd57600080fd5b803590602001918460018302840111640100000000831117156109ff57600080fd5b91908080601f016020809104026020016040519081016040528093929190818152602001838380828437600081840152601f19601f8201169050808301925050505050505091929192908035906020019092919080359060200190929190505050612e36565b005b348015610a7357600080fd5b50610aaa60048036036040811015610a8a57600080fd5b8101908080359060200190929190803590602001909291905050506133ce565b005b348015610ab857600080fd5b50610afb60048036036020811015610acf57600080fd5b81019080803573ffffffffffffffffffffffffffffffffffffffff169060200190929190505050613963565b005b348015610b0957600080fd5b50610b4c60048036036020811015610b2057600080fd5b81019080803573ffffffffffffffffffffffffffffffffffffffff169060200190929190505050613cf1565b005b348015610b5a57600080fd5b50610b63613d10565b6040518082815260200191505060405180910390f35b610bd960048036036080811015610b8f57600080fd5b81019080803573ffffffffffffffffffffffffffffffffffffffff169060200190929190803590602001909291908035906020019092919080359060200190929190505050613d1d565b005b348015610be757600080fd5b50610bf061419a565b60405180826002811115610c0057fe5b60ff16815260200191505060405180910390f35b610c1c6120c1565b1515610c2757600080fd5b600060149054906101000a900460ff1615600060146101000a81548160ff021916908315150217905550565b600060149054906101000a900460ff161515610d7e57610c716120c1565b1515610c7c57600080fd5b600160008273ffffffffffffffffffffffffffffffffffffffff1673ffffffffffffffffffffffffffffffffffffffff16815260200190815260200160002060006101000a81549060ff0219169055600260008273ffffffffffffffffffffffffffffffffffffffff1673ffffffffffffffffffffffffffffffffffffffff16815260200190815260200160002060006101000a81549060ff02191690557fa3b62bc36326052d97ea62d63c3d60308ed4c3ea8ac079dd8499f1e9c4f80c0f81604051808273ffffffffffffffffffffffffffffffffffffffff1673ffffffffffffffffffffffffffffffffffffffff16815260200191505060405180910390a15b50565b6000600360008573ffffffffffffffffffffffffffffffffffffffff1673ffffffffffffffffffffffffffffffffffffffff168152602001908152602001600020600001600084815260200190815260200160002060040182815481101515610de657fe5b906000526020600020015490509392505050565b6000600260003373ffffffffffffffffffffffffffffffffffffffff1673ffffffffffffffffffffffffffffffffffffffff16815260200190815260200160002060009054906101000a900460ff168015610eb7575060016002811115610e5d57fe5b600160003373ffffffffffffffffffffffffffffffffffffffff1673ffffffffffffffffffffffffffffffffffffffff16815260200190815260200160002060009054906101000a900460ff166002811115610eb557fe5b145b1515610f2b576040517f08c379a000000000000000000000000000000000000000000000000000000000815260040180806020018281038252601e8152602001807f55736572206d7573742068617665207468652053454c4c455220726f6c65000081525060200191505060405180910390fd5b600560003373ffffffffffffffffffffffffffffffffffffffff1673ffffffffffffffffffffffffffffffffffffffff16815260200190815260200160002054905090565b60606000806000600360008873ffffffffffffffffffffffffffffffffffffffff1673ffffffffffffffffffffffffffffffffffffffff1681526020019081526020016000206000016000878152602001908152602001600020600301600086815260200190815260200160002090508060010181600201548260030154828054600181600116156101000203166002900480601f0160208091040260200160405190810160405280929190818152602001828054600181600116156101000203166002900480156110835780601f1061105857610100808354040283529160200191611083565b820191906000526020600020905b81548152906001019060200180831161106657829003601f168201915b505050505092509350935093505093509350939050565b600260003373ffffffffffffffffffffffffffffffffffffffff1673ffffffffffffffffffffffffffffffffffffffff16815260200190815260200160002060009054906101000a900460ff1680156111555750600160028111156110fb57fe5b600160003373ffffffffffffffffffffffffffffffffffffffff1673ffffffffffffffffffffffffffffffffffffffff16815260200190815260200160002060009054906101000a900460ff16600281111561115357fe5b145b15156111c9576040517f08c379a000000000000000000000000000000000000000000000000000000000815260040180806020018281038252601e8152602001807f55736572206d7573742068617665207468652053454c4c455220726f6c65000081525060200191505060405180910390fd5b6000600560003373ffffffffffffffffffffffffffffffffffffffff1673ffffffffffffffffffffffffffffffffffffffff1681526020019081526020016000205490506000600560003373ffffffffffffffffffffffffffffffffffffffff1673ffffffffffffffffffffffffffffffffffffffff168152602001908152602001600020819055503373ffffffffffffffffffffffffffffffffffffffff166108fc829081150290604051600060405180830381858888f19350505050158015611298573d6000803e3d6000fd5b5050565b600080600360008573ffffffffffffffffffffffffffffffffffffffff1673ffffffffffffffffffffffffffffffffffffffff16815260200190815260200160002090508060000160008481526020019081526020016000206004018054905091505092915050565b600060149054906101000a900460ff1615156118f257600260003373ffffffffffffffffffffffffffffffffffffffff1673ffffffffffffffffffffffffffffffffffffffff16815260200190815260200160002060009054906101000a900460ff1680156113d657506001600281111561137c57fe5b600160003373ffffffffffffffffffffffffffffffffffffffff1673ffffffffffffffffffffffffffffffffffffffff16815260200190815260200160002060009054906101000a900460ff1660028111156113d457fe5b145b151561144a576040517f08c379a000000000000000000000000000000000000000000000000000000000815260040180806020018281038252601e8152602001807f55736572206d7573742068617665207468652053454c4c455220726f6c65000081525060200191505060405180910390fd5b600081511115156114e9576040517f08c379a00000000000000000000000000000000000000000000000000000000081526004018080602001828103825260278152602001807f546865206e616d65206f66207468652073746f7265206d757374206e6f74206281526020017f6520656d7074790000000000000000000000000000000000000000000000000081525060400191505060405180910390fd5b60003382604051602001808373ffffffffffffffffffffffffffffffffffffffff1673ffffffffffffffffffffffffffffffffffffffff166c0100000000000000000000000002815260140182805190602001908083835b6020831015156115665780518252602082019150602081019050602083039250611541565b6001836020036101000a038019825116818451168082178552505050505050905001925050506040516020818303038152906040528051906020012090506000600102600360003373ffffffffffffffffffffffffffffffffffffffff1673ffffffffffffffffffffffffffffffffffffffff16815260200190815260200160002060000160008381526020019081526020016000206000015414151561169b576040517f08c379a00000000000000000000000000000000000000000000000000000000081526004018080602001828103825260368152602001807f5468652073656c6c6572206d757374206e6f7420686176652074776f2073746f81526020017f7265732077697468207468652073616d65206e616d650000000000000000000081525060400191505060405180910390fd5b6000600360003373ffffffffffffffffffffffffffffffffffffffff1673ffffffffffffffffffffffffffffffffffffffff16815260200190815260200160002090506080604051908101604052808381526020013373ffffffffffffffffffffffffffffffffffffffff16815260200184815260200160006040519080825280602002602001820160405280156117425781602001602082028038833980820191505090505b508152508160000160008481526020019081526020016000206000820151816000015560208201518160010160006101000a81548173ffffffffffffffffffffffffffffffffffffffff021916908373ffffffffffffffffffffffffffffffffffffffff16021790555060408201518160020190805190602001906117c8929190614341565b5060608201518160040190805190602001906117e59291906143c1565b50905050806001018290806001815401808255809150509060018203906000526020600020016000909192909190915055507fc790edb73a0172213f9c865455acd89732be6e893d2d82aeb7225e335ea7d9d1338484604051808473ffffffffffffffffffffffffffffffffffffffff1673ffffffffffffffffffffffffffffffffffffffff16815260200180602001838152602001828103825284818151815260200191508051906020019080838360005b838110156118b3578082015181840152602081019050611898565b50505050905090810190601f1680156118e05780820380516001836020036101000a031916815260200191505b5094505050505060405180910390a150505b50565b600060149054906101000a900460ff161515611a3b576119136120c1565b151561191e57600080fd5b6000600160008373ffffffffffffffffffffffffffffffffffffffff1673ffffffffffffffffffffffffffffffffffffffff16815260200190815260200160002060006101000a81548160ff0219169083600281111561197a57fe5b02179055506001600260008373ffffffffffffffffffffffffffffffffffffffff1673ffffffffffffffffffffffffffffffffffffffff16815260200190815260200160002060006101000a81548160ff0219169083151502179055507f44d6d25963f097ad14f29f06854a01f575648a1ef82f30e562ccd3889717e33981604051808273ffffffffffffffffffffffffffffffffffffffff1673ffffffffffffffffffffffffffffffffffffffff16815260200191505060405180910390a15b50565b611a466120c1565b1515611a5157600080fd5b600073ffffffffffffffffffffffffffffffffffffffff166000809054906101000a900473ffffffffffffffffffffffffffffffffffffffff1673ffffffffffffffffffffffffffffffffffffffff167f8be0079c531659141344cd1fd0a4f28419497f9722a3daafe3b4186f6b6457e060405160405180910390a360008060006101000a81548173ffffffffffffffffffffffffffffffffffffffff021916908373ffffffffffffffffffffffffffffffffffffffff160217905550565b600060149054906101000a900460ff1681565b6000600360008473ffffffffffffffffffffffffffffffffffffffff1673ffffffffffffffffffffffffffffffffffffffff16815260200190815260200160002060010182815481101515611b7457fe5b9060005260206000200154905092915050565b600060149054906101000a900460ff16151561209557600260003373ffffffffffffffffffffffffffffffffffffffff1673ffffffffffffffffffffffffffffffffffffffff16815260200190815260200160002060009054906101000a900460ff168015611c58575060006002811115611bfe57fe5b600160003373ffffffffffffffffffffffffffffffffffffffff1673ffffffffffffffffffffffffffffffffffffffff16815260200190815260200160002060009054906101000a900460ff166002811115611c5657fe5b145b1515611ccc576040517f08c379a000000000000000000000000000000000000000000000000000000000815260040180806020018281038252601d8152602001807f55736572206d7573742068617665207468652041444d494e20726f6c6500000081525060200191505060405180910390fd5b600260008273ffffffffffffffffffffffffffffffffffffffff1673ffffffffffffffffffffffffffffffffffffffff16815260200190815260200160002060009054906101000a900460ff168015611d87575060016002811115611d2d57fe5b600160008373ffffffffffffffffffffffffffffffffffffffff1673ffffffffffffffffffffffffffffffffffffffff16815260200190815260200160002060009054906101000a900460ff166002811115611d8557fe5b145b156120945760008090505b60048054905081108015611e0b57508173ffffffffffffffffffffffffffffffffffffffff16600482815481101515611dc757fe5b9060005260206000200160009054906101000a900473ffffffffffffffffffffffffffffffffffffffff1673ffffffffffffffffffffffffffffffffffffffff1614155b15611e1d578080600101915050611d92565b60048054905081101515611ebf576040517f08c379a00000000000000000000000000000000000000000000000000000000081526004018080602001828103825260278152602001807f53656c6c6572206e6f7420666f756e6420696e20746865206c697374206f662081526020017f73656c6c6572730000000000000000000000000000000000000000000000000081525060400191505060405180910390fd5b600160008373ffffffffffffffffffffffffffffffffffffffff1673ffffffffffffffffffffffffffffffffffffffff16815260200190815260200160002060006101000a81549060ff0219169055600260008373ffffffffffffffffffffffffffffffffffffffff1673ffffffffffffffffffffffffffffffffffffffff16815260200190815260200160002060006101000a81549060ff02191690556001600480549050118015611f7a57506001600480549050038114155b15612019576004600160048054905003815481101515611f9657fe5b9060005260206000200160009054906101000a900473ffffffffffffffffffffffffffffffffffffffff16600482815481101515611fd057fe5b9060005260206000200160006101000a81548173ffffffffffffffffffffffffffffffffffffffff021916908373ffffffffffffffffffffffffffffffffffffffff1602179055505b600480548091906001900361202e919061440e565b507fa6f3b3030df964d974376ba4db21cbe49207bd79998f0d619c1c3a422259707f82604051808273ffffffffffffffffffffffffffffffffffffffff1673ffffffffffffffffffffffffffffffffffffffff16815260200191505060405180910390a1505b5b50565b60008060009054906101000a900473ffffffffffffffffffffffffffffffffffffffff16905090565b60008060009054906101000a900473ffffffffffffffffffffffffffffffffffffffff1673ffffffffffffffffffffffffffffffffffffffff163373ffffffffffffffffffffffffffffffffffffffff1614905090565b6060600080600360008673ffffffffffffffffffffffffffffffffffffffff1673ffffffffffffffffffffffffffffffffffffffff16815260200190815260200160002060000160008581526020019081526020016000209050806002018160040180549050818054600181600116156101000203166002900480601f0160208091040260200160405190810160405280929190818152602001828054600181600116156101000203166002900480156122135780601f106121e857610100808354040283529160200191612213565b820191906000526020600020905b8154815290600101906020018083116121f657829003601f168201915b5050505050915092509250509250929050565b600080600360008473ffffffffffffffffffffffffffffffffffffffff1673ffffffffffffffffffffffffffffffffffffffff16815260200190815260200160002090508060010180549050915050919050565b600060149054906101000a900460ff16151561278a57600260003373ffffffffffffffffffffffffffffffffffffffff1673ffffffffffffffffffffffffffffffffffffffff16815260200190815260200160002060009054906101000a900460ff16801561234b5750600160028111156122f157fe5b600160003373ffffffffffffffffffffffffffffffffffffffff1673ffffffffffffffffffffffffffffffffffffffff16815260200190815260200160002060009054906101000a900460ff16600281111561234957fe5b145b15156123bf576040517f08c379a000000000000000000000000000000000000000000000000000000000815260040180806020018281038252601e8152602001807f55736572206d7573742068617665207468652053454c4c455220726f6c65000081525060200191505060405180910390fd5b81816000600102600360003373ffffffffffffffffffffffffffffffffffffffff1673ffffffffffffffffffffffffffffffffffffffff1681526020019081526020016000206000016000848152602001908152602001600020600001541415801561249657506000600360003373ffffffffffffffffffffffffffffffffffffffff1673ffffffffffffffffffffffffffffffffffffffff168152602001908152602001600020600001600084815260200190815260200160002060030160008381526020019081526020016000206000015414155b1515612530576040517f08c379a00000000000000000000000000000000000000000000000000000000081526004018080602001828103825260368152602001807f55736572206d75737420626520746865206f776e6572206f662073746f72652081526020017f776865726520746865206974656d20697320736f6c640000000000000000000081525060400191505060405180910390fd5b6000600360003373ffffffffffffffffffffffffffffffffffffffff1673ffffffffffffffffffffffffffffffffffffffff1681526020019081526020016000206000016000868152602001908152602001600020905060008090505b8160040180549050811080156125be57508482600401828154811015156125b057fe5b906000526020600020015414155b156125d057808060010191505061258d565b81600401805490508110151561264e576040517f08c379a000000000000000000000000000000000000000000000000000000000815260040180806020018281038252601a8152602001807f534b55206e6f7420666f756e6420696e206974656d206c69737400000000000081525060200191505060405180910390fd5b81600301600086815260200190815260200160002060008082016000905560018201600061267c919061443a565b600282016000905560038201600090555050600182600401805490501180156126af575060018260040180549050038114155b156126fa578160040160018360040180549050038154811015156126cf57fe5b906000526020600020015482600401828154811015156126eb57fe5b90600052602060002001819055505b816004018054809190600190036127119190614482565b507fd1229990c7f2eb9f62e90ccbcb0a6619b996100e5785d6956e3082cee433591c338787604051808473ffffffffffffffffffffffffffffffffffffffff1673ffffffffffffffffffffffffffffffffffffffff168152602001838152602001828152602001935050505060405180910390a1505050505b5050565b600060149054906101000a900460ff161515612d6457600260003373ffffffffffffffffffffffffffffffffffffffff1673ffffffffffffffffffffffffffffffffffffffff16815260200190815260200160002060009054906101000a900460ff16801561285f57506001600281111561280557fe5b600160003373ffffffffffffffffffffffffffffffffffffffff1673ffffffffffffffffffffffffffffffffffffffff16815260200190815260200160002060009054906101000a900460ff16600281111561285d57fe5b145b15156128d3576040517f08c379a000000000000000000000000000000000000000000000000000000000815260040180806020018281038252601e8152602001807f55736572206d7573742068617665207468652053454c4c455220726f6c65000081525060200191505060405180910390fd5b846000600102600360003373ffffffffffffffffffffffffffffffffffffffff1673ffffffffffffffffffffffffffffffffffffffff168152602001908152602001600020600001600083815260200190815260200160002060000154141515156129cc576040517f08c379a00000000000000000000000000000000000000000000000000000000081526004018080602001828103825260238152602001807f55736572206d75737420626520746865206f776e6572206f662074686520737481526020017f6f7265000000000000000000000000000000000000000000000000000000000081525060400191505060405180910390fd5b6000600360003373ffffffffffffffffffffffffffffffffffffffff1673ffffffffffffffffffffffffffffffffffffffff16815260200190815260200160002060000160008881526020019081526020016000209050600081600301600088815260200190815260200160002060000154141515612ab3576040517f08c379a000000000000000000000000000000000000000000000000000000000815260040180806020018281038252601e8152602001807f534b55206d75737420626520756e6971756520666f7220612073746f7265000081525060200191505060405180910390fd5b600084111515612b2b576040517f08c379a000000000000000000000000000000000000000000000000000000000815260040180806020018281038252601f8152602001807f5072696365206d757374206265206120706f736974697665206e756d6265720081525060200191505060405180910390fd5b60008310151515612bca576040517f08c379a00000000000000000000000000000000000000000000000000000000081526004018080602001828103825260318152602001807f417661696c61626c65206974656d73206d757374206265206120706f7369746981526020017f7665206e756d626572206f72207a65726f00000000000000000000000000000081525060400191505060405180910390fd5b60806040519081016040528087815260200186815260200185815260200184815250816003016000888152602001908152602001600020600082015181600001556020820151816001019080519060200190612c27929190614341565b506040820151816002015560608201518160030155905050806004018690806001815401808255809150509060018203906000526020600020016000909192909190915055507f6bd5d0af08c8ffa4a3d7dd1b59614faa2d9476b13e8ed73adc994061d416e19b33826000015488888888604051808773ffffffffffffffffffffffffffffffffffffffff1673ffffffffffffffffffffffffffffffffffffffff16815260200186815260200185815260200180602001848152602001838152602001828103825285818151815260200191508051906020019080838360005b83811015612d22578082015181840152602081019050612d07565b50505050905090810190601f168015612d4f5780820380516001836020036101000a031916815260200191505b5097505050505050505060405180910390a150505b5050505050565b6000808210158015612d81575060048054905082105b1515612df5576040517f08c379a00000000000000000000000000000000000000000000000000000000081526004018080602001828103825260128152602001807f4f7574206f6620626f756e6420696e646578000000000000000000000000000081525060200191505060405180910390fd5b600482815481101515612e0457fe5b9060005260206000200160009054906101000a900473ffffffffffffffffffffffffffffffffffffffff169050919050565b600060149054906101000a900460ff1615156133c757600260003373ffffffffffffffffffffffffffffffffffffffff1673ffffffffffffffffffffffffffffffffffffffff16815260200190815260200160002060009054906101000a900460ff168015612f07575060016002811115612ead57fe5b600160003373ffffffffffffffffffffffffffffffffffffffff1673ffffffffffffffffffffffffffffffffffffffff16815260200190815260200160002060009054906101000a900460ff166002811115612f0557fe5b145b1515612f7b576040517f08c379a000000000000000000000000000000000000000000000000000000000815260040180806020018281038252601e8152602001807f55736572206d7573742068617665207468652053454c4c455220726f6c65000081525060200191505060405180910390fd5b84846000600102600360003373ffffffffffffffffffffffffffffffffffffffff1673ffffffffffffffffffffffffffffffffffffffff1681526020019081526020016000206000016000848152602001908152602001600020600001541415801561305257506000600360003373ffffffffffffffffffffffffffffffffffffffff1673ffffffffffffffffffffffffffffffffffffffff168152602001908152602001600020600001600084815260200190815260200160002060030160008381526020019081526020016000206000015414155b15156130ec576040517f08c379a00000000000000000000000000000000000000000000000000000000081526004018080602001828103825260368152602001807f55736572206d75737420626520746865206f776e6572206f662073746f72652081526020017f776865726520746865206974656d20697320736f6c640000000000000000000081525060400191505060405180910390fd5b6000600360003373ffffffffffffffffffffffffffffffffffffffff1673ffffffffffffffffffffffffffffffffffffffff168152602001908152602001600020600001600089815260200190815260200160002090506000851115156131bb576040517f08c379a000000000000000000000000000000000000000000000000000000000815260040180806020018281038252601f8152602001807f5072696365206d757374206265206120706f736974697665206e756d6265720081525060200191505060405180910390fd5b6000841015151561325a576040517f08c379a00000000000000000000000000000000000000000000000000000000081526004018080602001828103825260318152602001807f417661696c61626c65206974656d73206d757374206265206120706f7369746981526020017f7665206e756d626572206f72207a65726f00000000000000000000000000000081525060400191505060405180910390fd5b608060405190810160405280888152602001878152602001868152602001858152508160030160008981526020019081526020016000206000820151816000015560208201518160010190805190602001906132b7929190614341565b5060408201518160020155606082015181600301559050507f623980be88682bdeff2038745fc7d32c828fc0497679180b294feb91a04481f533826000015489898989604051808773ffffffffffffffffffffffffffffffffffffffff1673ffffffffffffffffffffffffffffffffffffffff16815260200186815260200185815260200180602001848152602001838152602001828103825285818151815260200191508051906020019080838360005b83811015613384578082015181840152602081019050613369565b50505050905090810190601f1680156133b15780820380516001836020036101000a031916815260200191505b5097505050505050505060405180910390a15050505b5050505050565b600060149054906101000a900460ff16151561395f57600260003373ffffffffffffffffffffffffffffffffffffffff1673ffffffffffffffffffffffffffffffffffffffff16815260200190815260200160002060009054906101000a900460ff16801561349f57506001600281111561344557fe5b600160003373ffffffffffffffffffffffffffffffffffffffff1673ffffffffffffffffffffffffffffffffffffffff16815260200190815260200160002060009054906101000a900460ff16600281111561349d57fe5b145b1515613513576040517f08c379a000000000000000000000000000000000000000000000000000000000815260040180806020018281038252601e8152602001807f55736572206d7573742068617665207468652053454c4c455220726f6c65000081525060200191505060405180910390fd5b816000600102600360003373ffffffffffffffffffffffffffffffffffffffff1673ffffffffffffffffffffffffffffffffffffffff1681526020019081526020016000206000016000838152602001908152602001600020600001541415151561360c576040517f08c379a00000000000000000000000000000000000000000000000000000000081526004018080602001828103825260238152602001807f55736572206d75737420626520746865206f776e6572206f662074686520737481526020017f6f7265000000000000000000000000000000000000000000000000000000000081525060400191505060405180910390fd5b6000600360003373ffffffffffffffffffffffffffffffffffffffff1673ffffffffffffffffffffffffffffffffffffffff16815260200190815260200160002090506000600360003373ffffffffffffffffffffffffffffffffffffffff1673ffffffffffffffffffffffffffffffffffffffff168152602001908152602001600020600001600086815260200190815260200160002090508482600101858154811015156136b857fe5b906000526020600020015414151561375e576040517f08c379a00000000000000000000000000000000000000000000000000000000081526004018080602001828103825260408152602001807f5468652073746f726549642070726f7669646564206973206e6f7420636f686581526020017f72656e742077697468207468652073746f726520696e6465782070617373656481525060400191505060405180910390fd5b60008090505b81600401805490508110156137db57816003016000836004018381548110151561378a57fe5b906000526020600020015481526020019081526020016000206000808201600090556001820160006137bc919061443a565b6002820160009055600382016000905550508080600101915050613764565b508160000160008681526020019081526020016000206000808201600090556001820160006101000a81549073ffffffffffffffffffffffffffffffffffffffff0219169055600282016000613831919061443a565b60048201600061384191906144ae565b505060018260010180549050118015613864575060018260010180549050038414155b156138af5781600101600183600101805490500381548110151561388457fe5b906000526020600020015482600101858154811015156138a057fe5b90600052602060002001819055505b8160010160018360010180549050038154811015156138ca57fe5b9060005260206000200160009055816001018054809190600190036138ef91906144cf565b507fa65aaa89a6b8d45604b92a24fb97c91fc3d1504a9a40d61e4121e83dfd2de4c33386604051808373ffffffffffffffffffffffffffffffffffffffff1673ffffffffffffffffffffffffffffffffffffffff1681526020018281526020019250505060405180910390a15050505b5050565b600060149054906101000a900460ff161515613cee57600260003373ffffffffffffffffffffffffffffffffffffffff1673ffffffffffffffffffffffffffffffffffffffff16815260200190815260200160002060009054906101000a900460ff168015613a345750600060028111156139da57fe5b600160003373ffffffffffffffffffffffffffffffffffffffff1673ffffffffffffffffffffffffffffffffffffffff16815260200190815260200160002060009054906101000a900460ff166002811115613a3257fe5b145b1515613aa8576040517f08c379a000000000000000000000000000000000000000000000000000000000815260040180806020018281038252601d8152602001807f55736572206d7573742068617665207468652041444d494e20726f6c6500000081525060200191505060405180910390fd5b80600260008273ffffffffffffffffffffffffffffffffffffffff1673ffffffffffffffffffffffffffffffffffffffff16815260200190815260200160002060009054906101000a900460ff16151515613b6b576040517f08c379a00000000000000000000000000000000000000000000000000000000081526004018080602001828103825260148152602001807f55736572206d757374206265206120627579657200000000000000000000000081525060200191505060405180910390fd5b60018060008473ffffffffffffffffffffffffffffffffffffffff1673ffffffffffffffffffffffffffffffffffffffff16815260200190815260200160002060006101000a81548160ff02191690836002811115613bc657fe5b02179055506001600260008473ffffffffffffffffffffffffffffffffffffffff1673ffffffffffffffffffffffffffffffffffffffff16815260200190815260200160002060006101000a81548160ff02191690831515021790555060048290806001815401808255809150509060018203906000526020600020016000909192909190916101000a81548173ffffffffffffffffffffffffffffffffffffffff021916908373ffffffffffffffffffffffffffffffffffffffff160217905550507f3d78526f2568d430fd8e20719601f7bc3f979936f8880236cc284e8127251b4282604051808273ffffffffffffffffffffffffffffffffffffffff1673ffffffffffffffffffffffffffffffffffffffff16815260200191505060405180910390a1505b50565b613cf96120c1565b1515613d0457600080fd5b613d0d81614247565b50565b6000600480549050905090565b600060149054906101000a900460ff1615156141945733600260008273ffffffffffffffffffffffffffffffffffffffff1673ffffffffffffffffffffffffffffffffffffffff16815260200190815260200160002060009054906101000a900460ff16151515613df6576040517f08c379a00000000000000000000000000000000000000000000000000000000081526004018080602001828103825260148152602001807f55736572206d757374206265206120627579657200000000000000000000000081525060200191505060405180910390fd5b6000600360008773ffffffffffffffffffffffffffffffffffffffff1673ffffffffffffffffffffffffffffffffffffffff168152602001908152602001600020600001600086815260200190815260200160002090506000600102816000015414151515613ecd576040517f08c379a00000000000000000000000000000000000000000000000000000000081526004018080602001828103825260108152602001807f53746f7265206d7573742065786973740000000000000000000000000000000081525060200191505060405180910390fd5b60008160030160008681526020019081526020016000206000015414151515613f5e576040517f08c379a00000000000000000000000000000000000000000000000000000000081526004018080602001828103825260198152602001807f4974656d206d75737420626520696e207468652073746f72650000000000000081525060200191505060405180910390fd5b60008160030160008681526020019081526020016000209050600084118015613f8b575083816003015410155b1515614025576040517f08c379a00000000000000000000000000000000000000000000000000000000081526004018080602001828103825260238152602001807f496e76616c6964206e756d626572206f66206974656d7320746f20707572636881526020017f617365000000000000000000000000000000000000000000000000000000000081525060400191505060405180910390fd5b83816002015402341415156140a2576040517f08c379a000000000000000000000000000000000000000000000000000000000815260040180806020018281038252601c8152602001807f496e76616c69642076616c756520696e20746865206d6573736167650000000081525060200191505060405180910390fd5b83816003016000828254039250508190555034600560008973ffffffffffffffffffffffffffffffffffffffff1673ffffffffffffffffffffffffffffffffffffffff168152602001908152602001600020600082825401925050819055507f6794d48cec3e6f99b7331995ce4996b48c0f1469f3792c5337088d02b53d16aa8783600001548360000154878560030154604051808673ffffffffffffffffffffffffffffffffffffffff1673ffffffffffffffffffffffffffffffffffffffff1681526020018581526020018481526020018381526020018281526020019550505050505060405180910390a15050505b50505050565b6000600260003373ffffffffffffffffffffffffffffffffffffffff1673ffffffffffffffffffffffffffffffffffffffff16815260200190815260200160002060009054906101000a900460ff166141f4576002614242565b600160003373ffffffffffffffffffffffffffffffffffffffff1673ffffffffffffffffffffffffffffffffffffffff16815260200190815260200160002060009054906101000a900460ff165b905090565b600073ffffffffffffffffffffffffffffffffffffffff168173ffffffffffffffffffffffffffffffffffffffff161415151561428357600080fd5b8073ffffffffffffffffffffffffffffffffffffffff166000809054906101000a900473ffffffffffffffffffffffffffffffffffffffff1673ffffffffffffffffffffffffffffffffffffffff167f8be0079c531659141344cd1fd0a4f28419497f9722a3daafe3b4186f6b6457e060405160405180910390a3806000806101000a81548173ffffffffffffffffffffffffffffffffffffffff021916908373ffffffffffffffffffffffffffffffffffffffff16021790555050565b828054600181600116156101000203166002900490600052602060002090601f016020900481019282601f1061438257805160ff19168380011785556143b0565b828001600101855582156143b0579182015b828111156143af578251825591602001919060010190614394565b5b5090506143bd91906144fb565b5090565b8280548282559060005260206000209081019282156143fd579160200282015b828111156143fc5782518255916020019190600101906143e1565b5b50905061440a91906144fb565b5090565b8154818355818111156144355781836000526020600020918201910161443491906144fb565b5b505050565b50805460018160011615610100020316600290046000825580601f10614460575061447f565b601f01602090049060005260206000209081019061447e91906144fb565b5b50565b8154818355818111156144a9578183600052602060002091820191016144a891906144fb565b5b505050565b50805460008255906000526020600020908101906144cc91906144fb565b50565b8154818355818111156144f6578183600052602060002091820191016144f59190614520565b5b505050565b61451d91905b80821115614519576000816000905550600101614501565b5090565b90565b61454291905b8082111561453e576000816000905550600101614526565b5090565b9056fea165627a7a72305820e010a5cc0a01ce2c2f41b7910973eac8c7c51956edbd690bdb25ecd07f9f39430029",
  "source": "pragma solidity ^0.5.0;\n\nimport 'openzeppelin-solidity/contracts/ownership/Ownable.sol';\n/**\n * @title Marketplace contract to sell, buy and withdraw funds\n * @author Jess Lanchas\n * @notice This contract belongs to a final project in the Developer Program 2018 @ Consensys Academy\n * @dev All outcome values in transaction methods are included in events\n */\ncontract Marketplace is Ownable {\n\n    enum Roles { ADMIN, SELLER, BUYER }\n\n    // Circuit breaker\n    bool public stopped = false;\n\n    // To know the role of a specific user\n    mapping(address => Roles) roles;\n    mapping(address => bool) privilegedUsers;\n\n    // Stores owned by sellers\n    mapping(address => Empire) empires;\n    address[] sellers;\n\n    // Payments\n    mapping (address => uint) pendingFunds;\n\n    // Structs\n    struct Empire {\n        mapping(bytes32 => Store) stores;\n        bytes32[] storesIds;\n    }\n\n    struct Store {\n        bytes32 storeId;\n        address seller;\n        string name;\n        mapping(uint => Item) items;\n        uint[] skus;\n    }\n\n    struct Item {\n        uint sku;\n        string name;\n        uint price;\n        uint availableNumItems;\n    }\n\n    // Management events\n    event SellerAdded(address newSeller);\n    event SellerRemoved(address oldSeller);\n    event AdminAdded(address newAdmin);\n    event AdminRemoved(address oldAdmin);\n\n    // Business events\n    event StoreCreated(address seller, string name, bytes32 storeId);\n    event StoreRemoved(address seller, bytes32 storeId);\n    event ItemCreated(address seller, bytes32 storeId, uint sku, string name, uint price, uint availableNumItems);\n    event ItemRemoved(address seller, bytes32 storeId, uint sku);\n    event ItemEdited(address seller, bytes32 storeId, uint sku, string name, uint price, uint availableNumItems);\n    event ItemPurchased(address seller, bytes32 storeId, uint sku, uint numPurchasedItems, uint newAvailableNumItems);\n\n    // Roles modifiers\n    modifier isAdmin () { require (privilegedUsers[msg.sender] && roles[msg.sender] == Roles.ADMIN, 'User must have the ADMIN role'); _;}\n    modifier isSeller () { require (privilegedUsers[msg.sender] && roles[msg.sender] == Roles.SELLER, 'User must have the SELLER role'); _;}\n    modifier isBuyer (address _address) { require (!privilegedUsers[_address], 'User must be a buyer'); _;}\n\n    // Ownership modifiers\n    modifier isSellerOwner (bytes32 storeId) { require(empires[msg.sender].stores[storeId].storeId != 0, 'User must be the owner of the store'); _; }\n    modifier isItemSeller (bytes32 storeId, uint sku) {\n        require (\n            empires[msg.sender].stores[storeId].storeId != 0\n            && empires[msg.sender].stores[storeId].items[sku].sku != 0, 'User must be the owner of store where the item is sold');\n        _;\n    }\n\n    // Circuit breaker\n    modifier stopInEmergency { if (!stopped) _; }\n    /**\n     * @notice Toggle the emergency state of the contract. Only the owner can do this\n     */\n    function toggleContractActive() public onlyOwner {\n        stopped = !stopped;\n    }\n\n    /* Managing permissions */\n\n    /**\n     * @notice Getting the current role of the sender in the contract\n     * @return The enum value of Roles associated with the sender of the message\n     * @dev A no privileged user is considered a buyer. Owner is not a role in the contract\n     */\n    function getRole() public view returns(Roles) {\n        return privilegedUsers[msg.sender] ? roles[msg.sender] : Roles.BUYER;\n    }\n\n    /**\n     * @notice Add the address `newAdmin` in the list of admins\n     * @param newAdmin The address that we want to include as Admin in the contract\n     * @dev Event emitted on success: AdminAdded\n     */\n    function addAdmin(address newAdmin) public stopInEmergency onlyOwner {\n        roles[newAdmin] = Roles.ADMIN;\n        privilegedUsers[newAdmin] = true;\n        emit AdminAdded(newAdmin);\n    }\n\n    /**\n     * @notice Remove the addres `oldAdmin` from the list of valid admins\n     * @param oldAdmin The address that we want to remove from the list of admins\n     * @dev Event emitted: AdminRemoved\n     */\n    function removeAdmin(address oldAdmin) public stopInEmergency onlyOwner {\n        delete roles[oldAdmin];\n        delete privilegedUsers[oldAdmin];\n        emit AdminRemoved(oldAdmin);\n    }\n\n    /**\n     * @notice Add the address `newAddress` to the list of valid sellers\n     * @param newSeller The address that we want to add as seller\n     * @dev Event emitted: SellerAdded\n     */\n    function addSeller(address newSeller) public stopInEmergency isAdmin isBuyer(newSeller) {\n        roles[newSeller] = Roles.SELLER;\n        privilegedUsers[newSeller] = true;\n        sellers.push(newSeller);\n        emit SellerAdded(newSeller);\n    }\n\n    /**\n     * @notice Remove the address `oldAddress` as seller in the contract, transforming it into a buyer. The pending funds will be kept.\n     * @dev This operation changes the order in the sellers array. Event emitted: SellerRemoved\n     * @param oldSeller The address of the seller that we want to remove\n     */\n    function removeSeller(address oldSeller) public stopInEmergency isAdmin {\n        // Soft control, we don't require the existance of the seller...\n        if (privilegedUsers[oldSeller] && roles[oldSeller] == Roles.SELLER) {\n            uint sellerIndex = 0;\n\n            while(sellerIndex < sellers.length && sellers[sellerIndex] != oldSeller) {\n                sellerIndex++;\n            }\n\n            require(sellerIndex < sellers.length, 'Seller not found in the list of sellers');\n\n            // Delete from the maps\n            delete roles[oldSeller];\n            delete privilegedUsers[oldSeller];\n\n            // Delete from array\n            // Removing and compacting an item in an array: https://github.com/su-squares/ethereum-contract/blob/master/contracts/SuNFT.sol#L296\n            if (sellers.length > 1 && sellerIndex != sellers.length - 1)        {\n                sellers[sellerIndex] = sellers[sellers.length - 1];\n            }\n            sellers.length--;\n\n            emit SellerRemoved(oldSeller);\n        }\n    }\n\n    /**\n     * @notice Return the number of sellers in the contract\n     * @dev It's based on the array of sellers, not in the pending funds\n     * @return The number of sellers in the contract\n     */\n    function getNumberOfSellers() public view returns(uint) {\n        return sellers.length;\n    }\n\n    /**\n     * @notice Return the address of seller set in the position `sellerIndex`\n     * @param sellerIndex The index of the seller whose address we want to get\n     * @return The seller address in position sellerIndex\n     */\n    function getSellerAddress(uint sellerIndex) public view returns(address) {\n        require(sellerIndex >= 0 && sellerIndex < sellers.length, 'Out of bound index');\n        return sellers[sellerIndex];\n    }\n\n    /* Managing stores */\n\n    /**\n     * @notice Add a new store associated to the addres `msg.sender`, with name `name`\n     * @dev The storeId is generated internally with keccak256. Event emitted: StoreCreated\n     * @param name The name to set to the created store\n     */\n    function addStore(string memory name) public stopInEmergency isSeller  {\n        require(bytes(name).length > 0, 'The name of the store must not be empty');\n\n        bytes32 storeId = keccak256(abi.encodePacked(msg.sender, name));\n        require(empires[msg.sender].stores[storeId].storeId == 0, 'The seller must not have two stores with the same name');\n\n        Empire storage empire = empires[msg.sender];\n        empire.stores[storeId] = Store({ storeId: storeId, seller: msg.sender, name: name, skus: new uint[](0) });\n        empire.storesIds.push(storeId);\n\n        emit StoreCreated(msg.sender, name, storeId);\n    }\n\n    /**\n     * @notice Remove the store with storeId `storeId`, set in position `storeIndex`.\n     * @dev empire.storesIds[storeIndex] must be equals to storeId. The only reason to accept the two params is efficiency.\n     * @param storeId The id of the store to remove\n     * @param storeIndex The index of the store, in the array of stores, that we want to remove\n     */\n    function removeStore(bytes32 storeId, uint storeIndex) public stopInEmergency isSeller isSellerOwner(storeId) {\n        // TODO - Taking into account this: https://solidity.readthedocs.io/en/develop/types.html#delete\n        Empire storage empire = empires[msg.sender];\n        Store storage store = empires[msg.sender].stores[storeId];\n\n        require(empire.storesIds[storeIndex] == storeId, 'The storeId provided is not coherent with the store index passed');\n\n        // Removing items associated with the store\n        for(uint skuIndex = 0; skuIndex < store.skus.length; skuIndex++) {\n            delete store.items[store.skus[skuIndex]];\n        }\n\n        // Removing the store\n        delete empire.stores[storeId];\n\n        // Removing and compacting an item in an array: https://github.com/su-squares/ethereum-contract/blob/master/contracts/SuNFT.sol#L296\n        if (empire.storesIds.length > 1 && storeIndex != empire.storesIds.length - 1)        {\n            empire.storesIds[storeIndex] = empire.storesIds[empire.storesIds.length - 1];\n        }\n        delete empire.storesIds[empire.storesIds.length - 1];\n        empire.storesIds.length--;\n\n        emit StoreRemoved(msg.sender, storeId);\n    }\n\n    /**\n     * @notice Return the number of stores associated with the address `seller`\n     * @param seller The address whose number of stores we want to get\n     * @return The number of stores of the seller passed as parameter\n     */\n    function getNumberOfStores(address seller) public view returns(uint) {\n        Empire storage empire = empires[seller];\n        return empire.storesIds.length;\n    }\n\n    /**\n     * @notice Return the storeId of the store of `seller` set in position `storeIndex`\n     * @param seller The address of the store's owner whose id we want to get\n     * @param storeIndex The index of the store, among the stores of the owner, whose storeId we want to get\n     */\n    function getStoreId(address seller, uint storeIndex) public view returns(bytes32) {\n        return empires[seller].storesIds[storeIndex];\n    }\n\n    /**\n     * @notice Returns the name of the store and the number of items in it\n     * @param seller The address of the store's owner whose metadata we want to get\n     * @param storeId The store id of te store whose metadata we want to get\n     */\n    function getStoreMetadata(address seller, bytes32 storeId) public view returns(string memory, uint) {\n        Store storage store = empires[seller].stores[storeId];\n        return (store.name, store.skus.length);\n    }\n\n    /* Managing items */\n\n    /**\n     * @notice Create and add a new item in the store whose storeId is passed as parameter\n     * @param storeId The store id where we want to add a new item\n     * @param sku The SKU of the item to create. Important: this field is not editable\n     * @param name The name of the item to create\n     * @param price The unitary price of the item to create\n     * @param availableNumItems The number of items available to sell\n     * @dev Event emitted: ItemCreated\n     */\n    function addItem(bytes32 storeId, uint sku, string memory name, uint price, uint availableNumItems)\n        public\n        stopInEmergency\n        isSeller\n        isSellerOwner(storeId) {\n        Store storage store = empires[msg.sender].stores[storeId];\n\n        // Checking that there aren't any item with the same sku in the store\n        require(store.items[sku].sku == 0, 'SKU must be unique for a store');\n\n        // TODO Check integer overflows (more in the buy operation)\n        require(price > 0, 'Price must be a positive number');\n        require(availableNumItems >= 0, 'Available items must be a positive number or zero');\n\n        store.items[sku] = Item({ sku: sku, name: name, price: price, availableNumItems: availableNumItems });\n        store.skus.push(sku);\n\n        emit ItemCreated(msg.sender, store.storeId, sku, name, price, availableNumItems);\n    }\n\n    /**\n     * @notice Update the item in the store with storeId `storeId` and whose sku is `sku`\n     * @param storeId The storeId where the item to update is located\n     * @param sku The sku of the item to update\n     * @param name The new name to set in the item\n     * @param price The new price to set in the item\n     * @param availableNumItems The new available amount to set in the item\n     * @dev Event emitted: ItemEdited\n     */\n    function editItem(bytes32 storeId, uint sku, string memory name, uint price, uint availableNumItems)\n        public\n        stopInEmergency\n        isSeller\n        isItemSeller(storeId, sku) {\n        Store storage store = empires[msg.sender].stores[storeId];\n\n        // TODO Check integer overflows (more in the buy operation)\n        require(price > 0, 'Price must be a positive number');\n        require(availableNumItems >= 0, 'Available items must be a positive number or zero');\n\n        store.items[sku] = Item({ sku: sku, name: name, price: price, availableNumItems: availableNumItems });\n\n        emit ItemEdited(msg.sender, store.storeId, sku, name, price, availableNumItems);\n    }\n\n    /**\n     * @notice Return the number of items from the seller `seller` in the store `storeId`\n     * @param seller The address of the seller to consider\n     * @param storeId The id of the store to consider\n     * @return The number of items in the store\n     * @dev It will return zero if the seller or the store don't exist\n     */\n    function getNumberOfItems(address seller, bytes32 storeId) public view returns(uint) {\n        Empire storage empire = empires[seller];\n        return empire.stores[storeId].skus.length;\n    }\n\n    /**\n     * @notice Return the SKU of the item set in the position `skuIndex`, in the store with id `storeId` of the seller `seller`\n     * @param seller The seller of the item\n     * @param storeId The id of the store where the item is located\n     * @param skuIndex The position of the item in the array of items associated with the store\n     * @return The SKU of the item\n     * @dev It'll return zero if the item, the store, or the seller don't exist\n     */\n    function getSku(address seller, bytes32 storeId, uint skuIndex) public view returns(uint) {\n        return empires[seller].stores[storeId].skus[skuIndex];\n    }\n\n    /**\n     * @notice Return the metadata associated with the sku `sku`, in the store `storeId`, of the seller `seller`\n     * @param seller The owner of the item whose metadata we want to get\n     * @param storeId The id of the store were the item is located\n     * @param sku The sku of the item whose metadata we want to get\n     * @return The name, price and availableNumItems attributes of the item\n     * @dev The return values will have default values if the item, the store or the seller don't exist\n     */\n    function getItemMetadata(address seller, bytes32 storeId, uint sku)\n        public\n        view\n        returns(string memory, uint, uint) {\n        Item storage item = empires[seller].stores[storeId].items[sku];\n        return (item.name, item.price, item.availableNumItems);\n    }\n\n    /**\n     * @notice Remove the item with sku `sku` from a store with id `storeId`\n     * @param storeId The id of the store where the item to remove is located\n     * @param sku The sku of the item to remove\n     * @dev Event emitted: ItemRemoved\n     */\n    function removeItem(bytes32 storeId, uint sku)\n        public\n        stopInEmergency\n        isSeller\n        isItemSeller(storeId, sku) {\n\n        Store storage store = empires[msg.sender].stores[storeId];\n        uint skuIndex = 0;\n\n        while(skuIndex < store.skus.length && store.skus[skuIndex] != sku) {\n            skuIndex++;\n        }\n\n        require(skuIndex < store.skus.length, 'SKU not found in item list');\n\n        // Delete from map\n        delete store.items[sku];\n\n        // Delete from array\n        // Removing and compacting an item in an array: https://github.com/su-squares/ethereum-contract/blob/master/contracts/SuNFT.sol#L296\n        if (store.skus.length > 1 && skuIndex != store.skus.length - 1)        {\n            store.skus[skuIndex] = store.skus[store.skus.length - 1];\n        }\n\n        // delete store.skus[store.skus.length - 1];\n        store.skus.length--;\n\n        emit ItemRemoved(msg.sender, storeId, sku);\n    }\n\n    /**\n     * @notice Purchase `numPurchasedItems` items with sku `sku`, in the store with id `storeId`, of the seller `seller`. It expects the exact value.\n     * @param seller The owner of the item to purchase\n     * @param storeId The id of the store where the item is located\n     * @param sku The sku of the item to purchase\n     * @param numPurchasedItems The number of items to purchase. It must be greater than the available number of items\n     * @dev msg.value must be exactly equals to item.price * numPurchasedItems. The funds will be avaiable to the seller (Withdrawal pattern)\n     */\n    function purchaseItem(address seller, bytes32 storeId, uint sku, uint numPurchasedItems)\n        public\n        payable\n        stopInEmergency\n        isBuyer(msg.sender) {\n        Store storage store = empires[seller].stores[storeId];\n\n        // The item must exist\n        require (store.storeId != 0, 'Store must exist');\n        require (store.items[sku].sku != 0, 'Item must be in the store');\n\n        Item storage item = store.items[sku];\n        // There must be enough number of items, and at least 1\n        require (numPurchasedItems > 0 && item.availableNumItems >= numPurchasedItems, 'Invalid number of items to purchase');\n\n        // Sent value must be, exactly, equals to the price * numPurchasedItems\n        require (msg.value == item.price * numPurchasedItems, 'Invalid value in the message');\n\n        // Updating the storage\n        item.availableNumItems -= numPurchasedItems;\n        pendingFunds[seller] += msg.value;\n\n        emit ItemPurchased(seller, store.storeId, item.sku, numPurchasedItems, item.availableNumItems);\n    }\n\n    /**\n     * @notice Withdraw funds from the contract to `msg.sender`, considering the pending funds saved in the contact\n     * @dev Nothing is executed after transfer the value, to avoid reentrancy\n     */\n    function withdraw() public isSeller {\n        uint amount = pendingFunds[msg.sender];\n        pendingFunds[msg.sender] = 0;\n        msg.sender.transfer(amount);\n    }\n\n    /**\n     * @notice Return the value of pending funds associated with `msg.sender`\n     * @dev Only sellers can do this\n     * @return the value, in wei, pending for the sender\n     */\n    function getPendingFunds() public view isSeller returns(uint) {\n        return pendingFunds[msg.sender];\n    }\n}\n",
  "sourcePath": "/home/jlanchas/repositorios/github/chechu/consensys-academy-final-project/contracts/Marketplace.sol",
  "compiler": {
    "name": "solc",
    "version": "0.5.0+commit.1d4f565a.Emscripten.clang"
  },
  "schemaVersion": "3.0.0",
  "updatedAt": "2019-01-24T22:51:34.572Z",
  "devdoc": {
    "author": "Jess Lanchas",
    "details": "All outcome values in transaction methods are included in events",
    "methods": {
      "addAdmin(address)": {
        "details": "Event emitted on success: AdminAdded",
        "params": {
          "newAdmin": "The address that we want to include as Admin in the contract"
        }
      },
      "addItem(bytes32,uint256,string,uint256,uint256)": {
        "details": "Event emitted: ItemCreated",
        "params": {
          "availableNumItems": "The number of items available to sell",
          "name": "The name of the item to create",
          "price": "The unitary price of the item to create",
          "sku": "The SKU of the item to create. Important: this field is not editable",
          "storeId": "The store id where we want to add a new item"
        }
      },
      "addSeller(address)": {
        "details": "Event emitted: SellerAdded",
        "params": {
          "newSeller": "The address that we want to add as seller"
        }
      },
      "addStore(string)": {
        "details": "The storeId is generated internally with keccak256. Event emitted: StoreCreated",
        "params": {
          "name": "The name to set to the created store"
        }
      },
      "editItem(bytes32,uint256,string,uint256,uint256)": {
        "details": "Event emitted: ItemEdited",
        "params": {
          "availableNumItems": "The new available amount to set in the item",
          "name": "The new name to set in the item",
          "price": "The new price to set in the item",
          "sku": "The sku of the item to update",
          "storeId": "The storeId where the item to update is located"
        }
      },
      "getItemMetadata(address,bytes32,uint256)": {
        "details": "The return values will have default values if the item, the store or the seller don't exist",
        "params": {
          "seller": "The owner of the item whose metadata we want to get",
          "sku": "The sku of the item whose metadata we want to get",
          "storeId": "The id of the store were the item is located"
        },
        "return": "The name, price and availableNumItems attributes of the item"
      },
      "getNumberOfItems(address,bytes32)": {
        "details": "It will return zero if the seller or the store don't exist",
        "params": {
          "seller": "The address of the seller to consider",
          "storeId": "The id of the store to consider"
        },
        "return": "The number of items in the store"
      },
      "getNumberOfSellers()": {
        "details": "It's based on the array of sellers, not in the pending funds",
        "return": "The number of sellers in the contract"
      },
      "getNumberOfStores(address)": {
        "params": {
          "seller": "The address whose number of stores we want to get"
        },
        "return": "The number of stores of the seller passed as parameter"
      },
      "getPendingFunds()": {
        "details": "Only sellers can do this",
        "return": "the value, in wei, pending for the sender"
      },
      "getRole()": {
        "details": "A no privileged user is considered a buyer. Owner is not a role in the contract",
        "return": "The enum value of Roles associated with the sender of the message"
      },
      "getSellerAddress(uint256)": {
        "params": {
          "sellerIndex": "The index of the seller whose address we want to get"
        },
        "return": "The seller address in position sellerIndex"
      },
      "getSku(address,bytes32,uint256)": {
        "details": "It'll return zero if the item, the store, or the seller don't exist",
        "params": {
          "seller": "The seller of the item",
          "skuIndex": "The position of the item in the array of items associated with the store",
          "storeId": "The id of the store where the item is located"
        },
        "return": "The SKU of the item"
      },
      "getStoreId(address,uint256)": {
        "params": {
          "seller": "The address of the store's owner whose id we want to get",
          "storeIndex": "The index of the store, among the stores of the owner, whose storeId we want to get"
        }
      },
      "getStoreMetadata(address,bytes32)": {
        "params": {
          "seller": "The address of the store's owner whose metadata we want to get",
          "storeId": "The store id of te store whose metadata we want to get"
        }
      },
      "isOwner()": {
        "return": "true if `msg.sender` is the owner of the contract."
      },
      "owner()": {
        "return": "the address of the owner."
      },
      "purchaseItem(address,bytes32,uint256,uint256)": {
        "details": "msg.value must be exactly equals to item.price * numPurchasedItems. The funds will be avaiable to the seller (Withdrawal pattern)",
        "params": {
          "numPurchasedItems": "The number of items to purchase. It must be greater than the available number of items",
          "seller": "The owner of the item to purchase",
          "sku": "The sku of the item to purchase",
          "storeId": "The id of the store where the item is located"
        }
      },
      "removeAdmin(address)": {
        "details": "Event emitted: AdminRemoved",
        "params": {
          "oldAdmin": "The address that we want to remove from the list of admins"
        }
      },
      "removeItem(bytes32,uint256)": {
        "details": "Event emitted: ItemRemoved",
        "params": {
          "sku": "The sku of the item to remove",
          "storeId": "The id of the store where the item to remove is located"
        }
      },
      "removeSeller(address)": {
        "details": "This operation changes the order in the sellers array. Event emitted: SellerRemoved",
        "params": {
          "oldSeller": "The address of the seller that we want to remove"
        }
      },
      "removeStore(bytes32,uint256)": {
        "details": "empire.storesIds[storeIndex] must be equals to storeId. The only reason to accept the two params is efficiency.",
        "params": {
          "storeId": "The id of the store to remove",
          "storeIndex": "The index of the store, in the array of stores, that we want to remove"
        }
      },
      "renounceOwnership()": {
        "details": "Allows the current owner to relinquish control of the contract."
      },
      "transferOwnership(address)": {
        "details": "Allows the current owner to transfer control of the contract to a newOwner.",
        "params": {
          "newOwner": "The address to transfer ownership to."
        }
      },
      "withdraw()": {
        "details": "Nothing is executed after transfer the value, to avoid reentrancy"
      }
    },
    "title": "Marketplace contract to sell, buy and withdraw funds"
  },
  "userdoc": {
    "methods": {
      "addAdmin(address)": {
        "notice": "Add the address `newAdmin` in the list of admins"
      },
      "addItem(bytes32,uint256,string,uint256,uint256)": {
        "notice": "Create and add a new item in the store whose storeId is passed as parameter"
      },
      "addSeller(address)": {
        "notice": "Add the address `newAddress` to the list of valid sellers"
      },
      "addStore(string)": {
        "notice": "Add a new store associated to the addres `msg.sender`, with name `name`"
      },
      "editItem(bytes32,uint256,string,uint256,uint256)": {
        "notice": "Update the item in the store with storeId `storeId` and whose sku is `sku`"
      },
      "getItemMetadata(address,bytes32,uint256)": {
        "notice": "Return the metadata associated with the sku `sku`, in the store `storeId`, of the seller `seller`"
      },
      "getNumberOfItems(address,bytes32)": {
        "notice": "Return the number of items from the seller `seller` in the store `storeId`"
      },
      "getNumberOfSellers()": {
        "notice": "Return the number of sellers in the contract"
      },
      "getNumberOfStores(address)": {
        "notice": "Return the number of stores associated with the address `seller`"
      },
      "getPendingFunds()": {
        "notice": "Return the value of pending funds associated with `msg.sender`"
      },
      "getRole()": {
        "notice": "Getting the current role of the sender in the contract"
      },
      "getSellerAddress(uint256)": {
        "notice": "Return the address of seller set in the position `sellerIndex`"
      },
      "getSku(address,bytes32,uint256)": {
        "notice": "Return the SKU of the item set in the position `skuIndex`, in the store with id `storeId` of the seller `seller`"
      },
      "getStoreId(address,uint256)": {
        "notice": "Return the storeId of the store of `seller` set in position `storeIndex`"
      },
      "getStoreMetadata(address,bytes32)": {
        "notice": "Returns the name of the store and the number of items in it"
      },
      "purchaseItem(address,bytes32,uint256,uint256)": {
        "notice": "Purchase `numPurchasedItems` items with sku `sku`, in the store with id `storeId`, of the seller `seller`. It expects the exact value."
      },
      "removeAdmin(address)": {
        "notice": "Remove the addres `oldAdmin` from the list of valid admins"
      },
      "removeItem(bytes32,uint256)": {
        "notice": "Remove the item with sku `sku` from a store with id `storeId`"
      },
      "removeSeller(address)": {
        "notice": "Remove the address `oldAddress` as seller in the contract, transforming it into a buyer. The pending funds will be kept."
      },
      "removeStore(bytes32,uint256)": {
        "notice": "Remove the store with storeId `storeId`, set in position `storeIndex`."
      },
      "renounceOwnership()": {
        "notice": "Renouncing to ownership will leave the contract without an owner. It will not be possible to call the functions with the `onlyOwner` modifier anymore."
      },
      "toggleContractActive()": {
        "notice": "Toggle the emergency state of the contract. Only the owner can do this"
      },
      "withdraw()": {
        "notice": "Withdraw funds from the contract to `msg.sender`, considering the pending funds saved in the contact"
      }
    },
    "notice": "This contract belongs to a final project in the Developer Program 2018 @ Consensys Academy"
  }
}