{
  "contractName": "Marketplace",
  "abi": [
    {
      "constant": false,
      "inputs": [],
      "name": "renounceOwnership",
      "outputs": [],
      "payable": false,
      "stateMutability": "nonpayable",
      "type": "function",
      "signature": "0x715018a6"
    },
    {
      "constant": true,
      "inputs": [],
      "name": "owner",
      "outputs": [
        {
          "name": "",
          "type": "address"
        }
      ],
      "payable": false,
      "stateMutability": "view",
      "type": "function",
      "signature": "0x8da5cb5b"
    },
    {
      "constant": true,
      "inputs": [],
      "name": "isOwner",
      "outputs": [
        {
          "name": "",
          "type": "bool"
        }
      ],
      "payable": false,
      "stateMutability": "view",
      "type": "function",
      "signature": "0x8f32d59b"
    },
    {
      "constant": false,
      "inputs": [
        {
          "name": "newOwner",
          "type": "address"
        }
      ],
      "name": "transferOwnership",
      "outputs": [],
      "payable": false,
      "stateMutability": "nonpayable",
      "type": "function",
      "signature": "0xf2fde38b"
    },
    {
      "anonymous": false,
      "inputs": [
        {
          "indexed": false,
          "name": "newSeller",
          "type": "address"
        }
      ],
      "name": "SellerAdded",
      "type": "event",
      "signature": "0x3d78526f2568d430fd8e20719601f7bc3f979936f8880236cc284e8127251b42"
    },
    {
      "anonymous": false,
      "inputs": [
        {
          "indexed": false,
          "name": "oldSeller",
          "type": "address"
        }
      ],
      "name": "SellerRemoved",
      "type": "event",
      "signature": "0xa6f3b3030df964d974376ba4db21cbe49207bd79998f0d619c1c3a422259707f"
    },
    {
      "anonymous": false,
      "inputs": [
        {
          "indexed": false,
          "name": "newAdmin",
          "type": "address"
        }
      ],
      "name": "AdminAdded",
      "type": "event",
      "signature": "0x44d6d25963f097ad14f29f06854a01f575648a1ef82f30e562ccd3889717e339"
    },
    {
      "anonymous": false,
      "inputs": [
        {
          "indexed": false,
          "name": "oldAdmin",
          "type": "address"
        }
      ],
      "name": "AdminRemoved",
      "type": "event",
      "signature": "0xa3b62bc36326052d97ea62d63c3d60308ed4c3ea8ac079dd8499f1e9c4f80c0f"
    },
    {
      "anonymous": false,
      "inputs": [
        {
          "indexed": false,
          "name": "seller",
          "type": "address"
        },
        {
          "indexed": false,
          "name": "name",
          "type": "string"
        },
        {
          "indexed": false,
          "name": "storeId",
          "type": "bytes32"
        }
      ],
      "name": "StoreCreated",
      "type": "event",
      "signature": "0xc790edb73a0172213f9c865455acd89732be6e893d2d82aeb7225e335ea7d9d1"
    },
    {
      "anonymous": false,
      "inputs": [
        {
          "indexed": false,
          "name": "seller",
          "type": "address"
        },
        {
          "indexed": false,
          "name": "storeId",
          "type": "bytes32"
        }
      ],
      "name": "StoreRemoved",
      "type": "event",
      "signature": "0xa65aaa89a6b8d45604b92a24fb97c91fc3d1504a9a40d61e4121e83dfd2de4c3"
    },
    {
      "anonymous": false,
      "inputs": [
        {
          "indexed": false,
          "name": "seller",
          "type": "address"
        },
        {
          "indexed": false,
          "name": "storeId",
          "type": "bytes32"
        },
        {
          "indexed": false,
          "name": "sku",
          "type": "uint256"
        },
        {
          "indexed": false,
          "name": "name",
          "type": "string"
        },
        {
          "indexed": false,
          "name": "price",
          "type": "uint256"
        },
        {
          "indexed": false,
          "name": "availableAmount",
          "type": "uint256"
        }
      ],
      "name": "ItemCreated",
      "type": "event",
      "signature": "0x6bd5d0af08c8ffa4a3d7dd1b59614faa2d9476b13e8ed73adc994061d416e19b"
    },
    {
      "anonymous": false,
      "inputs": [
        {
          "indexed": true,
          "name": "previousOwner",
          "type": "address"
        },
        {
          "indexed": true,
          "name": "newOwner",
          "type": "address"
        }
      ],
      "name": "OwnershipTransferred",
      "type": "event",
      "signature": "0x8be0079c531659141344cd1fd0a4f28419497f9722a3daafe3b4186f6b6457e0"
    },
    {
      "constant": true,
      "inputs": [],
      "name": "getRole",
      "outputs": [
        {
          "name": "",
          "type": "uint8"
        }
      ],
      "payable": false,
      "stateMutability": "view",
      "type": "function",
      "signature": "0xfde08174"
    },
    {
      "constant": false,
      "inputs": [
        {
          "name": "newAdmin",
          "type": "address"
        }
      ],
      "name": "addAdmin",
      "outputs": [],
      "payable": false,
      "stateMutability": "nonpayable",
      "type": "function",
      "signature": "0x70480275"
    },
    {
      "constant": false,
      "inputs": [
        {
          "name": "oldAdmin",
          "type": "address"
        }
      ],
      "name": "removeAdmin",
      "outputs": [],
      "payable": false,
      "stateMutability": "nonpayable",
      "type": "function",
      "signature": "0x1785f53c"
    },
    {
      "constant": false,
      "inputs": [
        {
          "name": "newSeller",
          "type": "address"
        }
      ],
      "name": "addSeller",
      "outputs": [],
      "payable": false,
      "stateMutability": "nonpayable",
      "type": "function",
      "signature": "0xd93fabfa"
    },
    {
      "constant": false,
      "inputs": [
        {
          "name": "oldSeller",
          "type": "address"
        }
      ],
      "name": "removeSeller",
      "outputs": [],
      "payable": false,
      "stateMutability": "nonpayable",
      "type": "function",
      "signature": "0x7cb9cf54"
    },
    {
      "constant": false,
      "inputs": [
        {
          "name": "name",
          "type": "string"
        }
      ],
      "name": "addStore",
      "outputs": [],
      "payable": false,
      "stateMutability": "nonpayable",
      "type": "function",
      "signature": "0x662feffc"
    },
    {
      "constant": false,
      "inputs": [
        {
          "name": "storeId",
          "type": "bytes32"
        },
        {
          "name": "storeIndex",
          "type": "uint256"
        }
      ],
      "name": "removeStore",
      "outputs": [],
      "payable": false,
      "stateMutability": "nonpayable",
      "type": "function",
      "signature": "0xbb0e4b4d"
    },
    {
      "constant": true,
      "inputs": [
        {
          "name": "seller",
          "type": "address"
        }
      ],
      "name": "getNumberOfStores",
      "outputs": [
        {
          "name": "",
          "type": "uint256"
        }
      ],
      "payable": false,
      "stateMutability": "view",
      "type": "function",
      "signature": "0xa06b78d0"
    },
    {
      "constant": true,
      "inputs": [
        {
          "name": "seller",
          "type": "address"
        },
        {
          "name": "storeIndex",
          "type": "uint256"
        }
      ],
      "name": "getStoreId",
      "outputs": [
        {
          "name": "",
          "type": "bytes32"
        }
      ],
      "payable": false,
      "stateMutability": "view",
      "type": "function",
      "signature": "0x7624ceef"
    },
    {
      "constant": true,
      "inputs": [
        {
          "name": "seller",
          "type": "address"
        },
        {
          "name": "storeId",
          "type": "bytes32"
        }
      ],
      "name": "getStoreMetadata",
      "outputs": [
        {
          "name": "",
          "type": "string"
        },
        {
          "name": "",
          "type": "uint256"
        }
      ],
      "payable": false,
      "stateMutability": "view",
      "type": "function",
      "signature": "0x969416f7"
    },
    {
      "constant": false,
      "inputs": [
        {
          "name": "storeId",
          "type": "bytes32"
        },
        {
          "name": "sku",
          "type": "uint256"
        },
        {
          "name": "name",
          "type": "string"
        },
        {
          "name": "price",
          "type": "uint256"
        },
        {
          "name": "availableAmount",
          "type": "uint256"
        }
      ],
      "name": "addItem",
      "outputs": [],
      "payable": false,
      "stateMutability": "nonpayable",
      "type": "function",
      "signature": "0xa1eb1bcd"
    },
    {
      "constant": true,
      "inputs": [
        {
          "name": "seller",
          "type": "address"
        },
        {
          "name": "storeId",
          "type": "bytes32"
        }
      ],
      "name": "getNumberOfItems",
      "outputs": [
        {
          "name": "",
          "type": "uint256"
        }
      ],
      "payable": false,
      "stateMutability": "view",
      "type": "function",
      "signature": "0x3fbdf937"
    },
    {
      "constant": true,
      "inputs": [
        {
          "name": "seller",
          "type": "address"
        },
        {
          "name": "storeId",
          "type": "bytes32"
        },
        {
          "name": "skuIndex",
          "type": "uint256"
        }
      ],
      "name": "getSku",
      "outputs": [
        {
          "name": "",
          "type": "uint256"
        }
      ],
      "payable": false,
      "stateMutability": "view",
      "type": "function",
      "signature": "0x1849e195"
    },
    {
      "constant": true,
      "inputs": [
        {
          "name": "seller",
          "type": "address"
        },
        {
          "name": "storeId",
          "type": "bytes32"
        },
        {
          "name": "sku",
          "type": "uint256"
        }
      ],
      "name": "getItemMetadata",
      "outputs": [
        {
          "name": "",
          "type": "string"
        },
        {
          "name": "",
          "type": "uint256"
        },
        {
          "name": "",
          "type": "uint256"
        }
      ],
      "payable": false,
      "stateMutability": "view",
      "type": "function",
      "signature": "0x2ac81c77"
    }
  ],
  "bytecode": "0x6080604052336000806101000a81548173ffffffffffffffffffffffffffffffffffffffff021916908373ffffffffffffffffffffffffffffffffffffffff1602179055506000809054906101000a900473ffffffffffffffffffffffffffffffffffffffff1673ffffffffffffffffffffffffffffffffffffffff16600073ffffffffffffffffffffffffffffffffffffffff167f8be0079c531659141344cd1fd0a4f28419497f9722a3daafe3b4186f6b6457e060405160405180910390a36125e2806100cf6000396000f3fe6080604052600436106100fc576000357c0100000000000000000000000000000000000000000000000000000000900463ffffffff1680631785f53c146101015780631849e195146101525780632ac81c77146101cb5780633fbdf937146102b7578063662feffc1461032657806370480275146103ee578063715018a61461043f5780637624ceef146104565780637cb9cf54146104c55780638da5cb5b146105165780638f32d59b1461056d578063969416f71461059c578063a06b78d014610677578063a1eb1bcd146106dc578063bb0e4b4d146107cc578063d93fabfa14610811578063f2fde38b14610862578063fde08174146108b3575b600080fd5b34801561010d57600080fd5b506101506004803603602081101561012457600080fd5b81019080803573ffffffffffffffffffffffffffffffffffffffff1690602001909291905050506108ec565b005b34801561015e57600080fd5b506101b56004803603606081101561017557600080fd5b81019080803573ffffffffffffffffffffffffffffffffffffffff1690602001909291908035906020019092919080359060200190929190505050610a03565b6040518082815260200191505060405180910390f35b3480156101d757600080fd5b5061022e600480360360608110156101ee57600080fd5b81019080803573ffffffffffffffffffffffffffffffffffffffff1690602001909291908035906020019092919080359060200190929190505050610a7c565b6040518080602001848152602001838152602001828103825285818151815260200191508051906020019080838360005b8381101561027a57808201518184015260208101905061025f565b50505050905090810190601f1680156102a75780820380516001836020036101000a031916815260200191505b5094505050505060405180910390f35b3480156102c357600080fd5b50610310600480360360408110156102da57600080fd5b81019080803573ffffffffffffffffffffffffffffffffffffffff16906020019092919080359060200190929190505050610ba6565b6040518082815260200191505060405180910390f35b34801561033257600080fd5b506103ec6004803603602081101561034957600080fd5b810190808035906020019064010000000081111561036657600080fd5b82018360208201111561037857600080fd5b8035906020019184600183028401116401000000008311171561039a57600080fd5b91908080601f016020809104026020016040519081016040528093929190818152602001838380828437600081840152601f19601f820116905080830192505050505050509192919290505050610c0f565b005b3480156103fa57600080fd5b5061043d6004803603602081101561041157600080fd5b81019080803573ffffffffffffffffffffffffffffffffffffffff16906020019092919050505061117f565b005b34801561044b57600080fd5b506104546112b1565b005b34801561046257600080fd5b506104af6004803603604081101561047957600080fd5b81019080803573ffffffffffffffffffffffffffffffffffffffff16906020019092919080359060200190929190505050611383565b6040518082815260200191505060405180910390f35b3480156104d157600080fd5b50610514600480360360208110156104e857600080fd5b81019080803573ffffffffffffffffffffffffffffffffffffffff1690602001909291905050506113e7565b005b34801561052257600080fd5b5061052b6115b1565b604051808273ffffffffffffffffffffffffffffffffffffffff1673ffffffffffffffffffffffffffffffffffffffff16815260200191505060405180910390f35b34801561057957600080fd5b506105826115da565b604051808215151515815260200191505060405180910390f35b3480156105a857600080fd5b506105f5600480360360408110156105bf57600080fd5b81019080803573ffffffffffffffffffffffffffffffffffffffff16906020019092919080359060200190929190505050611631565b6040518080602001838152602001828103825284818151815260200191508051906020019080838360005b8381101561063b578082015181840152602081019050610620565b50505050905090810190601f1680156106685780820380516001836020036101000a031916815260200191505b50935050505060405180910390f35b34801561068357600080fd5b506106c66004803603602081101561069a57600080fd5b81019080803573ffffffffffffffffffffffffffffffffffffffff16906020019092919050505061173f565b6040518082815260200191505060405180910390f35b3480156106e857600080fd5b506107ca600480360360a08110156106ff57600080fd5b8101908080359060200190929190803590602001909291908035906020019064010000000081111561073057600080fd5b82018360208201111561074257600080fd5b8035906020019184600183028401116401000000008311171561076457600080fd5b91908080601f016020809104026020016040519081016040528093929190818152602001838380828437600081840152601f19601f8201169050808301925050505050505091929192908035906020019092919080359060200190929190505050611793565b005b3480156107d857600080fd5b5061080f600480360360408110156107ef57600080fd5b810190808035906020019092919080359060200190929190505050611c60565b005b34801561081d57600080fd5b506108606004803603602081101561083457600080fd5b81019080803573ffffffffffffffffffffffffffffffffffffffff169060200190929190505050612005565b005b34801561086e57600080fd5b506108b16004803603602081101561088557600080fd5b81019080803573ffffffffffffffffffffffffffffffffffffffff169060200190929190505050612244565b005b3480156108bf57600080fd5b506108c8612263565b604051808260028111156108d857fe5b60ff16815260200191505060405180910390f35b6108f46115da565b15156108ff57600080fd5b600160008273ffffffffffffffffffffffffffffffffffffffff1673ffffffffffffffffffffffffffffffffffffffff16815260200190815260200160002060006101000a81549060ff0219169055600260008273ffffffffffffffffffffffffffffffffffffffff1673ffffffffffffffffffffffffffffffffffffffff16815260200190815260200160002060006101000a81549060ff02191690557fa3b62bc36326052d97ea62d63c3d60308ed4c3ea8ac079dd8499f1e9c4f80c0f81604051808273ffffffffffffffffffffffffffffffffffffffff1673ffffffffffffffffffffffffffffffffffffffff16815260200191505060405180910390a150565b6000600360008573ffffffffffffffffffffffffffffffffffffffff1673ffffffffffffffffffffffffffffffffffffffff168152602001908152602001600020600001600084815260200190815260200160002060040182815481101515610a6857fe5b906000526020600020015490509392505050565b60606000806000600360008873ffffffffffffffffffffffffffffffffffffffff1673ffffffffffffffffffffffffffffffffffffffff1681526020019081526020016000206000016000878152602001908152602001600020600301600086815260200190815260200160002090508060010181600201548260030154828054600181600116156101000203166002900480601f016020809104026020016040519081016040528092919081815260200182805460018160011615610100020316600290048015610b8f5780601f10610b6457610100808354040283529160200191610b8f565b820191906000526020600020905b815481529060010190602001808311610b7257829003601f168201915b505050505092509350935093505093509350939050565b600080600360008573ffffffffffffffffffffffffffffffffffffffff1673ffffffffffffffffffffffffffffffffffffffff16815260200190815260200160002090508060000160008481526020019081526020016000206004018054905091505092915050565b600260003373ffffffffffffffffffffffffffffffffffffffff1673ffffffffffffffffffffffffffffffffffffffff16815260200190815260200160002060009054906101000a900460ff168015610cca575060016002811115610c7057fe5b600160003373ffffffffffffffffffffffffffffffffffffffff1673ffffffffffffffffffffffffffffffffffffffff16815260200190815260200160002060009054906101000a900460ff166002811115610cc857fe5b145b1515610cd557600080fd5b60008151111515610d74576040517f08c379a00000000000000000000000000000000000000000000000000000000081526004018080602001828103825260258152602001807f546865206e616d65206f66207468652073746f72652063616e6e6f742062652081526020017f656d70747900000000000000000000000000000000000000000000000000000081525060400191505060405180910390fd5b60003382604051602001808373ffffffffffffffffffffffffffffffffffffffff1673ffffffffffffffffffffffffffffffffffffffff166c0100000000000000000000000002815260140182805190602001908083835b602083101515610df15780518252602082019150602081019050602083039250610dcc565b6001836020036101000a038019825116818451168082178552505050505050905001925050506040516020818303038152906040528051906020012090506000600102600360003373ffffffffffffffffffffffffffffffffffffffff1673ffffffffffffffffffffffffffffffffffffffff168152602001908152602001600020600001600083815260200190815260200160002060000154141515610f26576040517f08c379a00000000000000000000000000000000000000000000000000000000081526004018080602001828103825260368152602001807f5468652073656c6c6572206d757374206e6f7420686176652074776f2073746f81526020017f7265732077697468207468652073616d65206e616d650000000000000000000081525060400191505060405180910390fd5b6000600360003373ffffffffffffffffffffffffffffffffffffffff1673ffffffffffffffffffffffffffffffffffffffff16815260200190815260200160002090506080604051908101604052808381526020013373ffffffffffffffffffffffffffffffffffffffff1681526020018481526020016000604051908082528060200260200182016040528015610fcd5781602001602082028038833980820191505090505b508152508160000160008481526020019081526020016000206000820151816000015560208201518160010160006101000a81548173ffffffffffffffffffffffffffffffffffffffff021916908373ffffffffffffffffffffffffffffffffffffffff160217905550604082015181600201908051906020019061105392919061240a565b50606082015181600401908051906020019061107092919061248a565b50905050806001018290806001815401808255809150509060018203906000526020600020016000909192909190915055507fc790edb73a0172213f9c865455acd89732be6e893d2d82aeb7225e335ea7d9d1338484604051808473ffffffffffffffffffffffffffffffffffffffff1673ffffffffffffffffffffffffffffffffffffffff16815260200180602001838152602001828103825284818151815260200191508051906020019080838360005b8381101561113e578082015181840152602081019050611123565b50505050905090810190601f16801561116b5780820380516001836020036101000a031916815260200191505b5094505050505060405180910390a1505050565b6111876115da565b151561119257600080fd5b6000600160008373ffffffffffffffffffffffffffffffffffffffff1673ffffffffffffffffffffffffffffffffffffffff16815260200190815260200160002060006101000a81548160ff021916908360028111156111ee57fe5b02179055506001600260008373ffffffffffffffffffffffffffffffffffffffff1673ffffffffffffffffffffffffffffffffffffffff16815260200190815260200160002060006101000a81548160ff0219169083151502179055507f44d6d25963f097ad14f29f06854a01f575648a1ef82f30e562ccd3889717e33981604051808273ffffffffffffffffffffffffffffffffffffffff1673ffffffffffffffffffffffffffffffffffffffff16815260200191505060405180910390a150565b6112b96115da565b15156112c457600080fd5b600073ffffffffffffffffffffffffffffffffffffffff166000809054906101000a900473ffffffffffffffffffffffffffffffffffffffff1673ffffffffffffffffffffffffffffffffffffffff167f8be0079c531659141344cd1fd0a4f28419497f9722a3daafe3b4186f6b6457e060405160405180910390a360008060006101000a81548173ffffffffffffffffffffffffffffffffffffffff021916908373ffffffffffffffffffffffffffffffffffffffff160217905550565b6000600360008473ffffffffffffffffffffffffffffffffffffffff1673ffffffffffffffffffffffffffffffffffffffff168152602001908152602001600020600101828154811015156113d457fe5b9060005260206000200154905092915050565b600260003373ffffffffffffffffffffffffffffffffffffffff1673ffffffffffffffffffffffffffffffffffffffff16815260200190815260200160002060009054906101000a900460ff1680156114a257506000600281111561144857fe5b600160003373ffffffffffffffffffffffffffffffffffffffff1673ffffffffffffffffffffffffffffffffffffffff16815260200190815260200160002060009054906101000a900460ff1660028111156114a057fe5b145b15156114ad57600080fd5b600160008273ffffffffffffffffffffffffffffffffffffffff1673ffffffffffffffffffffffffffffffffffffffff16815260200190815260200160002060006101000a81549060ff0219169055600260008273ffffffffffffffffffffffffffffffffffffffff1673ffffffffffffffffffffffffffffffffffffffff16815260200190815260200160002060006101000a81549060ff02191690557fa6f3b3030df964d974376ba4db21cbe49207bd79998f0d619c1c3a422259707f81604051808273ffffffffffffffffffffffffffffffffffffffff1673ffffffffffffffffffffffffffffffffffffffff16815260200191505060405180910390a150565b60008060009054906101000a900473ffffffffffffffffffffffffffffffffffffffff16905090565b60008060009054906101000a900473ffffffffffffffffffffffffffffffffffffffff1673ffffffffffffffffffffffffffffffffffffffff163373ffffffffffffffffffffffffffffffffffffffff1614905090565b6060600080600360008673ffffffffffffffffffffffffffffffffffffffff1673ffffffffffffffffffffffffffffffffffffffff16815260200190815260200160002060000160008581526020019081526020016000209050806002018160040180549050818054600181600116156101000203166002900480601f01602080910402602001604051908101604052809291908181526020018280546001816001161561010002031660029004801561172c5780601f106117015761010080835404028352916020019161172c565b820191906000526020600020905b81548152906001019060200180831161170f57829003601f168201915b5050505050915092509250509250929050565b600080600360008473ffffffffffffffffffffffffffffffffffffffff1673ffffffffffffffffffffffffffffffffffffffff16815260200190815260200160002090508060010180549050915050919050565b600260003373ffffffffffffffffffffffffffffffffffffffff1673ffffffffffffffffffffffffffffffffffffffff16815260200190815260200160002060009054906101000a900460ff16801561184e5750600160028111156117f457fe5b600160003373ffffffffffffffffffffffffffffffffffffffff1673ffffffffffffffffffffffffffffffffffffffff16815260200190815260200160002060009054906101000a900460ff16600281111561184c57fe5b145b151561185957600080fd5b846000600102600360003373ffffffffffffffffffffffffffffffffffffffff1673ffffffffffffffffffffffffffffffffffffffff168152602001908152602001600020600001600083815260200190815260200160002060000154141515156118c357600080fd5b6000600360003373ffffffffffffffffffffffffffffffffffffffff1673ffffffffffffffffffffffffffffffffffffffff168152602001908152602001600020600001600088815260200190815260200160002090506000816003016000888152602001908152602001600020600001541415156119aa576040517f08c379a000000000000000000000000000000000000000000000000000000000815260040180806020018281038252601e8152602001807f534b55206d75737420626520756e6971756520666f7220612073746f7265000081525060200191505060405180910390fd5b600084111515611a22576040517f08c379a000000000000000000000000000000000000000000000000000000000815260040180806020018281038252601f8152602001807f5072696365206d757374206265206120706f736974697665206e756d6265720081525060200191505060405180910390fd5b600083111515611ac0576040517f08c379a000000000000000000000000000000000000000000000000000000000815260040180806020018281038252602a8152602001807f417661696c61626c6520616d6f756e74206d757374206265206120706f73697481526020017f697665206e756d6265720000000000000000000000000000000000000000000081525060400191505060405180910390fd5b60806040519081016040528087815260200186815260200185815260200184815250816003016000888152602001908152602001600020600082015181600001556020820151816001019080519060200190611b1d92919061240a565b506040820151816002015560608201518160030155905050806004018690806001815401808255809150509060018203906000526020600020016000909192909190915055507f6bd5d0af08c8ffa4a3d7dd1b59614faa2d9476b13e8ed73adc994061d416e19b33826000015488888888604051808773ffffffffffffffffffffffffffffffffffffffff1673ffffffffffffffffffffffffffffffffffffffff16815260200186815260200185815260200180602001848152602001838152602001828103825285818151815260200191508051906020019080838360005b83811015611c18578082015181840152602081019050611bfd565b50505050905090810190601f168015611c455780820380516001836020036101000a031916815260200191505b5097505050505050505060405180910390a150505050505050565b600260003373ffffffffffffffffffffffffffffffffffffffff1673ffffffffffffffffffffffffffffffffffffffff16815260200190815260200160002060009054906101000a900460ff168015611d1b575060016002811115611cc157fe5b600160003373ffffffffffffffffffffffffffffffffffffffff1673ffffffffffffffffffffffffffffffffffffffff16815260200190815260200160002060009054906101000a900460ff166002811115611d1957fe5b145b1515611d2657600080fd5b816000600102600360003373ffffffffffffffffffffffffffffffffffffffff1673ffffffffffffffffffffffffffffffffffffffff16815260200190815260200160002060000160008381526020019081526020016000206000015414151515611d9057600080fd5b6000600360003373ffffffffffffffffffffffffffffffffffffffff1673ffffffffffffffffffffffffffffffffffffffff16815260200190815260200160002090506000600360003373ffffffffffffffffffffffffffffffffffffffff1673ffffffffffffffffffffffffffffffffffffffff1681526020019081526020016000206000016000868152602001908152602001600020905060008090505b8160040180549050811015611ea7578160030160008360040183815481101515611e5657fe5b90600052602060002001548152602001908152602001600020600080820160009055600182016000611e8891906124d7565b6002820160009055600382016000905550508080600101915050611e30565b508160000160008681526020019081526020016000206000808201600090556001820160006101000a81549073ffffffffffffffffffffffffffffffffffffffff0219169055600282016000611efd91906124d7565b600482016000611f0d919061251f565b505060018260010180549050118015611f30575060018260010180549050038414155b15611f7b57816001016001836001018054905003815481101515611f5057fe5b90600052602060002001548260010185815481101515611f6c57fe5b90600052602060002001819055505b81600101805480919060019003611f929190612540565b507fa65aaa89a6b8d45604b92a24fb97c91fc3d1504a9a40d61e4121e83dfd2de4c33386604051808373ffffffffffffffffffffffffffffffffffffffff1673ffffffffffffffffffffffffffffffffffffffff1681526020018281526020019250505060405180910390a15050505050565b600260003373ffffffffffffffffffffffffffffffffffffffff1673ffffffffffffffffffffffffffffffffffffffff16815260200190815260200160002060009054906101000a900460ff1680156120c057506000600281111561206657fe5b600160003373ffffffffffffffffffffffffffffffffffffffff1673ffffffffffffffffffffffffffffffffffffffff16815260200190815260200160002060009054906101000a900460ff1660028111156120be57fe5b145b15156120cb57600080fd5b80600260008273ffffffffffffffffffffffffffffffffffffffff1673ffffffffffffffffffffffffffffffffffffffff16815260200190815260200160002060009054906101000a900460ff1615151561212557600080fd5b60018060008473ffffffffffffffffffffffffffffffffffffffff1673ffffffffffffffffffffffffffffffffffffffff16815260200190815260200160002060006101000a81548160ff0219169083600281111561218057fe5b02179055506001600260008473ffffffffffffffffffffffffffffffffffffffff1673ffffffffffffffffffffffffffffffffffffffff16815260200190815260200160002060006101000a81548160ff0219169083151502179055507f3d78526f2568d430fd8e20719601f7bc3f979936f8880236cc284e8127251b4282604051808273ffffffffffffffffffffffffffffffffffffffff1673ffffffffffffffffffffffffffffffffffffffff16815260200191505060405180910390a15050565b61224c6115da565b151561225757600080fd5b61226081612310565b50565b6000600260003373ffffffffffffffffffffffffffffffffffffffff1673ffffffffffffffffffffffffffffffffffffffff16815260200190815260200160002060009054906101000a900460ff166122bd57600261230b565b600160003373ffffffffffffffffffffffffffffffffffffffff1673ffffffffffffffffffffffffffffffffffffffff16815260200190815260200160002060009054906101000a900460ff165b905090565b600073ffffffffffffffffffffffffffffffffffffffff168173ffffffffffffffffffffffffffffffffffffffff161415151561234c57600080fd5b8073ffffffffffffffffffffffffffffffffffffffff166000809054906101000a900473ffffffffffffffffffffffffffffffffffffffff1673ffffffffffffffffffffffffffffffffffffffff167f8be0079c531659141344cd1fd0a4f28419497f9722a3daafe3b4186f6b6457e060405160405180910390a3806000806101000a81548173ffffffffffffffffffffffffffffffffffffffff021916908373ffffffffffffffffffffffffffffffffffffffff16021790555050565b828054600181600116156101000203166002900490600052602060002090601f016020900481019282601f1061244b57805160ff1916838001178555612479565b82800160010185558215612479579182015b8281111561247857825182559160200191906001019061245d565b5b509050612486919061256c565b5090565b8280548282559060005260206000209081019282156124c6579160200282015b828111156124c55782518255916020019190600101906124aa565b5b5090506124d3919061256c565b5090565b50805460018160011615610100020316600290046000825580601f106124fd575061251c565b601f01602090049060005260206000209081019061251b919061256c565b5b50565b508054600082559060005260206000209081019061253d919061256c565b50565b815481835581811115612567578183600052602060002091820191016125669190612591565b5b505050565b61258e91905b8082111561258a576000816000905550600101612572565b5090565b90565b6125b391905b808211156125af576000816000905550600101612597565b5090565b9056fea165627a7a7230582093776c3f694b45af1ec8416ff2c105acaadde4c313e3d5e846110dca340bac990029",
  "source": "pragma solidity ^0.5.0;\n\nimport 'openzeppelin-solidity/contracts/ownership/Ownable.sol';\n\ncontract Marketplace is Ownable {\n\n  enum Roles { ADMIN, SELLER, BUYER }\n\n  /* To know the role of a specific user */\n  mapping(address => Roles) roles;\n  mapping(address => bool) privilegedUsers;\n\n  /* Stores owned by sellers */\n  mapping(address => Empire) empires;\n\n  /* Structs */\n  struct Empire {\n    mapping(bytes32 => Store) stores;\n    bytes32[] storesIds;\n  }\n\n  struct Store {\n    bytes32 storeId;\n    address seller;\n    string name;\n    mapping(uint => Item) items;\n    uint[] skus;\n  }\n\n  struct Item {\n    uint sku;\n    string name;\n    uint price;\n    uint availableAmount;\n  }\n\n  /* Events */\n  event SellerAdded(address newSeller);\n  event SellerRemoved(address oldSeller);\n  event AdminAdded(address newAdmin);\n  event AdminRemoved(address oldAdmin);\n\n  event StoreCreated(address seller, string name, bytes32 storeId);\n  event StoreRemoved(address seller, bytes32 storeId);\n  event ItemCreated(address seller, bytes32 storeId, uint sku, string name, uint price, uint availableAmount);\n\n  /* Roles modifiers */\n  modifier isAdmin () { require (privilegedUsers[msg.sender] && roles[msg.sender] == Roles.ADMIN); _;}\n  modifier isSeller () { require (privilegedUsers[msg.sender] && roles[msg.sender] == Roles.SELLER); _;}\n  modifier isBuyer (address _address) { require (!privilegedUsers[_address]); _;}\n\n  /* Ownership modifiers */\n  modifier isSellerOwner (bytes32 storeId) { require(empires[msg.sender].stores[storeId].storeId != 0); _; }\n  modifier isItemSeller (bytes32 storeId, uint sku) {\n    require (empires[msg.sender].stores[storeId].storeId != 0);\n    require (empires[msg.sender].stores[storeId].items[sku].sku != 0);\n    _;\n  }\n\n  /* Managing permissions */\n\n  function getRole() public view returns(Roles) {\n    return privilegedUsers[msg.sender] ? roles[msg.sender] : Roles.BUYER;\n  }\n\n  function addAdmin(address newAdmin) public onlyOwner {\n    roles[newAdmin] = Roles.ADMIN;\n    privilegedUsers[newAdmin] = true;\n    emit AdminAdded(newAdmin);\n  }\n\n  function removeAdmin(address oldAdmin) public onlyOwner {\n    delete roles[oldAdmin];\n    delete privilegedUsers[oldAdmin];\n    emit AdminRemoved(oldAdmin);\n  }\n\n  function addSeller(address newSeller) public isAdmin isBuyer(newSeller) {\n    roles[newSeller] = Roles.SELLER;\n    privilegedUsers[newSeller] = true;\n    emit SellerAdded(newSeller);\n  }\n\n  function removeSeller(address oldSeller) public isAdmin {\n    delete roles[oldSeller];\n    delete privilegedUsers[oldSeller];\n    emit SellerRemoved(oldSeller);\n  }\n\n  /* Managing stores */\n\n  function addStore(string memory name) public isSeller {\n    require(bytes(name).length > 0, 'The name of the store cannot be empty');\n\n    bytes32 storeId = keccak256(abi.encodePacked(msg.sender, name));\n    require(empires[msg.sender].stores[storeId].storeId == 0, 'The seller must not have two stores with the same name');\n\n    Empire storage empire = empires[msg.sender];\n    empire.stores[storeId] = Store({ storeId: storeId, seller: msg.sender, name: name, skus: new uint[](0) });\n    empire.storesIds.push(storeId);\n\n    emit StoreCreated(msg.sender, name, storeId);\n  }\n\n  function removeStore(bytes32 storeId, uint storeIndex) public isSeller isSellerOwner(storeId) {\n    // TODO - Taking into account this: https://solidity.readthedocs.io/en/develop/types.html#delete\n    Empire storage empire = empires[msg.sender];\n    Store storage store = empires[msg.sender].stores[storeId];\n\n    // Removing items associated with the store\n    for(uint skuIndex = 0; skuIndex < store.skus.length; skuIndex++) {\n        delete store.items[store.skus[skuIndex]];\n    }\n\n    // Removing the store\n    delete empire.stores[storeId];\n\n    // Removing and compacting an item in an array: https://github.com/su-squares/ethereum-contract/blob/master/contracts/SuNFT.sol#L296\n    if (empire.storesIds.length > 1 && storeIndex != empire.storesIds.length - 1)    {\n        empire.storesIds[storeIndex] = empire.storesIds[empire.storesIds.length - 1];\n    }\n    empire.storesIds.length--;\n\n    emit StoreRemoved(msg.sender, storeId);\n  }\n\n  function getNumberOfStores(address seller) public view returns(uint) {\n    Empire storage empire = empires[seller];\n    return empire.storesIds.length;\n  }\n\n  function getStoreId(address seller, uint storeIndex) public view returns(bytes32) {\n    return empires[seller].storesIds[storeIndex];\n  }\n\n  /*\n   * returns the name of the store and the number of items in it\n   */\n  function getStoreMetadata(address seller, bytes32 storeId) public view returns(string memory, uint) {\n    Store storage store = empires[seller].stores[storeId];\n    return (store.name, store.skus.length);\n  }\n\n  /* Managing items */\n\n  function addItem(bytes32 storeId, uint sku, string memory name, uint price, uint availableAmount)\n    public\n    isSeller\n    isSellerOwner(storeId) {\n    Store storage store = empires[msg.sender].stores[storeId];\n\n    // Checking that there aren't any item with the same sku in the store\n    require(store.items[sku].sku == 0, 'SKU must be unique for a store');\n\n    // TODO Check integer overflows (more in the buy operation)\n    require(price > 0, 'Price must be a positive number');\n    require(availableAmount > 0, 'Available amount must be a positive number');\n\n    store.items[sku] = Item({ sku: sku, name: name, price: price, availableAmount: availableAmount });\n    store.skus.push(sku);\n\n    emit ItemCreated(msg.sender, store.storeId, sku, name, price, availableAmount);\n  }\n\n  function getNumberOfItems(address seller, bytes32 storeId) public view returns(uint) {\n    Empire storage empire = empires[seller];\n    return empire.stores[storeId].skus.length;\n  }\n\n  function getSku(address seller, bytes32 storeId, uint skuIndex) public view returns(uint) {\n    return empires[seller].stores[storeId].skus[skuIndex];\n  }\n\n  function getItemMetadata(address seller, bytes32 storeId, uint sku)\n    public\n    view\n    returns(string memory, uint, uint) {\n    Item storage item = empires[seller].stores[storeId].items[sku];\n    return (item.name, item.price, item.availableAmount);\n  }\n}\n",
  "sourcePath": "/home/jlanchas/repositorios/github/chechu/consensys-academy-final-project/contracts/Marketplace.sol",
  "compiler": {
    "name": "solc",
    "version": "0.5.0+commit.1d4f565a.Emscripten.clang"
  },
  "schemaVersion": "3.0.0",
  "updatedAt": "2019-01-20T12:01:00.936Z",
  "devdoc": {
    "methods": {
      "isOwner()": {
        "return": "true if `msg.sender` is the owner of the contract."
      },
      "owner()": {
        "return": "the address of the owner."
      },
      "renounceOwnership()": {
        "details": "Allows the current owner to relinquish control of the contract."
      },
      "transferOwnership(address)": {
        "details": "Allows the current owner to transfer control of the contract to a newOwner.",
        "params": {
          "newOwner": "The address to transfer ownership to."
        }
      }
    }
  },
  "userdoc": {
    "methods": {
      "renounceOwnership()": {
        "notice": "Renouncing to ownership will leave the contract without an owner. It will not be possible to call the functions with the `onlyOwner` modifier anymore."
      }
    }
  }
}