{
  "contractName": "Marketplace",
  "abi": [
    {
      "constant": false,
      "inputs": [],
      "name": "renounceOwnership",
      "outputs": [],
      "payable": false,
      "stateMutability": "nonpayable",
      "type": "function"
    },
    {
      "constant": true,
      "inputs": [],
      "name": "stopped",
      "outputs": [
        {
          "name": "",
          "type": "bool"
        }
      ],
      "payable": false,
      "stateMutability": "view",
      "type": "function"
    },
    {
      "constant": true,
      "inputs": [],
      "name": "owner",
      "outputs": [
        {
          "name": "",
          "type": "address"
        }
      ],
      "payable": false,
      "stateMutability": "view",
      "type": "function"
    },
    {
      "constant": true,
      "inputs": [],
      "name": "isOwner",
      "outputs": [
        {
          "name": "",
          "type": "bool"
        }
      ],
      "payable": false,
      "stateMutability": "view",
      "type": "function"
    },
    {
      "constant": false,
      "inputs": [
        {
          "name": "newOwner",
          "type": "address"
        }
      ],
      "name": "transferOwnership",
      "outputs": [],
      "payable": false,
      "stateMutability": "nonpayable",
      "type": "function"
    },
    {
      "anonymous": false,
      "inputs": [
        {
          "indexed": false,
          "name": "newSeller",
          "type": "address"
        }
      ],
      "name": "SellerAdded",
      "type": "event"
    },
    {
      "anonymous": false,
      "inputs": [
        {
          "indexed": false,
          "name": "oldSeller",
          "type": "address"
        }
      ],
      "name": "SellerRemoved",
      "type": "event"
    },
    {
      "anonymous": false,
      "inputs": [
        {
          "indexed": false,
          "name": "newAdmin",
          "type": "address"
        }
      ],
      "name": "AdminAdded",
      "type": "event"
    },
    {
      "anonymous": false,
      "inputs": [
        {
          "indexed": false,
          "name": "oldAdmin",
          "type": "address"
        }
      ],
      "name": "AdminRemoved",
      "type": "event"
    },
    {
      "anonymous": false,
      "inputs": [
        {
          "indexed": false,
          "name": "seller",
          "type": "address"
        },
        {
          "indexed": false,
          "name": "name",
          "type": "string"
        },
        {
          "indexed": false,
          "name": "storeId",
          "type": "bytes32"
        }
      ],
      "name": "StoreCreated",
      "type": "event"
    },
    {
      "anonymous": false,
      "inputs": [
        {
          "indexed": false,
          "name": "seller",
          "type": "address"
        },
        {
          "indexed": false,
          "name": "storeId",
          "type": "bytes32"
        }
      ],
      "name": "StoreRemoved",
      "type": "event"
    },
    {
      "anonymous": false,
      "inputs": [
        {
          "indexed": false,
          "name": "seller",
          "type": "address"
        },
        {
          "indexed": false,
          "name": "storeId",
          "type": "bytes32"
        },
        {
          "indexed": false,
          "name": "sku",
          "type": "uint256"
        },
        {
          "indexed": false,
          "name": "name",
          "type": "string"
        },
        {
          "indexed": false,
          "name": "price",
          "type": "uint256"
        },
        {
          "indexed": false,
          "name": "availableNumItems",
          "type": "uint256"
        }
      ],
      "name": "ItemCreated",
      "type": "event"
    },
    {
      "anonymous": false,
      "inputs": [
        {
          "indexed": false,
          "name": "seller",
          "type": "address"
        },
        {
          "indexed": false,
          "name": "storeId",
          "type": "bytes32"
        },
        {
          "indexed": false,
          "name": "sku",
          "type": "uint256"
        }
      ],
      "name": "ItemRemoved",
      "type": "event"
    },
    {
      "anonymous": false,
      "inputs": [
        {
          "indexed": false,
          "name": "seller",
          "type": "address"
        },
        {
          "indexed": false,
          "name": "storeId",
          "type": "bytes32"
        },
        {
          "indexed": false,
          "name": "sku",
          "type": "uint256"
        },
        {
          "indexed": false,
          "name": "name",
          "type": "string"
        },
        {
          "indexed": false,
          "name": "price",
          "type": "uint256"
        },
        {
          "indexed": false,
          "name": "availableNumItems",
          "type": "uint256"
        }
      ],
      "name": "ItemEdited",
      "type": "event"
    },
    {
      "anonymous": false,
      "inputs": [
        {
          "indexed": false,
          "name": "seller",
          "type": "address"
        },
        {
          "indexed": false,
          "name": "storeId",
          "type": "bytes32"
        },
        {
          "indexed": false,
          "name": "sku",
          "type": "uint256"
        },
        {
          "indexed": false,
          "name": "numPurchasedItems",
          "type": "uint256"
        },
        {
          "indexed": false,
          "name": "newAvailableNumItems",
          "type": "uint256"
        }
      ],
      "name": "ItemPurchased",
      "type": "event"
    },
    {
      "anonymous": false,
      "inputs": [
        {
          "indexed": true,
          "name": "previousOwner",
          "type": "address"
        },
        {
          "indexed": true,
          "name": "newOwner",
          "type": "address"
        }
      ],
      "name": "OwnershipTransferred",
      "type": "event"
    },
    {
      "constant": false,
      "inputs": [],
      "name": "toggleContractActive",
      "outputs": [],
      "payable": false,
      "stateMutability": "nonpayable",
      "type": "function"
    },
    {
      "constant": true,
      "inputs": [],
      "name": "getRole",
      "outputs": [
        {
          "name": "",
          "type": "uint8"
        }
      ],
      "payable": false,
      "stateMutability": "view",
      "type": "function"
    },
    {
      "constant": false,
      "inputs": [
        {
          "name": "newAdmin",
          "type": "address"
        }
      ],
      "name": "addAdmin",
      "outputs": [],
      "payable": false,
      "stateMutability": "nonpayable",
      "type": "function"
    },
    {
      "constant": false,
      "inputs": [
        {
          "name": "oldAdmin",
          "type": "address"
        }
      ],
      "name": "removeAdmin",
      "outputs": [],
      "payable": false,
      "stateMutability": "nonpayable",
      "type": "function"
    },
    {
      "constant": false,
      "inputs": [
        {
          "name": "newSeller",
          "type": "address"
        }
      ],
      "name": "addSeller",
      "outputs": [],
      "payable": false,
      "stateMutability": "nonpayable",
      "type": "function"
    },
    {
      "constant": false,
      "inputs": [
        {
          "name": "oldSeller",
          "type": "address"
        }
      ],
      "name": "removeSeller",
      "outputs": [],
      "payable": false,
      "stateMutability": "nonpayable",
      "type": "function"
    },
    {
      "constant": true,
      "inputs": [],
      "name": "getNumberOfSellers",
      "outputs": [
        {
          "name": "",
          "type": "uint256"
        }
      ],
      "payable": false,
      "stateMutability": "view",
      "type": "function"
    },
    {
      "constant": true,
      "inputs": [
        {
          "name": "sellerIndex",
          "type": "uint256"
        }
      ],
      "name": "getSellerAddress",
      "outputs": [
        {
          "name": "",
          "type": "address"
        }
      ],
      "payable": false,
      "stateMutability": "view",
      "type": "function"
    },
    {
      "constant": false,
      "inputs": [
        {
          "name": "name",
          "type": "string"
        }
      ],
      "name": "addStore",
      "outputs": [],
      "payable": false,
      "stateMutability": "nonpayable",
      "type": "function"
    },
    {
      "constant": false,
      "inputs": [
        {
          "name": "storeId",
          "type": "bytes32"
        },
        {
          "name": "storeIndex",
          "type": "uint256"
        }
      ],
      "name": "removeStore",
      "outputs": [],
      "payable": false,
      "stateMutability": "nonpayable",
      "type": "function"
    },
    {
      "constant": true,
      "inputs": [
        {
          "name": "seller",
          "type": "address"
        }
      ],
      "name": "getNumberOfStores",
      "outputs": [
        {
          "name": "",
          "type": "uint256"
        }
      ],
      "payable": false,
      "stateMutability": "view",
      "type": "function"
    },
    {
      "constant": true,
      "inputs": [
        {
          "name": "seller",
          "type": "address"
        },
        {
          "name": "storeIndex",
          "type": "uint256"
        }
      ],
      "name": "getStoreId",
      "outputs": [
        {
          "name": "",
          "type": "bytes32"
        }
      ],
      "payable": false,
      "stateMutability": "view",
      "type": "function"
    },
    {
      "constant": true,
      "inputs": [
        {
          "name": "seller",
          "type": "address"
        },
        {
          "name": "storeId",
          "type": "bytes32"
        }
      ],
      "name": "getStoreMetadata",
      "outputs": [
        {
          "name": "",
          "type": "string"
        },
        {
          "name": "",
          "type": "uint256"
        }
      ],
      "payable": false,
      "stateMutability": "view",
      "type": "function"
    },
    {
      "constant": false,
      "inputs": [
        {
          "name": "storeId",
          "type": "bytes32"
        },
        {
          "name": "sku",
          "type": "uint256"
        },
        {
          "name": "name",
          "type": "string"
        },
        {
          "name": "price",
          "type": "uint256"
        },
        {
          "name": "availableNumItems",
          "type": "uint256"
        }
      ],
      "name": "addItem",
      "outputs": [],
      "payable": false,
      "stateMutability": "nonpayable",
      "type": "function"
    },
    {
      "constant": false,
      "inputs": [
        {
          "name": "storeId",
          "type": "bytes32"
        },
        {
          "name": "sku",
          "type": "uint256"
        },
        {
          "name": "name",
          "type": "string"
        },
        {
          "name": "price",
          "type": "uint256"
        },
        {
          "name": "availableNumItems",
          "type": "uint256"
        }
      ],
      "name": "editItem",
      "outputs": [],
      "payable": false,
      "stateMutability": "nonpayable",
      "type": "function"
    },
    {
      "constant": true,
      "inputs": [
        {
          "name": "seller",
          "type": "address"
        },
        {
          "name": "storeId",
          "type": "bytes32"
        }
      ],
      "name": "getNumberOfItems",
      "outputs": [
        {
          "name": "",
          "type": "uint256"
        }
      ],
      "payable": false,
      "stateMutability": "view",
      "type": "function"
    },
    {
      "constant": true,
      "inputs": [
        {
          "name": "seller",
          "type": "address"
        },
        {
          "name": "storeId",
          "type": "bytes32"
        },
        {
          "name": "skuIndex",
          "type": "uint256"
        }
      ],
      "name": "getSku",
      "outputs": [
        {
          "name": "",
          "type": "uint256"
        }
      ],
      "payable": false,
      "stateMutability": "view",
      "type": "function"
    },
    {
      "constant": true,
      "inputs": [
        {
          "name": "seller",
          "type": "address"
        },
        {
          "name": "storeId",
          "type": "bytes32"
        },
        {
          "name": "sku",
          "type": "uint256"
        }
      ],
      "name": "getItemMetadata",
      "outputs": [
        {
          "name": "",
          "type": "string"
        },
        {
          "name": "",
          "type": "uint256"
        },
        {
          "name": "",
          "type": "uint256"
        }
      ],
      "payable": false,
      "stateMutability": "view",
      "type": "function"
    },
    {
      "constant": false,
      "inputs": [
        {
          "name": "storeId",
          "type": "bytes32"
        },
        {
          "name": "sku",
          "type": "uint256"
        }
      ],
      "name": "removeItem",
      "outputs": [],
      "payable": false,
      "stateMutability": "nonpayable",
      "type": "function"
    },
    {
      "constant": false,
      "inputs": [
        {
          "name": "seller",
          "type": "address"
        },
        {
          "name": "storeId",
          "type": "bytes32"
        },
        {
          "name": "sku",
          "type": "uint256"
        },
        {
          "name": "numPurchasedItems",
          "type": "uint256"
        }
      ],
      "name": "purchaseItem",
      "outputs": [],
      "payable": true,
      "stateMutability": "payable",
      "type": "function"
    },
    {
      "constant": false,
      "inputs": [],
      "name": "withdraw",
      "outputs": [],
      "payable": false,
      "stateMutability": "nonpayable",
      "type": "function"
    },
    {
      "constant": true,
      "inputs": [],
      "name": "getPendingFunds",
      "outputs": [
        {
          "name": "",
          "type": "uint256"
        }
      ],
      "payable": false,
      "stateMutability": "view",
      "type": "function"
    }
  ],
  "bytecode": "0x608060405260008060146101000a81548160ff021916908315150217905550336000806101000a81548173ffffffffffffffffffffffffffffffffffffffff021916908373ffffffffffffffffffffffffffffffffffffffff1602179055506000809054906101000a900473ffffffffffffffffffffffffffffffffffffffff1673ffffffffffffffffffffffffffffffffffffffff16600073ffffffffffffffffffffffffffffffffffffffff167f8be0079c531659141344cd1fd0a4f28419497f9722a3daafe3b4186f6b6457e060405160405180910390a3614474806100e96000396000f3fe60806040526004361061015f576000357c0100000000000000000000000000000000000000000000000000000000900463ffffffff1680631385d24c146101645780631785f53c1461017b5780631849e195146101cc57806324c1c0c9146102455780632ac81c77146102705780633ccfd60b1461035c5780633fbdf93714610373578063662feffc146103e257806370480275146104aa578063715018a6146104fb57806375f12b21146105125780637624ceef146105415780637cb9cf54146105b05780638da5cb5b146106015780638f32d59b14610658578063969416f714610687578063a06b78d014610762578063a0cbd1f6146107c7578063a1eb1bcd1461080c578063a675364d146108fc578063aea58dac14610977578063bb0e4b4d14610a67578063d93fabfa14610aac578063f2fde38b14610afd578063f4048e5514610b4e578063fa7cbc8214610b79578063fde0817414610bdb575b600080fd5b34801561017057600080fd5b50610179610c14565b005b34801561018757600080fd5b506101ca6004803603602081101561019e57600080fd5b81019080803573ffffffffffffffffffffffffffffffffffffffff169060200190929190505050610c53565b005b3480156101d857600080fd5b5061022f600480360360608110156101ef57600080fd5b81019080803573ffffffffffffffffffffffffffffffffffffffff1690602001909291908035906020019092919080359060200190929190505050610d6a565b6040518082815260200191505060405180910390f35b34801561025157600080fd5b5061025a610de3565b6040518082815260200191505060405180910390f35b34801561027c57600080fd5b506102d36004803603606081101561029357600080fd5b81019080803573ffffffffffffffffffffffffffffffffffffffff1690602001909291908035906020019092919080359060200190929190505050610f59565b6040518080602001848152602001838152602001828103825285818151815260200191508051906020019080838360005b8381101561031f578082015181840152602081019050610304565b50505050905090810190601f16801561034c5780820380516001836020036101000a031916815260200191505b5094505050505060405180910390f35b34801561036857600080fd5b50610371611083565b005b34801561037f57600080fd5b506103cc6004803603604081101561039657600080fd5b81019080803573ffffffffffffffffffffffffffffffffffffffff16906020019092919080359060200190929190505050611285565b6040518082815260200191505060405180910390f35b3480156103ee57600080fd5b506104a86004803603602081101561040557600080fd5b810190808035906020019064010000000081111561042257600080fd5b82018360208201111561043457600080fd5b8035906020019184600183028401116401000000008311171561045657600080fd5b91908080601f016020809104026020016040519081016040528093929190818152602001838380828437600081840152601f19601f8201169050808301925050505050505091929192905050506112ee565b005b3480156104b657600080fd5b506104f9600480360360208110156104cd57600080fd5b81019080803573ffffffffffffffffffffffffffffffffffffffff1690602001909291905050506118de565b005b34801561050757600080fd5b50610510611a10565b005b34801561051e57600080fd5b50610527611ae2565b604051808215151515815260200191505060405180910390f35b34801561054d57600080fd5b5061059a6004803603604081101561056457600080fd5b81019080803573ffffffffffffffffffffffffffffffffffffffff16906020019092919080359060200190929190505050611af5565b6040518082815260200191505060405180910390f35b3480156105bc57600080fd5b506105ff600480360360208110156105d357600080fd5b81019080803573ffffffffffffffffffffffffffffffffffffffff169060200190929190505050611b59565b005b34801561060d57600080fd5b5061061661206a565b604051808273ffffffffffffffffffffffffffffffffffffffff1673ffffffffffffffffffffffffffffffffffffffff16815260200191505060405180910390f35b34801561066457600080fd5b5061066d612093565b604051808215151515815260200191505060405180910390f35b34801561069357600080fd5b506106e0600480360360408110156106aa57600080fd5b81019080803573ffffffffffffffffffffffffffffffffffffffff169060200190929190803590602001909291905050506120ea565b6040518080602001838152602001828103825284818151815260200191508051906020019080838360005b8381101561072657808201518184015260208101905061070b565b50505050905090810190601f1680156107535780820380516001836020036101000a031916815260200191505b50935050505060405180910390f35b34801561076e57600080fd5b506107b16004803603602081101561078557600080fd5b81019080803573ffffffffffffffffffffffffffffffffffffffff1690602001909291905050506121f8565b6040518082815260200191505060405180910390f35b3480156107d357600080fd5b5061080a600480360360408110156107ea57600080fd5b81019080803590602001909291908035906020019092919050505061224c565b005b34801561081857600080fd5b506108fa600480360360a081101561082f57600080fd5b8101908080359060200190929190803590602001909291908035906020019064010000000081111561086057600080fd5b82018360208201111561087257600080fd5b8035906020019184600183028401116401000000008311171561089457600080fd5b91908080601f016020809104026020016040519081016040528093929190818152602001838380828437600081840152601f19601f8201169050808301925050505050505091929192908035906020019092919080359060200190929190505050612760565b005b34801561090857600080fd5b506109356004803603602081101561091f57600080fd5b8101908080359060200190929190505050612d3d565b604051808273ffffffffffffffffffffffffffffffffffffffff1673ffffffffffffffffffffffffffffffffffffffff16815260200191505060405180910390f35b34801561098357600080fd5b50610a65600480360360a081101561099a57600080fd5b810190808035906020019092919080359060200190929190803590602001906401000000008111156109cb57600080fd5b8201836020820111156109dd57600080fd5b803590602001918460018302840111640100000000831117156109ff57600080fd5b91908080601f016020809104026020016040519081016040528093929190818152602001838380828437600081840152601f19601f8201169050808301925050505050505091929192908035906020019092919080359060200190929190505050612e08565b005b348015610a7357600080fd5b50610aaa60048036036040811015610a8a57600080fd5b8101908080359060200190929190803590602001909291905050506133a0565b005b348015610ab857600080fd5b50610afb60048036036020811015610acf57600080fd5b81019080803573ffffffffffffffffffffffffffffffffffffffff16906020019092919050505061387d565b005b348015610b0957600080fd5b50610b4c60048036036020811015610b2057600080fd5b81019080803573ffffffffffffffffffffffffffffffffffffffff169060200190929190505050613bf4565b005b348015610b5a57600080fd5b50610b63613c13565b6040518082815260200191505060405180910390f35b610bd960048036036080811015610b8f57600080fd5b81019080803573ffffffffffffffffffffffffffffffffffffffff169060200190929190803590602001909291908035906020019092919080359060200190929190505050613c20565b005b348015610be757600080fd5b50610bf061409d565b60405180826002811115610c0057fe5b60ff16815260200191505060405180910390f35b610c1c612093565b1515610c2757600080fd5b600060149054906101000a900460ff1615600060146101000a81548160ff021916908315150217905550565b610c5b612093565b1515610c6657600080fd5b600160008273ffffffffffffffffffffffffffffffffffffffff1673ffffffffffffffffffffffffffffffffffffffff16815260200190815260200160002060006101000a81549060ff0219169055600260008273ffffffffffffffffffffffffffffffffffffffff1673ffffffffffffffffffffffffffffffffffffffff16815260200190815260200160002060006101000a81549060ff02191690557fa3b62bc36326052d97ea62d63c3d60308ed4c3ea8ac079dd8499f1e9c4f80c0f81604051808273ffffffffffffffffffffffffffffffffffffffff1673ffffffffffffffffffffffffffffffffffffffff16815260200191505060405180910390a150565b6000600360008573ffffffffffffffffffffffffffffffffffffffff1673ffffffffffffffffffffffffffffffffffffffff168152602001908152602001600020600001600084815260200190815260200160002060040182815481101515610dcf57fe5b906000526020600020015490509392505050565b6000600260003373ffffffffffffffffffffffffffffffffffffffff1673ffffffffffffffffffffffffffffffffffffffff16815260200190815260200160002060009054906101000a900460ff168015610ea0575060016002811115610e4657fe5b600160003373ffffffffffffffffffffffffffffffffffffffff1673ffffffffffffffffffffffffffffffffffffffff16815260200190815260200160002060009054906101000a900460ff166002811115610e9e57fe5b145b1515610f14576040517f08c379a000000000000000000000000000000000000000000000000000000000815260040180806020018281038252601e8152602001807f55736572206d7573742068617665207468652053454c4c455220726f6c65000081525060200191505060405180910390fd5b600560003373ffffffffffffffffffffffffffffffffffffffff1673ffffffffffffffffffffffffffffffffffffffff16815260200190815260200160002054905090565b60606000806000600360008873ffffffffffffffffffffffffffffffffffffffff1673ffffffffffffffffffffffffffffffffffffffff1681526020019081526020016000206000016000878152602001908152602001600020600301600086815260200190815260200160002090508060010181600201548260030154828054600181600116156101000203166002900480601f01602080910402602001604051908101604052809291908181526020018280546001816001161561010002031660029004801561106c5780601f106110415761010080835404028352916020019161106c565b820191906000526020600020905b81548152906001019060200180831161104f57829003601f168201915b505050505092509350935093505093509350939050565b600260003373ffffffffffffffffffffffffffffffffffffffff1673ffffffffffffffffffffffffffffffffffffffff16815260200190815260200160002060009054906101000a900460ff16801561113e5750600160028111156110e457fe5b600160003373ffffffffffffffffffffffffffffffffffffffff1673ffffffffffffffffffffffffffffffffffffffff16815260200190815260200160002060009054906101000a900460ff16600281111561113c57fe5b145b15156111b2576040517f08c379a000000000000000000000000000000000000000000000000000000000815260040180806020018281038252601e8152602001807f55736572206d7573742068617665207468652053454c4c455220726f6c65000081525060200191505060405180910390fd5b6000600560003373ffffffffffffffffffffffffffffffffffffffff1673ffffffffffffffffffffffffffffffffffffffff1681526020019081526020016000205490506000600560003373ffffffffffffffffffffffffffffffffffffffff1673ffffffffffffffffffffffffffffffffffffffff168152602001908152602001600020819055503373ffffffffffffffffffffffffffffffffffffffff166108fc829081150290604051600060405180830381858888f19350505050158015611281573d6000803e3d6000fd5b5050565b600080600360008573ffffffffffffffffffffffffffffffffffffffff1673ffffffffffffffffffffffffffffffffffffffff16815260200190815260200160002090508060000160008481526020019081526020016000206004018054905091505092915050565b600060149054906101000a900460ff1615156118db57600260003373ffffffffffffffffffffffffffffffffffffffff1673ffffffffffffffffffffffffffffffffffffffff16815260200190815260200160002060009054906101000a900460ff1680156113bf57506001600281111561136557fe5b600160003373ffffffffffffffffffffffffffffffffffffffff1673ffffffffffffffffffffffffffffffffffffffff16815260200190815260200160002060009054906101000a900460ff1660028111156113bd57fe5b145b1515611433576040517f08c379a000000000000000000000000000000000000000000000000000000000815260040180806020018281038252601e8152602001807f55736572206d7573742068617665207468652053454c4c455220726f6c65000081525060200191505060405180910390fd5b600081511115156114d2576040517f08c379a00000000000000000000000000000000000000000000000000000000081526004018080602001828103825260278152602001807f546865206e616d65206f66207468652073746f7265206d757374206e6f74206281526020017f6520656d7074790000000000000000000000000000000000000000000000000081525060400191505060405180910390fd5b60003382604051602001808373ffffffffffffffffffffffffffffffffffffffff1673ffffffffffffffffffffffffffffffffffffffff166c0100000000000000000000000002815260140182805190602001908083835b60208310151561154f578051825260208201915060208101905060208303925061152a565b6001836020036101000a038019825116818451168082178552505050505050905001925050506040516020818303038152906040528051906020012090506000600102600360003373ffffffffffffffffffffffffffffffffffffffff1673ffffffffffffffffffffffffffffffffffffffff168152602001908152602001600020600001600083815260200190815260200160002060000154141515611684576040517f08c379a00000000000000000000000000000000000000000000000000000000081526004018080602001828103825260368152602001807f5468652073656c6c6572206d757374206e6f7420686176652074776f2073746f81526020017f7265732077697468207468652073616d65206e616d650000000000000000000081525060400191505060405180910390fd5b6000600360003373ffffffffffffffffffffffffffffffffffffffff1673ffffffffffffffffffffffffffffffffffffffff16815260200190815260200160002090506080604051908101604052808381526020013373ffffffffffffffffffffffffffffffffffffffff168152602001848152602001600060405190808252806020026020018201604052801561172b5781602001602082028038833980820191505090505b508152508160000160008481526020019081526020016000206000820151816000015560208201518160010160006101000a81548173ffffffffffffffffffffffffffffffffffffffff021916908373ffffffffffffffffffffffffffffffffffffffff16021790555060408201518160020190805190602001906117b1929190614244565b5060608201518160040190805190602001906117ce9291906142c4565b50905050806001018290806001815401808255809150509060018203906000526020600020016000909192909190915055507fc790edb73a0172213f9c865455acd89732be6e893d2d82aeb7225e335ea7d9d1338484604051808473ffffffffffffffffffffffffffffffffffffffff1673ffffffffffffffffffffffffffffffffffffffff16815260200180602001838152602001828103825284818151815260200191508051906020019080838360005b8381101561189c578082015181840152602081019050611881565b50505050905090810190601f1680156118c95780820380516001836020036101000a031916815260200191505b5094505050505060405180910390a150505b50565b6118e6612093565b15156118f157600080fd5b6000600160008373ffffffffffffffffffffffffffffffffffffffff1673ffffffffffffffffffffffffffffffffffffffff16815260200190815260200160002060006101000a81548160ff0219169083600281111561194d57fe5b02179055506001600260008373ffffffffffffffffffffffffffffffffffffffff1673ffffffffffffffffffffffffffffffffffffffff16815260200190815260200160002060006101000a81548160ff0219169083151502179055507f44d6d25963f097ad14f29f06854a01f575648a1ef82f30e562ccd3889717e33981604051808273ffffffffffffffffffffffffffffffffffffffff1673ffffffffffffffffffffffffffffffffffffffff16815260200191505060405180910390a150565b611a18612093565b1515611a2357600080fd5b600073ffffffffffffffffffffffffffffffffffffffff166000809054906101000a900473ffffffffffffffffffffffffffffffffffffffff1673ffffffffffffffffffffffffffffffffffffffff167f8be0079c531659141344cd1fd0a4f28419497f9722a3daafe3b4186f6b6457e060405160405180910390a360008060006101000a81548173ffffffffffffffffffffffffffffffffffffffff021916908373ffffffffffffffffffffffffffffffffffffffff160217905550565b600060149054906101000a900460ff1681565b6000600360008473ffffffffffffffffffffffffffffffffffffffff1673ffffffffffffffffffffffffffffffffffffffff16815260200190815260200160002060010182815481101515611b4657fe5b9060005260206000200154905092915050565b600060149054906101000a900460ff16151561206757600260003373ffffffffffffffffffffffffffffffffffffffff1673ffffffffffffffffffffffffffffffffffffffff16815260200190815260200160002060009054906101000a900460ff168015611c2a575060006002811115611bd057fe5b600160003373ffffffffffffffffffffffffffffffffffffffff1673ffffffffffffffffffffffffffffffffffffffff16815260200190815260200160002060009054906101000a900460ff166002811115611c2857fe5b145b1515611c9e576040517f08c379a000000000000000000000000000000000000000000000000000000000815260040180806020018281038252601d8152602001807f55736572206d7573742068617665207468652041444d494e20726f6c6500000081525060200191505060405180910390fd5b600260008273ffffffffffffffffffffffffffffffffffffffff1673ffffffffffffffffffffffffffffffffffffffff16815260200190815260200160002060009054906101000a900460ff168015611d59575060016002811115611cff57fe5b600160008373ffffffffffffffffffffffffffffffffffffffff1673ffffffffffffffffffffffffffffffffffffffff16815260200190815260200160002060009054906101000a900460ff166002811115611d5757fe5b145b156120665760008090505b60048054905081108015611ddd57508173ffffffffffffffffffffffffffffffffffffffff16600482815481101515611d9957fe5b9060005260206000200160009054906101000a900473ffffffffffffffffffffffffffffffffffffffff1673ffffffffffffffffffffffffffffffffffffffff1614155b15611def578080600101915050611d64565b60048054905081101515611e91576040517f08c379a00000000000000000000000000000000000000000000000000000000081526004018080602001828103825260278152602001807f53656c6c6572206e6f7420666f756e6420696e20746865206c697374206f662081526020017f73656c6c6572730000000000000000000000000000000000000000000000000081525060400191505060405180910390fd5b600160008373ffffffffffffffffffffffffffffffffffffffff1673ffffffffffffffffffffffffffffffffffffffff16815260200190815260200160002060006101000a81549060ff0219169055600260008373ffffffffffffffffffffffffffffffffffffffff1673ffffffffffffffffffffffffffffffffffffffff16815260200190815260200160002060006101000a81549060ff02191690556001600480549050118015611f4c57506001600480549050038114155b15611feb576004600160048054905003815481101515611f6857fe5b9060005260206000200160009054906101000a900473ffffffffffffffffffffffffffffffffffffffff16600482815481101515611fa257fe5b9060005260206000200160006101000a81548173ffffffffffffffffffffffffffffffffffffffff021916908373ffffffffffffffffffffffffffffffffffffffff1602179055505b60048054809190600190036120009190614311565b507fa6f3b3030df964d974376ba4db21cbe49207bd79998f0d619c1c3a422259707f82604051808273ffffffffffffffffffffffffffffffffffffffff1673ffffffffffffffffffffffffffffffffffffffff16815260200191505060405180910390a1505b5b50565b60008060009054906101000a900473ffffffffffffffffffffffffffffffffffffffff16905090565b60008060009054906101000a900473ffffffffffffffffffffffffffffffffffffffff1673ffffffffffffffffffffffffffffffffffffffff163373ffffffffffffffffffffffffffffffffffffffff1614905090565b6060600080600360008673ffffffffffffffffffffffffffffffffffffffff1673ffffffffffffffffffffffffffffffffffffffff16815260200190815260200160002060000160008581526020019081526020016000209050806002018160040180549050818054600181600116156101000203166002900480601f0160208091040260200160405190810160405280929190818152602001828054600181600116156101000203166002900480156121e55780601f106121ba576101008083540402835291602001916121e5565b820191906000526020600020905b8154815290600101906020018083116121c857829003601f168201915b5050505050915092509250509250929050565b600080600360008473ffffffffffffffffffffffffffffffffffffffff1673ffffffffffffffffffffffffffffffffffffffff16815260200190815260200160002090508060010180549050915050919050565b600060149054906101000a900460ff16151561275c57600260003373ffffffffffffffffffffffffffffffffffffffff1673ffffffffffffffffffffffffffffffffffffffff16815260200190815260200160002060009054906101000a900460ff16801561231d5750600160028111156122c357fe5b600160003373ffffffffffffffffffffffffffffffffffffffff1673ffffffffffffffffffffffffffffffffffffffff16815260200190815260200160002060009054906101000a900460ff16600281111561231b57fe5b145b1515612391576040517f08c379a000000000000000000000000000000000000000000000000000000000815260040180806020018281038252601e8152602001807f55736572206d7573742068617665207468652053454c4c455220726f6c65000081525060200191505060405180910390fd5b81816000600102600360003373ffffffffffffffffffffffffffffffffffffffff1673ffffffffffffffffffffffffffffffffffffffff1681526020019081526020016000206000016000848152602001908152602001600020600001541415801561246857506000600360003373ffffffffffffffffffffffffffffffffffffffff1673ffffffffffffffffffffffffffffffffffffffff168152602001908152602001600020600001600084815260200190815260200160002060030160008381526020019081526020016000206000015414155b1515612502576040517f08c379a00000000000000000000000000000000000000000000000000000000081526004018080602001828103825260368152602001807f55736572206d75737420626520746865206f776e6572206f662073746f72652081526020017f776865726520746865206974656d20697320736f6c640000000000000000000081525060400191505060405180910390fd5b6000600360003373ffffffffffffffffffffffffffffffffffffffff1673ffffffffffffffffffffffffffffffffffffffff1681526020019081526020016000206000016000868152602001908152602001600020905060008090505b816004018054905081108015612590575084826004018281548110151561258257fe5b906000526020600020015414155b156125a257808060010191505061255f565b816004018054905081101515612620576040517f08c379a000000000000000000000000000000000000000000000000000000000815260040180806020018281038252601a8152602001807f534b55206e6f7420666f756e6420696e206974656d206c69737400000000000081525060200191505060405180910390fd5b81600301600086815260200190815260200160002060008082016000905560018201600061264e919061433d565b60028201600090556003820160009055505060018260040180549050118015612681575060018260040180549050038114155b156126cc578160040160018360040180549050038154811015156126a157fe5b906000526020600020015482600401828154811015156126bd57fe5b90600052602060002001819055505b816004018054809190600190036126e39190614385565b507fd1229990c7f2eb9f62e90ccbcb0a6619b996100e5785d6956e3082cee433591c338787604051808473ffffffffffffffffffffffffffffffffffffffff1673ffffffffffffffffffffffffffffffffffffffff168152602001838152602001828152602001935050505060405180910390a1505050505b5050565b600060149054906101000a900460ff161515612d3657600260003373ffffffffffffffffffffffffffffffffffffffff1673ffffffffffffffffffffffffffffffffffffffff16815260200190815260200160002060009054906101000a900460ff1680156128315750600160028111156127d757fe5b600160003373ffffffffffffffffffffffffffffffffffffffff1673ffffffffffffffffffffffffffffffffffffffff16815260200190815260200160002060009054906101000a900460ff16600281111561282f57fe5b145b15156128a5576040517f08c379a000000000000000000000000000000000000000000000000000000000815260040180806020018281038252601e8152602001807f55736572206d7573742068617665207468652053454c4c455220726f6c65000081525060200191505060405180910390fd5b846000600102600360003373ffffffffffffffffffffffffffffffffffffffff1673ffffffffffffffffffffffffffffffffffffffff1681526020019081526020016000206000016000838152602001908152602001600020600001541415151561299e576040517f08c379a00000000000000000000000000000000000000000000000000000000081526004018080602001828103825260238152602001807f55736572206d75737420626520746865206f776e6572206f662074686520737481526020017f6f7265000000000000000000000000000000000000000000000000000000000081525060400191505060405180910390fd5b6000600360003373ffffffffffffffffffffffffffffffffffffffff1673ffffffffffffffffffffffffffffffffffffffff16815260200190815260200160002060000160008881526020019081526020016000209050600081600301600088815260200190815260200160002060000154141515612a85576040517f08c379a000000000000000000000000000000000000000000000000000000000815260040180806020018281038252601e8152602001807f534b55206d75737420626520756e6971756520666f7220612073746f7265000081525060200191505060405180910390fd5b600084111515612afd576040517f08c379a000000000000000000000000000000000000000000000000000000000815260040180806020018281038252601f8152602001807f5072696365206d757374206265206120706f736974697665206e756d6265720081525060200191505060405180910390fd5b60008310151515612b9c576040517f08c379a00000000000000000000000000000000000000000000000000000000081526004018080602001828103825260318152602001807f417661696c61626c65206974656d73206d757374206265206120706f7369746981526020017f7665206e756d626572206f72207a65726f00000000000000000000000000000081525060400191505060405180910390fd5b60806040519081016040528087815260200186815260200185815260200184815250816003016000888152602001908152602001600020600082015181600001556020820151816001019080519060200190612bf9929190614244565b506040820151816002015560608201518160030155905050806004018690806001815401808255809150509060018203906000526020600020016000909192909190915055507f6bd5d0af08c8ffa4a3d7dd1b59614faa2d9476b13e8ed73adc994061d416e19b33826000015488888888604051808773ffffffffffffffffffffffffffffffffffffffff1673ffffffffffffffffffffffffffffffffffffffff16815260200186815260200185815260200180602001848152602001838152602001828103825285818151815260200191508051906020019080838360005b83811015612cf4578082015181840152602081019050612cd9565b50505050905090810190601f168015612d215780820380516001836020036101000a031916815260200191505b5097505050505050505060405180910390a150505b5050505050565b6000808210158015612d53575060048054905082105b1515612dc7576040517f08c379a00000000000000000000000000000000000000000000000000000000081526004018080602001828103825260128152602001807f4f7574206f6620626f756e6420696e646578000000000000000000000000000081525060200191505060405180910390fd5b600482815481101515612dd657fe5b9060005260206000200160009054906101000a900473ffffffffffffffffffffffffffffffffffffffff169050919050565b600060149054906101000a900460ff16151561339957600260003373ffffffffffffffffffffffffffffffffffffffff1673ffffffffffffffffffffffffffffffffffffffff16815260200190815260200160002060009054906101000a900460ff168015612ed9575060016002811115612e7f57fe5b600160003373ffffffffffffffffffffffffffffffffffffffff1673ffffffffffffffffffffffffffffffffffffffff16815260200190815260200160002060009054906101000a900460ff166002811115612ed757fe5b145b1515612f4d576040517f08c379a000000000000000000000000000000000000000000000000000000000815260040180806020018281038252601e8152602001807f55736572206d7573742068617665207468652053454c4c455220726f6c65000081525060200191505060405180910390fd5b84846000600102600360003373ffffffffffffffffffffffffffffffffffffffff1673ffffffffffffffffffffffffffffffffffffffff1681526020019081526020016000206000016000848152602001908152602001600020600001541415801561302457506000600360003373ffffffffffffffffffffffffffffffffffffffff1673ffffffffffffffffffffffffffffffffffffffff168152602001908152602001600020600001600084815260200190815260200160002060030160008381526020019081526020016000206000015414155b15156130be576040517f08c379a00000000000000000000000000000000000000000000000000000000081526004018080602001828103825260368152602001807f55736572206d75737420626520746865206f776e6572206f662073746f72652081526020017f776865726520746865206974656d20697320736f6c640000000000000000000081525060400191505060405180910390fd5b6000600360003373ffffffffffffffffffffffffffffffffffffffff1673ffffffffffffffffffffffffffffffffffffffff1681526020019081526020016000206000016000898152602001908152602001600020905060008511151561318d576040517f08c379a000000000000000000000000000000000000000000000000000000000815260040180806020018281038252601f8152602001807f5072696365206d757374206265206120706f736974697665206e756d6265720081525060200191505060405180910390fd5b6000841015151561322c576040517f08c379a00000000000000000000000000000000000000000000000000000000081526004018080602001828103825260318152602001807f417661696c61626c65206974656d73206d757374206265206120706f7369746981526020017f7665206e756d626572206f72207a65726f00000000000000000000000000000081525060400191505060405180910390fd5b60806040519081016040528088815260200187815260200186815260200185815250816003016000898152602001908152602001600020600082015181600001556020820151816001019080519060200190613289929190614244565b5060408201518160020155606082015181600301559050507f623980be88682bdeff2038745fc7d32c828fc0497679180b294feb91a04481f533826000015489898989604051808773ffffffffffffffffffffffffffffffffffffffff1673ffffffffffffffffffffffffffffffffffffffff16815260200186815260200185815260200180602001848152602001838152602001828103825285818151815260200191508051906020019080838360005b8381101561335657808201518184015260208101905061333b565b50505050905090810190601f1680156133835780820380516001836020036101000a031916815260200191505b5097505050505050505060405180910390a15050505b5050505050565b600060149054906101000a900460ff16151561387957600260003373ffffffffffffffffffffffffffffffffffffffff1673ffffffffffffffffffffffffffffffffffffffff16815260200190815260200160002060009054906101000a900460ff16801561347157506001600281111561341757fe5b600160003373ffffffffffffffffffffffffffffffffffffffff1673ffffffffffffffffffffffffffffffffffffffff16815260200190815260200160002060009054906101000a900460ff16600281111561346f57fe5b145b15156134e5576040517f08c379a000000000000000000000000000000000000000000000000000000000815260040180806020018281038252601e8152602001807f55736572206d7573742068617665207468652053454c4c455220726f6c65000081525060200191505060405180910390fd5b816000600102600360003373ffffffffffffffffffffffffffffffffffffffff1673ffffffffffffffffffffffffffffffffffffffff168152602001908152602001600020600001600083815260200190815260200160002060000154141515156135de576040517f08c379a00000000000000000000000000000000000000000000000000000000081526004018080602001828103825260238152602001807f55736572206d75737420626520746865206f776e6572206f662074686520737481526020017f6f7265000000000000000000000000000000000000000000000000000000000081525060400191505060405180910390fd5b6000600360003373ffffffffffffffffffffffffffffffffffffffff1673ffffffffffffffffffffffffffffffffffffffff16815260200190815260200160002090506000600360003373ffffffffffffffffffffffffffffffffffffffff1673ffffffffffffffffffffffffffffffffffffffff1681526020019081526020016000206000016000868152602001908152602001600020905060008090505b81600401805490508110156136f55781600301600083600401838154811015156136a457fe5b906000526020600020015481526020019081526020016000206000808201600090556001820160006136d6919061433d565b600282016000905560038201600090555050808060010191505061367e565b508160000160008681526020019081526020016000206000808201600090556001820160006101000a81549073ffffffffffffffffffffffffffffffffffffffff021916905560028201600061374b919061433d565b60048201600061375b91906143b1565b50506001826001018054905011801561377e575060018260010180549050038414155b156137c95781600101600183600101805490500381548110151561379e57fe5b906000526020600020015482600101858154811015156137ba57fe5b90600052602060002001819055505b8160010160018360010180549050038154811015156137e457fe5b90600052602060002001600090558160010180548091906001900361380991906143d2565b507fa65aaa89a6b8d45604b92a24fb97c91fc3d1504a9a40d61e4121e83dfd2de4c33386604051808373ffffffffffffffffffffffffffffffffffffffff1673ffffffffffffffffffffffffffffffffffffffff1681526020018281526020019250505060405180910390a15050505b5050565b600260003373ffffffffffffffffffffffffffffffffffffffff1673ffffffffffffffffffffffffffffffffffffffff16815260200190815260200160002060009054906101000a900460ff1680156139385750600060028111156138de57fe5b600160003373ffffffffffffffffffffffffffffffffffffffff1673ffffffffffffffffffffffffffffffffffffffff16815260200190815260200160002060009054906101000a900460ff16600281111561393657fe5b145b15156139ac576040517f08c379a000000000000000000000000000000000000000000000000000000000815260040180806020018281038252601d8152602001807f55736572206d7573742068617665207468652041444d494e20726f6c6500000081525060200191505060405180910390fd5b80600260008273ffffffffffffffffffffffffffffffffffffffff1673ffffffffffffffffffffffffffffffffffffffff16815260200190815260200160002060009054906101000a900460ff16151515613a6f576040517f08c379a00000000000000000000000000000000000000000000000000000000081526004018080602001828103825260148152602001807f55736572206d757374206265206120627579657200000000000000000000000081525060200191505060405180910390fd5b60018060008473ffffffffffffffffffffffffffffffffffffffff1673ffffffffffffffffffffffffffffffffffffffff16815260200190815260200160002060006101000a81548160ff02191690836002811115613aca57fe5b02179055506001600260008473ffffffffffffffffffffffffffffffffffffffff1673ffffffffffffffffffffffffffffffffffffffff16815260200190815260200160002060006101000a81548160ff02191690831515021790555060048290806001815401808255809150509060018203906000526020600020016000909192909190916101000a81548173ffffffffffffffffffffffffffffffffffffffff021916908373ffffffffffffffffffffffffffffffffffffffff160217905550507f3d78526f2568d430fd8e20719601f7bc3f979936f8880236cc284e8127251b4282604051808273ffffffffffffffffffffffffffffffffffffffff1673ffffffffffffffffffffffffffffffffffffffff16815260200191505060405180910390a15050565b613bfc612093565b1515613c0757600080fd5b613c108161414a565b50565b6000600480549050905090565b600060149054906101000a900460ff1615156140975733600260008273ffffffffffffffffffffffffffffffffffffffff1673ffffffffffffffffffffffffffffffffffffffff16815260200190815260200160002060009054906101000a900460ff16151515613cf9576040517f08c379a00000000000000000000000000000000000000000000000000000000081526004018080602001828103825260148152602001807f55736572206d757374206265206120627579657200000000000000000000000081525060200191505060405180910390fd5b6000600360008773ffffffffffffffffffffffffffffffffffffffff1673ffffffffffffffffffffffffffffffffffffffff168152602001908152602001600020600001600086815260200190815260200160002090506000600102816000015414151515613dd0576040517f08c379a00000000000000000000000000000000000000000000000000000000081526004018080602001828103825260108152602001807f53746f7265206d7573742065786973740000000000000000000000000000000081525060200191505060405180910390fd5b60008160030160008681526020019081526020016000206000015414151515613e61576040517f08c379a00000000000000000000000000000000000000000000000000000000081526004018080602001828103825260198152602001807f4974656d206d75737420626520696e207468652073746f72650000000000000081525060200191505060405180910390fd5b60008160030160008681526020019081526020016000209050600084118015613e8e575083816003015410155b1515613f28576040517f08c379a00000000000000000000000000000000000000000000000000000000081526004018080602001828103825260238152602001807f496e76616c6964206e756d626572206f66206974656d7320746f20707572636881526020017f617365000000000000000000000000000000000000000000000000000000000081525060400191505060405180910390fd5b8381600201540234141515613fa5576040517f08c379a000000000000000000000000000000000000000000000000000000000815260040180806020018281038252601c8152602001807f496e76616c69642076616c756520696e20746865206d6573736167650000000081525060200191505060405180910390fd5b83816003016000828254039250508190555034600560008973ffffffffffffffffffffffffffffffffffffffff1673ffffffffffffffffffffffffffffffffffffffff168152602001908152602001600020600082825401925050819055507f6794d48cec3e6f99b7331995ce4996b48c0f1469f3792c5337088d02b53d16aa8783600001548360000154878560030154604051808673ffffffffffffffffffffffffffffffffffffffff1673ffffffffffffffffffffffffffffffffffffffff1681526020018581526020018481526020018381526020018281526020019550505050505060405180910390a15050505b50505050565b6000600260003373ffffffffffffffffffffffffffffffffffffffff1673ffffffffffffffffffffffffffffffffffffffff16815260200190815260200160002060009054906101000a900460ff166140f7576002614145565b600160003373ffffffffffffffffffffffffffffffffffffffff1673ffffffffffffffffffffffffffffffffffffffff16815260200190815260200160002060009054906101000a900460ff165b905090565b600073ffffffffffffffffffffffffffffffffffffffff168173ffffffffffffffffffffffffffffffffffffffff161415151561418657600080fd5b8073ffffffffffffffffffffffffffffffffffffffff166000809054906101000a900473ffffffffffffffffffffffffffffffffffffffff1673ffffffffffffffffffffffffffffffffffffffff167f8be0079c531659141344cd1fd0a4f28419497f9722a3daafe3b4186f6b6457e060405160405180910390a3806000806101000a81548173ffffffffffffffffffffffffffffffffffffffff021916908373ffffffffffffffffffffffffffffffffffffffff16021790555050565b828054600181600116156101000203166002900490600052602060002090601f016020900481019282601f1061428557805160ff19168380011785556142b3565b828001600101855582156142b3579182015b828111156142b2578251825591602001919060010190614297565b5b5090506142c091906143fe565b5090565b828054828255906000526020600020908101928215614300579160200282015b828111156142ff5782518255916020019190600101906142e4565b5b50905061430d91906143fe565b5090565b8154818355818111156143385781836000526020600020918201910161433791906143fe565b5b505050565b50805460018160011615610100020316600290046000825580601f106143635750614382565b601f01602090049060005260206000209081019061438191906143fe565b5b50565b8154818355818111156143ac578183600052602060002091820191016143ab91906143fe565b5b505050565b50805460008255906000526020600020908101906143cf91906143fe565b50565b8154818355818111156143f9578183600052602060002091820191016143f89190614423565b5b505050565b61442091905b8082111561441c576000816000905550600101614404565b5090565b90565b61444591905b80821115614441576000816000905550600101614429565b5090565b9056fea165627a7a72305820b7fc9a0deb4fa1ec744bd12153564f9939e7bca7fb87f6810ab70dafc7088bcc0029",
  "source": "pragma solidity ^0.5.0;\n\nimport 'openzeppelin-solidity/contracts/ownership/Ownable.sol';\n\ncontract Marketplace is Ownable {\n\n    enum Roles { ADMIN, SELLER, BUYER }\n\n    /* Circuit breaker */\n    bool public stopped = false;\n\n    /* To know the role of a specific user */\n    mapping(address => Roles) roles;\n    mapping(address => bool) privilegedUsers;\n\n    /* Stores owned by sellers */\n    mapping(address => Empire) empires;\n    address[] sellers;\n\n    /* Payments */\n    mapping (address => uint) pendingFunds;\n\n    /* Structs */\n    struct Empire {\n        mapping(bytes32 => Store) stores;\n        bytes32[] storesIds;\n    }\n\n    struct Store {\n        bytes32 storeId;\n        address seller;\n        string name;\n        mapping(uint => Item) items;\n        uint[] skus;\n    }\n\n    struct Item {\n        uint sku;\n        string name;\n        uint price;\n        uint availableNumItems;\n    }\n\n    /* Events */\n    event SellerAdded(address newSeller);\n    event SellerRemoved(address oldSeller);\n    event AdminAdded(address newAdmin);\n    event AdminRemoved(address oldAdmin);\n\n    event StoreCreated(address seller, string name, bytes32 storeId);\n    event StoreRemoved(address seller, bytes32 storeId);\n    event ItemCreated(address seller, bytes32 storeId, uint sku, string name, uint price, uint availableNumItems);\n    event ItemRemoved(address seller, bytes32 storeId, uint sku);\n    event ItemEdited(address seller, bytes32 storeId, uint sku, string name, uint price, uint availableNumItems);\n    event ItemPurchased(address seller, bytes32 storeId, uint sku, uint numPurchasedItems, uint newAvailableNumItems);\n\n    /* Roles modifiers */\n    modifier isAdmin () { require (privilegedUsers[msg.sender] && roles[msg.sender] == Roles.ADMIN, 'User must have the ADMIN role'); _;}\n    modifier isSeller () { require (privilegedUsers[msg.sender] && roles[msg.sender] == Roles.SELLER, 'User must have the SELLER role'); _;}\n    modifier isBuyer (address _address) { require (!privilegedUsers[_address], 'User must be a buyer'); _;}\n\n    /* Ownership modifiers */\n    modifier isSellerOwner (bytes32 storeId) { require(empires[msg.sender].stores[storeId].storeId != 0, 'User must be the owner of the store'); _; }\n    modifier isItemSeller (bytes32 storeId, uint sku) {\n        require (\n            empires[msg.sender].stores[storeId].storeId != 0\n            && empires[msg.sender].stores[storeId].items[sku].sku != 0, 'User must be the owner of store where the item is sold');\n        _;\n    }\n\n    /* Circuit breaker */\n    modifier stopInEmergency { if (!stopped) _; }\n    function toggleContractActive() public onlyOwner {\n        stopped = !stopped;\n    }\n\n    /* Managing permissions */\n\n    function getRole() public view returns(Roles) {\n        return privilegedUsers[msg.sender] ? roles[msg.sender] : Roles.BUYER;\n    }\n\n    function addAdmin(address newAdmin) public onlyOwner {\n        roles[newAdmin] = Roles.ADMIN;\n        privilegedUsers[newAdmin] = true;\n        emit AdminAdded(newAdmin);\n    }\n\n    function removeAdmin(address oldAdmin) public onlyOwner {\n        delete roles[oldAdmin];\n        delete privilegedUsers[oldAdmin];\n        emit AdminRemoved(oldAdmin);\n    }\n\n    function addSeller(address newSeller) public isAdmin isBuyer(newSeller) {\n        roles[newSeller] = Roles.SELLER;\n        privilegedUsers[newSeller] = true;\n        sellers.push(newSeller);\n        emit SellerAdded(newSeller);\n    }\n\n    function removeSeller(address oldSeller) public stopInEmergency isAdmin {\n        // Soft control, we don't require the existance of the seller...\n        if (privilegedUsers[oldSeller] && roles[oldSeller] == Roles.SELLER) {\n            uint sellerIndex = 0;\n\n            while(sellerIndex < sellers.length && sellers[sellerIndex] != oldSeller) {\n                sellerIndex++;\n            }\n\n            require(sellerIndex < sellers.length, 'Seller not found in the list of sellers');\n\n            // Delete from the maps\n            delete roles[oldSeller];\n            delete privilegedUsers[oldSeller];\n\n            // Delete from array\n            // Removing and compacting an item in an array: https://github.com/su-squares/ethereum-contract/blob/master/contracts/SuNFT.sol#L296\n            if (sellers.length > 1 && sellerIndex != sellers.length - 1)        {\n                sellers[sellerIndex] = sellers[sellers.length - 1];\n            }\n            sellers.length--;\n\n            emit SellerRemoved(oldSeller);\n        }\n    }\n\n    function getNumberOfSellers() public view returns(uint) {\n        return sellers.length;\n    }\n\n    function getSellerAddress(uint sellerIndex) public view returns(address) {\n        require(sellerIndex >= 0 && sellerIndex < sellers.length, 'Out of bound index');\n        return sellers[sellerIndex];\n    }\n\n    /* Managing stores */\n\n    function addStore(string memory name) public stopInEmergency isSeller  {\n        require(bytes(name).length > 0, 'The name of the store must not be empty');\n\n        bytes32 storeId = keccak256(abi.encodePacked(msg.sender, name));\n        require(empires[msg.sender].stores[storeId].storeId == 0, 'The seller must not have two stores with the same name');\n\n        Empire storage empire = empires[msg.sender];\n        empire.stores[storeId] = Store({ storeId: storeId, seller: msg.sender, name: name, skus: new uint[](0) });\n        empire.storesIds.push(storeId);\n\n        emit StoreCreated(msg.sender, name, storeId);\n    }\n\n    function removeStore(bytes32 storeId, uint storeIndex) public stopInEmergency isSeller isSellerOwner(storeId) {\n        // TODO - Taking into account this: https://solidity.readthedocs.io/en/develop/types.html#delete\n        Empire storage empire = empires[msg.sender];\n        Store storage store = empires[msg.sender].stores[storeId];\n\n        // Removing items associated with the store\n        for(uint skuIndex = 0; skuIndex < store.skus.length; skuIndex++) {\n            delete store.items[store.skus[skuIndex]];\n        }\n\n        // Removing the store\n        delete empire.stores[storeId];\n\n        // Removing and compacting an item in an array: https://github.com/su-squares/ethereum-contract/blob/master/contracts/SuNFT.sol#L296\n        if (empire.storesIds.length > 1 && storeIndex != empire.storesIds.length - 1)        {\n            empire.storesIds[storeIndex] = empire.storesIds[empire.storesIds.length - 1];\n        }\n        delete empire.storesIds[empire.storesIds.length - 1];\n        empire.storesIds.length--;\n\n        emit StoreRemoved(msg.sender, storeId);\n    }\n\n    function getNumberOfStores(address seller) public view returns(uint) {\n        Empire storage empire = empires[seller];\n        return empire.storesIds.length;\n    }\n\n    function getStoreId(address seller, uint storeIndex) public view returns(bytes32) {\n        return empires[seller].storesIds[storeIndex];\n    }\n\n    /*\n     * returns the name of the store and the number of items in it\n     */\n    function getStoreMetadata(address seller, bytes32 storeId) public view returns(string memory, uint) {\n        Store storage store = empires[seller].stores[storeId];\n        return (store.name, store.skus.length);\n    }\n\n    /* Managing items */\n\n    function addItem(bytes32 storeId, uint sku, string memory name, uint price, uint availableNumItems)\n        public\n        stopInEmergency\n        isSeller\n        isSellerOwner(storeId) {\n        Store storage store = empires[msg.sender].stores[storeId];\n\n        // Checking that there aren't any item with the same sku in the store\n        require(store.items[sku].sku == 0, 'SKU must be unique for a store');\n\n        // TODO Check integer overflows (more in the buy operation)\n        require(price > 0, 'Price must be a positive number');\n        require(availableNumItems >= 0, 'Available items must be a positive number or zero');\n\n        store.items[sku] = Item({ sku: sku, name: name, price: price, availableNumItems: availableNumItems });\n        store.skus.push(sku);\n\n        emit ItemCreated(msg.sender, store.storeId, sku, name, price, availableNumItems);\n    }\n\n    function editItem(bytes32 storeId, uint sku, string memory name, uint price, uint availableNumItems)\n        public\n        stopInEmergency\n        isSeller\n        isItemSeller(storeId, sku) {\n        Store storage store = empires[msg.sender].stores[storeId];\n\n        // TODO Check integer overflows (more in the buy operation)\n        require(price > 0, 'Price must be a positive number');\n        require(availableNumItems >= 0, 'Available items must be a positive number or zero');\n\n        store.items[sku] = Item({ sku: sku, name: name, price: price, availableNumItems: availableNumItems });\n\n        emit ItemEdited(msg.sender, store.storeId, sku, name, price, availableNumItems);\n    }\n\n    function getNumberOfItems(address seller, bytes32 storeId) public view returns(uint) {\n        Empire storage empire = empires[seller];\n        return empire.stores[storeId].skus.length;\n    }\n\n    function getSku(address seller, bytes32 storeId, uint skuIndex) public view returns(uint) {\n        return empires[seller].stores[storeId].skus[skuIndex];\n    }\n\n    function getItemMetadata(address seller, bytes32 storeId, uint sku)\n        public\n        view\n        returns(string memory, uint, uint) {\n        Item storage item = empires[seller].stores[storeId].items[sku];\n        return (item.name, item.price, item.availableNumItems);\n    }\n\n    function removeItem(bytes32 storeId, uint sku)\n        public\n        stopInEmergency\n        isSeller\n        isItemSeller(storeId, sku) {\n\n        Store storage store = empires[msg.sender].stores[storeId];\n        uint skuIndex = 0;\n\n        while(skuIndex < store.skus.length && store.skus[skuIndex] != sku) {\n            skuIndex++;\n        }\n\n        require(skuIndex < store.skus.length, 'SKU not found in item list');\n\n        // Delete from map\n        delete store.items[sku];\n\n        // Delete from array\n        // Removing and compacting an item in an array: https://github.com/su-squares/ethereum-contract/blob/master/contracts/SuNFT.sol#L296\n        if (store.skus.length > 1 && skuIndex != store.skus.length - 1)        {\n            store.skus[skuIndex] = store.skus[store.skus.length - 1];\n        }\n\n        // delete store.skus[store.skus.length - 1];\n        store.skus.length--;\n\n        emit ItemRemoved(msg.sender, storeId, sku);\n    }\n\n    function purchaseItem(address seller, bytes32 storeId, uint sku, uint numPurchasedItems)\n        public\n        payable\n        stopInEmergency\n        isBuyer(msg.sender) {\n        Store storage store = empires[seller].stores[storeId];\n\n        // The item must exist\n        require (store.storeId != 0, 'Store must exist');\n        require (store.items[sku].sku != 0, 'Item must be in the store');\n\n        Item storage item = store.items[sku];\n        // There must be enough number of items, and at least 1\n        require (numPurchasedItems > 0 && item.availableNumItems >= numPurchasedItems, 'Invalid number of items to purchase');\n\n        // Sent value must be, exactly, equals to the price * numPurchasedItems\n        require (msg.value == item.price * numPurchasedItems, 'Invalid value in the message');\n\n        // Updating the storage\n        item.availableNumItems -= numPurchasedItems;\n        pendingFunds[seller] += msg.value;\n\n        emit ItemPurchased(seller, store.storeId, item.sku, numPurchasedItems, item.availableNumItems);\n    }\n\n    function withdraw() public isSeller {\n        uint amount = pendingFunds[msg.sender];\n        pendingFunds[msg.sender] = 0;\n        msg.sender.transfer(amount);\n    }\n\n    function getPendingFunds() public view isSeller returns(uint) {\n        return pendingFunds[msg.sender];\n    }\n}\n",
  "sourcePath": "/home/jlanchas/repositorios/github/chechu/consensys-academy-final-project/contracts/Marketplace.sol",
  "compiler": {
    "name": "solc",
    "version": "0.5.0+commit.1d4f565a.Emscripten.clang"
  },
  "schemaVersion": "3.0.0",
  "updatedAt": "2019-01-24T03:39:07.383Z",
  "devdoc": {
    "methods": {
      "isOwner()": {
        "return": "true if `msg.sender` is the owner of the contract."
      },
      "owner()": {
        "return": "the address of the owner."
      },
      "renounceOwnership()": {
        "details": "Allows the current owner to relinquish control of the contract."
      },
      "transferOwnership(address)": {
        "details": "Allows the current owner to transfer control of the contract to a newOwner.",
        "params": {
          "newOwner": "The address to transfer ownership to."
        }
      }
    }
  },
  "userdoc": {
    "methods": {
      "renounceOwnership()": {
        "notice": "Renouncing to ownership will leave the contract without an owner. It will not be possible to call the functions with the `onlyOwner` modifier anymore."
      }
    }
  }
}