{
  "contractName": "Marketplace",
  "abi": [
    {
      "constant": false,
      "inputs": [],
      "name": "renounceOwnership",
      "outputs": [],
      "payable": false,
      "stateMutability": "nonpayable",
      "type": "function",
      "signature": "0x715018a6"
    },
    {
      "constant": true,
      "inputs": [],
      "name": "stopped",
      "outputs": [
        {
          "name": "",
          "type": "bool"
        }
      ],
      "payable": false,
      "stateMutability": "view",
      "type": "function",
      "signature": "0x75f12b21"
    },
    {
      "constant": true,
      "inputs": [],
      "name": "owner",
      "outputs": [
        {
          "name": "",
          "type": "address"
        }
      ],
      "payable": false,
      "stateMutability": "view",
      "type": "function",
      "signature": "0x8da5cb5b"
    },
    {
      "constant": true,
      "inputs": [],
      "name": "isOwner",
      "outputs": [
        {
          "name": "",
          "type": "bool"
        }
      ],
      "payable": false,
      "stateMutability": "view",
      "type": "function",
      "signature": "0x8f32d59b"
    },
    {
      "constant": true,
      "inputs": [],
      "name": "MAX_ITEMS_PER_STORE",
      "outputs": [
        {
          "name": "",
          "type": "uint8"
        }
      ],
      "payable": false,
      "stateMutability": "view",
      "type": "function",
      "signature": "0xbfae98ad"
    },
    {
      "constant": false,
      "inputs": [
        {
          "name": "newOwner",
          "type": "address"
        }
      ],
      "name": "transferOwnership",
      "outputs": [],
      "payable": false,
      "stateMutability": "nonpayable",
      "type": "function",
      "signature": "0xf2fde38b"
    },
    {
      "anonymous": false,
      "inputs": [
        {
          "indexed": false,
          "name": "newSeller",
          "type": "address"
        }
      ],
      "name": "SellerAdded",
      "type": "event",
      "signature": "0x3d78526f2568d430fd8e20719601f7bc3f979936f8880236cc284e8127251b42"
    },
    {
      "anonymous": false,
      "inputs": [
        {
          "indexed": false,
          "name": "oldSeller",
          "type": "address"
        }
      ],
      "name": "SellerRemoved",
      "type": "event",
      "signature": "0xa6f3b3030df964d974376ba4db21cbe49207bd79998f0d619c1c3a422259707f"
    },
    {
      "anonymous": false,
      "inputs": [
        {
          "indexed": false,
          "name": "newAdmin",
          "type": "address"
        }
      ],
      "name": "AdminAdded",
      "type": "event",
      "signature": "0x44d6d25963f097ad14f29f06854a01f575648a1ef82f30e562ccd3889717e339"
    },
    {
      "anonymous": false,
      "inputs": [
        {
          "indexed": false,
          "name": "oldAdmin",
          "type": "address"
        }
      ],
      "name": "AdminRemoved",
      "type": "event",
      "signature": "0xa3b62bc36326052d97ea62d63c3d60308ed4c3ea8ac079dd8499f1e9c4f80c0f"
    },
    {
      "anonymous": false,
      "inputs": [
        {
          "indexed": false,
          "name": "seller",
          "type": "address"
        },
        {
          "indexed": false,
          "name": "name",
          "type": "string"
        },
        {
          "indexed": false,
          "name": "storeId",
          "type": "bytes32"
        }
      ],
      "name": "StoreCreated",
      "type": "event",
      "signature": "0xc790edb73a0172213f9c865455acd89732be6e893d2d82aeb7225e335ea7d9d1"
    },
    {
      "anonymous": false,
      "inputs": [
        {
          "indexed": false,
          "name": "seller",
          "type": "address"
        },
        {
          "indexed": false,
          "name": "storeId",
          "type": "bytes32"
        }
      ],
      "name": "StoreRemoved",
      "type": "event",
      "signature": "0xa65aaa89a6b8d45604b92a24fb97c91fc3d1504a9a40d61e4121e83dfd2de4c3"
    },
    {
      "anonymous": false,
      "inputs": [
        {
          "indexed": false,
          "name": "seller",
          "type": "address"
        },
        {
          "indexed": false,
          "name": "storeId",
          "type": "bytes32"
        },
        {
          "indexed": false,
          "name": "sku",
          "type": "uint256"
        },
        {
          "indexed": false,
          "name": "name",
          "type": "string"
        },
        {
          "indexed": false,
          "name": "price",
          "type": "uint256"
        },
        {
          "indexed": false,
          "name": "availableNumItems",
          "type": "uint256"
        }
      ],
      "name": "ItemCreated",
      "type": "event",
      "signature": "0x6bd5d0af08c8ffa4a3d7dd1b59614faa2d9476b13e8ed73adc994061d416e19b"
    },
    {
      "anonymous": false,
      "inputs": [
        {
          "indexed": false,
          "name": "seller",
          "type": "address"
        },
        {
          "indexed": false,
          "name": "storeId",
          "type": "bytes32"
        },
        {
          "indexed": false,
          "name": "sku",
          "type": "uint256"
        }
      ],
      "name": "ItemRemoved",
      "type": "event",
      "signature": "0xd1229990c7f2eb9f62e90ccbcb0a6619b996100e5785d6956e3082cee433591c"
    },
    {
      "anonymous": false,
      "inputs": [
        {
          "indexed": false,
          "name": "seller",
          "type": "address"
        },
        {
          "indexed": false,
          "name": "storeId",
          "type": "bytes32"
        },
        {
          "indexed": false,
          "name": "sku",
          "type": "uint256"
        },
        {
          "indexed": false,
          "name": "name",
          "type": "string"
        },
        {
          "indexed": false,
          "name": "price",
          "type": "uint256"
        },
        {
          "indexed": false,
          "name": "availableNumItems",
          "type": "uint256"
        }
      ],
      "name": "ItemEdited",
      "type": "event",
      "signature": "0x623980be88682bdeff2038745fc7d32c828fc0497679180b294feb91a04481f5"
    },
    {
      "anonymous": false,
      "inputs": [
        {
          "indexed": false,
          "name": "seller",
          "type": "address"
        },
        {
          "indexed": false,
          "name": "storeId",
          "type": "bytes32"
        },
        {
          "indexed": false,
          "name": "sku",
          "type": "uint256"
        },
        {
          "indexed": false,
          "name": "numPurchasedItems",
          "type": "uint256"
        },
        {
          "indexed": false,
          "name": "newAvailableNumItems",
          "type": "uint256"
        }
      ],
      "name": "ItemPurchased",
      "type": "event",
      "signature": "0x6794d48cec3e6f99b7331995ce4996b48c0f1469f3792c5337088d02b53d16aa"
    },
    {
      "anonymous": false,
      "inputs": [
        {
          "indexed": true,
          "name": "previousOwner",
          "type": "address"
        },
        {
          "indexed": true,
          "name": "newOwner",
          "type": "address"
        }
      ],
      "name": "OwnershipTransferred",
      "type": "event",
      "signature": "0x8be0079c531659141344cd1fd0a4f28419497f9722a3daafe3b4186f6b6457e0"
    },
    {
      "constant": false,
      "inputs": [],
      "name": "toggleContractActive",
      "outputs": [],
      "payable": false,
      "stateMutability": "nonpayable",
      "type": "function",
      "signature": "0x1385d24c"
    },
    {
      "constant": true,
      "inputs": [],
      "name": "getRole",
      "outputs": [
        {
          "name": "",
          "type": "uint8"
        }
      ],
      "payable": false,
      "stateMutability": "view",
      "type": "function",
      "signature": "0xfde08174"
    },
    {
      "constant": false,
      "inputs": [
        {
          "name": "newAdmin",
          "type": "address"
        }
      ],
      "name": "addAdmin",
      "outputs": [],
      "payable": false,
      "stateMutability": "nonpayable",
      "type": "function",
      "signature": "0x70480275"
    },
    {
      "constant": false,
      "inputs": [
        {
          "name": "oldAdmin",
          "type": "address"
        }
      ],
      "name": "removeAdmin",
      "outputs": [],
      "payable": false,
      "stateMutability": "nonpayable",
      "type": "function",
      "signature": "0x1785f53c"
    },
    {
      "constant": false,
      "inputs": [
        {
          "name": "newSeller",
          "type": "address"
        }
      ],
      "name": "addSeller",
      "outputs": [],
      "payable": false,
      "stateMutability": "nonpayable",
      "type": "function",
      "signature": "0xd93fabfa"
    },
    {
      "constant": false,
      "inputs": [
        {
          "name": "sellerIndex",
          "type": "uint256"
        }
      ],
      "name": "removeSeller",
      "outputs": [],
      "payable": false,
      "stateMutability": "nonpayable",
      "type": "function",
      "signature": "0x3bf5d548"
    },
    {
      "constant": true,
      "inputs": [],
      "name": "getNumberOfSellers",
      "outputs": [
        {
          "name": "",
          "type": "uint256"
        }
      ],
      "payable": false,
      "stateMutability": "view",
      "type": "function",
      "signature": "0xf4048e55"
    },
    {
      "constant": true,
      "inputs": [
        {
          "name": "sellerIndex",
          "type": "uint256"
        }
      ],
      "name": "getSellerAddress",
      "outputs": [
        {
          "name": "",
          "type": "address"
        }
      ],
      "payable": false,
      "stateMutability": "view",
      "type": "function",
      "signature": "0xa675364d"
    },
    {
      "constant": false,
      "inputs": [
        {
          "name": "name",
          "type": "string"
        }
      ],
      "name": "addStore",
      "outputs": [],
      "payable": false,
      "stateMutability": "nonpayable",
      "type": "function",
      "signature": "0x662feffc"
    },
    {
      "constant": false,
      "inputs": [
        {
          "name": "storeId",
          "type": "bytes32"
        },
        {
          "name": "storeIndex",
          "type": "uint256"
        }
      ],
      "name": "removeStore",
      "outputs": [],
      "payable": false,
      "stateMutability": "nonpayable",
      "type": "function",
      "signature": "0xbb0e4b4d"
    },
    {
      "constant": true,
      "inputs": [
        {
          "name": "seller",
          "type": "address"
        }
      ],
      "name": "getNumberOfStores",
      "outputs": [
        {
          "name": "",
          "type": "uint256"
        }
      ],
      "payable": false,
      "stateMutability": "view",
      "type": "function",
      "signature": "0xa06b78d0"
    },
    {
      "constant": true,
      "inputs": [
        {
          "name": "seller",
          "type": "address"
        },
        {
          "name": "storeIndex",
          "type": "uint256"
        }
      ],
      "name": "getStoreId",
      "outputs": [
        {
          "name": "",
          "type": "bytes32"
        }
      ],
      "payable": false,
      "stateMutability": "view",
      "type": "function",
      "signature": "0x7624ceef"
    },
    {
      "constant": true,
      "inputs": [
        {
          "name": "seller",
          "type": "address"
        },
        {
          "name": "storeId",
          "type": "bytes32"
        }
      ],
      "name": "getStoreMetadata",
      "outputs": [
        {
          "name": "",
          "type": "string"
        },
        {
          "name": "",
          "type": "uint256"
        }
      ],
      "payable": false,
      "stateMutability": "view",
      "type": "function",
      "signature": "0x969416f7"
    },
    {
      "constant": false,
      "inputs": [
        {
          "name": "storeId",
          "type": "bytes32"
        },
        {
          "name": "sku",
          "type": "uint256"
        },
        {
          "name": "name",
          "type": "string"
        },
        {
          "name": "price",
          "type": "uint256"
        },
        {
          "name": "availableNumItems",
          "type": "uint256"
        }
      ],
      "name": "addItem",
      "outputs": [],
      "payable": false,
      "stateMutability": "nonpayable",
      "type": "function",
      "signature": "0xa1eb1bcd"
    },
    {
      "constant": false,
      "inputs": [
        {
          "name": "storeId",
          "type": "bytes32"
        },
        {
          "name": "sku",
          "type": "uint256"
        },
        {
          "name": "name",
          "type": "string"
        },
        {
          "name": "price",
          "type": "uint256"
        },
        {
          "name": "availableNumItems",
          "type": "uint256"
        }
      ],
      "name": "editItem",
      "outputs": [],
      "payable": false,
      "stateMutability": "nonpayable",
      "type": "function",
      "signature": "0xaea58dac"
    },
    {
      "constant": true,
      "inputs": [
        {
          "name": "seller",
          "type": "address"
        },
        {
          "name": "storeId",
          "type": "bytes32"
        }
      ],
      "name": "getNumberOfItems",
      "outputs": [
        {
          "name": "",
          "type": "uint256"
        }
      ],
      "payable": false,
      "stateMutability": "view",
      "type": "function",
      "signature": "0x3fbdf937"
    },
    {
      "constant": true,
      "inputs": [
        {
          "name": "seller",
          "type": "address"
        },
        {
          "name": "storeId",
          "type": "bytes32"
        },
        {
          "name": "skuIndex",
          "type": "uint256"
        }
      ],
      "name": "getSku",
      "outputs": [
        {
          "name": "",
          "type": "uint256"
        }
      ],
      "payable": false,
      "stateMutability": "view",
      "type": "function",
      "signature": "0x1849e195"
    },
    {
      "constant": true,
      "inputs": [
        {
          "name": "seller",
          "type": "address"
        },
        {
          "name": "storeId",
          "type": "bytes32"
        },
        {
          "name": "sku",
          "type": "uint256"
        }
      ],
      "name": "getItemMetadata",
      "outputs": [
        {
          "name": "",
          "type": "string"
        },
        {
          "name": "",
          "type": "uint256"
        },
        {
          "name": "",
          "type": "uint256"
        }
      ],
      "payable": false,
      "stateMutability": "view",
      "type": "function",
      "signature": "0x2ac81c77"
    },
    {
      "constant": false,
      "inputs": [
        {
          "name": "storeId",
          "type": "bytes32"
        },
        {
          "name": "sku",
          "type": "uint256"
        }
      ],
      "name": "removeItem",
      "outputs": [],
      "payable": false,
      "stateMutability": "nonpayable",
      "type": "function",
      "signature": "0xa0cbd1f6"
    },
    {
      "constant": false,
      "inputs": [
        {
          "name": "seller",
          "type": "address"
        },
        {
          "name": "storeId",
          "type": "bytes32"
        },
        {
          "name": "sku",
          "type": "uint256"
        },
        {
          "name": "numPurchasedItems",
          "type": "uint256"
        }
      ],
      "name": "purchaseItem",
      "outputs": [],
      "payable": true,
      "stateMutability": "payable",
      "type": "function",
      "signature": "0xfa7cbc82"
    },
    {
      "constant": false,
      "inputs": [],
      "name": "withdraw",
      "outputs": [],
      "payable": false,
      "stateMutability": "nonpayable",
      "type": "function",
      "signature": "0x3ccfd60b"
    },
    {
      "constant": true,
      "inputs": [],
      "name": "getPendingFunds",
      "outputs": [
        {
          "name": "",
          "type": "uint256"
        }
      ],
      "payable": false,
      "stateMutability": "view",
      "type": "function",
      "signature": "0x24c1c0c9"
    }
  ],
  "bytecode": "0x608060405260008060146101000a81548160ff021916908315150217905550336000806101000a81548173ffffffffffffffffffffffffffffffffffffffff021916908373ffffffffffffffffffffffffffffffffffffffff1602179055506000809054906101000a900473ffffffffffffffffffffffffffffffffffffffff1673ffffffffffffffffffffffffffffffffffffffff16600073ffffffffffffffffffffffffffffffffffffffff167f8be0079c531659141344cd1fd0a4f28419497f9722a3daafe3b4186f6b6457e060405160405180910390a3614ae0806100e96000396000f3fe60806040526004361061016a576000357c0100000000000000000000000000000000000000000000000000000000900463ffffffff1680631385d24c1461016f5780631785f53c146101865780631849e195146101d757806324c1c0c9146102505780632ac81c771461027b5780633bf5d548146103675780633ccfd60b146103a25780633fbdf937146103b9578063662feffc1461042857806370480275146104f0578063715018a61461054157806375f12b21146105585780637624ceef146105875780638da5cb5b146105f65780638f32d59b1461064d578063969416f71461067c578063a06b78d014610757578063a0cbd1f6146107bc578063a1eb1bcd14610801578063a675364d146108f1578063aea58dac1461096c578063bb0e4b4d14610a5c578063bfae98ad14610aa1578063d93fabfa14610ad2578063f2fde38b14610b23578063f4048e5514610b74578063fa7cbc8214610b9f578063fde0817414610c01575b600080fd5b34801561017b57600080fd5b50610184610c3a565b005b34801561019257600080fd5b506101d5600480360360208110156101a957600080fd5b81019080803573ffffffffffffffffffffffffffffffffffffffff169060200190929190505050610c79565b005b3480156101e357600080fd5b5061023a600480360360608110156101fa57600080fd5b81019080803573ffffffffffffffffffffffffffffffffffffffff1690602001909291908035906020019092919080359060200190929190505050610e15565b6040518082815260200191505060405180910390f35b34801561025c57600080fd5b50610265610e8e565b6040518082815260200191505060405180910390f35b34801561028757600080fd5b506102de6004803603606081101561029e57600080fd5b81019080803573ffffffffffffffffffffffffffffffffffffffff1690602001909291908035906020019092919080359060200190929190505050611004565b6040518080602001848152602001838152602001828103825285818151815260200191508051906020019080838360005b8381101561032a57808201518184015260208101905061030f565b50505050905090810190601f1680156103575780820380516001836020036101000a031916815260200191505b5094505050505060405180910390f35b34801561037357600080fd5b506103a06004803603602081101561038a57600080fd5b810190808035906020019092919050505061112e565b005b3480156103ae57600080fd5b506103b7611641565b005b3480156103c557600080fd5b50610412600480360360408110156103dc57600080fd5b81019080803573ffffffffffffffffffffffffffffffffffffffff16906020019092919080359060200190929190505050611843565b6040518082815260200191505060405180910390f35b34801561043457600080fd5b506104ee6004803603602081101561044b57600080fd5b810190808035906020019064010000000081111561046857600080fd5b82018360208201111561047a57600080fd5b8035906020019184600183028401116401000000008311171561049c57600080fd5b91908080601f016020809104026020016040519081016040528093929190818152602001838380828437600081840152601f19601f8201169050808301925050505050505091929192905050506118ac565b005b3480156104fc57600080fd5b5061053f6004803603602081101561051357600080fd5b81019080803573ffffffffffffffffffffffffffffffffffffffff169060200190929190505050611f0a565b005b34801561054d57600080fd5b506105566120c1565b005b34801561056457600080fd5b5061056d612193565b604051808215151515815260200191505060405180910390f35b34801561059357600080fd5b506105e0600480360360408110156105aa57600080fd5b81019080803573ffffffffffffffffffffffffffffffffffffffff169060200190929190803590602001909291905050506121a6565b6040518082815260200191505060405180910390f35b34801561060257600080fd5b5061060b61220a565b604051808273ffffffffffffffffffffffffffffffffffffffff1673ffffffffffffffffffffffffffffffffffffffff16815260200191505060405180910390f35b34801561065957600080fd5b50610662612233565b604051808215151515815260200191505060405180910390f35b34801561068857600080fd5b506106d56004803603604081101561069f57600080fd5b81019080803573ffffffffffffffffffffffffffffffffffffffff1690602001909291908035906020019092919050505061228a565b6040518080602001838152602001828103825284818151815260200191508051906020019080838360005b8381101561071b578082015181840152602081019050610700565b50505050905090810190601f1680156107485780820380516001836020036101000a031916815260200191505b50935050505060405180910390f35b34801561076357600080fd5b506107a66004803603602081101561077a57600080fd5b81019080803573ffffffffffffffffffffffffffffffffffffffff169060200190929190505050612398565b6040518082815260200191505060405180910390f35b3480156107c857600080fd5b506107ff600480360360408110156107df57600080fd5b8101908080359060200190929190803590602001909291905050506123ec565b005b34801561080d57600080fd5b506108ef600480360360a081101561082457600080fd5b8101908080359060200190929190803590602001909291908035906020019064010000000081111561085557600080fd5b82018360208201111561086757600080fd5b8035906020019184600183028401116401000000008311171561088957600080fd5b91908080601f016020809104026020016040519081016040528093929190818152602001838380828437600081840152601f19601f8201169050808301925050505050505091929192908035906020019092919080359060200190929190505050612982565b005b3480156108fd57600080fd5b5061092a6004803603602081101561091457600080fd5b810190808035906020019092919050505061308d565b604051808273ffffffffffffffffffffffffffffffffffffffff1673ffffffffffffffffffffffffffffffffffffffff16815260200191505060405180910390f35b34801561097857600080fd5b50610a5a600480360360a081101561098f57600080fd5b810190808035906020019092919080359060200190929190803590602001906401000000008111156109c057600080fd5b8201836020820111156109d257600080fd5b803590602001918460018302840111640100000000831117156109f457600080fd5b91908080601f016020809104026020016040519081016040528093929190818152602001838380828437600081840152601f19601f8201169050808301925050505050505091929192908035906020019092919080359060200190929190505050613158565b005b348015610a6857600080fd5b50610a9f60048036036040811015610a7f57600080fd5b810190808035906020019092919080359060200190929190505050613786565b005b348015610aad57600080fd5b50610ab6613d91565b604051808260ff1660ff16815260200191505060405180910390f35b348015610ade57600080fd5b50610b2160048036036020811015610af557600080fd5b81019080803573ffffffffffffffffffffffffffffffffffffffff169060200190929190505050613d96565b005b348015610b2f57600080fd5b50610b7260048036036020811015610b4657600080fd5b81019080803573ffffffffffffffffffffffffffffffffffffffff169060200190929190505050614192565b005b348015610b8057600080fd5b50610b896141b1565b6040518082815260200191505060405180910390f35b610bff60048036036080811015610bb557600080fd5b81019080803573ffffffffffffffffffffffffffffffffffffffff1690602001909291908035906020019092919080359060200190929190803590602001909291905050506141be565b005b348015610c0d57600080fd5b50610c166146e8565b60405180826002811115610c2657fe5b60ff16815260200191505060405180910390f35b610c42612233565b1515610c4d57600080fd5b600060149054906101000a900460ff1615600060146101000a81548160ff021916908315150217905550565b600060149054906101000a900460ff16151515610cfe576040517f08c379a000000000000000000000000000000000000000000000000000000000815260040180806020018281038252601a8152602001807f436f6e747261637420696e20656d657267656e6379206d6f646500000000000081525060200191505060405180910390fd5b610d06612233565b1515610d1157600080fd5b600160008273ffffffffffffffffffffffffffffffffffffffff1673ffffffffffffffffffffffffffffffffffffffff16815260200190815260200160002060006101000a81549060ff0219169055600260008273ffffffffffffffffffffffffffffffffffffffff1673ffffffffffffffffffffffffffffffffffffffff16815260200190815260200160002060006101000a81549060ff02191690557fa3b62bc36326052d97ea62d63c3d60308ed4c3ea8ac079dd8499f1e9c4f80c0f81604051808273ffffffffffffffffffffffffffffffffffffffff1673ffffffffffffffffffffffffffffffffffffffff16815260200191505060405180910390a150565b6000600360008573ffffffffffffffffffffffffffffffffffffffff1673ffffffffffffffffffffffffffffffffffffffff168152602001908152602001600020600001600084815260200190815260200160002060040182815481101515610e7a57fe5b906000526020600020015490509392505050565b6000600260003373ffffffffffffffffffffffffffffffffffffffff1673ffffffffffffffffffffffffffffffffffffffff16815260200190815260200160002060009054906101000a900460ff168015610f4b575060016002811115610ef157fe5b600160003373ffffffffffffffffffffffffffffffffffffffff1673ffffffffffffffffffffffffffffffffffffffff16815260200190815260200160002060009054906101000a900460ff166002811115610f4957fe5b145b1515610fbf576040517f08c379a000000000000000000000000000000000000000000000000000000000815260040180806020018281038252601e8152602001807f55736572206d7573742068617665207468652053454c4c455220726f6c65000081525060200191505060405180910390fd5b600560003373ffffffffffffffffffffffffffffffffffffffff1673ffffffffffffffffffffffffffffffffffffffff16815260200190815260200160002054905090565b60606000806000600360008873ffffffffffffffffffffffffffffffffffffffff1673ffffffffffffffffffffffffffffffffffffffff1681526020019081526020016000206000016000878152602001908152602001600020600301600086815260200190815260200160002090508060020181600301548260040154828054600181600116156101000203166002900480601f0160208091040260200160405190810160405280929190818152602001828054600181600116156101000203166002900480156111175780601f106110ec57610100808354040283529160200191611117565b820191906000526020600020905b8154815290600101906020018083116110fa57829003601f168201915b505050505092509350935093505093509350939050565b600060149054906101000a900460ff161515156111b3576040517f08c379a000000000000000000000000000000000000000000000000000000000815260040180806020018281038252601a8152602001807f436f6e747261637420696e20656d657267656e6379206d6f646500000000000081525060200191505060405180910390fd5b600260003373ffffffffffffffffffffffffffffffffffffffff1673ffffffffffffffffffffffffffffffffffffffff16815260200190815260200160002060009054906101000a900460ff16801561126e57506000600281111561121457fe5b600160003373ffffffffffffffffffffffffffffffffffffffff1673ffffffffffffffffffffffffffffffffffffffff16815260200190815260200160002060009054906101000a900460ff16600281111561126c57fe5b145b15156112e2576040517f08c379a000000000000000000000000000000000000000000000000000000000815260040180806020018281038252601d8152602001807f55736572206d7573742068617665207468652041444d494e20726f6c6500000081525060200191505060405180910390fd5b600081101580156112f7575060048054905081105b151561136b576040517f08c379a000000000000000000000000000000000000000000000000000000000815260040180806020018281038252601c8152602001807f53656c6c657220696e646578206973206f7574206f6620626f756e640000000081525060200191505060405180910390fd5b600060048281548110151561137c57fe5b9060005260206000200160009054906101000a900473ffffffffffffffffffffffffffffffffffffffff169050600260008273ffffffffffffffffffffffffffffffffffffffff1673ffffffffffffffffffffffffffffffffffffffff16815260200190815260200160002060009054906101000a900460ff16801561146457506001600281111561140a57fe5b600160008373ffffffffffffffffffffffffffffffffffffffff1673ffffffffffffffffffffffffffffffffffffffff16815260200190815260200160002060009054906101000a900460ff16600281111561146257fe5b145b1561163d57600160008273ffffffffffffffffffffffffffffffffffffffff1673ffffffffffffffffffffffffffffffffffffffff16815260200190815260200160002060006101000a81549060ff0219169055600260008273ffffffffffffffffffffffffffffffffffffffff1673ffffffffffffffffffffffffffffffffffffffff16815260200190815260200160002060006101000a81549060ff0219169055600160048054905011801561152457506001600480549050038214155b156115c357600460016004805490500381548110151561154057fe5b9060005260206000200160009054906101000a900473ffffffffffffffffffffffffffffffffffffffff1660048381548110151561157a57fe5b9060005260206000200160006101000a81548173ffffffffffffffffffffffffffffffffffffffff021916908373ffffffffffffffffffffffffffffffffffffffff1602179055505b60048054809190600190036115d891906148b0565b507fa6f3b3030df964d974376ba4db21cbe49207bd79998f0d619c1c3a422259707f81604051808273ffffffffffffffffffffffffffffffffffffffff1673ffffffffffffffffffffffffffffffffffffffff16815260200191505060405180910390a15b5050565b600260003373ffffffffffffffffffffffffffffffffffffffff1673ffffffffffffffffffffffffffffffffffffffff16815260200190815260200160002060009054906101000a900460ff1680156116fc5750600160028111156116a257fe5b600160003373ffffffffffffffffffffffffffffffffffffffff1673ffffffffffffffffffffffffffffffffffffffff16815260200190815260200160002060009054906101000a900460ff1660028111156116fa57fe5b145b1515611770576040517f08c379a000000000000000000000000000000000000000000000000000000000815260040180806020018281038252601e8152602001807f55736572206d7573742068617665207468652053454c4c455220726f6c65000081525060200191505060405180910390fd5b6000600560003373ffffffffffffffffffffffffffffffffffffffff1673ffffffffffffffffffffffffffffffffffffffff1681526020019081526020016000205490506000600560003373ffffffffffffffffffffffffffffffffffffffff1673ffffffffffffffffffffffffffffffffffffffff168152602001908152602001600020819055503373ffffffffffffffffffffffffffffffffffffffff166108fc829081150290604051600060405180830381858888f1935050505015801561183f573d6000803e3d6000fd5b5050565b600080600360008573ffffffffffffffffffffffffffffffffffffffff1673ffffffffffffffffffffffffffffffffffffffff16815260200190815260200160002090508060000160008481526020019081526020016000206004018054905091505092915050565b600060149054906101000a900460ff16151515611931576040517f08c379a000000000000000000000000000000000000000000000000000000000815260040180806020018281038252601a8152602001807f436f6e747261637420696e20656d657267656e6379206d6f646500000000000081525060200191505060405180910390fd5b600260003373ffffffffffffffffffffffffffffffffffffffff1673ffffffffffffffffffffffffffffffffffffffff16815260200190815260200160002060009054906101000a900460ff1680156119ec57506001600281111561199257fe5b600160003373ffffffffffffffffffffffffffffffffffffffff1673ffffffffffffffffffffffffffffffffffffffff16815260200190815260200160002060009054906101000a900460ff1660028111156119ea57fe5b145b1515611a60576040517f08c379a000000000000000000000000000000000000000000000000000000000815260040180806020018281038252601e8152602001807f55736572206d7573742068617665207468652053454c4c455220726f6c65000081525060200191505060405180910390fd5b60008151111515611aff576040517f08c379a00000000000000000000000000000000000000000000000000000000081526004018080602001828103825260278152602001807f546865206e616d65206f66207468652073746f7265206d757374206e6f74206281526020017f6520656d7074790000000000000000000000000000000000000000000000000081525060400191505060405180910390fd5b60003382604051602001808373ffffffffffffffffffffffffffffffffffffffff1673ffffffffffffffffffffffffffffffffffffffff166c0100000000000000000000000002815260140182805190602001908083835b602083101515611b7c5780518252602082019150602081019050602083039250611b57565b6001836020036101000a038019825116818451168082178552505050505050905001925050506040516020818303038152906040528051906020012090506000600102600360003373ffffffffffffffffffffffffffffffffffffffff1673ffffffffffffffffffffffffffffffffffffffff168152602001908152602001600020600001600083815260200190815260200160002060000154141515611cb1576040517f08c379a00000000000000000000000000000000000000000000000000000000081526004018080602001828103825260368152602001807f5468652073656c6c6572206d757374206e6f7420686176652074776f2073746f81526020017f7265732077697468207468652073616d65206e616d650000000000000000000081525060400191505060405180910390fd5b6000600360003373ffffffffffffffffffffffffffffffffffffffff1673ffffffffffffffffffffffffffffffffffffffff16815260200190815260200160002090506080604051908101604052808381526020013373ffffffffffffffffffffffffffffffffffffffff1681526020018481526020016000604051908082528060200260200182016040528015611d585781602001602082028038833980820191505090505b508152508160000160008481526020019081526020016000206000820151816000015560208201518160010160006101000a81548173ffffffffffffffffffffffffffffffffffffffff021916908373ffffffffffffffffffffffffffffffffffffffff1602179055506040820151816002019080519060200190611dde9291906148dc565b506060820151816004019080519060200190611dfb92919061495c565b50905050806001018290806001815401808255809150509060018203906000526020600020016000909192909190915055507fc790edb73a0172213f9c865455acd89732be6e893d2d82aeb7225e335ea7d9d1338484604051808473ffffffffffffffffffffffffffffffffffffffff1673ffffffffffffffffffffffffffffffffffffffff16815260200180602001838152602001828103825284818151815260200191508051906020019080838360005b83811015611ec9578082015181840152602081019050611eae565b50505050905090810190601f168015611ef65780820380516001836020036101000a031916815260200191505b5094505050505060405180910390a1505050565b600060149054906101000a900460ff16151515611f8f576040517f08c379a000000000000000000000000000000000000000000000000000000000815260040180806020018281038252601a8152602001807f436f6e747261637420696e20656d657267656e6379206d6f646500000000000081525060200191505060405180910390fd5b611f97612233565b1515611fa257600080fd5b6000600160008373ffffffffffffffffffffffffffffffffffffffff1673ffffffffffffffffffffffffffffffffffffffff16815260200190815260200160002060006101000a81548160ff02191690836002811115611ffe57fe5b02179055506001600260008373ffffffffffffffffffffffffffffffffffffffff1673ffffffffffffffffffffffffffffffffffffffff16815260200190815260200160002060006101000a81548160ff0219169083151502179055507f44d6d25963f097ad14f29f06854a01f575648a1ef82f30e562ccd3889717e33981604051808273ffffffffffffffffffffffffffffffffffffffff1673ffffffffffffffffffffffffffffffffffffffff16815260200191505060405180910390a150565b6120c9612233565b15156120d457600080fd5b600073ffffffffffffffffffffffffffffffffffffffff166000809054906101000a900473ffffffffffffffffffffffffffffffffffffffff1673ffffffffffffffffffffffffffffffffffffffff167f8be0079c531659141344cd1fd0a4f28419497f9722a3daafe3b4186f6b6457e060405160405180910390a360008060006101000a81548173ffffffffffffffffffffffffffffffffffffffff021916908373ffffffffffffffffffffffffffffffffffffffff160217905550565b600060149054906101000a900460ff1681565b6000600360008473ffffffffffffffffffffffffffffffffffffffff1673ffffffffffffffffffffffffffffffffffffffff168152602001908152602001600020600101828154811015156121f757fe5b9060005260206000200154905092915050565b60008060009054906101000a900473ffffffffffffffffffffffffffffffffffffffff16905090565b60008060009054906101000a900473ffffffffffffffffffffffffffffffffffffffff1673ffffffffffffffffffffffffffffffffffffffff163373ffffffffffffffffffffffffffffffffffffffff1614905090565b6060600080600360008673ffffffffffffffffffffffffffffffffffffffff1673ffffffffffffffffffffffffffffffffffffffff16815260200190815260200160002060000160008581526020019081526020016000209050806002018160040180549050818054600181600116156101000203166002900480601f0160208091040260200160405190810160405280929190818152602001828054600181600116156101000203166002900480156123855780601f1061235a57610100808354040283529160200191612385565b820191906000526020600020905b81548152906001019060200180831161236857829003601f168201915b5050505050915092509250509250929050565b600080600360008473ffffffffffffffffffffffffffffffffffffffff1673ffffffffffffffffffffffffffffffffffffffff16815260200190815260200160002090508060010180549050915050919050565b600060149054906101000a900460ff16151515612471576040517f08c379a000000000000000000000000000000000000000000000000000000000815260040180806020018281038252601a8152602001807f436f6e747261637420696e20656d657267656e6379206d6f646500000000000081525060200191505060405180910390fd5b600260003373ffffffffffffffffffffffffffffffffffffffff1673ffffffffffffffffffffffffffffffffffffffff16815260200190815260200160002060009054906101000a900460ff16801561252c5750600160028111156124d257fe5b600160003373ffffffffffffffffffffffffffffffffffffffff1673ffffffffffffffffffffffffffffffffffffffff16815260200190815260200160002060009054906101000a900460ff16600281111561252a57fe5b145b15156125a0576040517f08c379a000000000000000000000000000000000000000000000000000000000815260040180806020018281038252601e8152602001807f55736572206d7573742068617665207468652053454c4c455220726f6c65000081525060200191505060405180910390fd5b81816000600102600360003373ffffffffffffffffffffffffffffffffffffffff1673ffffffffffffffffffffffffffffffffffffffff1681526020019081526020016000206000016000848152602001908152602001600020600001541415801561267757506000600360003373ffffffffffffffffffffffffffffffffffffffff1673ffffffffffffffffffffffffffffffffffffffff168152602001908152602001600020600001600084815260200190815260200160002060030160008381526020019081526020016000206000015414155b1515612711576040517f08c379a00000000000000000000000000000000000000000000000000000000081526004018080602001828103825260368152602001807f55736572206d75737420626520746865206f776e6572206f662073746f72652081526020017f776865726520746865206974656d20697320736f6c640000000000000000000081525060400191505060405180910390fd5b6000600360003373ffffffffffffffffffffffffffffffffffffffff1673ffffffffffffffffffffffffffffffffffffffff168152602001908152602001600020600001600086815260200190815260200160002090506000816003016000868152602001908152602001600020600101549050816004018054905081101515612803576040517f08c379a000000000000000000000000000000000000000000000000000000000815260040180806020018281038252601a8152602001807f534b55206e6f7420666f756e6420696e206974656d206c69737400000000000081525060200191505060405180910390fd5b816003016000868152602001908152602001600020600080820160009055600182016000905560028201600061283991906149a9565b6003820160009055600482016000905550506001826004018054905011801561286c575060018260040180549050038114155b156128ef5781600401600183600401805490500381548110151561288c57fe5b906000526020600020015482600401828154811015156128a857fe5b90600052602060002001819055508082600301600084600401848154811015156128ce57fe5b90600052602060002001548152602001908152602001600020600101819055505b8160040180548091906001900361290691906149f1565b507fd1229990c7f2eb9f62e90ccbcb0a6619b996100e5785d6956e3082cee433591c338787604051808473ffffffffffffffffffffffffffffffffffffffff1673ffffffffffffffffffffffffffffffffffffffff168152602001838152602001828152602001935050505060405180910390a1505050505050565b600060149054906101000a900460ff16151515612a07576040517f08c379a000000000000000000000000000000000000000000000000000000000815260040180806020018281038252601a8152602001807f436f6e747261637420696e20656d657267656e6379206d6f646500000000000081525060200191505060405180910390fd5b600260003373ffffffffffffffffffffffffffffffffffffffff1673ffffffffffffffffffffffffffffffffffffffff16815260200190815260200160002060009054906101000a900460ff168015612ac2575060016002811115612a6857fe5b600160003373ffffffffffffffffffffffffffffffffffffffff1673ffffffffffffffffffffffffffffffffffffffff16815260200190815260200160002060009054906101000a900460ff166002811115612ac057fe5b145b1515612b36576040517f08c379a000000000000000000000000000000000000000000000000000000000815260040180806020018281038252601e8152602001807f55736572206d7573742068617665207468652053454c4c455220726f6c65000081525060200191505060405180910390fd5b846000600102600360003373ffffffffffffffffffffffffffffffffffffffff1673ffffffffffffffffffffffffffffffffffffffff16815260200190815260200160002060000160008381526020019081526020016000206000015414151515612c2f576040517f08c379a00000000000000000000000000000000000000000000000000000000081526004018080602001828103825260238152602001807f55736572206d75737420626520746865206f776e6572206f662074686520737481526020017f6f7265000000000000000000000000000000000000000000000000000000000081525060400191505060405180910390fd5b6000600360003373ffffffffffffffffffffffffffffffffffffffff1673ffffffffffffffffffffffffffffffffffffffff16815260200190815260200160002060000160008881526020019081526020016000209050600a60ff16816004018054905011151515612d2f576040517f08c379a00000000000000000000000000000000000000000000000000000000081526004018080602001828103825260308152602001807f596f75206861766520726561636820746865206d6178206e756d626572206f6681526020017f206974656d73207065722073746f72650000000000000000000000000000000081525060400191505060405180910390fd5b600081600301600088815260200190815260200160002060000154141515612dbf576040517f08c379a000000000000000000000000000000000000000000000000000000000815260040180806020018281038252601e8152602001807f534b55206d75737420626520756e6971756520666f7220612073746f7265000081525060200191505060405180910390fd5b600084111515612e37576040517f08c379a000000000000000000000000000000000000000000000000000000000815260040180806020018281038252601f8152602001807f5072696365206d757374206265206120706f736974697665206e756d6265720081525060200191505060405180910390fd5b60008310151515612ed6576040517f08c379a00000000000000000000000000000000000000000000000000000000081526004018080602001828103825260318152602001807f417661696c61626c65206974656d73206d757374206265206120706f7369746981526020017f7665206e756d626572206f72207a65726f00000000000000000000000000000081525060400191505060405180910390fd5b60a060405190810160405280878152602001826004018054905081526020018681526020018581526020018481525081600301600088815260200190815260200160002060008201518160000155602082015181600101556040820151816002019080519060200190612f4a9291906148dc565b506060820151816003015560808201518160040155905050806004018690806001815401808255809150509060018203906000526020600020016000909192909190915055507f6bd5d0af08c8ffa4a3d7dd1b59614faa2d9476b13e8ed73adc994061d416e19b33826000015488888888604051808773ffffffffffffffffffffffffffffffffffffffff1673ffffffffffffffffffffffffffffffffffffffff16815260200186815260200185815260200180602001848152602001838152602001828103825285818151815260200191508051906020019080838360005b8381101561304557808201518184015260208101905061302a565b50505050905090810190601f1680156130725780820380516001836020036101000a031916815260200191505b5097505050505050505060405180910390a150505050505050565b60008082101580156130a3575060048054905082105b1515613117576040517f08c379a00000000000000000000000000000000000000000000000000000000081526004018080602001828103825260128152602001807f4f7574206f6620626f756e6420696e646578000000000000000000000000000081525060200191505060405180910390fd5b60048281548110151561312657fe5b9060005260206000200160009054906101000a900473ffffffffffffffffffffffffffffffffffffffff169050919050565b600060149054906101000a900460ff161515156131dd576040517f08c379a000000000000000000000000000000000000000000000000000000000815260040180806020018281038252601a8152602001807f436f6e747261637420696e20656d657267656e6379206d6f646500000000000081525060200191505060405180910390fd5b600260003373ffffffffffffffffffffffffffffffffffffffff1673ffffffffffffffffffffffffffffffffffffffff16815260200190815260200160002060009054906101000a900460ff16801561329857506001600281111561323e57fe5b600160003373ffffffffffffffffffffffffffffffffffffffff1673ffffffffffffffffffffffffffffffffffffffff16815260200190815260200160002060009054906101000a900460ff16600281111561329657fe5b145b151561330c576040517f08c379a000000000000000000000000000000000000000000000000000000000815260040180806020018281038252601e8152602001807f55736572206d7573742068617665207468652053454c4c455220726f6c65000081525060200191505060405180910390fd5b84846000600102600360003373ffffffffffffffffffffffffffffffffffffffff1673ffffffffffffffffffffffffffffffffffffffff168152602001908152602001600020600001600084815260200190815260200160002060000154141580156133e357506000600360003373ffffffffffffffffffffffffffffffffffffffff1673ffffffffffffffffffffffffffffffffffffffff168152602001908152602001600020600001600084815260200190815260200160002060030160008381526020019081526020016000206000015414155b151561347d576040517f08c379a00000000000000000000000000000000000000000000000000000000081526004018080602001828103825260368152602001807f55736572206d75737420626520746865206f776e6572206f662073746f72652081526020017f776865726520746865206974656d20697320736f6c640000000000000000000081525060400191505060405180910390fd5b6000600360003373ffffffffffffffffffffffffffffffffffffffff1673ffffffffffffffffffffffffffffffffffffffff1681526020019081526020016000206000016000898152602001908152602001600020905060008511151561354c576040517f08c379a000000000000000000000000000000000000000000000000000000000815260040180806020018281038252601f8152602001807f5072696365206d757374206265206120706f736974697665206e756d6265720081525060200191505060405180910390fd5b600084101515156135eb576040517f08c379a00000000000000000000000000000000000000000000000000000000081526004018080602001828103825260318152602001807f417661696c61626c65206974656d73206d757374206265206120706f7369746981526020017f7665206e756d626572206f72207a65726f00000000000000000000000000000081525060400191505060405180910390fd5b60a0604051908101604052808881526020018260030160008a815260200190815260200160002060010154815260200187815260200186815260200185815250816003016000898152602001908152602001600020600082015181600001556020820151816001015560408201518160020190805190602001906136709291906148dc565b5060608201518160030155608082015181600401559050507f623980be88682bdeff2038745fc7d32c828fc0497679180b294feb91a04481f533826000015489898989604051808773ffffffffffffffffffffffffffffffffffffffff1673ffffffffffffffffffffffffffffffffffffffff16815260200186815260200185815260200180602001848152602001838152602001828103825285818151815260200191508051906020019080838360005b8381101561373d578082015181840152602081019050613722565b50505050905090810190601f16801561376a5780820380516001836020036101000a031916815260200191505b5097505050505050505060405180910390a15050505050505050565b600060149054906101000a900460ff1615151561380b576040517f08c379a000000000000000000000000000000000000000000000000000000000815260040180806020018281038252601a8152602001807f436f6e747261637420696e20656d657267656e6379206d6f646500000000000081525060200191505060405180910390fd5b600260003373ffffffffffffffffffffffffffffffffffffffff1673ffffffffffffffffffffffffffffffffffffffff16815260200190815260200160002060009054906101000a900460ff1680156138c657506001600281111561386c57fe5b600160003373ffffffffffffffffffffffffffffffffffffffff1673ffffffffffffffffffffffffffffffffffffffff16815260200190815260200160002060009054906101000a900460ff1660028111156138c457fe5b145b151561393a576040517f08c379a000000000000000000000000000000000000000000000000000000000815260040180806020018281038252601e8152602001807f55736572206d7573742068617665207468652053454c4c455220726f6c65000081525060200191505060405180910390fd5b816000600102600360003373ffffffffffffffffffffffffffffffffffffffff1673ffffffffffffffffffffffffffffffffffffffff16815260200190815260200160002060000160008381526020019081526020016000206000015414151515613a33576040517f08c379a00000000000000000000000000000000000000000000000000000000081526004018080602001828103825260238152602001807f55736572206d75737420626520746865206f776e6572206f662074686520737481526020017f6f7265000000000000000000000000000000000000000000000000000000000081525060400191505060405180910390fd5b6000600360003373ffffffffffffffffffffffffffffffffffffffff1673ffffffffffffffffffffffffffffffffffffffff16815260200190815260200160002090506000600360003373ffffffffffffffffffffffffffffffffffffffff1673ffffffffffffffffffffffffffffffffffffffff16815260200190815260200160002060000160008681526020019081526020016000209050848260010185815481101515613adf57fe5b9060005260206000200154141515613b85576040517f08c379a00000000000000000000000000000000000000000000000000000000081526004018080602001828103825260408152602001807f5468652073746f726549642070726f7669646564206973206e6f7420636f686581526020017f72656e742077697468207468652073746f726520696e6465782070617373656481525060400191505060405180910390fd5b60008090505b8160040180549050811015613c0a578160030160008360040183815481101515613bb157fe5b906000526020600020015481526020019081526020016000206000808201600090556001820160009055600282016000613beb91906149a9565b6003820160009055600482016000905550508080600101915050613b8b565b508160000160008681526020019081526020016000206000808201600090556001820160006101000a81549073ffffffffffffffffffffffffffffffffffffffff0219169055600282016000613c6091906149a9565b600482016000613c709190614a1d565b505060018260010180549050118015613c93575060018260010180549050038414155b15613cde57816001016001836001018054905003815481101515613cb357fe5b90600052602060002001548260010185815481101515613ccf57fe5b90600052602060002001819055505b816001016001836001018054905003815481101515613cf957fe5b906000526020600020016000905581600101805480919060019003613d1e9190614a3e565b507fa65aaa89a6b8d45604b92a24fb97c91fc3d1504a9a40d61e4121e83dfd2de4c33386604051808373ffffffffffffffffffffffffffffffffffffffff1673ffffffffffffffffffffffffffffffffffffffff1681526020018281526020019250505060405180910390a15050505050565b600a81565b600060149054906101000a900460ff16151515613e1b576040517f08c379a000000000000000000000000000000000000000000000000000000000815260040180806020018281038252601a8152602001807f436f6e747261637420696e20656d657267656e6379206d6f646500000000000081525060200191505060405180910390fd5b600260003373ffffffffffffffffffffffffffffffffffffffff1673ffffffffffffffffffffffffffffffffffffffff16815260200190815260200160002060009054906101000a900460ff168015613ed6575060006002811115613e7c57fe5b600160003373ffffffffffffffffffffffffffffffffffffffff1673ffffffffffffffffffffffffffffffffffffffff16815260200190815260200160002060009054906101000a900460ff166002811115613ed457fe5b145b1515613f4a576040517f08c379a000000000000000000000000000000000000000000000000000000000815260040180806020018281038252601d8152602001807f55736572206d7573742068617665207468652041444d494e20726f6c6500000081525060200191505060405180910390fd5b80600260008273ffffffffffffffffffffffffffffffffffffffff1673ffffffffffffffffffffffffffffffffffffffff16815260200190815260200160002060009054906101000a900460ff1615151561400d576040517f08c379a00000000000000000000000000000000000000000000000000000000081526004018080602001828103825260148152602001807f55736572206d757374206265206120627579657200000000000000000000000081525060200191505060405180910390fd5b60018060008473ffffffffffffffffffffffffffffffffffffffff1673ffffffffffffffffffffffffffffffffffffffff16815260200190815260200160002060006101000a81548160ff0219169083600281111561406857fe5b02179055506001600260008473ffffffffffffffffffffffffffffffffffffffff1673ffffffffffffffffffffffffffffffffffffffff16815260200190815260200160002060006101000a81548160ff02191690831515021790555060048290806001815401808255809150509060018203906000526020600020016000909192909190916101000a81548173ffffffffffffffffffffffffffffffffffffffff021916908373ffffffffffffffffffffffffffffffffffffffff160217905550507f3d78526f2568d430fd8e20719601f7bc3f979936f8880236cc284e8127251b4282604051808273ffffffffffffffffffffffffffffffffffffffff1673ffffffffffffffffffffffffffffffffffffffff16815260200191505060405180910390a15050565b61419a612233565b15156141a557600080fd5b6141ae81614795565b50565b6000600480549050905090565b600060149054906101000a900460ff16151515614243576040517f08c379a000000000000000000000000000000000000000000000000000000000815260040180806020018281038252601a8152602001807f436f6e747261637420696e20656d657267656e6379206d6f646500000000000081525060200191505060405180910390fd5b33600260008273ffffffffffffffffffffffffffffffffffffffff1673ffffffffffffffffffffffffffffffffffffffff16815260200190815260200160002060009054906101000a900460ff16151515614306576040517f08c379a00000000000000000000000000000000000000000000000000000000081526004018080602001828103825260148152602001807f55736572206d757374206265206120627579657200000000000000000000000081525060200191505060405180910390fd5b6000600360008773ffffffffffffffffffffffffffffffffffffffff1673ffffffffffffffffffffffffffffffffffffffff1681526020019081526020016000206000016000868152602001908152602001600020905060006001028160000154141515156143dd576040517f08c379a00000000000000000000000000000000000000000000000000000000081526004018080602001828103825260108152602001807f53746f7265206d7573742065786973740000000000000000000000000000000081525060200191505060405180910390fd5b6000816003016000868152602001908152602001600020600001541415151561446e576040517f08c379a00000000000000000000000000000000000000000000000000000000081526004018080602001828103825260198152602001807f4974656d206d75737420626520696e207468652073746f72650000000000000081525060200191505060405180910390fd5b6000816003016000868152602001908152602001600020905060008411801561449b575083816004015410155b1515614535576040517f08c379a00000000000000000000000000000000000000000000000000000000081526004018080602001828103825260238152602001807f496e76616c6964206e756d626572206f66206974656d7320746f20707572636881526020017f617365000000000000000000000000000000000000000000000000000000000081525060400191505060405180910390fd5b83816003015402341415156145b2576040517f08c379a000000000000000000000000000000000000000000000000000000000815260040180806020018281038252601c8152602001807f496e76616c69642076616c756520696e20746865206d6573736167650000000081525060200191505060405180910390fd5b83816004016000828254039250508190555061460d600560008973ffffffffffffffffffffffffffffffffffffffff1673ffffffffffffffffffffffffffffffffffffffff168152602001908152602001600020543461488f565b600560008973ffffffffffffffffffffffffffffffffffffffff1673ffffffffffffffffffffffffffffffffffffffff168152602001908152602001600020819055507f6794d48cec3e6f99b7331995ce4996b48c0f1469f3792c5337088d02b53d16aa8783600001548360000154878560040154604051808673ffffffffffffffffffffffffffffffffffffffff1673ffffffffffffffffffffffffffffffffffffffff1681526020018581526020018481526020018381526020018281526020019550505050505060405180910390a150505050505050565b6000600260003373ffffffffffffffffffffffffffffffffffffffff1673ffffffffffffffffffffffffffffffffffffffff16815260200190815260200160002060009054906101000a900460ff16614742576002614790565b600160003373ffffffffffffffffffffffffffffffffffffffff1673ffffffffffffffffffffffffffffffffffffffff16815260200190815260200160002060009054906101000a900460ff165b905090565b600073ffffffffffffffffffffffffffffffffffffffff168173ffffffffffffffffffffffffffffffffffffffff16141515156147d157600080fd5b8073ffffffffffffffffffffffffffffffffffffffff166000809054906101000a900473ffffffffffffffffffffffffffffffffffffffff1673ffffffffffffffffffffffffffffffffffffffff167f8be0079c531659141344cd1fd0a4f28419497f9722a3daafe3b4186f6b6457e060405160405180910390a3806000806101000a81548173ffffffffffffffffffffffffffffffffffffffff021916908373ffffffffffffffffffffffffffffffffffffffff16021790555050565b60008082840190508381101515156148a657600080fd5b8091505092915050565b8154818355818111156148d7578183600052602060002091820191016148d69190614a6a565b5b505050565b828054600181600116156101000203166002900490600052602060002090601f016020900481019282601f1061491d57805160ff191683800117855561494b565b8280016001018555821561494b579182015b8281111561494a57825182559160200191906001019061492f565b5b5090506149589190614a6a565b5090565b828054828255906000526020600020908101928215614998579160200282015b8281111561499757825182559160200191906001019061497c565b5b5090506149a59190614a6a565b5090565b50805460018160011615610100020316600290046000825580601f106149cf57506149ee565b601f0160209004906000526020600020908101906149ed9190614a6a565b5b50565b815481835581811115614a1857818360005260206000209182019101614a179190614a6a565b5b505050565b5080546000825590600052602060002090810190614a3b9190614a6a565b50565b815481835581811115614a6557818360005260206000209182019101614a649190614a8f565b5b505050565b614a8c91905b80821115614a88576000816000905550600101614a70565b5090565b90565b614ab191905b80821115614aad576000816000905550600101614a95565b5090565b9056fea165627a7a72305820d01972e0ccc4c59ad7e0d6991b75e92a9a927c7c9ef1cab6d23deb5412dd78730029",
  "source": "pragma solidity ^0.5.0;\n\nimport 'openzeppelin-solidity/contracts/ownership/Ownable.sol';\nimport { SafeMath } from 'openzeppelin-solidity/contracts/math/SafeMath.sol';\n\n/**\n * @title Marketplace contract to sell, buy and withdraw funds\n * @author Jess Lanchas\n * @notice This contract belongs to a final project in the Developer Program 2018 @ Consensys Academy\n * @dev All outcome values in transaction methods are included in events\n */\ncontract Marketplace is Ownable {\n\n    enum Roles { ADMIN, SELLER, BUYER }\n\n    // Circuit breaker\n    bool public stopped = false;\n\n    // Limit to avoid out of gas issue iterating on items\n    uint8 public constant MAX_ITEMS_PER_STORE = 10;\n\n    // To know the role of a specific user\n    mapping(address => Roles) roles;\n    mapping(address => bool) privilegedUsers;\n\n    // Stores owned by sellers\n    mapping(address => Empire) empires;\n    address[] sellers;\n\n    // Payments\n    mapping (address => uint) pendingFunds;\n\n    // Structs\n    struct Empire {\n        mapping(bytes32 => Store) stores;\n        bytes32[] storesIds;\n    }\n\n    struct Store {\n        bytes32 storeId;\n        address seller;\n        string name;\n        mapping(uint => Item) items;\n        uint[] skus;\n    }\n\n    struct Item {\n        uint sku;\n        uint skuIndex; // position of this item in the array store.items\n        string name;\n        uint price;\n        uint availableNumItems;\n    }\n\n    // Management events\n    event SellerAdded(address newSeller);\n    event SellerRemoved(address oldSeller);\n    event AdminAdded(address newAdmin);\n    event AdminRemoved(address oldAdmin);\n\n    // Business events\n    event StoreCreated(address seller, string name, bytes32 storeId);\n    event StoreRemoved(address seller, bytes32 storeId);\n    event ItemCreated(address seller, bytes32 storeId, uint sku, string name, uint price, uint availableNumItems);\n    event ItemRemoved(address seller, bytes32 storeId, uint sku);\n    event ItemEdited(address seller, bytes32 storeId, uint sku, string name, uint price, uint availableNumItems);\n    event ItemPurchased(address seller, bytes32 storeId, uint sku, uint numPurchasedItems, uint newAvailableNumItems);\n\n    /* Roles modifiers */\n    /**\n     * @notice Require the address `msg.sender` to be a valid admin in the contract.\n     */\n    modifier isAdmin () { require (privilegedUsers[msg.sender] && roles[msg.sender] == Roles.ADMIN, 'User must have the ADMIN role'); _;}\n\n    /**\n     * @notice Require the addres `msg.sender` to be a valid seller in the contract.\n     */\n    modifier isSeller () { require (privilegedUsers[msg.sender] && roles[msg.sender] == Roles.SELLER, 'User must have the SELLER role'); _;}\n\n    /**\n     * @notice Require the address `_address` to be a buyer.\n     * @dev An address is considered a buyer is it is not an admin neither a seller.\n     */\n    modifier isBuyer (address _address) { require (!privilegedUsers[_address], 'User must be a buyer'); _;}\n\n    // Ownership modifiers\n    /**\n     * @notice Require the address `msg.sender` to be the owner of the store whose id is `storeId`\n     */\n    modifier isSellerOwner (bytes32 storeId) { require(empires[msg.sender].stores[storeId].storeId != 0, 'User must be the owner of the store'); _; }\n\n    /**\n     * Require the address `msg.sender` to be the owner of the store whose id is `storeId` and where the item with sku `sku` is been sold\n     */\n    modifier isItemSeller (bytes32 storeId, uint sku) {\n        require (\n            empires[msg.sender].stores[storeId].storeId != 0\n            && empires[msg.sender].stores[storeId].items[sku].sku != 0, 'User must be the owner of store where the item is sold');\n        _;\n    }\n\n    // Circuit breaker\n    /**\n     * Require the contrat not to be in emergency\n     */\n    modifier stopInEmergency { require(!stopped, 'Contract in emergency mode'); _; }\n    /**\n     * @notice Toggle the emergency state of the contract. Only the owner can do this\n     */\n    function toggleContractActive() public onlyOwner {\n        stopped = !stopped;\n    }\n\n    /* Managing permissions */\n\n    /**\n     * @notice Getting the current role of the sender in the contract\n     * @return The enum value of Roles associated with the sender of the message\n     * @dev A no privileged user is considered a buyer. Owner is not a role in the contract\n     */\n    function getRole() public view returns(Roles) {\n        return privilegedUsers[msg.sender] ? roles[msg.sender] : Roles.BUYER;\n    }\n\n    /**\n     * @notice Add the address `newAdmin` in the list of admins\n     * @param newAdmin The address that we want to include as Admin in the contract\n     * @dev Event emitted on success: AdminAdded\n     */\n    function addAdmin(address newAdmin) public stopInEmergency onlyOwner {\n        roles[newAdmin] = Roles.ADMIN;\n        privilegedUsers[newAdmin] = true;\n        emit AdminAdded(newAdmin);\n    }\n\n    /**\n     * @notice Remove the addres `oldAdmin` from the list of valid admins\n     * @param oldAdmin The address that we want to remove from the list of admins\n     * @dev Event emitted: AdminRemoved\n     */\n    function removeAdmin(address oldAdmin) public stopInEmergency onlyOwner {\n        delete roles[oldAdmin];\n        delete privilegedUsers[oldAdmin];\n        emit AdminRemoved(oldAdmin);\n    }\n\n    /**\n     * @notice Add the address `newAddress` to the list of valid sellers\n     * @param newSeller The address that we want to add as seller\n     * @dev Event emitted: SellerAdded\n     */\n    function addSeller(address newSeller) public stopInEmergency isAdmin isBuyer(newSeller) {\n        roles[newSeller] = Roles.SELLER;\n        privilegedUsers[newSeller] = true;\n        sellers.push(newSeller);\n        emit SellerAdded(newSeller);\n    }\n\n    /**\n     * @notice Remove the seller set at index `sellerIndex` as seller in the contract, transforming it into a buyer. The pending funds will be kept.\n     * @dev This operation changes the order in the sellers array. Event emitted: SellerRemoved\n     * @param sellerIndex The index of the seller in the array of sellers, of the seller that we want to remove\n     */\n    function removeSeller(uint sellerIndex) public stopInEmergency isAdmin {\n        // Soft control, we don't require the existance of the seller...\n        require(sellerIndex >= 0 && sellerIndex < sellers.length, 'Seller index is out of bound');\n        address sellerAddress = sellers[sellerIndex];\n\n        // Soft control, we don't require the existance of the seller...\n        if (privilegedUsers[sellerAddress] && roles[sellerAddress] == Roles.SELLER) {\n            // Delete from the maps\n            delete roles[sellerAddress];\n            delete privilegedUsers[sellerAddress];\n\n            // Delete from array\n            // Removing and compacting an item in an array: https://github.com/su-squares/ethereum-contract/blob/master/contracts/SuNFT.sol#L296\n            if (sellers.length > 1 && sellerIndex != sellers.length - 1)        {\n                sellers[sellerIndex] = sellers[sellers.length - 1];\n            }\n            sellers.length--;\n\n            emit SellerRemoved(sellerAddress);\n        }\n    }\n\n    /**\n     * @notice Return the number of sellers in the contract\n     * @dev It's based on the array of sellers, not in the pending funds\n     * @return The number of sellers in the contract\n     */\n    function getNumberOfSellers() public view returns(uint) {\n        return sellers.length;\n    }\n\n    /**\n     * @notice Return the address of seller set in the position `sellerIndex`\n     * @param sellerIndex The index of the seller whose address we want to get\n     * @return The seller address in position sellerIndex\n     */\n    function getSellerAddress(uint sellerIndex) public view returns(address) {\n        require(sellerIndex >= 0 && sellerIndex < sellers.length, 'Out of bound index');\n        return sellers[sellerIndex];\n    }\n\n    /* Managing stores */\n\n    /**\n     * @notice Add a new store associated to the addres `msg.sender`, with name `name`\n     * @dev The storeId is generated internally with keccak256. Event emitted: StoreCreated\n     * @param name The name to set to the created store\n     */\n    function addStore(string memory name) public stopInEmergency isSeller  {\n        require(bytes(name).length > 0, 'The name of the store must not be empty');\n\n        bytes32 storeId = keccak256(abi.encodePacked(msg.sender, name));\n        require(empires[msg.sender].stores[storeId].storeId == 0, 'The seller must not have two stores with the same name');\n\n        Empire storage empire = empires[msg.sender];\n        empire.stores[storeId] = Store({ storeId: storeId, seller: msg.sender, name: name, skus: new uint[](0) });\n        empire.storesIds.push(storeId);\n\n        emit StoreCreated(msg.sender, name, storeId);\n    }\n\n    /**\n     * @notice Remove the store with storeId `storeId`, set in position `storeIndex`.\n     * @dev empire.storesIds[storeIndex] must be equals to storeId. The only reason to accept the two params is efficiency.\n     * @dev Store's items are deleted in a for-loop, so if the number of items is too high this could be an issue. For that reason we limit the number of items in a store to `MAX_ITEMS_PER_STORE`\n     * @param storeId The id of the store to remove\n     * @param storeIndex The index of the store, in the array of stores, that we want to remove\n     */\n    function removeStore(bytes32 storeId, uint storeIndex) public stopInEmergency isSeller isSellerOwner(storeId) {\n        // TODO - Taking into account this: https://solidity.readthedocs.io/en/develop/types.html#delete\n        Empire storage empire = empires[msg.sender];\n        Store storage store = empires[msg.sender].stores[storeId];\n\n        require(empire.storesIds[storeIndex] == storeId, 'The storeId provided is not coherent with the store index passed');\n\n        // Removing items associated with the store - This could generate a gas problem if the number of items is too high\n        for(uint skuIndex = 0; skuIndex < store.skus.length; skuIndex++) {\n            delete store.items[store.skus[skuIndex]];\n        }\n\n        // Removing the store\n        delete empire.stores[storeId];\n\n        // Removing and compacting an item in an array: https://github.com/su-squares/ethereum-contract/blob/master/contracts/SuNFT.sol#L296\n        if (empire.storesIds.length > 1 && storeIndex != empire.storesIds.length - 1)        {\n            empire.storesIds[storeIndex] = empire.storesIds[empire.storesIds.length - 1];\n        }\n        delete empire.storesIds[empire.storesIds.length - 1];\n        empire.storesIds.length--;\n\n        emit StoreRemoved(msg.sender, storeId);\n    }\n\n    /**\n     * @notice Return the number of stores associated with the address `seller`\n     * @param seller The address whose number of stores we want to get\n     * @return The number of stores of the seller passed as parameter\n     */\n    function getNumberOfStores(address seller) public view returns(uint) {\n        Empire storage empire = empires[seller];\n        return empire.storesIds.length;\n    }\n\n    /**\n     * @notice Return the storeId of the store of `seller` set in position `storeIndex`\n     * @param seller The address of the store's owner whose id we want to get\n     * @param storeIndex The index of the store, among the stores of the owner, whose storeId we want to get\n     */\n    function getStoreId(address seller, uint storeIndex) public view returns(bytes32) {\n        return empires[seller].storesIds[storeIndex];\n    }\n\n    /**\n     * @notice Returns the name of the store and the number of items in it\n     * @param seller The address of the store's owner whose metadata we want to get\n     * @param storeId The store id of te store whose metadata we want to get\n     */\n    function getStoreMetadata(address seller, bytes32 storeId) public view returns(string memory, uint) {\n        Store storage store = empires[seller].stores[storeId];\n        return (store.name, store.skus.length);\n    }\n\n    /* Managing items */\n\n    /**\n     * @notice Create and add a new item in the store whose storeId is passed as parameter\n     * @param storeId The store id where we want to add a new item\n     * @param sku The SKU of the item to create. Important: this field is not editable\n     * @param name The name of the item to create\n     * @param price The unitary price of the item to create\n     * @param availableNumItems The number of items available to sell\n     * @dev Event emitted: ItemCreated\n     */\n    function addItem(bytes32 storeId, uint sku, string memory name, uint price, uint availableNumItems)\n        public\n        stopInEmergency\n        isSeller\n        isSellerOwner(storeId) {\n        Store storage store = empires[msg.sender].stores[storeId];\n\n        require(store.skus.length <= MAX_ITEMS_PER_STORE, 'You have reach the max number of items per store');\n\n        // Checking that there aren't any item with the same sku in the store\n        require(store.items[sku].sku == 0, 'SKU must be unique for a store');\n\n        require(price > 0, 'Price must be a positive number');\n        require(availableNumItems >= 0, 'Available items must be a positive number or zero');\n\n        store.items[sku] = Item({ sku: sku, skuIndex: store.skus.length, name: name, price: price, availableNumItems: availableNumItems });\n        store.skus.push(sku);\n\n        emit ItemCreated(msg.sender, store.storeId, sku, name, price, availableNumItems);\n    }\n\n    /**\n     * @notice Update the item in the store with storeId `storeId` and whose sku is `sku`\n     * @param storeId The storeId where the item to update is located\n     * @param sku The sku of the item to update\n     * @param name The new name to set in the item\n     * @param price The new price to set in the item\n     * @param availableNumItems The new available amount to set in the item\n     * @dev Event emitted: ItemEdited\n     */\n    function editItem(bytes32 storeId, uint sku, string memory name, uint price, uint availableNumItems)\n        public\n        stopInEmergency\n        isSeller\n        isItemSeller(storeId, sku) {\n        Store storage store = empires[msg.sender].stores[storeId];\n\n        // TODO Check integer overflows (more in the buy operation)\n        require(price > 0, 'Price must be a positive number');\n        require(availableNumItems >= 0, 'Available items must be a positive number or zero');\n\n        store.items[sku] = Item({ sku: sku, skuIndex: store.items[sku].skuIndex, name: name, price: price, availableNumItems: availableNumItems });\n\n        emit ItemEdited(msg.sender, store.storeId, sku, name, price, availableNumItems);\n    }\n\n    /**\n     * @notice Return the number of items from the seller `seller` in the store `storeId`\n     * @param seller The address of the seller to consider\n     * @param storeId The id of the store to consider\n     * @return The number of items in the store\n     * @dev It will return zero if the seller or the store don't exist\n     */\n    function getNumberOfItems(address seller, bytes32 storeId) public view returns(uint) {\n        Empire storage empire = empires[seller];\n        return empire.stores[storeId].skus.length;\n    }\n\n    /**\n     * @notice Return the SKU of the item set in the position `skuIndex`, in the store with id `storeId` of the seller `seller`\n     * @param seller The seller of the item\n     * @param storeId The id of the store where the item is located\n     * @param skuIndex The position of the item in the array of items associated with the store\n     * @return The SKU of the item\n     * @dev It'll return zero if the item, the store, or the seller don't exist\n     */\n    function getSku(address seller, bytes32 storeId, uint skuIndex) public view returns(uint) {\n        return empires[seller].stores[storeId].skus[skuIndex];\n    }\n\n    /**\n     * @notice Return the metadata associated with the sku `sku`, in the store `storeId`, of the seller `seller`\n     * @param seller The owner of the item whose metadata we want to get\n     * @param storeId The id of the store were the item is located\n     * @param sku The sku of the item whose metadata we want to get\n     * @return The name, price and availableNumItems attributes of the item\n     * @dev The return values will have default values if the item, the store or the seller don't exist\n     */\n    function getItemMetadata(address seller, bytes32 storeId, uint sku)\n        public\n        view\n        returns(string memory, uint, uint) {\n        Item storage item = empires[seller].stores[storeId].items[sku];\n        return (item.name, item.price, item.availableNumItems);\n    }\n\n    /**\n     * @notice Remove the item with sku `sku` from a store with id `storeId`\n     * @param storeId The id of the store where the item to remove is located\n     * @param sku The sku of the item to remove\n     * @dev Event emitted: ItemRemoved\n     */\n    function removeItem(bytes32 storeId, uint sku)\n        public\n        stopInEmergency\n        isSeller\n        isItemSeller(storeId, sku) {\n\n        Store storage store = empires[msg.sender].stores[storeId];\n        uint skuIndex = store.items[sku].skuIndex;\n\n        require(skuIndex < store.skus.length, 'SKU not found in item list');\n\n        // Delete from map\n        delete store.items[sku];\n\n        // Delete from array\n        // Removing and compacting an item in an array: https://github.com/su-squares/ethereum-contract/blob/master/contracts/SuNFT.sol#L296\n        if (store.skus.length > 1 && skuIndex != store.skus.length - 1)        {\n            store.skus[skuIndex] = store.skus[store.skus.length - 1];\n            store.items[store.skus[skuIndex]].skuIndex = skuIndex; // Updating the double link\n        }\n\n        // delete store.skus[store.skus.length - 1];\n        store.skus.length--;\n\n        emit ItemRemoved(msg.sender, storeId, sku);\n    }\n\n    /**\n     * @notice Purchase `numPurchasedItems` items with sku `sku`, in the store with id `storeId`, of the seller `seller`. It expects the exact value.\n     * @param seller The owner of the item to purchase\n     * @param storeId The id of the store where the item is located\n     * @param sku The sku of the item to purchase\n     * @param numPurchasedItems The number of items to purchase. It must be greater than the available number of items\n     * @dev msg.value must be exactly equals to item.price * numPurchasedItems. The funds will be avaiable to the seller (Withdrawal pattern)\n     */\n    function purchaseItem(address seller, bytes32 storeId, uint sku, uint numPurchasedItems)\n        public\n        payable\n        stopInEmergency\n        isBuyer(msg.sender) {\n        Store storage store = empires[seller].stores[storeId];\n\n        // The item must exist\n        require (store.storeId != 0, 'Store must exist');\n        require (store.items[sku].sku != 0, 'Item must be in the store');\n\n        Item storage item = store.items[sku];\n        // There must be enough number of items, and at least 1\n        require (numPurchasedItems > 0 && item.availableNumItems >= numPurchasedItems, 'Invalid number of items to purchase');\n\n        // Sent value must be, exactly, equals to the price * numPurchasedItems\n        require (msg.value == item.price * numPurchasedItems, 'Invalid value in the message');\n\n        // Updating the storage\n        item.availableNumItems -= numPurchasedItems;\n        pendingFunds[seller] = SafeMath.add(pendingFunds[seller], msg.value);\n\n        emit ItemPurchased(seller, store.storeId, item.sku, numPurchasedItems, item.availableNumItems);\n    }\n\n    /**\n     * @notice Withdraw funds from the contract to `msg.sender`, considering the pending funds saved in the contact\n     * @dev Nothing is executed after transfer the value, to avoid reentrancy\n     */\n    function withdraw() public isSeller {\n        uint amount = pendingFunds[msg.sender];\n        pendingFunds[msg.sender] = 0;\n        msg.sender.transfer(amount);\n    }\n\n    /**\n     * @notice Return the value of pending funds associated with `msg.sender`\n     * @dev Only sellers can do this\n     * @return the value, in wei, pending for the sender\n     */\n    function getPendingFunds() public view isSeller returns(uint) {\n        return pendingFunds[msg.sender];\n    }\n}\n",
  "sourcePath": "/home/jlanchas/repositorios/github/chechu/consensys-academy-final-project/contracts/Marketplace.sol",
  "compiler": {
    "name": "solc",
    "version": "0.5.0+commit.1d4f565a.Emscripten.clang"
  },
  "schemaVersion": "3.0.0",
  "updatedAt": "2019-01-26T17:42:13.707Z",
  "devdoc": {
    "author": "Jess Lanchas",
    "details": "All outcome values in transaction methods are included in events",
    "methods": {
      "addAdmin(address)": {
        "details": "Event emitted on success: AdminAdded",
        "params": {
          "newAdmin": "The address that we want to include as Admin in the contract"
        }
      },
      "addItem(bytes32,uint256,string,uint256,uint256)": {
        "details": "Event emitted: ItemCreated",
        "params": {
          "availableNumItems": "The number of items available to sell",
          "name": "The name of the item to create",
          "price": "The unitary price of the item to create",
          "sku": "The SKU of the item to create. Important: this field is not editable",
          "storeId": "The store id where we want to add a new item"
        }
      },
      "addSeller(address)": {
        "details": "Event emitted: SellerAdded",
        "params": {
          "newSeller": "The address that we want to add as seller"
        }
      },
      "addStore(string)": {
        "details": "The storeId is generated internally with keccak256. Event emitted: StoreCreated",
        "params": {
          "name": "The name to set to the created store"
        }
      },
      "editItem(bytes32,uint256,string,uint256,uint256)": {
        "details": "Event emitted: ItemEdited",
        "params": {
          "availableNumItems": "The new available amount to set in the item",
          "name": "The new name to set in the item",
          "price": "The new price to set in the item",
          "sku": "The sku of the item to update",
          "storeId": "The storeId where the item to update is located"
        }
      },
      "getItemMetadata(address,bytes32,uint256)": {
        "details": "The return values will have default values if the item, the store or the seller don't exist",
        "params": {
          "seller": "The owner of the item whose metadata we want to get",
          "sku": "The sku of the item whose metadata we want to get",
          "storeId": "The id of the store were the item is located"
        },
        "return": "The name, price and availableNumItems attributes of the item"
      },
      "getNumberOfItems(address,bytes32)": {
        "details": "It will return zero if the seller or the store don't exist",
        "params": {
          "seller": "The address of the seller to consider",
          "storeId": "The id of the store to consider"
        },
        "return": "The number of items in the store"
      },
      "getNumberOfSellers()": {
        "details": "It's based on the array of sellers, not in the pending funds",
        "return": "The number of sellers in the contract"
      },
      "getNumberOfStores(address)": {
        "params": {
          "seller": "The address whose number of stores we want to get"
        },
        "return": "The number of stores of the seller passed as parameter"
      },
      "getPendingFunds()": {
        "details": "Only sellers can do this",
        "return": "the value, in wei, pending for the sender"
      },
      "getRole()": {
        "details": "A no privileged user is considered a buyer. Owner is not a role in the contract",
        "return": "The enum value of Roles associated with the sender of the message"
      },
      "getSellerAddress(uint256)": {
        "params": {
          "sellerIndex": "The index of the seller whose address we want to get"
        },
        "return": "The seller address in position sellerIndex"
      },
      "getSku(address,bytes32,uint256)": {
        "details": "It'll return zero if the item, the store, or the seller don't exist",
        "params": {
          "seller": "The seller of the item",
          "skuIndex": "The position of the item in the array of items associated with the store",
          "storeId": "The id of the store where the item is located"
        },
        "return": "The SKU of the item"
      },
      "getStoreId(address,uint256)": {
        "params": {
          "seller": "The address of the store's owner whose id we want to get",
          "storeIndex": "The index of the store, among the stores of the owner, whose storeId we want to get"
        }
      },
      "getStoreMetadata(address,bytes32)": {
        "params": {
          "seller": "The address of the store's owner whose metadata we want to get",
          "storeId": "The store id of te store whose metadata we want to get"
        }
      },
      "isOwner()": {
        "return": "true if `msg.sender` is the owner of the contract."
      },
      "owner()": {
        "return": "the address of the owner."
      },
      "purchaseItem(address,bytes32,uint256,uint256)": {
        "details": "msg.value must be exactly equals to item.price * numPurchasedItems. The funds will be avaiable to the seller (Withdrawal pattern)",
        "params": {
          "numPurchasedItems": "The number of items to purchase. It must be greater than the available number of items",
          "seller": "The owner of the item to purchase",
          "sku": "The sku of the item to purchase",
          "storeId": "The id of the store where the item is located"
        }
      },
      "removeAdmin(address)": {
        "details": "Event emitted: AdminRemoved",
        "params": {
          "oldAdmin": "The address that we want to remove from the list of admins"
        }
      },
      "removeItem(bytes32,uint256)": {
        "details": "Event emitted: ItemRemoved",
        "params": {
          "sku": "The sku of the item to remove",
          "storeId": "The id of the store where the item to remove is located"
        }
      },
      "removeSeller(uint256)": {
        "details": "This operation changes the order in the sellers array. Event emitted: SellerRemoved",
        "params": {
          "sellerIndex": "The index of the seller in the array of sellers, of the seller that we want to remove"
        }
      },
      "removeStore(bytes32,uint256)": {
        "details": "empire.storesIds[storeIndex] must be equals to storeId. The only reason to accept the two params is efficiency.Store's items are deleted in a for-loop, so if the number of items is too high this could be an issue. For that reason we limit the number of items in a store to `MAX_ITEMS_PER_STORE`",
        "params": {
          "storeId": "The id of the store to remove",
          "storeIndex": "The index of the store, in the array of stores, that we want to remove"
        }
      },
      "renounceOwnership()": {
        "details": "Allows the current owner to relinquish control of the contract."
      },
      "transferOwnership(address)": {
        "details": "Allows the current owner to transfer control of the contract to a newOwner.",
        "params": {
          "newOwner": "The address to transfer ownership to."
        }
      },
      "withdraw()": {
        "details": "Nothing is executed after transfer the value, to avoid reentrancy"
      }
    },
    "title": "Marketplace contract to sell, buy and withdraw funds"
  },
  "userdoc": {
    "methods": {
      "addAdmin(address)": {
        "notice": "Add the address `newAdmin` in the list of admins"
      },
      "addItem(bytes32,uint256,string,uint256,uint256)": {
        "notice": "Create and add a new item in the store whose storeId is passed as parameter"
      },
      "addSeller(address)": {
        "notice": "Add the address `newAddress` to the list of valid sellers"
      },
      "addStore(string)": {
        "notice": "Add a new store associated to the addres `msg.sender`, with name `name`"
      },
      "editItem(bytes32,uint256,string,uint256,uint256)": {
        "notice": "Update the item in the store with storeId `storeId` and whose sku is `sku`"
      },
      "getItemMetadata(address,bytes32,uint256)": {
        "notice": "Return the metadata associated with the sku `sku`, in the store `storeId`, of the seller `seller`"
      },
      "getNumberOfItems(address,bytes32)": {
        "notice": "Return the number of items from the seller `seller` in the store `storeId`"
      },
      "getNumberOfSellers()": {
        "notice": "Return the number of sellers in the contract"
      },
      "getNumberOfStores(address)": {
        "notice": "Return the number of stores associated with the address `seller`"
      },
      "getPendingFunds()": {
        "notice": "Return the value of pending funds associated with `msg.sender`"
      },
      "getRole()": {
        "notice": "Getting the current role of the sender in the contract"
      },
      "getSellerAddress(uint256)": {
        "notice": "Return the address of seller set in the position `sellerIndex`"
      },
      "getSku(address,bytes32,uint256)": {
        "notice": "Return the SKU of the item set in the position `skuIndex`, in the store with id `storeId` of the seller `seller`"
      },
      "getStoreId(address,uint256)": {
        "notice": "Return the storeId of the store of `seller` set in position `storeIndex`"
      },
      "getStoreMetadata(address,bytes32)": {
        "notice": "Returns the name of the store and the number of items in it"
      },
      "purchaseItem(address,bytes32,uint256,uint256)": {
        "notice": "Purchase `numPurchasedItems` items with sku `sku`, in the store with id `storeId`, of the seller `seller`. It expects the exact value."
      },
      "removeAdmin(address)": {
        "notice": "Remove the addres `oldAdmin` from the list of valid admins"
      },
      "removeItem(bytes32,uint256)": {
        "notice": "Remove the item with sku `sku` from a store with id `storeId`"
      },
      "removeSeller(uint256)": {
        "notice": "Remove the seller set at index `sellerIndex` as seller in the contract, transforming it into a buyer. The pending funds will be kept."
      },
      "removeStore(bytes32,uint256)": {
        "notice": "Remove the store with storeId `storeId`, set in position `storeIndex`."
      },
      "renounceOwnership()": {
        "notice": "Renouncing to ownership will leave the contract without an owner. It will not be possible to call the functions with the `onlyOwner` modifier anymore."
      },
      "toggleContractActive()": {
        "notice": "Toggle the emergency state of the contract. Only the owner can do this"
      },
      "withdraw()": {
        "notice": "Withdraw funds from the contract to `msg.sender`, considering the pending funds saved in the contact"
      }
    },
    "notice": "This contract belongs to a final project in the Developer Program 2018 @ Consensys Academy"
  }
}