{
  "contractName": "Marketplace",
  "abi": [
    {
      "constant": false,
      "inputs": [],
      "name": "renounceOwnership",
      "outputs": [],
      "payable": false,
      "stateMutability": "nonpayable",
      "type": "function"
    },
    {
      "constant": true,
      "inputs": [],
      "name": "stopped",
      "outputs": [
        {
          "name": "",
          "type": "bool"
        }
      ],
      "payable": false,
      "stateMutability": "view",
      "type": "function"
    },
    {
      "constant": true,
      "inputs": [],
      "name": "owner",
      "outputs": [
        {
          "name": "",
          "type": "address"
        }
      ],
      "payable": false,
      "stateMutability": "view",
      "type": "function"
    },
    {
      "constant": true,
      "inputs": [],
      "name": "isOwner",
      "outputs": [
        {
          "name": "",
          "type": "bool"
        }
      ],
      "payable": false,
      "stateMutability": "view",
      "type": "function"
    },
    {
      "constant": false,
      "inputs": [
        {
          "name": "newOwner",
          "type": "address"
        }
      ],
      "name": "transferOwnership",
      "outputs": [],
      "payable": false,
      "stateMutability": "nonpayable",
      "type": "function"
    },
    {
      "anonymous": false,
      "inputs": [
        {
          "indexed": false,
          "name": "newSeller",
          "type": "address"
        }
      ],
      "name": "SellerAdded",
      "type": "event"
    },
    {
      "anonymous": false,
      "inputs": [
        {
          "indexed": false,
          "name": "oldSeller",
          "type": "address"
        }
      ],
      "name": "SellerRemoved",
      "type": "event"
    },
    {
      "anonymous": false,
      "inputs": [
        {
          "indexed": false,
          "name": "newAdmin",
          "type": "address"
        }
      ],
      "name": "AdminAdded",
      "type": "event"
    },
    {
      "anonymous": false,
      "inputs": [
        {
          "indexed": false,
          "name": "oldAdmin",
          "type": "address"
        }
      ],
      "name": "AdminRemoved",
      "type": "event"
    },
    {
      "anonymous": false,
      "inputs": [
        {
          "indexed": false,
          "name": "seller",
          "type": "address"
        },
        {
          "indexed": false,
          "name": "name",
          "type": "string"
        },
        {
          "indexed": false,
          "name": "storeId",
          "type": "bytes32"
        }
      ],
      "name": "StoreCreated",
      "type": "event"
    },
    {
      "anonymous": false,
      "inputs": [
        {
          "indexed": false,
          "name": "seller",
          "type": "address"
        },
        {
          "indexed": false,
          "name": "storeId",
          "type": "bytes32"
        }
      ],
      "name": "StoreRemoved",
      "type": "event"
    },
    {
      "anonymous": false,
      "inputs": [
        {
          "indexed": false,
          "name": "seller",
          "type": "address"
        },
        {
          "indexed": false,
          "name": "storeId",
          "type": "bytes32"
        },
        {
          "indexed": false,
          "name": "sku",
          "type": "uint256"
        },
        {
          "indexed": false,
          "name": "name",
          "type": "string"
        },
        {
          "indexed": false,
          "name": "price",
          "type": "uint256"
        },
        {
          "indexed": false,
          "name": "availableNumItems",
          "type": "uint256"
        }
      ],
      "name": "ItemCreated",
      "type": "event"
    },
    {
      "anonymous": false,
      "inputs": [
        {
          "indexed": false,
          "name": "seller",
          "type": "address"
        },
        {
          "indexed": false,
          "name": "storeId",
          "type": "bytes32"
        },
        {
          "indexed": false,
          "name": "sku",
          "type": "uint256"
        }
      ],
      "name": "ItemRemoved",
      "type": "event"
    },
    {
      "anonymous": false,
      "inputs": [
        {
          "indexed": false,
          "name": "seller",
          "type": "address"
        },
        {
          "indexed": false,
          "name": "storeId",
          "type": "bytes32"
        },
        {
          "indexed": false,
          "name": "sku",
          "type": "uint256"
        },
        {
          "indexed": false,
          "name": "name",
          "type": "string"
        },
        {
          "indexed": false,
          "name": "price",
          "type": "uint256"
        },
        {
          "indexed": false,
          "name": "availableNumItems",
          "type": "uint256"
        }
      ],
      "name": "ItemEdited",
      "type": "event"
    },
    {
      "anonymous": false,
      "inputs": [
        {
          "indexed": false,
          "name": "seller",
          "type": "address"
        },
        {
          "indexed": false,
          "name": "storeId",
          "type": "bytes32"
        },
        {
          "indexed": false,
          "name": "sku",
          "type": "uint256"
        },
        {
          "indexed": false,
          "name": "numPurchasedItems",
          "type": "uint256"
        },
        {
          "indexed": false,
          "name": "newAvailableNumItems",
          "type": "uint256"
        }
      ],
      "name": "ItemPurchased",
      "type": "event"
    },
    {
      "anonymous": false,
      "inputs": [
        {
          "indexed": true,
          "name": "previousOwner",
          "type": "address"
        },
        {
          "indexed": true,
          "name": "newOwner",
          "type": "address"
        }
      ],
      "name": "OwnershipTransferred",
      "type": "event"
    },
    {
      "constant": false,
      "inputs": [],
      "name": "toggleContractActive",
      "outputs": [],
      "payable": false,
      "stateMutability": "nonpayable",
      "type": "function"
    },
    {
      "constant": true,
      "inputs": [],
      "name": "getRole",
      "outputs": [
        {
          "name": "",
          "type": "uint8"
        }
      ],
      "payable": false,
      "stateMutability": "view",
      "type": "function"
    },
    {
      "constant": false,
      "inputs": [
        {
          "name": "newAdmin",
          "type": "address"
        }
      ],
      "name": "addAdmin",
      "outputs": [],
      "payable": false,
      "stateMutability": "nonpayable",
      "type": "function"
    },
    {
      "constant": false,
      "inputs": [
        {
          "name": "oldAdmin",
          "type": "address"
        }
      ],
      "name": "removeAdmin",
      "outputs": [],
      "payable": false,
      "stateMutability": "nonpayable",
      "type": "function"
    },
    {
      "constant": false,
      "inputs": [
        {
          "name": "newSeller",
          "type": "address"
        }
      ],
      "name": "addSeller",
      "outputs": [],
      "payable": false,
      "stateMutability": "nonpayable",
      "type": "function"
    },
    {
      "constant": false,
      "inputs": [
        {
          "name": "sellerIndex",
          "type": "uint256"
        }
      ],
      "name": "removeSeller",
      "outputs": [],
      "payable": false,
      "stateMutability": "nonpayable",
      "type": "function"
    },
    {
      "constant": true,
      "inputs": [],
      "name": "getNumberOfSellers",
      "outputs": [
        {
          "name": "",
          "type": "uint256"
        }
      ],
      "payable": false,
      "stateMutability": "view",
      "type": "function"
    },
    {
      "constant": true,
      "inputs": [
        {
          "name": "sellerIndex",
          "type": "uint256"
        }
      ],
      "name": "getSellerAddress",
      "outputs": [
        {
          "name": "",
          "type": "address"
        }
      ],
      "payable": false,
      "stateMutability": "view",
      "type": "function"
    },
    {
      "constant": false,
      "inputs": [
        {
          "name": "name",
          "type": "string"
        }
      ],
      "name": "addStore",
      "outputs": [],
      "payable": false,
      "stateMutability": "nonpayable",
      "type": "function"
    },
    {
      "constant": false,
      "inputs": [
        {
          "name": "storeId",
          "type": "bytes32"
        },
        {
          "name": "storeIndex",
          "type": "uint256"
        }
      ],
      "name": "removeStore",
      "outputs": [],
      "payable": false,
      "stateMutability": "nonpayable",
      "type": "function"
    },
    {
      "constant": true,
      "inputs": [
        {
          "name": "seller",
          "type": "address"
        }
      ],
      "name": "getNumberOfStores",
      "outputs": [
        {
          "name": "",
          "type": "uint256"
        }
      ],
      "payable": false,
      "stateMutability": "view",
      "type": "function"
    },
    {
      "constant": true,
      "inputs": [
        {
          "name": "seller",
          "type": "address"
        },
        {
          "name": "storeIndex",
          "type": "uint256"
        }
      ],
      "name": "getStoreId",
      "outputs": [
        {
          "name": "",
          "type": "bytes32"
        }
      ],
      "payable": false,
      "stateMutability": "view",
      "type": "function"
    },
    {
      "constant": true,
      "inputs": [
        {
          "name": "seller",
          "type": "address"
        },
        {
          "name": "storeId",
          "type": "bytes32"
        }
      ],
      "name": "getStoreMetadata",
      "outputs": [
        {
          "name": "",
          "type": "string"
        },
        {
          "name": "",
          "type": "uint256"
        }
      ],
      "payable": false,
      "stateMutability": "view",
      "type": "function"
    },
    {
      "constant": false,
      "inputs": [
        {
          "name": "storeId",
          "type": "bytes32"
        },
        {
          "name": "sku",
          "type": "uint256"
        },
        {
          "name": "name",
          "type": "string"
        },
        {
          "name": "price",
          "type": "uint256"
        },
        {
          "name": "availableNumItems",
          "type": "uint256"
        }
      ],
      "name": "addItem",
      "outputs": [],
      "payable": false,
      "stateMutability": "nonpayable",
      "type": "function"
    },
    {
      "constant": false,
      "inputs": [
        {
          "name": "storeId",
          "type": "bytes32"
        },
        {
          "name": "sku",
          "type": "uint256"
        },
        {
          "name": "name",
          "type": "string"
        },
        {
          "name": "price",
          "type": "uint256"
        },
        {
          "name": "availableNumItems",
          "type": "uint256"
        }
      ],
      "name": "editItem",
      "outputs": [],
      "payable": false,
      "stateMutability": "nonpayable",
      "type": "function"
    },
    {
      "constant": true,
      "inputs": [
        {
          "name": "seller",
          "type": "address"
        },
        {
          "name": "storeId",
          "type": "bytes32"
        }
      ],
      "name": "getNumberOfItems",
      "outputs": [
        {
          "name": "",
          "type": "uint256"
        }
      ],
      "payable": false,
      "stateMutability": "view",
      "type": "function"
    },
    {
      "constant": true,
      "inputs": [
        {
          "name": "seller",
          "type": "address"
        },
        {
          "name": "storeId",
          "type": "bytes32"
        },
        {
          "name": "skuIndex",
          "type": "uint256"
        }
      ],
      "name": "getSku",
      "outputs": [
        {
          "name": "",
          "type": "uint256"
        }
      ],
      "payable": false,
      "stateMutability": "view",
      "type": "function"
    },
    {
      "constant": true,
      "inputs": [
        {
          "name": "seller",
          "type": "address"
        },
        {
          "name": "storeId",
          "type": "bytes32"
        },
        {
          "name": "sku",
          "type": "uint256"
        }
      ],
      "name": "getItemMetadata",
      "outputs": [
        {
          "name": "",
          "type": "string"
        },
        {
          "name": "",
          "type": "uint256"
        },
        {
          "name": "",
          "type": "uint256"
        }
      ],
      "payable": false,
      "stateMutability": "view",
      "type": "function"
    },
    {
      "constant": false,
      "inputs": [
        {
          "name": "storeId",
          "type": "bytes32"
        },
        {
          "name": "sku",
          "type": "uint256"
        }
      ],
      "name": "removeItem",
      "outputs": [],
      "payable": false,
      "stateMutability": "nonpayable",
      "type": "function"
    },
    {
      "constant": false,
      "inputs": [
        {
          "name": "seller",
          "type": "address"
        },
        {
          "name": "storeId",
          "type": "bytes32"
        },
        {
          "name": "sku",
          "type": "uint256"
        },
        {
          "name": "numPurchasedItems",
          "type": "uint256"
        }
      ],
      "name": "purchaseItem",
      "outputs": [],
      "payable": true,
      "stateMutability": "payable",
      "type": "function"
    },
    {
      "constant": false,
      "inputs": [],
      "name": "withdraw",
      "outputs": [],
      "payable": false,
      "stateMutability": "nonpayable",
      "type": "function"
    },
    {
      "constant": true,
      "inputs": [],
      "name": "getPendingFunds",
      "outputs": [
        {
          "name": "",
          "type": "uint256"
        }
      ],
      "payable": false,
      "stateMutability": "view",
      "type": "function"
    }
  ],
  "bytecode": "0x608060405260008060146101000a81548160ff021916908315150217905550336000806101000a81548173ffffffffffffffffffffffffffffffffffffffff021916908373ffffffffffffffffffffffffffffffffffffffff1602179055506000809054906101000a900473ffffffffffffffffffffffffffffffffffffffff1673ffffffffffffffffffffffffffffffffffffffff16600073ffffffffffffffffffffffffffffffffffffffff167f8be0079c531659141344cd1fd0a4f28419497f9722a3daafe3b4186f6b6457e060405160405180910390a36145aa806100e96000396000f3fe60806040526004361061015f576000357c0100000000000000000000000000000000000000000000000000000000900463ffffffff1680631385d24c146101645780631785f53c1461017b5780631849e195146101cc57806324c1c0c9146102455780632ac81c77146102705780633bf5d5481461035c5780633ccfd60b146103975780633fbdf937146103ae578063662feffc1461041d57806370480275146104e5578063715018a61461053657806375f12b211461054d5780637624ceef1461057c5780638da5cb5b146105eb5780638f32d59b14610642578063969416f714610671578063a06b78d01461074c578063a0cbd1f6146107b1578063a1eb1bcd146107f6578063a675364d146108e6578063aea58dac14610961578063bb0e4b4d14610a51578063d93fabfa14610a96578063f2fde38b14610ae7578063f4048e5514610b38578063fa7cbc8214610b63578063fde0817414610bc5575b600080fd5b34801561017057600080fd5b50610179610bfe565b005b34801561018757600080fd5b506101ca6004803603602081101561019e57600080fd5b81019080803573ffffffffffffffffffffffffffffffffffffffff169060200190929190505050610c3d565b005b3480156101d857600080fd5b5061022f600480360360608110156101ef57600080fd5b81019080803573ffffffffffffffffffffffffffffffffffffffff1690602001909291908035906020019092919080359060200190929190505050610d6b565b6040518082815260200191505060405180910390f35b34801561025157600080fd5b5061025a610de4565b6040518082815260200191505060405180910390f35b34801561027c57600080fd5b506102d36004803603606081101561029357600080fd5b81019080803573ffffffffffffffffffffffffffffffffffffffff1690602001909291908035906020019092919080359060200190929190505050610f5a565b6040518080602001848152602001838152602001828103825285818151815260200191508051906020019080838360005b8381101561031f578082015181840152602081019050610304565b50505050905090810190601f16801561034c5780820380516001836020036101000a031916815260200191505b5094505050505060405180910390f35b34801561036857600080fd5b506103956004803603602081101561037f57600080fd5b8101908080359060200190929190505050611084565b005b3480156103a357600080fd5b506103ac611529565b005b3480156103ba57600080fd5b50610407600480360360408110156103d157600080fd5b81019080803573ffffffffffffffffffffffffffffffffffffffff1690602001909291908035906020019092919050505061172b565b6040518082815260200191505060405180910390f35b34801561042957600080fd5b506104e36004803603602081101561044057600080fd5b810190808035906020019064010000000081111561045d57600080fd5b82018360208201111561046f57600080fd5b8035906020019184600183028401116401000000008311171561049157600080fd5b91908080601f016020809104026020016040519081016040528093929190818152602001838380828437600081840152601f19601f820116905080830192505050505050509192919290505050611794565b005b3480156104f157600080fd5b506105346004803603602081101561050857600080fd5b81019080803573ffffffffffffffffffffffffffffffffffffffff169060200190929190505050611d84565b005b34801561054257600080fd5b5061054b611ecd565b005b34801561055957600080fd5b50610562611f9f565b604051808215151515815260200191505060405180910390f35b34801561058857600080fd5b506105d56004803603604081101561059f57600080fd5b81019080803573ffffffffffffffffffffffffffffffffffffffff16906020019092919080359060200190929190505050611fb2565b6040518082815260200191505060405180910390f35b3480156105f757600080fd5b50610600612016565b604051808273ffffffffffffffffffffffffffffffffffffffff1673ffffffffffffffffffffffffffffffffffffffff16815260200191505060405180910390f35b34801561064e57600080fd5b5061065761203f565b604051808215151515815260200191505060405180910390f35b34801561067d57600080fd5b506106ca6004803603604081101561069457600080fd5b81019080803573ffffffffffffffffffffffffffffffffffffffff16906020019092919080359060200190929190505050612096565b6040518080602001838152602001828103825284818151815260200191508051906020019080838360005b838110156107105780820151818401526020810190506106f5565b50505050905090810190601f16801561073d5780820380516001836020036101000a031916815260200191505b50935050505060405180910390f35b34801561075857600080fd5b5061079b6004803603602081101561076f57600080fd5b81019080803573ffffffffffffffffffffffffffffffffffffffff1690602001909291905050506121a4565b6040518082815260200191505060405180910390f35b3480156107bd57600080fd5b506107f4600480360360408110156107d457600080fd5b8101908080359060200190929190803590602001909291905050506121f8565b005b34801561080257600080fd5b506108e4600480360360a081101561081957600080fd5b8101908080359060200190929190803590602001909291908035906020019064010000000081111561084a57600080fd5b82018360208201111561085c57600080fd5b8035906020019184600183028401116401000000008311171561087e57600080fd5b91908080601f016020809104026020016040519081016040528093929190818152602001838380828437600081840152601f19601f8201169050808301925050505050505091929192908035906020019092919080359060200190929190505050612720565b005b3480156108f257600080fd5b5061091f6004803603602081101561090957600080fd5b8101908080359060200190929190505050612d14565b604051808273ffffffffffffffffffffffffffffffffffffffff1673ffffffffffffffffffffffffffffffffffffffff16815260200191505060405180910390f35b34801561096d57600080fd5b50610a4f600480360360a081101561098457600080fd5b810190808035906020019092919080359060200190929190803590602001906401000000008111156109b557600080fd5b8201836020820111156109c757600080fd5b803590602001918460018302840111640100000000831117156109e957600080fd5b91908080601f016020809104026020016040519081016040528093929190818152602001838380828437600081840152601f19601f8201169050808301925050505050505091929192908035906020019092919080359060200190929190505050612ddf565b005b348015610a5d57600080fd5b50610a9460048036036040811015610a7457600080fd5b81019080803590602001909291908035906020019092919050505061339f565b005b348015610aa257600080fd5b50610ae560048036036020811015610ab957600080fd5b81019080803573ffffffffffffffffffffffffffffffffffffffff16906020019092919050505061393c565b005b348015610af357600080fd5b50610b3660048036036020811015610b0a57600080fd5b81019080803573ffffffffffffffffffffffffffffffffffffffff169060200190929190505050613cca565b005b348015610b4457600080fd5b50610b4d613ce9565b6040518082815260200191505060405180910390f35b610bc360048036036080811015610b7957600080fd5b81019080803573ffffffffffffffffffffffffffffffffffffffff169060200190929190803590602001909291908035906020019092919080359060200190929190505050613cf6565b005b348015610bd157600080fd5b50610bda6141b2565b60405180826002811115610bea57fe5b60ff16815260200191505060405180910390f35b610c0661203f565b1515610c1157600080fd5b600060149054906101000a900460ff1615600060146101000a81548160ff021916908315150217905550565b600060149054906101000a900460ff161515610d6857610c5b61203f565b1515610c6657600080fd5b600160008273ffffffffffffffffffffffffffffffffffffffff1673ffffffffffffffffffffffffffffffffffffffff16815260200190815260200160002060006101000a81549060ff0219169055600260008273ffffffffffffffffffffffffffffffffffffffff1673ffffffffffffffffffffffffffffffffffffffff16815260200190815260200160002060006101000a81549060ff02191690557fa3b62bc36326052d97ea62d63c3d60308ed4c3ea8ac079dd8499f1e9c4f80c0f81604051808273ffffffffffffffffffffffffffffffffffffffff1673ffffffffffffffffffffffffffffffffffffffff16815260200191505060405180910390a15b50565b6000600360008573ffffffffffffffffffffffffffffffffffffffff1673ffffffffffffffffffffffffffffffffffffffff168152602001908152602001600020600001600084815260200190815260200160002060040182815481101515610dd057fe5b906000526020600020015490509392505050565b6000600260003373ffffffffffffffffffffffffffffffffffffffff1673ffffffffffffffffffffffffffffffffffffffff16815260200190815260200160002060009054906101000a900460ff168015610ea1575060016002811115610e4757fe5b600160003373ffffffffffffffffffffffffffffffffffffffff1673ffffffffffffffffffffffffffffffffffffffff16815260200190815260200160002060009054906101000a900460ff166002811115610e9f57fe5b145b1515610f15576040517f08c379a000000000000000000000000000000000000000000000000000000000815260040180806020018281038252601e8152602001807f55736572206d7573742068617665207468652053454c4c455220726f6c65000081525060200191505060405180910390fd5b600560003373ffffffffffffffffffffffffffffffffffffffff1673ffffffffffffffffffffffffffffffffffffffff16815260200190815260200160002054905090565b60606000806000600360008873ffffffffffffffffffffffffffffffffffffffff1673ffffffffffffffffffffffffffffffffffffffff1681526020019081526020016000206000016000878152602001908152602001600020600301600086815260200190815260200160002090508060020181600301548260040154828054600181600116156101000203166002900480601f01602080910402602001604051908101604052809291908181526020018280546001816001161561010002031660029004801561106d5780601f106110425761010080835404028352916020019161106d565b820191906000526020600020905b81548152906001019060200180831161105057829003601f168201915b505050505092509350935093505093509350939050565b600060149054906101000a900460ff16151561152657600260003373ffffffffffffffffffffffffffffffffffffffff1673ffffffffffffffffffffffffffffffffffffffff16815260200190815260200160002060009054906101000a900460ff1680156111555750600060028111156110fb57fe5b600160003373ffffffffffffffffffffffffffffffffffffffff1673ffffffffffffffffffffffffffffffffffffffff16815260200190815260200160002060009054906101000a900460ff16600281111561115357fe5b145b15156111c9576040517f08c379a000000000000000000000000000000000000000000000000000000000815260040180806020018281038252601d8152602001807f55736572206d7573742068617665207468652041444d494e20726f6c6500000081525060200191505060405180910390fd5b600081101580156111de575060048054905081105b1515611252576040517f08c379a000000000000000000000000000000000000000000000000000000000815260040180806020018281038252601c8152602001807f53656c6c657220696e646578206973206f7574206f6620626f756e640000000081525060200191505060405180910390fd5b600060048281548110151561126357fe5b9060005260206000200160009054906101000a900473ffffffffffffffffffffffffffffffffffffffff169050600260008273ffffffffffffffffffffffffffffffffffffffff1673ffffffffffffffffffffffffffffffffffffffff16815260200190815260200160002060009054906101000a900460ff16801561134b5750600160028111156112f157fe5b600160008373ffffffffffffffffffffffffffffffffffffffff1673ffffffffffffffffffffffffffffffffffffffff16815260200190815260200160002060009054906101000a900460ff16600281111561134957fe5b145b1561152457600160008273ffffffffffffffffffffffffffffffffffffffff1673ffffffffffffffffffffffffffffffffffffffff16815260200190815260200160002060006101000a81549060ff0219169055600260008273ffffffffffffffffffffffffffffffffffffffff1673ffffffffffffffffffffffffffffffffffffffff16815260200190815260200160002060006101000a81549060ff0219169055600160048054905011801561140b57506001600480549050038214155b156114aa57600460016004805490500381548110151561142757fe5b9060005260206000200160009054906101000a900473ffffffffffffffffffffffffffffffffffffffff1660048381548110151561146157fe5b9060005260206000200160006101000a81548173ffffffffffffffffffffffffffffffffffffffff021916908373ffffffffffffffffffffffffffffffffffffffff1602179055505b60048054809190600190036114bf919061437a565b507fa6f3b3030df964d974376ba4db21cbe49207bd79998f0d619c1c3a422259707f81604051808273ffffffffffffffffffffffffffffffffffffffff1673ffffffffffffffffffffffffffffffffffffffff16815260200191505060405180910390a15b505b50565b600260003373ffffffffffffffffffffffffffffffffffffffff1673ffffffffffffffffffffffffffffffffffffffff16815260200190815260200160002060009054906101000a900460ff1680156115e457506001600281111561158a57fe5b600160003373ffffffffffffffffffffffffffffffffffffffff1673ffffffffffffffffffffffffffffffffffffffff16815260200190815260200160002060009054906101000a900460ff1660028111156115e257fe5b145b1515611658576040517f08c379a000000000000000000000000000000000000000000000000000000000815260040180806020018281038252601e8152602001807f55736572206d7573742068617665207468652053454c4c455220726f6c65000081525060200191505060405180910390fd5b6000600560003373ffffffffffffffffffffffffffffffffffffffff1673ffffffffffffffffffffffffffffffffffffffff1681526020019081526020016000205490506000600560003373ffffffffffffffffffffffffffffffffffffffff1673ffffffffffffffffffffffffffffffffffffffff168152602001908152602001600020819055503373ffffffffffffffffffffffffffffffffffffffff166108fc829081150290604051600060405180830381858888f19350505050158015611727573d6000803e3d6000fd5b5050565b600080600360008573ffffffffffffffffffffffffffffffffffffffff1673ffffffffffffffffffffffffffffffffffffffff16815260200190815260200160002090508060000160008481526020019081526020016000206004018054905091505092915050565b600060149054906101000a900460ff161515611d8157600260003373ffffffffffffffffffffffffffffffffffffffff1673ffffffffffffffffffffffffffffffffffffffff16815260200190815260200160002060009054906101000a900460ff16801561186557506001600281111561180b57fe5b600160003373ffffffffffffffffffffffffffffffffffffffff1673ffffffffffffffffffffffffffffffffffffffff16815260200190815260200160002060009054906101000a900460ff16600281111561186357fe5b145b15156118d9576040517f08c379a000000000000000000000000000000000000000000000000000000000815260040180806020018281038252601e8152602001807f55736572206d7573742068617665207468652053454c4c455220726f6c65000081525060200191505060405180910390fd5b60008151111515611978576040517f08c379a00000000000000000000000000000000000000000000000000000000081526004018080602001828103825260278152602001807f546865206e616d65206f66207468652073746f7265206d757374206e6f74206281526020017f6520656d7074790000000000000000000000000000000000000000000000000081525060400191505060405180910390fd5b60003382604051602001808373ffffffffffffffffffffffffffffffffffffffff1673ffffffffffffffffffffffffffffffffffffffff166c0100000000000000000000000002815260140182805190602001908083835b6020831015156119f557805182526020820191506020810190506020830392506119d0565b6001836020036101000a038019825116818451168082178552505050505050905001925050506040516020818303038152906040528051906020012090506000600102600360003373ffffffffffffffffffffffffffffffffffffffff1673ffffffffffffffffffffffffffffffffffffffff168152602001908152602001600020600001600083815260200190815260200160002060000154141515611b2a576040517f08c379a00000000000000000000000000000000000000000000000000000000081526004018080602001828103825260368152602001807f5468652073656c6c6572206d757374206e6f7420686176652074776f2073746f81526020017f7265732077697468207468652073616d65206e616d650000000000000000000081525060400191505060405180910390fd5b6000600360003373ffffffffffffffffffffffffffffffffffffffff1673ffffffffffffffffffffffffffffffffffffffff16815260200190815260200160002090506080604051908101604052808381526020013373ffffffffffffffffffffffffffffffffffffffff1681526020018481526020016000604051908082528060200260200182016040528015611bd15781602001602082028038833980820191505090505b508152508160000160008481526020019081526020016000206000820151816000015560208201518160010160006101000a81548173ffffffffffffffffffffffffffffffffffffffff021916908373ffffffffffffffffffffffffffffffffffffffff1602179055506040820151816002019080519060200190611c579291906143a6565b506060820151816004019080519060200190611c74929190614426565b50905050806001018290806001815401808255809150509060018203906000526020600020016000909192909190915055507fc790edb73a0172213f9c865455acd89732be6e893d2d82aeb7225e335ea7d9d1338484604051808473ffffffffffffffffffffffffffffffffffffffff1673ffffffffffffffffffffffffffffffffffffffff16815260200180602001838152602001828103825284818151815260200191508051906020019080838360005b83811015611d42578082015181840152602081019050611d27565b50505050905090810190601f168015611d6f5780820380516001836020036101000a031916815260200191505b5094505050505060405180910390a150505b50565b600060149054906101000a900460ff161515611eca57611da261203f565b1515611dad57600080fd5b6000600160008373ffffffffffffffffffffffffffffffffffffffff1673ffffffffffffffffffffffffffffffffffffffff16815260200190815260200160002060006101000a81548160ff02191690836002811115611e0957fe5b02179055506001600260008373ffffffffffffffffffffffffffffffffffffffff1673ffffffffffffffffffffffffffffffffffffffff16815260200190815260200160002060006101000a81548160ff0219169083151502179055507f44d6d25963f097ad14f29f06854a01f575648a1ef82f30e562ccd3889717e33981604051808273ffffffffffffffffffffffffffffffffffffffff1673ffffffffffffffffffffffffffffffffffffffff16815260200191505060405180910390a15b50565b611ed561203f565b1515611ee057600080fd5b600073ffffffffffffffffffffffffffffffffffffffff166000809054906101000a900473ffffffffffffffffffffffffffffffffffffffff1673ffffffffffffffffffffffffffffffffffffffff167f8be0079c531659141344cd1fd0a4f28419497f9722a3daafe3b4186f6b6457e060405160405180910390a360008060006101000a81548173ffffffffffffffffffffffffffffffffffffffff021916908373ffffffffffffffffffffffffffffffffffffffff160217905550565b600060149054906101000a900460ff1681565b6000600360008473ffffffffffffffffffffffffffffffffffffffff1673ffffffffffffffffffffffffffffffffffffffff1681526020019081526020016000206001018281548110151561200357fe5b9060005260206000200154905092915050565b60008060009054906101000a900473ffffffffffffffffffffffffffffffffffffffff16905090565b60008060009054906101000a900473ffffffffffffffffffffffffffffffffffffffff1673ffffffffffffffffffffffffffffffffffffffff163373ffffffffffffffffffffffffffffffffffffffff1614905090565b6060600080600360008673ffffffffffffffffffffffffffffffffffffffff1673ffffffffffffffffffffffffffffffffffffffff16815260200190815260200160002060000160008581526020019081526020016000209050806002018160040180549050818054600181600116156101000203166002900480601f0160208091040260200160405190810160405280929190818152602001828054600181600116156101000203166002900480156121915780601f1061216657610100808354040283529160200191612191565b820191906000526020600020905b81548152906001019060200180831161217457829003601f168201915b5050505050915092509250509250929050565b600080600360008473ffffffffffffffffffffffffffffffffffffffff1673ffffffffffffffffffffffffffffffffffffffff16815260200190815260200160002090508060010180549050915050919050565b600060149054906101000a900460ff16151561271c57600260003373ffffffffffffffffffffffffffffffffffffffff1673ffffffffffffffffffffffffffffffffffffffff16815260200190815260200160002060009054906101000a900460ff1680156122c957506001600281111561226f57fe5b600160003373ffffffffffffffffffffffffffffffffffffffff1673ffffffffffffffffffffffffffffffffffffffff16815260200190815260200160002060009054906101000a900460ff1660028111156122c757fe5b145b151561233d576040517f08c379a000000000000000000000000000000000000000000000000000000000815260040180806020018281038252601e8152602001807f55736572206d7573742068617665207468652053454c4c455220726f6c65000081525060200191505060405180910390fd5b81816000600102600360003373ffffffffffffffffffffffffffffffffffffffff1673ffffffffffffffffffffffffffffffffffffffff1681526020019081526020016000206000016000848152602001908152602001600020600001541415801561241457506000600360003373ffffffffffffffffffffffffffffffffffffffff1673ffffffffffffffffffffffffffffffffffffffff168152602001908152602001600020600001600084815260200190815260200160002060030160008381526020019081526020016000206000015414155b15156124ae576040517f08c379a00000000000000000000000000000000000000000000000000000000081526004018080602001828103825260368152602001807f55736572206d75737420626520746865206f776e6572206f662073746f72652081526020017f776865726520746865206974656d20697320736f6c640000000000000000000081525060400191505060405180910390fd5b6000600360003373ffffffffffffffffffffffffffffffffffffffff1673ffffffffffffffffffffffffffffffffffffffff1681526020019081526020016000206000016000868152602001908152602001600020905060008160030160008681526020019081526020016000206001015490508160040180549050811015156125a0576040517f08c379a000000000000000000000000000000000000000000000000000000000815260040180806020018281038252601a8152602001807f534b55206e6f7420666f756e6420696e206974656d206c69737400000000000081525060200191505060405180910390fd5b81600301600086815260200190815260200160002060008082016000905560018201600090556002820160006125d69190614473565b60038201600090556004820160009055505060018260040180549050118015612609575060018260040180549050038114155b1561268c5781600401600183600401805490500381548110151561262957fe5b9060005260206000200154826004018281548110151561264557fe5b906000526020600020018190555080826003016000846004018481548110151561266b57fe5b90600052602060002001548152602001908152602001600020600101819055505b816004018054809190600190036126a391906144bb565b507fd1229990c7f2eb9f62e90ccbcb0a6619b996100e5785d6956e3082cee433591c338787604051808473ffffffffffffffffffffffffffffffffffffffff1673ffffffffffffffffffffffffffffffffffffffff168152602001838152602001828152602001935050505060405180910390a1505050505b5050565b600060149054906101000a900460ff161515612d0d57600260003373ffffffffffffffffffffffffffffffffffffffff1673ffffffffffffffffffffffffffffffffffffffff16815260200190815260200160002060009054906101000a900460ff1680156127f157506001600281111561279757fe5b600160003373ffffffffffffffffffffffffffffffffffffffff1673ffffffffffffffffffffffffffffffffffffffff16815260200190815260200160002060009054906101000a900460ff1660028111156127ef57fe5b145b1515612865576040517f08c379a000000000000000000000000000000000000000000000000000000000815260040180806020018281038252601e8152602001807f55736572206d7573742068617665207468652053454c4c455220726f6c65000081525060200191505060405180910390fd5b846000600102600360003373ffffffffffffffffffffffffffffffffffffffff1673ffffffffffffffffffffffffffffffffffffffff1681526020019081526020016000206000016000838152602001908152602001600020600001541415151561295e576040517f08c379a00000000000000000000000000000000000000000000000000000000081526004018080602001828103825260238152602001807f55736572206d75737420626520746865206f776e6572206f662074686520737481526020017f6f7265000000000000000000000000000000000000000000000000000000000081525060400191505060405180910390fd5b6000600360003373ffffffffffffffffffffffffffffffffffffffff1673ffffffffffffffffffffffffffffffffffffffff16815260200190815260200160002060000160008881526020019081526020016000209050600081600301600088815260200190815260200160002060000154141515612a45576040517f08c379a000000000000000000000000000000000000000000000000000000000815260040180806020018281038252601e8152602001807f534b55206d75737420626520756e6971756520666f7220612073746f7265000081525060200191505060405180910390fd5b600084111515612abd576040517f08c379a000000000000000000000000000000000000000000000000000000000815260040180806020018281038252601f8152602001807f5072696365206d757374206265206120706f736974697665206e756d6265720081525060200191505060405180910390fd5b60008310151515612b5c576040517f08c379a00000000000000000000000000000000000000000000000000000000081526004018080602001828103825260318152602001807f417661696c61626c65206974656d73206d757374206265206120706f7369746981526020017f7665206e756d626572206f72207a65726f00000000000000000000000000000081525060400191505060405180910390fd5b60a060405190810160405280878152602001826004018054905081526020018681526020018581526020018481525081600301600088815260200190815260200160002060008201518160000155602082015181600101556040820151816002019080519060200190612bd09291906143a6565b506060820151816003015560808201518160040155905050806004018690806001815401808255809150509060018203906000526020600020016000909192909190915055507f6bd5d0af08c8ffa4a3d7dd1b59614faa2d9476b13e8ed73adc994061d416e19b33826000015488888888604051808773ffffffffffffffffffffffffffffffffffffffff1673ffffffffffffffffffffffffffffffffffffffff16815260200186815260200185815260200180602001848152602001838152602001828103825285818151815260200191508051906020019080838360005b83811015612ccb578082015181840152602081019050612cb0565b50505050905090810190601f168015612cf85780820380516001836020036101000a031916815260200191505b5097505050505050505060405180910390a150505b5050505050565b6000808210158015612d2a575060048054905082105b1515612d9e576040517f08c379a00000000000000000000000000000000000000000000000000000000081526004018080602001828103825260128152602001807f4f7574206f6620626f756e6420696e646578000000000000000000000000000081525060200191505060405180910390fd5b600482815481101515612dad57fe5b9060005260206000200160009054906101000a900473ffffffffffffffffffffffffffffffffffffffff169050919050565b600060149054906101000a900460ff16151561339857600260003373ffffffffffffffffffffffffffffffffffffffff1673ffffffffffffffffffffffffffffffffffffffff16815260200190815260200160002060009054906101000a900460ff168015612eb0575060016002811115612e5657fe5b600160003373ffffffffffffffffffffffffffffffffffffffff1673ffffffffffffffffffffffffffffffffffffffff16815260200190815260200160002060009054906101000a900460ff166002811115612eae57fe5b145b1515612f24576040517f08c379a000000000000000000000000000000000000000000000000000000000815260040180806020018281038252601e8152602001807f55736572206d7573742068617665207468652053454c4c455220726f6c65000081525060200191505060405180910390fd5b84846000600102600360003373ffffffffffffffffffffffffffffffffffffffff1673ffffffffffffffffffffffffffffffffffffffff16815260200190815260200160002060000160008481526020019081526020016000206000015414158015612ffb57506000600360003373ffffffffffffffffffffffffffffffffffffffff1673ffffffffffffffffffffffffffffffffffffffff168152602001908152602001600020600001600084815260200190815260200160002060030160008381526020019081526020016000206000015414155b1515613095576040517f08c379a00000000000000000000000000000000000000000000000000000000081526004018080602001828103825260368152602001807f55736572206d75737420626520746865206f776e6572206f662073746f72652081526020017f776865726520746865206974656d20697320736f6c640000000000000000000081525060400191505060405180910390fd5b6000600360003373ffffffffffffffffffffffffffffffffffffffff1673ffffffffffffffffffffffffffffffffffffffff16815260200190815260200160002060000160008981526020019081526020016000209050600085111515613164576040517f08c379a000000000000000000000000000000000000000000000000000000000815260040180806020018281038252601f8152602001807f5072696365206d757374206265206120706f736974697665206e756d6265720081525060200191505060405180910390fd5b60008410151515613203576040517f08c379a00000000000000000000000000000000000000000000000000000000081526004018080602001828103825260318152602001807f417661696c61626c65206974656d73206d757374206265206120706f7369746981526020017f7665206e756d626572206f72207a65726f00000000000000000000000000000081525060400191505060405180910390fd5b60a0604051908101604052808881526020018260030160008a815260200190815260200160002060010154815260200187815260200186815260200185815250816003016000898152602001908152602001600020600082015181600001556020820151816001015560408201518160020190805190602001906132889291906143a6565b5060608201518160030155608082015181600401559050507f623980be88682bdeff2038745fc7d32c828fc0497679180b294feb91a04481f533826000015489898989604051808773ffffffffffffffffffffffffffffffffffffffff1673ffffffffffffffffffffffffffffffffffffffff16815260200186815260200185815260200180602001848152602001838152602001828103825285818151815260200191508051906020019080838360005b8381101561335557808201518184015260208101905061333a565b50505050905090810190601f1680156133825780820380516001836020036101000a031916815260200191505b5097505050505050505060405180910390a15050505b5050505050565b600060149054906101000a900460ff16151561393857600260003373ffffffffffffffffffffffffffffffffffffffff1673ffffffffffffffffffffffffffffffffffffffff16815260200190815260200160002060009054906101000a900460ff16801561347057506001600281111561341657fe5b600160003373ffffffffffffffffffffffffffffffffffffffff1673ffffffffffffffffffffffffffffffffffffffff16815260200190815260200160002060009054906101000a900460ff16600281111561346e57fe5b145b15156134e4576040517f08c379a000000000000000000000000000000000000000000000000000000000815260040180806020018281038252601e8152602001807f55736572206d7573742068617665207468652053454c4c455220726f6c65000081525060200191505060405180910390fd5b816000600102600360003373ffffffffffffffffffffffffffffffffffffffff1673ffffffffffffffffffffffffffffffffffffffff168152602001908152602001600020600001600083815260200190815260200160002060000154141515156135dd576040517f08c379a00000000000000000000000000000000000000000000000000000000081526004018080602001828103825260238152602001807f55736572206d75737420626520746865206f776e6572206f662074686520737481526020017f6f7265000000000000000000000000000000000000000000000000000000000081525060400191505060405180910390fd5b6000600360003373ffffffffffffffffffffffffffffffffffffffff1673ffffffffffffffffffffffffffffffffffffffff16815260200190815260200160002090506000600360003373ffffffffffffffffffffffffffffffffffffffff1673ffffffffffffffffffffffffffffffffffffffff1681526020019081526020016000206000016000868152602001908152602001600020905084826001018581548110151561368957fe5b906000526020600020015414151561372f576040517f08c379a00000000000000000000000000000000000000000000000000000000081526004018080602001828103825260408152602001807f5468652073746f726549642070726f7669646564206973206e6f7420636f686581526020017f72656e742077697468207468652073746f726520696e6465782070617373656481525060400191505060405180910390fd5b60008090505b81600401805490508110156137b457816003016000836004018381548110151561375b57fe5b9060005260206000200154815260200190815260200160002060008082016000905560018201600090556002820160006137959190614473565b6003820160009055600482016000905550508080600101915050613735565b508160000160008681526020019081526020016000206000808201600090556001820160006101000a81549073ffffffffffffffffffffffffffffffffffffffff021916905560028201600061380a9190614473565b60048201600061381a91906144e7565b50506001826001018054905011801561383d575060018260010180549050038414155b156138885781600101600183600101805490500381548110151561385d57fe5b9060005260206000200154826001018581548110151561387957fe5b90600052602060002001819055505b8160010160018360010180549050038154811015156138a357fe5b9060005260206000200160009055816001018054809190600190036138c89190614508565b507fa65aaa89a6b8d45604b92a24fb97c91fc3d1504a9a40d61e4121e83dfd2de4c33386604051808373ffffffffffffffffffffffffffffffffffffffff1673ffffffffffffffffffffffffffffffffffffffff1681526020018281526020019250505060405180910390a15050505b5050565b600060149054906101000a900460ff161515613cc757600260003373ffffffffffffffffffffffffffffffffffffffff1673ffffffffffffffffffffffffffffffffffffffff16815260200190815260200160002060009054906101000a900460ff168015613a0d5750600060028111156139b357fe5b600160003373ffffffffffffffffffffffffffffffffffffffff1673ffffffffffffffffffffffffffffffffffffffff16815260200190815260200160002060009054906101000a900460ff166002811115613a0b57fe5b145b1515613a81576040517f08c379a000000000000000000000000000000000000000000000000000000000815260040180806020018281038252601d8152602001807f55736572206d7573742068617665207468652041444d494e20726f6c6500000081525060200191505060405180910390fd5b80600260008273ffffffffffffffffffffffffffffffffffffffff1673ffffffffffffffffffffffffffffffffffffffff16815260200190815260200160002060009054906101000a900460ff16151515613b44576040517f08c379a00000000000000000000000000000000000000000000000000000000081526004018080602001828103825260148152602001807f55736572206d757374206265206120627579657200000000000000000000000081525060200191505060405180910390fd5b60018060008473ffffffffffffffffffffffffffffffffffffffff1673ffffffffffffffffffffffffffffffffffffffff16815260200190815260200160002060006101000a81548160ff02191690836002811115613b9f57fe5b02179055506001600260008473ffffffffffffffffffffffffffffffffffffffff1673ffffffffffffffffffffffffffffffffffffffff16815260200190815260200160002060006101000a81548160ff02191690831515021790555060048290806001815401808255809150509060018203906000526020600020016000909192909190916101000a81548173ffffffffffffffffffffffffffffffffffffffff021916908373ffffffffffffffffffffffffffffffffffffffff160217905550507f3d78526f2568d430fd8e20719601f7bc3f979936f8880236cc284e8127251b4282604051808273ffffffffffffffffffffffffffffffffffffffff1673ffffffffffffffffffffffffffffffffffffffff16815260200191505060405180910390a1505b50565b613cd261203f565b1515613cdd57600080fd5b613ce68161425f565b50565b6000600480549050905090565b600060149054906101000a900460ff1615156141ac5733600260008273ffffffffffffffffffffffffffffffffffffffff1673ffffffffffffffffffffffffffffffffffffffff16815260200190815260200160002060009054906101000a900460ff16151515613dcf576040517f08c379a00000000000000000000000000000000000000000000000000000000081526004018080602001828103825260148152602001807f55736572206d757374206265206120627579657200000000000000000000000081525060200191505060405180910390fd5b6000600360008773ffffffffffffffffffffffffffffffffffffffff1673ffffffffffffffffffffffffffffffffffffffff168152602001908152602001600020600001600086815260200190815260200160002090506000600102816000015414151515613ea6576040517f08c379a00000000000000000000000000000000000000000000000000000000081526004018080602001828103825260108152602001807f53746f7265206d7573742065786973740000000000000000000000000000000081525060200191505060405180910390fd5b60008160030160008681526020019081526020016000206000015414151515613f37576040517f08c379a00000000000000000000000000000000000000000000000000000000081526004018080602001828103825260198152602001807f4974656d206d75737420626520696e207468652073746f72650000000000000081525060200191505060405180910390fd5b60008160030160008681526020019081526020016000209050600084118015613f64575083816004015410155b1515613ffe576040517f08c379a00000000000000000000000000000000000000000000000000000000081526004018080602001828103825260238152602001807f496e76616c6964206e756d626572206f66206974656d7320746f20707572636881526020017f617365000000000000000000000000000000000000000000000000000000000081525060400191505060405180910390fd5b838160030154023414151561407b576040517f08c379a000000000000000000000000000000000000000000000000000000000815260040180806020018281038252601c8152602001807f496e76616c69642076616c756520696e20746865206d6573736167650000000081525060200191505060405180910390fd5b8381600401600082825403925050819055506140d6600560008973ffffffffffffffffffffffffffffffffffffffff1673ffffffffffffffffffffffffffffffffffffffff1681526020019081526020016000205434614359565b600560008973ffffffffffffffffffffffffffffffffffffffff1673ffffffffffffffffffffffffffffffffffffffff168152602001908152602001600020819055507f6794d48cec3e6f99b7331995ce4996b48c0f1469f3792c5337088d02b53d16aa8783600001548360000154878560040154604051808673ffffffffffffffffffffffffffffffffffffffff1673ffffffffffffffffffffffffffffffffffffffff1681526020018581526020018481526020018381526020018281526020019550505050505060405180910390a15050505b50505050565b6000600260003373ffffffffffffffffffffffffffffffffffffffff1673ffffffffffffffffffffffffffffffffffffffff16815260200190815260200160002060009054906101000a900460ff1661420c57600261425a565b600160003373ffffffffffffffffffffffffffffffffffffffff1673ffffffffffffffffffffffffffffffffffffffff16815260200190815260200160002060009054906101000a900460ff165b905090565b600073ffffffffffffffffffffffffffffffffffffffff168173ffffffffffffffffffffffffffffffffffffffff161415151561429b57600080fd5b8073ffffffffffffffffffffffffffffffffffffffff166000809054906101000a900473ffffffffffffffffffffffffffffffffffffffff1673ffffffffffffffffffffffffffffffffffffffff167f8be0079c531659141344cd1fd0a4f28419497f9722a3daafe3b4186f6b6457e060405160405180910390a3806000806101000a81548173ffffffffffffffffffffffffffffffffffffffff021916908373ffffffffffffffffffffffffffffffffffffffff16021790555050565b600080828401905083811015151561437057600080fd5b8091505092915050565b8154818355818111156143a1578183600052602060002091820191016143a09190614534565b5b505050565b828054600181600116156101000203166002900490600052602060002090601f016020900481019282601f106143e757805160ff1916838001178555614415565b82800160010185558215614415579182015b828111156144145782518255916020019190600101906143f9565b5b5090506144229190614534565b5090565b828054828255906000526020600020908101928215614462579160200282015b82811115614461578251825591602001919060010190614446565b5b50905061446f9190614534565b5090565b50805460018160011615610100020316600290046000825580601f1061449957506144b8565b601f0160209004906000526020600020908101906144b79190614534565b5b50565b8154818355818111156144e2578183600052602060002091820191016144e19190614534565b5b505050565b50805460008255906000526020600020908101906145059190614534565b50565b81548183558181111561452f5781836000526020600020918201910161452e9190614559565b5b505050565b61455691905b8082111561455257600081600090555060010161453a565b5090565b90565b61457b91905b8082111561457757600081600090555060010161455f565b5090565b9056fea165627a7a7230582008ca19a5d1b26f3eb23af3ee1b1f5bd5271f3a0fe78dac450a1108f2a801c0bf0029",
  "source": "pragma solidity ^0.5.0;\n\nimport 'openzeppelin-solidity/contracts/ownership/Ownable.sol';\nimport { SafeMath } from 'openzeppelin-solidity/contracts/math/SafeMath.sol';\n\n/**\n * @title Marketplace contract to sell, buy and withdraw funds\n * @author Jess Lanchas\n * @notice This contract belongs to a final project in the Developer Program 2018 @ Consensys Academy\n * @dev All outcome values in transaction methods are included in events\n */\ncontract Marketplace is Ownable {\n\n    enum Roles { ADMIN, SELLER, BUYER }\n\n    // Circuit breaker\n    bool public stopped = false;\n\n    // To know the role of a specific user\n    mapping(address => Roles) roles;\n    mapping(address => bool) privilegedUsers;\n\n    // Stores owned by sellers\n    mapping(address => Empire) empires;\n    address[] sellers;\n\n    // Payments\n    mapping (address => uint) pendingFunds;\n\n    // Structs\n    struct Empire {\n        mapping(bytes32 => Store) stores;\n        bytes32[] storesIds;\n    }\n\n    struct Store {\n        bytes32 storeId;\n        address seller;\n        string name;\n        mapping(uint => Item) items;\n        uint[] skus;\n    }\n\n    struct Item {\n        uint sku;\n        uint skuIndex; // position of this item in the array store.items\n        string name;\n        uint price;\n        uint availableNumItems;\n    }\n\n    // Management events\n    event SellerAdded(address newSeller);\n    event SellerRemoved(address oldSeller);\n    event AdminAdded(address newAdmin);\n    event AdminRemoved(address oldAdmin);\n\n    // Business events\n    event StoreCreated(address seller, string name, bytes32 storeId);\n    event StoreRemoved(address seller, bytes32 storeId);\n    event ItemCreated(address seller, bytes32 storeId, uint sku, string name, uint price, uint availableNumItems);\n    event ItemRemoved(address seller, bytes32 storeId, uint sku);\n    event ItemEdited(address seller, bytes32 storeId, uint sku, string name, uint price, uint availableNumItems);\n    event ItemPurchased(address seller, bytes32 storeId, uint sku, uint numPurchasedItems, uint newAvailableNumItems);\n\n    // Roles modifiers\n    modifier isAdmin () { require (privilegedUsers[msg.sender] && roles[msg.sender] == Roles.ADMIN, 'User must have the ADMIN role'); _;}\n    modifier isSeller () { require (privilegedUsers[msg.sender] && roles[msg.sender] == Roles.SELLER, 'User must have the SELLER role'); _;}\n    modifier isBuyer (address _address) { require (!privilegedUsers[_address], 'User must be a buyer'); _;}\n\n    // Ownership modifiers\n    modifier isSellerOwner (bytes32 storeId) { require(empires[msg.sender].stores[storeId].storeId != 0, 'User must be the owner of the store'); _; }\n    modifier isItemSeller (bytes32 storeId, uint sku) {\n        require (\n            empires[msg.sender].stores[storeId].storeId != 0\n            && empires[msg.sender].stores[storeId].items[sku].sku != 0, 'User must be the owner of store where the item is sold');\n        _;\n    }\n\n    // Circuit breaker\n    modifier stopInEmergency { if (!stopped) _; }\n    /**\n     * @notice Toggle the emergency state of the contract. Only the owner can do this\n     */\n    function toggleContractActive() public onlyOwner {\n        stopped = !stopped;\n    }\n\n    /* Managing permissions */\n\n    /**\n     * @notice Getting the current role of the sender in the contract\n     * @return The enum value of Roles associated with the sender of the message\n     * @dev A no privileged user is considered a buyer. Owner is not a role in the contract\n     */\n    function getRole() public view returns(Roles) {\n        return privilegedUsers[msg.sender] ? roles[msg.sender] : Roles.BUYER;\n    }\n\n    /**\n     * @notice Add the address `newAdmin` in the list of admins\n     * @param newAdmin The address that we want to include as Admin in the contract\n     * @dev Event emitted on success: AdminAdded\n     */\n    function addAdmin(address newAdmin) public stopInEmergency onlyOwner {\n        roles[newAdmin] = Roles.ADMIN;\n        privilegedUsers[newAdmin] = true;\n        emit AdminAdded(newAdmin);\n    }\n\n    /**\n     * @notice Remove the addres `oldAdmin` from the list of valid admins\n     * @param oldAdmin The address that we want to remove from the list of admins\n     * @dev Event emitted: AdminRemoved\n     */\n    function removeAdmin(address oldAdmin) public stopInEmergency onlyOwner {\n        delete roles[oldAdmin];\n        delete privilegedUsers[oldAdmin];\n        emit AdminRemoved(oldAdmin);\n    }\n\n    /**\n     * @notice Add the address `newAddress` to the list of valid sellers\n     * @param newSeller The address that we want to add as seller\n     * @dev Event emitted: SellerAdded\n     */\n    function addSeller(address newSeller) public stopInEmergency isAdmin isBuyer(newSeller) {\n        roles[newSeller] = Roles.SELLER;\n        privilegedUsers[newSeller] = true;\n        sellers.push(newSeller);\n        emit SellerAdded(newSeller);\n    }\n\n    /**\n     * @notice Remove the seller set at index `sellerIndex` as seller in the contract, transforming it into a buyer. The pending funds will be kept.\n     * @dev This operation changes the order in the sellers array. Event emitted: SellerRemoved\n     * @param sellerIndex The index of the seller in the array of sellers, of the seller that we want to remove\n     */\n    function removeSeller(uint sellerIndex) public stopInEmergency isAdmin {\n        // Soft control, we don't require the existance of the seller...\n        require(sellerIndex >= 0 && sellerIndex < sellers.length, 'Seller index is out of bound');\n        address sellerAddress = sellers[sellerIndex];\n\n        // Soft control, we don't require the existance of the seller...\n        if (privilegedUsers[sellerAddress] && roles[sellerAddress] == Roles.SELLER) {\n            // Delete from the maps\n            delete roles[sellerAddress];\n            delete privilegedUsers[sellerAddress];\n\n            // Delete from array\n            // Removing and compacting an item in an array: https://github.com/su-squares/ethereum-contract/blob/master/contracts/SuNFT.sol#L296\n            if (sellers.length > 1 && sellerIndex != sellers.length - 1)        {\n                sellers[sellerIndex] = sellers[sellers.length - 1];\n            }\n            sellers.length--;\n\n            emit SellerRemoved(sellerAddress);\n        }\n    }\n\n    /**\n     * @notice Return the number of sellers in the contract\n     * @dev It's based on the array of sellers, not in the pending funds\n     * @return The number of sellers in the contract\n     */\n    function getNumberOfSellers() public view returns(uint) {\n        return sellers.length;\n    }\n\n    /**\n     * @notice Return the address of seller set in the position `sellerIndex`\n     * @param sellerIndex The index of the seller whose address we want to get\n     * @return The seller address in position sellerIndex\n     */\n    function getSellerAddress(uint sellerIndex) public view returns(address) {\n        require(sellerIndex >= 0 && sellerIndex < sellers.length, 'Out of bound index');\n        return sellers[sellerIndex];\n    }\n\n    /* Managing stores */\n\n    /**\n     * @notice Add a new store associated to the addres `msg.sender`, with name `name`\n     * @dev The storeId is generated internally with keccak256. Event emitted: StoreCreated\n     * @param name The name to set to the created store\n     */\n    function addStore(string memory name) public stopInEmergency isSeller  {\n        require(bytes(name).length > 0, 'The name of the store must not be empty');\n\n        bytes32 storeId = keccak256(abi.encodePacked(msg.sender, name));\n        require(empires[msg.sender].stores[storeId].storeId == 0, 'The seller must not have two stores with the same name');\n\n        Empire storage empire = empires[msg.sender];\n        empire.stores[storeId] = Store({ storeId: storeId, seller: msg.sender, name: name, skus: new uint[](0) });\n        empire.storesIds.push(storeId);\n\n        emit StoreCreated(msg.sender, name, storeId);\n    }\n\n    /**\n     * @notice Remove the store with storeId `storeId`, set in position `storeIndex`.\n     * @dev empire.storesIds[storeIndex] must be equals to storeId. The only reason to accept the two params is efficiency.\n     * @dev Store's items are deleted in a for-loop, so if the number of items is too high this could be an issue.\n     * @param storeId The id of the store to remove\n     * @param storeIndex The index of the store, in the array of stores, that we want to remove\n     */\n    function removeStore(bytes32 storeId, uint storeIndex) public stopInEmergency isSeller isSellerOwner(storeId) {\n        // TODO - Taking into account this: https://solidity.readthedocs.io/en/develop/types.html#delete\n        Empire storage empire = empires[msg.sender];\n        Store storage store = empires[msg.sender].stores[storeId];\n\n        require(empire.storesIds[storeIndex] == storeId, 'The storeId provided is not coherent with the store index passed');\n\n        // Removing items associated with the store - This could generate a gas problem if the number of items is too high\n        for(uint skuIndex = 0; skuIndex < store.skus.length; skuIndex++) {\n            delete store.items[store.skus[skuIndex]];\n        }\n\n        // Removing the store\n        delete empire.stores[storeId];\n\n        // Removing and compacting an item in an array: https://github.com/su-squares/ethereum-contract/blob/master/contracts/SuNFT.sol#L296\n        if (empire.storesIds.length > 1 && storeIndex != empire.storesIds.length - 1)        {\n            empire.storesIds[storeIndex] = empire.storesIds[empire.storesIds.length - 1];\n        }\n        delete empire.storesIds[empire.storesIds.length - 1];\n        empire.storesIds.length--;\n\n        emit StoreRemoved(msg.sender, storeId);\n    }\n\n    /**\n     * @notice Return the number of stores associated with the address `seller`\n     * @param seller The address whose number of stores we want to get\n     * @return The number of stores of the seller passed as parameter\n     */\n    function getNumberOfStores(address seller) public view returns(uint) {\n        Empire storage empire = empires[seller];\n        return empire.storesIds.length;\n    }\n\n    /**\n     * @notice Return the storeId of the store of `seller` set in position `storeIndex`\n     * @param seller The address of the store's owner whose id we want to get\n     * @param storeIndex The index of the store, among the stores of the owner, whose storeId we want to get\n     */\n    function getStoreId(address seller, uint storeIndex) public view returns(bytes32) {\n        return empires[seller].storesIds[storeIndex];\n    }\n\n    /**\n     * @notice Returns the name of the store and the number of items in it\n     * @param seller The address of the store's owner whose metadata we want to get\n     * @param storeId The store id of te store whose metadata we want to get\n     */\n    function getStoreMetadata(address seller, bytes32 storeId) public view returns(string memory, uint) {\n        Store storage store = empires[seller].stores[storeId];\n        return (store.name, store.skus.length);\n    }\n\n    /* Managing items */\n\n    /**\n     * @notice Create and add a new item in the store whose storeId is passed as parameter\n     * @param storeId The store id where we want to add a new item\n     * @param sku The SKU of the item to create. Important: this field is not editable\n     * @param name The name of the item to create\n     * @param price The unitary price of the item to create\n     * @param availableNumItems The number of items available to sell\n     * @dev Event emitted: ItemCreated\n     */\n    function addItem(bytes32 storeId, uint sku, string memory name, uint price, uint availableNumItems)\n        public\n        stopInEmergency\n        isSeller\n        isSellerOwner(storeId) {\n        Store storage store = empires[msg.sender].stores[storeId];\n\n        // Checking that there aren't any item with the same sku in the store\n        require(store.items[sku].sku == 0, 'SKU must be unique for a store');\n\n        require(price > 0, 'Price must be a positive number');\n        require(availableNumItems >= 0, 'Available items must be a positive number or zero');\n\n        store.items[sku] = Item({ sku: sku, skuIndex: store.skus.length, name: name, price: price, availableNumItems: availableNumItems });\n        store.skus.push(sku);\n\n        emit ItemCreated(msg.sender, store.storeId, sku, name, price, availableNumItems);\n    }\n\n    /**\n     * @notice Update the item in the store with storeId `storeId` and whose sku is `sku`\n     * @param storeId The storeId where the item to update is located\n     * @param sku The sku of the item to update\n     * @param name The new name to set in the item\n     * @param price The new price to set in the item\n     * @param availableNumItems The new available amount to set in the item\n     * @dev Event emitted: ItemEdited\n     */\n    function editItem(bytes32 storeId, uint sku, string memory name, uint price, uint availableNumItems)\n        public\n        stopInEmergency\n        isSeller\n        isItemSeller(storeId, sku) {\n        Store storage store = empires[msg.sender].stores[storeId];\n\n        // TODO Check integer overflows (more in the buy operation)\n        require(price > 0, 'Price must be a positive number');\n        require(availableNumItems >= 0, 'Available items must be a positive number or zero');\n\n        store.items[sku] = Item({ sku: sku, skuIndex: store.items[sku].skuIndex, name: name, price: price, availableNumItems: availableNumItems });\n\n        emit ItemEdited(msg.sender, store.storeId, sku, name, price, availableNumItems);\n    }\n\n    /**\n     * @notice Return the number of items from the seller `seller` in the store `storeId`\n     * @param seller The address of the seller to consider\n     * @param storeId The id of the store to consider\n     * @return The number of items in the store\n     * @dev It will return zero if the seller or the store don't exist\n     */\n    function getNumberOfItems(address seller, bytes32 storeId) public view returns(uint) {\n        Empire storage empire = empires[seller];\n        return empire.stores[storeId].skus.length;\n    }\n\n    /**\n     * @notice Return the SKU of the item set in the position `skuIndex`, in the store with id `storeId` of the seller `seller`\n     * @param seller The seller of the item\n     * @param storeId The id of the store where the item is located\n     * @param skuIndex The position of the item in the array of items associated with the store\n     * @return The SKU of the item\n     * @dev It'll return zero if the item, the store, or the seller don't exist\n     */\n    function getSku(address seller, bytes32 storeId, uint skuIndex) public view returns(uint) {\n        return empires[seller].stores[storeId].skus[skuIndex];\n    }\n\n    /**\n     * @notice Return the metadata associated with the sku `sku`, in the store `storeId`, of the seller `seller`\n     * @param seller The owner of the item whose metadata we want to get\n     * @param storeId The id of the store were the item is located\n     * @param sku The sku of the item whose metadata we want to get\n     * @return The name, price and availableNumItems attributes of the item\n     * @dev The return values will have default values if the item, the store or the seller don't exist\n     */\n    function getItemMetadata(address seller, bytes32 storeId, uint sku)\n        public\n        view\n        returns(string memory, uint, uint) {\n        Item storage item = empires[seller].stores[storeId].items[sku];\n        return (item.name, item.price, item.availableNumItems);\n    }\n\n    /**\n     * @notice Remove the item with sku `sku` from a store with id `storeId`\n     * @param storeId The id of the store where the item to remove is located\n     * @param sku The sku of the item to remove\n     * @dev Event emitted: ItemRemoved\n     */\n    function removeItem(bytes32 storeId, uint sku)\n        public\n        stopInEmergency\n        isSeller\n        isItemSeller(storeId, sku) {\n\n        Store storage store = empires[msg.sender].stores[storeId];\n        uint skuIndex = store.items[sku].skuIndex;\n\n        require(skuIndex < store.skus.length, 'SKU not found in item list');\n\n        // Delete from map\n        delete store.items[sku];\n\n        // Delete from array\n        // Removing and compacting an item in an array: https://github.com/su-squares/ethereum-contract/blob/master/contracts/SuNFT.sol#L296\n        if (store.skus.length > 1 && skuIndex != store.skus.length - 1)        {\n            store.skus[skuIndex] = store.skus[store.skus.length - 1];\n            store.items[store.skus[skuIndex]].skuIndex = skuIndex; // Updating the double link\n        }\n\n        // delete store.skus[store.skus.length - 1];\n        store.skus.length--;\n\n        emit ItemRemoved(msg.sender, storeId, sku);\n    }\n\n    /**\n     * @notice Purchase `numPurchasedItems` items with sku `sku`, in the store with id `storeId`, of the seller `seller`. It expects the exact value.\n     * @param seller The owner of the item to purchase\n     * @param storeId The id of the store where the item is located\n     * @param sku The sku of the item to purchase\n     * @param numPurchasedItems The number of items to purchase. It must be greater than the available number of items\n     * @dev msg.value must be exactly equals to item.price * numPurchasedItems. The funds will be avaiable to the seller (Withdrawal pattern)\n     */\n    function purchaseItem(address seller, bytes32 storeId, uint sku, uint numPurchasedItems)\n        public\n        payable\n        stopInEmergency\n        isBuyer(msg.sender) {\n        Store storage store = empires[seller].stores[storeId];\n\n        // The item must exist\n        require (store.storeId != 0, 'Store must exist');\n        require (store.items[sku].sku != 0, 'Item must be in the store');\n\n        Item storage item = store.items[sku];\n        // There must be enough number of items, and at least 1\n        require (numPurchasedItems > 0 && item.availableNumItems >= numPurchasedItems, 'Invalid number of items to purchase');\n\n        // Sent value must be, exactly, equals to the price * numPurchasedItems\n        require (msg.value == item.price * numPurchasedItems, 'Invalid value in the message');\n\n        // Updating the storage\n        item.availableNumItems -= numPurchasedItems;\n        pendingFunds[seller] = SafeMath.add(pendingFunds[seller], msg.value);\n\n        emit ItemPurchased(seller, store.storeId, item.sku, numPurchasedItems, item.availableNumItems);\n    }\n\n    /**\n     * @notice Withdraw funds from the contract to `msg.sender`, considering the pending funds saved in the contact\n     * @dev Nothing is executed after transfer the value, to avoid reentrancy\n     */\n    function withdraw() public isSeller {\n        uint amount = pendingFunds[msg.sender];\n        pendingFunds[msg.sender] = 0;\n        msg.sender.transfer(amount);\n    }\n\n    /**\n     * @notice Return the value of pending funds associated with `msg.sender`\n     * @dev Only sellers can do this\n     * @return the value, in wei, pending for the sender\n     */\n    function getPendingFunds() public view isSeller returns(uint) {\n        return pendingFunds[msg.sender];\n    }\n}\n",
  "sourcePath": "/home/jlanchas/repositorios/github/chechu/consensys-academy-final-project/contracts/Marketplace.sol",
  "compiler": {
    "name": "solc",
    "version": "0.5.0+commit.1d4f565a.Emscripten.clang"
  },
  "schemaVersion": "3.0.0",
  "updatedAt": "2019-01-25T22:07:54.257Z",
  "devdoc": {
    "author": "Jess Lanchas",
    "details": "All outcome values in transaction methods are included in events",
    "methods": {
      "addAdmin(address)": {
        "details": "Event emitted on success: AdminAdded",
        "params": {
          "newAdmin": "The address that we want to include as Admin in the contract"
        }
      },
      "addItem(bytes32,uint256,string,uint256,uint256)": {
        "details": "Event emitted: ItemCreated",
        "params": {
          "availableNumItems": "The number of items available to sell",
          "name": "The name of the item to create",
          "price": "The unitary price of the item to create",
          "sku": "The SKU of the item to create. Important: this field is not editable",
          "storeId": "The store id where we want to add a new item"
        }
      },
      "addSeller(address)": {
        "details": "Event emitted: SellerAdded",
        "params": {
          "newSeller": "The address that we want to add as seller"
        }
      },
      "addStore(string)": {
        "details": "The storeId is generated internally with keccak256. Event emitted: StoreCreated",
        "params": {
          "name": "The name to set to the created store"
        }
      },
      "editItem(bytes32,uint256,string,uint256,uint256)": {
        "details": "Event emitted: ItemEdited",
        "params": {
          "availableNumItems": "The new available amount to set in the item",
          "name": "The new name to set in the item",
          "price": "The new price to set in the item",
          "sku": "The sku of the item to update",
          "storeId": "The storeId where the item to update is located"
        }
      },
      "getItemMetadata(address,bytes32,uint256)": {
        "details": "The return values will have default values if the item, the store or the seller don't exist",
        "params": {
          "seller": "The owner of the item whose metadata we want to get",
          "sku": "The sku of the item whose metadata we want to get",
          "storeId": "The id of the store were the item is located"
        },
        "return": "The name, price and availableNumItems attributes of the item"
      },
      "getNumberOfItems(address,bytes32)": {
        "details": "It will return zero if the seller or the store don't exist",
        "params": {
          "seller": "The address of the seller to consider",
          "storeId": "The id of the store to consider"
        },
        "return": "The number of items in the store"
      },
      "getNumberOfSellers()": {
        "details": "It's based on the array of sellers, not in the pending funds",
        "return": "The number of sellers in the contract"
      },
      "getNumberOfStores(address)": {
        "params": {
          "seller": "The address whose number of stores we want to get"
        },
        "return": "The number of stores of the seller passed as parameter"
      },
      "getPendingFunds()": {
        "details": "Only sellers can do this",
        "return": "the value, in wei, pending for the sender"
      },
      "getRole()": {
        "details": "A no privileged user is considered a buyer. Owner is not a role in the contract",
        "return": "The enum value of Roles associated with the sender of the message"
      },
      "getSellerAddress(uint256)": {
        "params": {
          "sellerIndex": "The index of the seller whose address we want to get"
        },
        "return": "The seller address in position sellerIndex"
      },
      "getSku(address,bytes32,uint256)": {
        "details": "It'll return zero if the item, the store, or the seller don't exist",
        "params": {
          "seller": "The seller of the item",
          "skuIndex": "The position of the item in the array of items associated with the store",
          "storeId": "The id of the store where the item is located"
        },
        "return": "The SKU of the item"
      },
      "getStoreId(address,uint256)": {
        "params": {
          "seller": "The address of the store's owner whose id we want to get",
          "storeIndex": "The index of the store, among the stores of the owner, whose storeId we want to get"
        }
      },
      "getStoreMetadata(address,bytes32)": {
        "params": {
          "seller": "The address of the store's owner whose metadata we want to get",
          "storeId": "The store id of te store whose metadata we want to get"
        }
      },
      "isOwner()": {
        "return": "true if `msg.sender` is the owner of the contract."
      },
      "owner()": {
        "return": "the address of the owner."
      },
      "purchaseItem(address,bytes32,uint256,uint256)": {
        "details": "msg.value must be exactly equals to item.price * numPurchasedItems. The funds will be avaiable to the seller (Withdrawal pattern)",
        "params": {
          "numPurchasedItems": "The number of items to purchase. It must be greater than the available number of items",
          "seller": "The owner of the item to purchase",
          "sku": "The sku of the item to purchase",
          "storeId": "The id of the store where the item is located"
        }
      },
      "removeAdmin(address)": {
        "details": "Event emitted: AdminRemoved",
        "params": {
          "oldAdmin": "The address that we want to remove from the list of admins"
        }
      },
      "removeItem(bytes32,uint256)": {
        "details": "Event emitted: ItemRemoved",
        "params": {
          "sku": "The sku of the item to remove",
          "storeId": "The id of the store where the item to remove is located"
        }
      },
      "removeSeller(uint256)": {
        "details": "This operation changes the order in the sellers array. Event emitted: SellerRemoved",
        "params": {
          "sellerIndex": "The index of the seller in the array of sellers, of the seller that we want to remove"
        }
      },
      "removeStore(bytes32,uint256)": {
        "details": "empire.storesIds[storeIndex] must be equals to storeId. The only reason to accept the two params is efficiency.Store's items are deleted in a for-loop, so if the number of items is too high this could be an issue.",
        "params": {
          "storeId": "The id of the store to remove",
          "storeIndex": "The index of the store, in the array of stores, that we want to remove"
        }
      },
      "renounceOwnership()": {
        "details": "Allows the current owner to relinquish control of the contract."
      },
      "transferOwnership(address)": {
        "details": "Allows the current owner to transfer control of the contract to a newOwner.",
        "params": {
          "newOwner": "The address to transfer ownership to."
        }
      },
      "withdraw()": {
        "details": "Nothing is executed after transfer the value, to avoid reentrancy"
      }
    },
    "title": "Marketplace contract to sell, buy and withdraw funds"
  },
  "userdoc": {
    "methods": {
      "addAdmin(address)": {
        "notice": "Add the address `newAdmin` in the list of admins"
      },
      "addItem(bytes32,uint256,string,uint256,uint256)": {
        "notice": "Create and add a new item in the store whose storeId is passed as parameter"
      },
      "addSeller(address)": {
        "notice": "Add the address `newAddress` to the list of valid sellers"
      },
      "addStore(string)": {
        "notice": "Add a new store associated to the addres `msg.sender`, with name `name`"
      },
      "editItem(bytes32,uint256,string,uint256,uint256)": {
        "notice": "Update the item in the store with storeId `storeId` and whose sku is `sku`"
      },
      "getItemMetadata(address,bytes32,uint256)": {
        "notice": "Return the metadata associated with the sku `sku`, in the store `storeId`, of the seller `seller`"
      },
      "getNumberOfItems(address,bytes32)": {
        "notice": "Return the number of items from the seller `seller` in the store `storeId`"
      },
      "getNumberOfSellers()": {
        "notice": "Return the number of sellers in the contract"
      },
      "getNumberOfStores(address)": {
        "notice": "Return the number of stores associated with the address `seller`"
      },
      "getPendingFunds()": {
        "notice": "Return the value of pending funds associated with `msg.sender`"
      },
      "getRole()": {
        "notice": "Getting the current role of the sender in the contract"
      },
      "getSellerAddress(uint256)": {
        "notice": "Return the address of seller set in the position `sellerIndex`"
      },
      "getSku(address,bytes32,uint256)": {
        "notice": "Return the SKU of the item set in the position `skuIndex`, in the store with id `storeId` of the seller `seller`"
      },
      "getStoreId(address,uint256)": {
        "notice": "Return the storeId of the store of `seller` set in position `storeIndex`"
      },
      "getStoreMetadata(address,bytes32)": {
        "notice": "Returns the name of the store and the number of items in it"
      },
      "purchaseItem(address,bytes32,uint256,uint256)": {
        "notice": "Purchase `numPurchasedItems` items with sku `sku`, in the store with id `storeId`, of the seller `seller`. It expects the exact value."
      },
      "removeAdmin(address)": {
        "notice": "Remove the addres `oldAdmin` from the list of valid admins"
      },
      "removeItem(bytes32,uint256)": {
        "notice": "Remove the item with sku `sku` from a store with id `storeId`"
      },
      "removeSeller(uint256)": {
        "notice": "Remove the seller set at index `sellerIndex` as seller in the contract, transforming it into a buyer. The pending funds will be kept."
      },
      "removeStore(bytes32,uint256)": {
        "notice": "Remove the store with storeId `storeId`, set in position `storeIndex`."
      },
      "renounceOwnership()": {
        "notice": "Renouncing to ownership will leave the contract without an owner. It will not be possible to call the functions with the `onlyOwner` modifier anymore."
      },
      "toggleContractActive()": {
        "notice": "Toggle the emergency state of the contract. Only the owner can do this"
      },
      "withdraw()": {
        "notice": "Withdraw funds from the contract to `msg.sender`, considering the pending funds saved in the contact"
      }
    },
    "notice": "This contract belongs to a final project in the Developer Program 2018 @ Consensys Academy"
  }
}